{
  "address": "0xfd84Ca3c08A808c1a41585e630393D6B5c421336",
  "abi": [
    {
      "inputs": [
        {
          "internalType": "string",
          "name": "name",
          "type": "string"
        },
        {
          "internalType": "string",
          "name": "version",
          "type": "string"
        }
      ],
      "stateMutability": "nonpayable",
      "type": "constructor"
    },
    {
      "anonymous": false,
      "inputs": [
        {
          "indexed": true,
          "internalType": "address",
          "name": "from",
          "type": "address"
        },
        {
          "indexed": true,
          "internalType": "address",
          "name": "to",
          "type": "address"
        },
        {
          "indexed": true,
          "internalType": "bytes",
          "name": "data",
          "type": "bytes"
        }
      ],
      "name": "MetaTransactionExecuted",
      "type": "event"
    },
    {
      "inputs": [],
      "name": "DOMAIN_SEPARATOR",
      "outputs": [
        {
          "internalType": "bytes32",
          "name": "",
          "type": "bytes32"
        }
      ],
      "stateMutability": "view",
      "type": "function"
    },
    {
      "inputs": [],
      "name": "__semver",
      "outputs": [
        {
          "internalType": "string",
          "name": "",
          "type": "string"
        }
      ],
      "stateMutability": "view",
      "type": "function"
    },
    {
      "inputs": [
        {
          "components": [
            {
              "internalType": "address",
              "name": "from",
              "type": "address"
            },
            {
              "internalType": "address",
              "name": "to",
              "type": "address"
            },
            {
              "internalType": "uint256",
              "name": "value",
              "type": "uint256"
            },
            {
              "internalType": "uint256",
              "name": "nonce",
              "type": "uint256"
            },
            {
              "internalType": "bytes",
              "name": "data",
              "type": "bytes"
            }
          ],
          "internalType": "struct CallForwarder.ForwardRequest[]",
          "name": "reqs",
          "type": "tuple[]"
        },
        {
          "internalType": "bytes[]",
          "name": "signatures",
          "type": "bytes[]"
        }
      ],
      "name": "executeBatch",
      "outputs": [
        {
          "internalType": "bytes[]",
          "name": "",
          "type": "bytes[]"
        }
      ],
      "stateMutability": "payable",
      "type": "function"
    },
    {
      "inputs": [
        {
          "components": [
            {
              "internalType": "address",
              "name": "from",
              "type": "address"
            },
            {
              "internalType": "address",
              "name": "to",
              "type": "address"
            },
            {
              "internalType": "uint256",
              "name": "value",
              "type": "uint256"
            },
            {
              "internalType": "uint256",
              "name": "nonce",
              "type": "uint256"
            },
            {
              "internalType": "bytes",
              "name": "data",
              "type": "bytes"
            }
          ],
          "internalType": "struct CallForwarder.ForwardRequest[]",
          "name": "reqs",
          "type": "tuple[]"
        }
      ],
      "name": "executeBatch",
      "outputs": [
        {
          "internalType": "bytes[]",
          "name": "",
          "type": "bytes[]"
        }
      ],
      "stateMutability": "payable",
      "type": "function"
    },
    {
      "inputs": [
        {
          "components": [
            {
              "internalType": "address",
              "name": "from",
              "type": "address"
            },
            {
              "internalType": "address",
              "name": "to",
              "type": "address"
            },
            {
              "internalType": "uint256",
              "name": "value",
              "type": "uint256"
            },
            {
              "internalType": "uint256",
              "name": "nonce",
              "type": "uint256"
            },
            {
              "internalType": "bytes",
              "name": "data",
              "type": "bytes"
            }
          ],
          "internalType": "struct CallForwarder.ForwardRequest",
          "name": "req",
          "type": "tuple"
        }
      ],
      "name": "executeSingle",
      "outputs": [
        {
          "internalType": "bytes",
          "name": "returnData",
          "type": "bytes"
        }
      ],
      "stateMutability": "payable",
      "type": "function"
    },
    {
      "inputs": [
        {
          "components": [
            {
              "internalType": "address",
              "name": "from",
              "type": "address"
            },
            {
              "internalType": "address",
              "name": "to",
              "type": "address"
            },
            {
              "internalType": "uint256",
              "name": "value",
              "type": "uint256"
            },
            {
              "internalType": "uint256",
              "name": "nonce",
              "type": "uint256"
            },
            {
              "internalType": "bytes",
              "name": "data",
              "type": "bytes"
            }
          ],
          "internalType": "struct CallForwarder.ForwardRequest",
          "name": "req",
          "type": "tuple"
        },
        {
          "internalType": "bytes",
          "name": "signature",
          "type": "bytes"
        }
      ],
      "name": "executeSingle",
      "outputs": [
        {
          "internalType": "bytes",
          "name": "returnData",
          "type": "bytes"
        }
      ],
      "stateMutability": "payable",
      "type": "function"
    },
    {
      "inputs": [
        {
          "components": [
            {
              "internalType": "address",
              "name": "from",
              "type": "address"
            },
            {
              "internalType": "address",
              "name": "to",
              "type": "address"
            },
            {
              "internalType": "uint256",
              "name": "value",
              "type": "uint256"
            },
            {
              "internalType": "uint256",
              "name": "nonce",
              "type": "uint256"
            },
            {
              "internalType": "bytes",
              "name": "data",
              "type": "bytes"
            }
          ],
          "internalType": "struct CallForwarder.ForwardRequest",
          "name": "req",
          "type": "tuple"
        }
      ],
      "name": "getMessageHash",
      "outputs": [
        {
          "internalType": "bytes32",
          "name": "",
          "type": "bytes32"
        }
      ],
      "stateMutability": "view",
      "type": "function"
    },
    {
      "inputs": [
        {
          "internalType": "address",
          "name": "from",
          "type": "address"
        }
      ],
      "name": "getNonce",
      "outputs": [
        {
          "internalType": "uint256",
          "name": "",
          "type": "uint256"
        }
      ],
      "stateMutability": "view",
      "type": "function"
    },
    {
      "inputs": [
        {
          "components": [
            {
              "internalType": "address",
              "name": "from",
              "type": "address"
            },
            {
              "internalType": "address",
              "name": "to",
              "type": "address"
            },
            {
              "internalType": "uint256",
              "name": "value",
              "type": "uint256"
            },
            {
              "internalType": "uint256",
              "name": "nonce",
              "type": "uint256"
            },
            {
              "internalType": "bytes",
              "name": "data",
              "type": "bytes"
            }
          ],
          "internalType": "struct CallForwarder.ForwardRequest",
          "name": "req",
          "type": "tuple"
        },
        {
          "internalType": "bytes",
          "name": "signature",
          "type": "bytes"
        }
      ],
      "name": "getSigner",
      "outputs": [
        {
          "internalType": "address",
          "name": "signer",
          "type": "address"
        }
      ],
      "stateMutability": "view",
      "type": "function"
    },
    {
      "inputs": [
        {
          "components": [
            {
              "internalType": "address",
              "name": "from",
              "type": "address"
            },
            {
              "internalType": "address",
              "name": "to",
              "type": "address"
            },
            {
              "internalType": "uint256",
              "name": "value",
              "type": "uint256"
            },
            {
              "internalType": "uint256",
              "name": "nonce",
              "type": "uint256"
            },
            {
              "internalType": "bytes",
              "name": "data",
              "type": "bytes"
            }
          ],
          "internalType": "struct CallForwarder.ForwardRequest",
          "name": "req",
          "type": "tuple"
        },
        {
          "internalType": "bytes",
          "name": "signature",
          "type": "bytes"
        }
      ],
      "name": "verify",
      "outputs": [
        {
          "internalType": "bool",
          "name": "",
          "type": "bool"
        }
      ],
      "stateMutability": "view",
      "type": "function"
    }
  ],
  "transactionHash": "0xb28092090f1dda2e88ce11ff344f9465d03a7d097878e622b7e67b7e25ce7e3f",
  "args": [
    "Superdao",
    "v2.0.22"
  ],
  "numDeployments": 2,
  "solcInputHash": "d18c1f43a480045af9e1d361f9915933",
  "bytecode": "0x6101a06040523480156200001257600080fd5b50604051620017c0380380620017c08339810160408190526200003591620001a9565b815160209283012081519183019190912060e08290526101008190524660a0818152604080517f8b73c3c69bb8fe3d512ecc4cf759cc79239f7b179b0ffacaa9a75d522b39400f818801819052818301969096526060810194909452608080850193909352308483018190528151808603909301835260c0948501909152815191909501209052919091526101205260016101408190526101605260006101805262000213565b634e487b7160e01b600052604160045260246000fd5b600082601f8301126200010457600080fd5b81516001600160401b0380821115620001215762000121620000dc565b604051601f8301601f19908116603f011681019082821181831017156200014c576200014c620000dc565b816040528381526020925086838588010111156200016957600080fd5b600091505b838210156200018d57858201830151818301840152908201906200016e565b838211156200019f5760008385830101525b9695505050505050565b60008060408385031215620001bd57600080fd5b82516001600160401b0380821115620001d557600080fd5b620001e386838701620000f2565b93506020850151915080821115620001fa57600080fd5b506200020985828601620000f2565b9150509250929050565b60805160a05160c05160e051610100516101205161014051610160516101805161153c62000284600039600061063a0152600061060f015260006105e40152600061099f015260006109ee015260006109c9015260006109220152600061094c01526000610976015261153c6000f3fe6080604052600436106100915760003560e01c806362c8aa4b1161005957806362c8aa4b146101685780637effd8a71461017b5780639863009f146101905780639d02dd5f146101b0578063d515e727146101e857600080fd5b806301918170146100965780632d0335ab146100bf5780633644e515146101035780634d5640ac146101185780635b4dbfcc14610138575b600080fd5b6100a96100a43660046110cc565b6101fb565b6040516100b69190611194565b60405180910390f35b3480156100cb57600080fd5b506100f56100da3660046111f6565b6001600160a01b031660009081526020819052604090205490565b6040519081526020016100b6565b34801561010f57600080fd5b506100f56103b7565b61012b610126366004611237565b6103c6565b6040516100b6919061126c565b34801561014457600080fd5b5061015861015336600461127f565b610462565b60405190151581526020016100b6565b61012b61017636600461127f565b6104dd565b34801561018757600080fd5b5061012b6105dd565b34801561019c57600080fd5b506100f56101ab366004611237565b6106bf565b3480156101bc57600080fd5b506101d06101cb36600461127f565b610787565b6040516001600160a01b0390911681526020016100b6565b6100a96101f6366004611316565b6107dc565b60608382146102855760405162461bcd60e51b8152602060048201526044602482018190527f6c656e677468206f6620666f7277617264207265717565737473206d75737420908201527f62652073696d696c61722077697468206c656e677468206f66207369676e61746064820152637572657360e01b608482015260a4015b60405180910390fd5b60008467ffffffffffffffff8111156102a0576102a0611358565b6040519080825280602002602001820160405280156102d357816020015b60608152602001906001900390816102be5790505b50905060005b81518110156103a55761032d8787838181106102f7576102f761136e565b90506020028101906103099190611384565b86868481811061031b5761031b61136e565b905060200281019061015391906113a4565b6103495760405162461bcd60e51b815260040161027c906113eb565b61037587878381811061035e5761035e61136e565b90506020028101906103709190611384565b610889565b8282815181106103875761038761136e565b6020026020010181905250808061039d90611450565b9150506102d9565b506103ae610901565b95945050505050565b60006103c1610915565b905090565b6060336103d660208401846111f6565b6001600160a01b03161461044a5760405162461bcd60e51b815260206004820152603560248201527f41776c466f727761726465723a206d73672e73656e646572206d75737420626560448201527420657175616c732077697468207265712e66726f6d60581b606482015260840161027c565b61045382610889565b905061045d610901565b919050565b600080610470858585610787565b9050606085013560008061048760208901896111f6565b6001600160a01b03166001600160a01b03168152602001908152602001600020541480156104d257506104bd60208601866111f6565b6001600160a01b0316816001600160a01b0316145b9150505b9392505050565b60606104ea848484610462565b6105065760405162461bcd60e51b815260040161027c906113eb565b60008061051660208701876111f6565b6001600160a01b031681526020810191909152604001600090812080549161053d83611450565b919050555061054b84610889565b9050610555610901565b61056260808501856113a4565b60405161057092919061146b565b604051809103902084602001602081019061058b91906111f6565b6001600160a01b03166105a160208701876111f6565b6001600160a01b03167f5845892132946850460bff5a0083f71031bc5bf9aadcd40f1de79423eac9b10b60405160405180910390a49392505050565b606061060a7f0000000000000000000000000000000000000000000000000000000000000000603061147b565b6106357f0000000000000000000000000000000000000000000000000000000000000000603061147b565b6106607f0000000000000000000000000000000000000000000000000000000000000000603061147b565b604051603b60f91b60208201526001600160f81b031960f894851b81166021830152601760f91b6022830181905293851b811660238301526024820193909352921b166025820152602601604051602081830303815290604052905090565b60006107817f37f69988ed101a80359fd1bf023dce4ccbafcaf14b772646dec9ad4f0d6bc1e26106f260208501856111f6565b61070260408601602087016111f6565b6040860135606087013561071960808901896113a4565b60405161072792919061146b565b6040805191829003822060208301979097526001600160a01b0395861690820152939092166060840152608083015260a082015260c081019190915260e00160405160208183030381529060405280519060200120610a3c565b92915050565b60006107d483838080601f0160208091040260200160405190810160405280939291908181526020018383808284376000920191909152506107ce92508891506106bf9050565b90610a8a565b949350505050565b606060008267ffffffffffffffff8111156107f9576107f9611358565b60405190808252806020026020018201604052801561082c57816020015b60608152602001906001900390816108175790505b50905060005b81518110156108805761085085858381811061035e5761035e61136e565b8282815181106108625761086261136e565b6020026020010181905250808061087890611450565b915050610832565b506104d6610901565b606061078161089e60408401602085016111f6565b6108ab60808501856113a4565b6108b860208701876111f6565b6040516020016108ca939291906114a0565b60408051601f198184030181528282018252600d83526c20aaaa2427a924ad20aa24a7a760991b6020840152919086013590610aae565b478015610912576109123382610bdf565b50565b6000306001600160a01b037f00000000000000000000000000000000000000000000000000000000000000001614801561096e57507f000000000000000000000000000000000000000000000000000000000000000046145b1561099857507f000000000000000000000000000000000000000000000000000000000000000090565b50604080517f00000000000000000000000000000000000000000000000000000000000000006020808301919091527f0000000000000000000000000000000000000000000000000000000000000000828401527f000000000000000000000000000000000000000000000000000000000000000060608301524660808301523060a0808401919091528351808403909101815260c0909201909252805191012090565b6000610781610a49610915565b8360405161190160f01b6020820152602281018390526042810182905260009060620160405160208183030381529060405280519060200120905092915050565b6000806000610a998585610cfd565b91509150610aa681610d6d565b509392505050565b606082471015610b0f5760405162461bcd60e51b815260206004820152602660248201527f416464726573733a20696e73756666696369656e742062616c616e636520666f6044820152651c8818d85b1b60d21b606482015260840161027c565b6001600160a01b0385163b610b665760405162461bcd60e51b815260206004820152601d60248201527f416464726573733a2063616c6c20746f206e6f6e2d636f6e7472616374000000604482015260640161027c565b600080866001600160a01b03168587604051610b8291906114c6565b60006040518083038185875af1925050503d8060008114610bbf576040519150601f19603f3d011682016040523d82523d6000602084013e610bc4565b606091505b5091509150610bd4828286610f28565b979650505050505050565b80471015610c2f5760405162461bcd60e51b815260206004820152601d60248201527f416464726573733a20696e73756666696369656e742062616c616e6365000000604482015260640161027c565b6000826001600160a01b03168260405160006040518083038185875af1925050503d8060008114610c7c576040519150601f19603f3d011682016040523d82523d6000602084013e610c81565b606091505b5050905080610cf85760405162461bcd60e51b815260206004820152603a60248201527f416464726573733a20756e61626c6520746f2073656e642076616c75652c207260448201527f6563697069656e74206d61792068617665207265766572746564000000000000606482015260840161027c565b505050565b600080825160411415610d345760208301516040840151606085015160001a610d2887828585610f61565b94509450505050610d66565b825160401415610d5e5760208301516040840151610d5386838361104e565b935093505050610d66565b506000905060025b9250929050565b6000816004811115610d8157610d816114d8565b1415610d8a5750565b6001816004811115610d9e57610d9e6114d8565b1415610dec5760405162461bcd60e51b815260206004820152601860248201527f45434453413a20696e76616c6964207369676e61747572650000000000000000604482015260640161027c565b6002816004811115610e0057610e006114d8565b1415610e4e5760405162461bcd60e51b815260206004820152601f60248201527f45434453413a20696e76616c6964207369676e6174757265206c656e67746800604482015260640161027c565b6003816004811115610e6257610e626114d8565b1415610ebb5760405162461bcd60e51b815260206004820152602260248201527f45434453413a20696e76616c6964207369676e6174757265202773272076616c604482015261756560f01b606482015260840161027c565b6004816004811115610ecf57610ecf6114d8565b14156109125760405162461bcd60e51b815260206004820152602260248201527f45434453413a20696e76616c6964207369676e6174757265202776272076616c604482015261756560f01b606482015260840161027c565b60608315610f375750816104d6565b825115610f475782518084602001fd5b8160405162461bcd60e51b815260040161027c919061126c565b6000807f7fffffffffffffffffffffffffffffff5d576e7357a4501ddfe92f46681b20a0831115610f985750600090506003611045565b8460ff16601b14158015610fb057508460ff16601c14155b15610fc15750600090506004611045565b6040805160008082526020820180845289905260ff881692820192909252606081018690526080810185905260019060a0016020604051602081039080840390855afa158015611015573d6000803e3d6000fd5b5050604051601f1901519150506001600160a01b03811661103e57600060019250925050611045565b9150600090505b94509492505050565b6000806001600160ff1b0383168161106b60ff86901c601b6114ee565b905061107987828885610f61565b935093505050935093915050565b60008083601f84011261109957600080fd5b50813567ffffffffffffffff8111156110b157600080fd5b6020830191508360208260051b8501011115610d6657600080fd5b600080600080604085870312156110e257600080fd5b843567ffffffffffffffff808211156110fa57600080fd5b61110688838901611087565b9096509450602087013591508082111561111f57600080fd5b5061112c87828801611087565b95989497509550505050565b60005b8381101561115357818101518382015260200161113b565b83811115611162576000848401525b50505050565b60008151808452611180816020860160208601611138565b601f01601f19169290920160200192915050565b6000602080830181845280855180835260408601915060408160051b870101925083870160005b828110156111e957603f198886030184526111d7858351611168565b945092850192908501906001016111bb565b5092979650505050505050565b60006020828403121561120857600080fd5b81356001600160a01b03811681146104d657600080fd5b600060a0828403121561123157600080fd5b50919050565b60006020828403121561124957600080fd5b813567ffffffffffffffff81111561126057600080fd5b6107d48482850161121f565b6020815260006104d66020830184611168565b60008060006040848603121561129457600080fd5b833567ffffffffffffffff808211156112ac57600080fd5b6112b88783880161121f565b945060208601359150808211156112ce57600080fd5b818601915086601f8301126112e257600080fd5b8135818111156112f157600080fd5b87602082850101111561130357600080fd5b6020830194508093505050509250925092565b6000806020838503121561132957600080fd5b823567ffffffffffffffff81111561134057600080fd5b61134c85828601611087565b90969095509350505050565b634e487b7160e01b600052604160045260246000fd5b634e487b7160e01b600052603260045260246000fd5b60008235609e1983360301811261139a57600080fd5b9190910192915050565b6000808335601e198436030181126113bb57600080fd5b83018035915067ffffffffffffffff8211156113d657600080fd5b602001915036819003821315610d6657600080fd5b6020808252602f908201527f43616c6c466f727761726465723a207369676e617475726520646f6573206e6f60408201526e1d081b585d18da081c995c5d595cdd608a1b606082015260800190565b634e487b7160e01b600052601160045260246000fd5b60006000198214156114645761146461143a565b5060010190565b8183823760009101908152919050565b600060ff821660ff84168060ff038211156114985761149861143a565b019392505050565b8284823760609190911b6bffffffffffffffffffffffff19169101908152601401919050565b6000825161139a818460208701611138565b634e487b7160e01b600052602160045260246000fd5b600082198211156115015761150161143a565b50019056fea26469706673582212207b801ad00c798b325db8988e8e297c95e75db64abda470600082c57dcf2d099c64736f6c634300080c0033",
  "devdoc": {
    "author": "SuperdaoTeam",
    "details": "Call forwarded performs proxying of requests for OS applications and allows them to be executed in patches. In OS applications, the _msgSender() will be the original address calling the CallForwarder, and not the proxying contract itself.",
    "kind": "dev",
    "methods": {
      "DOMAIN_SEPARATOR()": {
        "details": "Returns the domain separator used in the encoding of the signature for `execute`, as defined by {EIP712}. See https://eips.ethereum.org/EIPS/eip-712"
      },
      "executeBatch((address,address,uint256,uint256,bytes)[],bytes[])": {
        "details": "Also, the executeSingle method can be executed in batches."
      },
      "executeSingle((address,address,uint256,uint256,bytes),bytes)": {
        "details": "Requests are sent using the executeSingle methods, which have an overload. The main difference between function executeSingle(ForwardRequest calldata req, bytes calldata signature) and function executeSingle(ForwardRequest calldata req) is that if a signature was transmitted, the sender address will be formed from the signature, otherwise from msg.sender."
      },
      "getNonce(address)": {
        "details": "Retrieves the on-chain tracked nonce of an EOA making the request."
      }
    },
    "title": "CallForwarder.sol",
    "version": 1
  },
  "userdoc": {
    "kind": "user",
    "methods": {},
    "version": 1
  },
  "storageLayout": {
    "storage": [
      {
        "astId": 7353,
        "contract": "contracts/CallForwarder/CallForwarder.sol:CallForwarder",
        "label": "_nonces",
        "offset": 0,
        "slot": "0",
        "type": "t_mapping(t_address,t_uint256)"
      }
    ],
    "types": {
      "t_address": {
        "encoding": "inplace",
        "label": "address",
        "numberOfBytes": "20"
      },
      "t_mapping(t_address,t_uint256)": {
        "encoding": "mapping",
        "key": "t_address",
        "label": "mapping(address => uint256)",
        "numberOfBytes": "32",
        "value": "t_uint256"
      },
      "t_uint256": {
        "encoding": "inplace",
        "label": "uint256",
        "numberOfBytes": "32"
      }
    }
  }
}