{
  "address": "0xC627E239293f0727EB3f6e48150407cCF3033E44",
  "abi": [
    {
      "anonymous": false,
      "inputs": [
        {
          "indexed": false,
          "internalType": "contract Kernel",
          "name": "kernel",
          "type": "address"
        },
        {
          "indexed": false,
          "internalType": "enum Models.AdditionalModules[]",
          "name": "modules",
          "type": "uint8[]"
        },
        {
          "components": [
            {
              "components": [
                {
                  "internalType": "address[]",
                  "name": "admins",
                  "type": "address[]"
                },
                {
                  "internalType": "address",
                  "name": "releaseManager",
                  "type": "address"
                },
                {
                  "internalType": "address",
                  "name": "creator",
                  "type": "address"
                }
              ],
              "internalType": "struct Models.AdminSettings",
              "name": "adminSettings",
              "type": "tuple"
            },
            {
              "components": [
                {
                  "internalType": "address",
                  "name": "openseaOwner",
                  "type": "address"
                },
                {
                  "internalType": "string",
                  "name": "url",
                  "type": "string"
                },
                {
                  "internalType": "string",
                  "name": "name",
                  "type": "string"
                },
                {
                  "internalType": "string",
                  "name": "symbol",
                  "type": "string"
                },
                {
                  "components": [
                    {
                      "internalType": "bytes32",
                      "name": "tierId",
                      "type": "bytes32"
                    },
                    {
                      "internalType": "string",
                      "name": "attrName",
                      "type": "string"
                    },
                    {
                      "internalType": "bytes32",
                      "name": "value",
                      "type": "bytes32"
                    }
                  ],
                  "internalType": "struct Models.Attribute[]",
                  "name": "attributes",
                  "type": "tuple[]"
                }
              ],
              "internalType": "struct Models.NFTSettings",
              "name": "nftSettings",
              "type": "tuple"
            },
            {
              "components": [
                {
                  "internalType": "bytes32[]",
                  "name": "tiersValues",
                  "type": "bytes32[]"
                },
                {
                  "internalType": "uint256[]",
                  "name": "tiersPrices",
                  "type": "uint256[]"
                },
                {
                  "internalType": "uint64",
                  "name": "claimLimit",
                  "type": "uint64"
                },
                {
                  "internalType": "address",
                  "name": "tokenSaleAddress",
                  "type": "address"
                }
              ],
              "internalType": "struct Models.SaleSettings",
              "name": "openSaleSettings",
              "type": "tuple"
            },
            {
              "components": [
                {
                  "internalType": "bytes32[]",
                  "name": "tiersValues",
                  "type": "bytes32[]"
                },
                {
                  "internalType": "uint256[]",
                  "name": "tiersPrices",
                  "type": "uint256[]"
                },
                {
                  "internalType": "uint64",
                  "name": "claimLimit",
                  "type": "uint64"
                },
                {
                  "internalType": "address",
                  "name": "tokenSaleAddress",
                  "type": "address"
                }
              ],
              "internalType": "struct Models.SaleSettings",
              "name": "whiteListSaleSettings",
              "type": "tuple"
            }
          ],
          "indexed": false,
          "internalType": "struct Models.DeploymentSettings",
          "name": "deploymentSettings",
          "type": "tuple"
        }
      ],
      "name": "Deployed",
      "type": "event"
    },
    {
      "anonymous": false,
      "inputs": [
        {
          "indexed": false,
          "internalType": "uint8",
          "name": "version",
          "type": "uint8"
        }
      ],
      "name": "Initialized",
      "type": "event"
    },
    {
      "anonymous": false,
      "inputs": [
        {
          "indexed": true,
          "internalType": "address",
          "name": "previousOwner",
          "type": "address"
        },
        {
          "indexed": true,
          "internalType": "address",
          "name": "newOwner",
          "type": "address"
        }
      ],
      "name": "OwnershipTransferred",
      "type": "event"
    },
    {
      "anonymous": false,
      "inputs": [
        {
          "indexed": false,
          "internalType": "address",
          "name": "code",
          "type": "address"
        }
      ],
      "name": "Upgrade",
      "type": "event"
    },
    {
      "inputs": [],
      "name": "__semver",
      "outputs": [
        {
          "internalType": "string",
          "name": "",
          "type": "string"
        }
      ],
      "stateMutability": "view",
      "type": "function"
    },
    {
      "inputs": [
        {
          "internalType": "enum Models.AdditionalModules[]",
          "name": "modules",
          "type": "uint8[]"
        },
        {
          "components": [
            {
              "components": [
                {
                  "internalType": "address[]",
                  "name": "admins",
                  "type": "address[]"
                },
                {
                  "internalType": "address",
                  "name": "releaseManager",
                  "type": "address"
                },
                {
                  "internalType": "address",
                  "name": "creator",
                  "type": "address"
                }
              ],
              "internalType": "struct Models.AdminSettings",
              "name": "adminSettings",
              "type": "tuple"
            },
            {
              "components": [
                {
                  "internalType": "address",
                  "name": "openseaOwner",
                  "type": "address"
                },
                {
                  "internalType": "string",
                  "name": "url",
                  "type": "string"
                },
                {
                  "internalType": "string",
                  "name": "name",
                  "type": "string"
                },
                {
                  "internalType": "string",
                  "name": "symbol",
                  "type": "string"
                },
                {
                  "components": [
                    {
                      "internalType": "bytes32",
                      "name": "tierId",
                      "type": "bytes32"
                    },
                    {
                      "internalType": "string",
                      "name": "attrName",
                      "type": "string"
                    },
                    {
                      "internalType": "bytes32",
                      "name": "value",
                      "type": "bytes32"
                    }
                  ],
                  "internalType": "struct Models.Attribute[]",
                  "name": "attributes",
                  "type": "tuple[]"
                }
              ],
              "internalType": "struct Models.NFTSettings",
              "name": "nftSettings",
              "type": "tuple"
            },
            {
              "components": [
                {
                  "internalType": "bytes32[]",
                  "name": "tiersValues",
                  "type": "bytes32[]"
                },
                {
                  "internalType": "uint256[]",
                  "name": "tiersPrices",
                  "type": "uint256[]"
                },
                {
                  "internalType": "uint64",
                  "name": "claimLimit",
                  "type": "uint64"
                },
                {
                  "internalType": "address",
                  "name": "tokenSaleAddress",
                  "type": "address"
                }
              ],
              "internalType": "struct Models.SaleSettings",
              "name": "openSaleSettings",
              "type": "tuple"
            },
            {
              "components": [
                {
                  "internalType": "bytes32[]",
                  "name": "tiersValues",
                  "type": "bytes32[]"
                },
                {
                  "internalType": "uint256[]",
                  "name": "tiersPrices",
                  "type": "uint256[]"
                },
                {
                  "internalType": "uint64",
                  "name": "claimLimit",
                  "type": "uint64"
                },
                {
                  "internalType": "address",
                  "name": "tokenSaleAddress",
                  "type": "address"
                }
              ],
              "internalType": "struct Models.SaleSettings",
              "name": "whiteListSaleSettings",
              "type": "tuple"
            }
          ],
          "internalType": "struct Models.DeploymentSettings",
          "name": "deploymentSettings",
          "type": "tuple"
        },
        {
          "internalType": "address",
          "name": "treasury",
          "type": "address"
        }
      ],
      "name": "deploy",
      "outputs": [],
      "stateMutability": "nonpayable",
      "type": "function"
    },
    {
      "inputs": [],
      "name": "implementation",
      "outputs": [
        {
          "internalType": "address",
          "name": "",
          "type": "address"
        }
      ],
      "stateMutability": "view",
      "type": "function"
    },
    {
      "inputs": [
        {
          "internalType": "contract IUpdateManager",
          "name": "updateManager_",
          "type": "address"
        }
      ],
      "name": "initialize",
      "outputs": [],
      "stateMutability": "nonpayable",
      "type": "function"
    },
    {
      "inputs": [],
      "name": "owner",
      "outputs": [
        {
          "internalType": "address",
          "name": "",
          "type": "address"
        }
      ],
      "stateMutability": "view",
      "type": "function"
    },
    {
      "inputs": [],
      "name": "renounceOwnership",
      "outputs": [],
      "stateMutability": "nonpayable",
      "type": "function"
    },
    {
      "inputs": [],
      "name": "safeFactory",
      "outputs": [
        {
          "internalType": "contract ISafeFactory",
          "name": "",
          "type": "address"
        }
      ],
      "stateMutability": "view",
      "type": "function"
    },
    {
      "inputs": [],
      "name": "safeSingleton",
      "outputs": [
        {
          "internalType": "contract ISafe",
          "name": "",
          "type": "address"
        }
      ],
      "stateMutability": "view",
      "type": "function"
    },
    {
      "inputs": [
        {
          "internalType": "contract IUpdateManager",
          "name": "updateManager_",
          "type": "address"
        }
      ],
      "name": "setUpdateManager",
      "outputs": [],
      "stateMutability": "nonpayable",
      "type": "function"
    },
    {
      "inputs": [
        {
          "internalType": "address",
          "name": "newOwner",
          "type": "address"
        }
      ],
      "name": "transferOwnership",
      "outputs": [],
      "stateMutability": "nonpayable",
      "type": "function"
    },
    {
      "inputs": [],
      "name": "updateManager",
      "outputs": [
        {
          "internalType": "contract IUpdateManager",
          "name": "",
          "type": "address"
        }
      ],
      "stateMutability": "view",
      "type": "function"
    },
    {
      "inputs": [
        {
          "internalType": "address",
          "name": "appCode",
          "type": "address"
        }
      ],
      "name": "upgrade",
      "outputs": [],
      "stateMutability": "nonpayable",
      "type": "function"
    }
  ],
  "transactionHash": "0x48a6bcecde95a823400f71cbeefc2d903e55d26bb422d30a4046aa898cb3d0fa",
  "args": [],
  "numDeployments": 3,
  "solcInputHash": "d18c1f43a480045af9e1d361f9915933",
  "bytecode": "0x60e060405234801561001057600080fd5b506001608052600460a052600060c05260805160a05160c051613bfa61004f60003960006107f0015260006107c3015260006107960152613bfa6000f3fe60806040523480156200001157600080fd5b5060043610620000c35760003560e01c80637effd8a7116200007a5780637effd8a714620001515780638da5cb5b146200016a578063ac7d146b146200017c578063c372ca151462000190578063c4d66de814620001a7578063f2fde38b14620001be57600080fd5b80630900f01014620000c8578063131e7e1c14620000e157806323410a3c14620001125780635c60da1b1462000126578063715018a61462000130578063778da05a146200013a575b600080fd5b620000df620000d936600462002608565b620001d5565b005b60ca54620000f5906001600160a01b031681565b6040516001600160a01b0390911681526020015b60405180910390f35b60c954620000f5906001600160a01b031681565b620000f562000268565b620000df62000283565b620000df6200014b36600462002648565b620002be565b6200015b6200078e565b60405162000109919062002749565b6097546001600160a01b0316620000f5565b60cb54620000f5906001600160a01b031681565b620000df620001a136600462002608565b62000876565b620000df620001b836600462002608565b620008c5565b620000df620001cf36600462002608565b6200095c565b6097546001600160a01b031633146200020b5760405162461bcd60e51b815260040162000202906200275e565b60405180910390fd5b8062000216620009fe565b80546001600160a01b0319166001600160a01b0392831617905560405190821681527ff78721226efe9a1bb678189a16d1554928b9f2192e2cb93eeda83b79fa40007d9060200160405180910390a150565b600062000274620009fe565b546001600160a01b0316919050565b6097546001600160a01b03163314620002b05760405162461bcd60e51b815260040162000202906200275e565b620002bc600062000a39565b565b60c9546040516512d15493915360d21b60208201526000916001600160a01b031690634828da8590602601604051602081830303815290604052805190602001206040518263ffffffff1660e01b81526004016200031e91815260200190565b602060405180830381865afa1580156200033c573d6000803e3d6000fd5b505050506040513d601f19601f8201168201806040525081019062000362919062002793565b90506060600082826040516200037890620025d7565b62000385929190620027b3565b604051809103906000f080158015620003a2573d6000803e3d6000fd5b5090506001600160a01b03811663485cc95530620003c18880620027d9565b620003d490604081019060200162002608565b6040516001600160e01b031960e085901b1681526001600160a01b03928316600482015291166024820152604401600060405180830381600087803b1580156200041d57600080fd5b505af115801562000432573d6000803e3d6000fd5b506200045092508391506200044a90508780620027d9565b62000a8b565b5060006200046d82620004676020890189620027fa565b62000f30565b905060005b878110156200053c57600089898381811062000492576200049262002811565b9050602002016020810190620004a9919062002837565b90506000816001811115620004c257620004c262002855565b1415620004eb57620004e48484620004de60408c018c6200286b565b620015b4565b5062000526565b600181600181111562000502576200050262002855565b141562000526576200052484846200051e60608c018c6200286b565b62001d61565b505b5080620005338162002898565b91505062000472565b506001600160a01b0385166200062d57604080516001808252818301909252600091602080830190803683370190505090506200057a8780620027d9565b6200058d90606081019060400162002608565b81600081518110620005a357620005a362002811565b6001600160a01b039283166020918202929092010152604051634443253760e01b815290841690634443253790620005e3908490600190600401620028cc565b6020604051808303816000875af115801562000603573d6000803e3d6000fd5b505050506040513d601f19601f8201168201806040525081019062000629919062002793565b9550505b604051630787a21360e51b81526001600160a01b03868116600483015283169063f0f4426090602401600060405180830381600087803b1580156200067157600080fd5b505af115801562000686573d6000803e3d6000fd5b50505050816001600160a01b0316637d2a1932604051602001620006b490635355444f60e01b815260040190565b60405160208183030381529060405280519060200120620006dd6097546001600160a01b031690565b6040516001600160e01b031960e085901b16815260048101929092526001600160a01b0316602482015260006044820152606401600060405180830381600087803b1580156200072c57600080fd5b505af115801562000741573d6000803e3d6000fd5b505050507f9715ea567da375110eb52bee2597934cd8275667d080827d3aceaee272422e7f828989896040516200077c949392919062002c79565b60405180910390a15050505050505050565b6060620007bd7f0000000000000000000000000000000000000000000000000000000000000000603062002de4565b620007ea7f0000000000000000000000000000000000000000000000000000000000000000603062002de4565b620008177f0000000000000000000000000000000000000000000000000000000000000000603062002de4565b604051603b60f91b60208201526001600160f81b031960f894851b81166021830152601760f91b6022830181905293851b811660238301526024820193909352921b166025820152602601604051602081830303815290604052905090565b6097546001600160a01b03163314620008a35760405162461bcd60e51b815260040162000202906200275e565b60c980546001600160a01b0319166001600160a01b0392909216919091179055565b6000620008d36001620024dd565b90508015620008ec576064805461ff0019166101001790555b620008f662002574565b60c980546001600160a01b0319166001600160a01b038416179055801562000958576064805461ff0019169055604051600181527f7f26b83ff96e1f2b6a682f133852f6798a09c465da95921460cefb38474024989060200160405180910390a15b5050565b6097546001600160a01b03163314620009895760405162461bcd60e51b815260040162000202906200275e565b6001600160a01b038116620009f05760405162461bcd60e51b815260206004820152602660248201527f4f776e61626c653a206e6577206f776e657220697320746865207a65726f206160448201526564647265737360d01b606482015260840162000202565b620009fb8162000a39565b50565b600062000a3462000a3160017f797d7c7d0df25d67e029b044c5bcb2b89d68f6483382b5f85e64485950ed88d162002e0c565b90565b905090565b609780546001600160a01b038381166001600160a01b0319831681179093556040519116919082907f8be0079c531659141344cd1fd0a4f28419497f9722a3daafe3b4186f6b6457e090600090a35050565b600080836001600160a01b03166357ec326d60405160200162000aae9062002e26565b60408051601f1981840301815291905280516020909101208662000ad3878062002e37565b62000ae560608a0160408b0162002608565b60405160240162000afa949392919062002e83565b60408051601f198184030181529181526020820180516001600160e01b0316636e2db45360e11b179052516001600160e01b031960e085901b16815262000b4692919060040162002ebc565b6020604051808303816000875af115801562000b66573d6000803e3d6000fd5b505050506040513d601f19601f8201168201806040525081019062000b8c919062002793565b9050836001600160a01b03166399c8240f60405160200162000bb890635355444f60e01b815260040190565b6040516020818303038152906040528051906020012060405160200162000bdf9062002e26565b60405160208183030381529060405280519060200120846001600160a01b031663f7de6b966040518163ffffffff1660e01b8152600401602060405180830381865afa15801562000c34573d6000803e3d6000fd5b505050506040513d601f19601f8201168201806040525081019062000c5a919062002ed7565b6040516001600160e01b031960e086901b1681526004810193909352602483019190915260ff166044820152606401600060405180830381600087803b15801562000ca457600080fd5b505af115801562000cb9573d6000803e3d6000fd5b50505050836001600160a01b03166399c8240f60405160200162000cf2906e2922a622a0a9a2afa6a0a720a3a2a960891b8152600f0190565b6040516020818303038152906040528051906020012060405160200162000d199062002e26565b60405160208183030381529060405280519060200120846001600160a01b031663f7de6b966040518163ffffffff1660e01b8152600401602060405180830381865afa15801562000d6e573d6000803e3d6000fd5b505050506040513d601f19601f8201168201806040525081019062000d94919062002ed7565b6040516001600160e01b031960e086901b1681526004810193909352602483019190915260ff166044820152606401600060405180830381600087803b15801562000dde57600080fd5b505af115801562000df3573d6000803e3d6000fd5b50505050836001600160a01b03166399c8240f60405160200162000e179062002e26565b6040516020818303038152906040528051906020012060405160200162000e4a906512d15493915360d21b815260060190565b60405160208183030381529060405280519060200120846001600160a01b031663f7de6b966040518163ffffffff1660e01b8152600401602060405180830381865afa15801562000e9f573d6000803e3d6000fd5b505050506040513d601f19601f8201168201806040525081019062000ec5919062002ed7565b6040516001600160e01b031960e086901b1681526004810193909352602483019190915260ff166044820152606401600060405180830381600087803b15801562000f0f57600080fd5b505af115801562000f24573d6000803e3d6000fd5b50929695505050505050565b600080836001600160a01b03166357ec326d60405160200162000f539062002efc565b6040516020818303038152906040528051906020012060006001600160a01b0316635c7a3ef76040518060a001604052808a6001600160a01b0316815260200189600001602081019062000fa8919062002608565b6001600160a01b0316815260200189806020019062000fc8919062002f0e565b8080601f0160208091040260200160405190810160405280939291908181526020018383808284376000920191909152505050908252506020016200101160408b018b62002f0e565b8080601f0160208091040260200160405190810160405280939291908181526020018383808284376000920191909152505050908252506020016200105a60608b018b62002f0e565b8080601f0160208091040260200160405190810160405280939291908181526020018383808284376000920191909152505050915250604051620010a2919060240162002f57565b60408051808303601f1901815291815260208201805160e094851b6001600160e01b03909116179052519185901b6001600160e01b0319168252620010ed9392509060040162002ebc565b6020604051808303816000875af11580156200110d573d6000803e3d6000fd5b505050506040513d601f19601f8201168201806040525081019062001133919062002793565b9050836001600160a01b03166399c8240f6040516020016200115f90635355444f60e01b815260040190565b60405160208183030381529060405280519060200120604051602001620011869062002efc565b60405160208183030381529060405280519060200120846001600160a01b031663ee0fc1216040518163ffffffff1660e01b8152600401602060405180830381865afa158015620011db573d6000803e3d6000fd5b505050506040513d601f19601f8201168201806040525081019062001201919062002ed7565b6040516001600160e01b031960e086901b1681526004810193909352602483019190915260ff166044820152606401600060405180830381600087803b1580156200124b57600080fd5b505af115801562001260573d6000803e3d6000fd5b50505050836001600160a01b03166399c8240f604051602001620012849062002e26565b60405160208183030381529060405280519060200120604051602001620012ab9062002efc565b60405160208183030381529060405280519060200120846001600160a01b031663ee0fc1216040518163ffffffff1660e01b8152600401602060405180830381865afa15801562001300573d6000803e3d6000fd5b505050506040513d601f19601f8201168201806040525081019062001326919062002ed7565b6040516001600160e01b031960e086901b1681526004810193909352602483019190915260ff166044820152606401600060405180830381600087803b1580156200137057600080fd5b505af115801562001385573d6000803e3d6000fd5b50505050836001600160a01b03166399c8240f604051602001620013be906e2922a622a0a9a2afa6a0a720a3a2a960891b8152600f0190565b60405160208183030381529060405280519060200120604051602001620013e59062002efc565b60405160208183030381529060405280519060200120846001600160a01b031663ee0fc1216040518163ffffffff1660e01b8152600401602060405180830381865afa1580156200143a573d6000803e3d6000fd5b505050506040513d601f19601f8201168201806040525081019062001460919062002ed7565b6040516001600160e01b031960e086901b1681526004810193909352602483019190915260ff166044820152606401600060405180830381600087803b158015620014aa57600080fd5b505af1158015620014bf573d6000803e3d6000fd5b5050505060005b620014d5608085018562002e37565b9050811015620015ac576000620014f0608086018662002e37565b8381811062001503576200150362002811565b9050602002810190620015179190620027d9565b62001522906200303c565b805160208201516040808401519051630b5361e960e31b81529394506001600160a01b03871693635a9b0f4893620015619390929091600401620030f6565b600060405180830381600087803b1580156200157c57600080fd5b505af115801562001591573d6000803e3d6000fd5b50505050508080620015a39062002898565b915050620014c6565b509392505050565b600080846001600160a01b03166357ec326d604051602001620015ed906f4552433732315f4f50454e5f53414c4560801b815260100190565b60408051601f198184030181529082905280516020909101206001600160a01b03891660248301529060440160408051601f198184030181529181526020820180516001600160e01b031663189acdbd60e31b179052516001600160e01b031960e085901b1681526200166592919060040162002ebc565b6020604051808303816000875af115801562001685573d6000803e3d6000fd5b505050506040513d601f19601f82011682018060405250810190620016ab919062002793565b9050846001600160a01b03166399c8240f604051602001620016d790635355444f60e01b815260040190565b6040516020818303038152906040528051906020012060405160200162001714906f4552433732315f4f50454e5f53414c4560801b815260100190565b60405160208183030381529060405280519060200120846001600160a01b031663ee0fc1216040518163ffffffff1660e01b8152600401602060405180830381865afa15801562001769573d6000803e3d6000fd5b505050506040513d601f19601f820116820180604052508101906200178f919062002ed7565b6040516001600160e01b031960e086901b1681526004810193909352602483019190915260ff166044820152606401600060405180830381600087803b158015620017d957600080fd5b505af1158015620017ee573d6000803e3d6000fd5b50505050846001600160a01b03166399c8240f60405160200162001827906e2922a622a0a9a2afa6a0a720a3a2a960891b8152600f0190565b6040516020818303038152906040528051906020012060405160200162001864906f4552433732315f4f50454e5f53414c4560801b815260100190565b60405160208183030381529060405280519060200120846001600160a01b031663ee0fc1216040518163ffffffff1660e01b8152600401602060405180830381865afa158015620018b9573d6000803e3d6000fd5b505050506040513d601f19601f82011682018060405250810190620018df919062002ed7565b6040516001600160e01b031960e086901b1681526004810193909352602483019190915260ff166044820152606401600060405180830381600087803b1580156200192957600080fd5b505af11580156200193e573d6000803e3d6000fd5b50505050846001600160a01b03166399c8240f604051602001620019629062002e26565b604051602081830303815290604052805190602001206040516020016200199f906f4552433732315f4f50454e5f53414c4560801b815260100190565b60405160208183030381529060405280519060200120846001600160a01b031663ee0fc1216040518163ffffffff1660e01b8152600401602060405180830381865afa158015620019f4573d6000803e3d6000fd5b505050506040513d601f19601f8201168201806040525081019062001a1a919062002ed7565b6040516001600160e01b031960e086901b1681526004810193909352602483019190915260ff166044820152606401600060405180830381600087803b15801562001a6457600080fd5b505af115801562001a79573d6000803e3d6000fd5b50505050846001600160a01b03166399c8240f60405160200162001ab3906f4552433732315f4f50454e5f53414c4560801b815260100190565b6040516020818303038152906040528051906020012060405160200162001ada9062002efc565b60405160208183030381529060405280519060200120876001600160a01b031663ee0fc1216040518163ffffffff1660e01b8152600401602060405180830381865afa15801562001b2f573d6000803e3d6000fd5b505050506040513d601f19601f8201168201806040525081019062001b55919062002ed7565b6040516001600160e01b031960e086901b1681526004810193909352602483019190915260ff166044820152606401600060405180830381600087803b15801562001b9f57600080fd5b505af115801562001bb4573d6000803e3d6000fd5b506000925062001bce91505060608501604086016200313c565b6001600160401b0316111562001c5b576001600160a01b038116636cd5872d62001bff60608601604087016200313c565b6040516001600160e01b031960e084901b1681526001600160401b039091166004820152602401600060405180830381600087803b15801562001c4157600080fd5b505af115801562001c56573d6000803e3d6000fd5b505050505b6001600160a01b03811663c0c6d00e62001c76858062002e37565b62001c85602088018862002e37565b6040518563ffffffff1660e01b815260040162001ca694939291906200315a565b600060405180830381600087803b15801562001cc157600080fd5b505af115801562001cd6573d6000803e3d6000fd5b5050506001600160a01b0382169050635afe520762001cfc608086016060870162002608565b6040516001600160e01b031960e084901b1681526001600160a01b0390911660048201526024015b600060405180830381600087803b15801562001d3f57600080fd5b505af115801562001d54573d6000803e3d6000fd5b5092979650505050505050565b600080846001600160a01b03166357ec326d60405160200162001d9f90744552433732315f57484954454c4953545f53414c4560581b815260150190565b60408051601f198184030181529082905280516020909101206001600160a01b0389166024830152600060448301529060640160408051601f198184030181529181526020820180516001600160e01b0316631798de8160e01b179052516001600160e01b031960e085901b16815262001e1e92919060040162002ebc565b6020604051808303816000875af115801562001e3e573d6000803e3d6000fd5b505050506040513d601f19601f8201168201806040525081019062001e64919062002793565b9050846001600160a01b03166399c8240f60405160200162001e9090635355444f60e01b815260040190565b6040516020818303038152906040528051906020012060405160200162001ed290744552433732315f57484954454c4953545f53414c4560581b815260150190565b60405160208183030381529060405280519060200120846001600160a01b031663ee0fc1216040518163ffffffff1660e01b8152600401602060405180830381865afa15801562001f27573d6000803e3d6000fd5b505050506040513d601f19601f8201168201806040525081019062001f4d919062002ed7565b6040516001600160e01b031960e086901b1681526004810193909352602483019190915260ff166044820152606401600060405180830381600087803b15801562001f9757600080fd5b505af115801562001fac573d6000803e3d6000fd5b50505050846001600160a01b03166399c8240f60405160200162001fd09062002e26565b604051602081830303815290604052805190602001206040516020016200201290744552433732315f57484954454c4953545f53414c4560581b815260150190565b60405160208183030381529060405280519060200120846001600160a01b031663ee0fc1216040518163ffffffff1660e01b8152600401602060405180830381865afa15801562002067573d6000803e3d6000fd5b505050506040513d601f19601f820116820180604052508101906200208d919062002ed7565b6040516001600160e01b031960e086901b1681526004810193909352602483019190915260ff166044820152606401600060405180830381600087803b158015620020d757600080fd5b505af1158015620020ec573d6000803e3d6000fd5b50505050846001600160a01b03166399c8240f60405160200162002125906e2922a622a0a9a2afa6a0a720a3a2a960891b8152600f0190565b604051602081830303815290604052805190602001206040516020016200216790744552433732315f57484954454c4953545f53414c4560581b815260150190565b60405160208183030381529060405280519060200120846001600160a01b031663ee0fc1216040518163ffffffff1660e01b8152600401602060405180830381865afa158015620021bc573d6000803e3d6000fd5b505050506040513d601f19601f82011682018060405250810190620021e2919062002ed7565b6040516001600160e01b031960e086901b1681526004810193909352602483019190915260ff166044820152606401600060405180830381600087803b1580156200222c57600080fd5b505af115801562002241573d6000803e3d6000fd5b50505050846001600160a01b03166399c8240f6040516020016200228090744552433732315f57484954454c4953545f53414c4560581b815260150190565b60405160208183030381529060405280519060200120604051602001620022a79062002efc565b60405160208183030381529060405280519060200120876001600160a01b031663ee0fc1216040518163ffffffff1660e01b8152600401602060405180830381865afa158015620022fc573d6000803e3d6000fd5b505050506040513d601f19601f8201168201806040525081019062002322919062002ed7565b6040516001600160e01b031960e086901b1681526004810193909352602483019190915260ff166044820152606401600060405180830381600087803b1580156200236c57600080fd5b505af115801562002381573d6000803e3d6000fd5b5050506001600160a01b038216905063c0c6d00e620023a1858062002e37565b620023b0602088018862002e37565b6040518563ffffffff1660e01b8152600401620023d194939291906200315a565b600060405180830381600087803b158015620023ec57600080fd5b505af115801562002401573d6000803e3d6000fd5b505060405163567619c560e11b8152600160048201526001600160a01b038416925063acec338a9150602401600060405180830381600087803b1580156200244857600080fd5b505af11580156200245d573d6000803e3d6000fd5b50600092506200247791505060608501604086016200313c565b6001600160401b03161115620024d5576001600160a01b038116636cd5872d620024a860608601604087016200313c565b6040516001600160e01b031960e084901b1681526001600160401b03909116600482015260240162001d24565b949350505050565b606454600090610100900460ff16156200252b578160ff166001148015620025045750303b155b620025235760405162461bcd60e51b8152600401620002029062003190565b506000919050565b60645460ff808416911610620025555760405162461bcd60e51b8152600401620002029062003190565b506064805460ff191660ff92909216919091179055600190565b919050565b606454610100900460ff166200259e5760405162461bcd60e51b81526004016200020290620031de565b620002bc606454610100900460ff16620025cc5760405162461bcd60e51b81526004016200020290620031de565b620002bc3362000a39565b61099b806200322a83390190565b6001600160a01b0381168114620009fb57600080fd5b80356200256f81620025e5565b6000602082840312156200261b57600080fd5b81356200262881620025e5565b9392505050565b6000608082840312156200264257600080fd5b50919050565b600080600080606085870312156200265f57600080fd5b84356001600160401b03808211156200267757600080fd5b818701915087601f8301126200268c57600080fd5b8135818111156200269c57600080fd5b8860208260051b8501011115620026b257600080fd5b602092830196509450908601359080821115620026ce57600080fd5b50620026dd878288016200262f565b925050620026ee60408601620025fb565b905092959194509250565b6000815180845260005b81811015620027215760208185018101518683018201520162002703565b8181111562002734576000602083870101525b50601f01601f19169290920160200192915050565b602081526000620026286020830184620026f9565b6020808252818101527f4f776e61626c653a2063616c6c6572206973206e6f7420746865206f776e6572604082015260600190565b600060208284031215620027a657600080fd5b81516200262881620025e5565b6001600160a01b0383168152604060208201819052600090620024d590830184620026f9565b60008235605e19833603018112620027f057600080fd5b9190910192915050565b60008235609e19833603018112620027f057600080fd5b634e487b7160e01b600052603260045260246000fd5b8035600281106200256f57600080fd5b6000602082840312156200284a57600080fd5b620026288262002827565b634e487b7160e01b600052602160045260246000fd5b60008235607e19833603018112620027f057600080fd5b634e487b7160e01b600052601160045260246000fd5b6000600019821415620028af57620028af62002882565b5060010190565b634e487b7160e01b600052604160045260246000fd5b604080825283519082018190526000906020906060840190828701845b82811015620029105781516001600160a01b031684529284019290840190600101620028e9565b50505092019290925292915050565b60008235605e198336030181126200293657600080fd5b90910192915050565b6000808335601e198436030181126200295757600080fd5b83016020810192503590506001600160401b038111156200297757600080fd5b8060051b36038313156200298a57600080fd5b9250929050565b8183526000602080850194508260005b85811015620029d3578135620029b781620025e5565b6001600160a01b031687529582019590820190600101620029a1565b509495945050505050565b6000808335601e19843603018112620029f657600080fd5b83016020810192503590506001600160401b0381111562002a1657600080fd5b8036038313156200298a57600080fd5b81835281816020850137506000828201602090810191909152601f909101601f19169091010190565b6000813562002a5e81620025e5565b6001600160a01b03168352602062002a7983820184620029de565b60a08387015262002a8f60a08701828462002a26565b915050604062002aa281860186620029de565b8784038389015262002ab684828462002a26565b93505050606062002aca81870187620029de565b888503838a015262002ade85828462002a26565b9450505062002af160808701876200293f565b88850360808a0152808552858501600582901b860187018360005b8481101562002b6f57888303601f1901845262002b2a82876200291f565b8035845262002b3c8b820182620029de565b898d87015262002b508a8701828462002a26565b928b0135958b019590955250938a019392509089019060010162002b0c565b50909b9a5050505050505050505050565b60008235607e198336030181126200293657600080fd5b81835260006001600160fb1b0383111562002bb157600080fd5b8260051b8083602087013760009401602001938452509192915050565b80356001600160401b03811681146200256f57600080fd5b600062002bf482836200293f565b6080855262002c0860808601828462002b97565b91505062002c1a60208401846200293f565b858303602087015262002c2f83828462002b97565b925050506001600160401b0362002c496040850162002bce565b166040850152606083013562002c5f81620025e5565b6001600160a01b0316606094909401939093525090919050565b6001600160a01b03858116825260606020808401829052908301859052600091869160808501845b8881101562002ce75762002cb58562002827565b6002811062002cd457634e487b7160e01b600052602160045260246000fd5b8252938201939082019060010162002ca1565b50858103604087015262002cfc87886200291f565b93506080815262002d0e84856200293f565b6060608084015262002d2560e08401828462002991565b9150508285013562002d3781620025e5565b841660a0830152604094909401359362002d5185620025e5565b93831660c0820152868201359336889003609e1901851262002d7257600080fd5b8181038383015262002d878189870162002a4f565b94505062002d99604088018862002b80565b9250808403604082015262002daf848462002be6565b935062002dc0606088018862002b80565b92508084036060820152505062002dd8828262002be6565b98975050505050505050565b600060ff821660ff84168060ff0382111562002e045762002e0462002882565b019392505050565b60008282101562002e215762002e2162002882565b500390565b6420a226a4a760d91b815260050190565b6000808335601e1984360301811262002e4f57600080fd5b8301803591506001600160401b0382111562002e6a57600080fd5b6020019150600581901b36038213156200298a57600080fd5b600060018060a01b0380871683526060602084015262002ea860608401868862002991565b915080841660408401525095945050505050565b828152604060208201526000620024d56040830184620026f9565b60006020828403121562002eea57600080fd5b815160ff811681146200262857600080fd5b6545524337323160d01b815260060190565b6000808335601e1984360301811262002f2657600080fd5b8301803591506001600160401b0382111562002f4157600080fd5b6020019150368190038213156200298a57600080fd5b60208152600060018060a01b0380845116602084015280602085015116604084015250604083015160a0606084015262002f9560c0840182620026f9565b90506060840151601f198085840301608086015262002fb58383620026f9565b925060808601519150808584030160a08601525062002fd58282620026f9565b95945050505050565b604051606081016001600160401b0381118282101715620030035762003003620028b6565b60405290565b604051601f8201601f191681016001600160401b0381118282101715620030345762003034620028b6565b604052919050565b6000606082360312156200304f57600080fd5b6200305962002fde565b823581526020808401356001600160401b03808211156200307957600080fd5b9085019036601f8301126200308d57600080fd5b813581811115620030a257620030a2620028b6565b620030b6601f8201601f1916850162003009565b91508082523684828501011115620030cd57600080fd5b808484018584013760009082018401529183019190915250604092830135928101929092525090565b6080815260046080820152632a24a2a960e11b60a082015283602082015260c0604082015260006200312c60c0830185620026f9565b9050826060830152949350505050565b6000602082840312156200314f57600080fd5b620026288262002bce565b6040815260006200317060408301868862002b97565b82810360208401526200318581858762002b97565b979650505050505050565b6020808252602e908201527f496e697469616c697a61626c653a20636f6e747261637420697320616c72656160408201526d191e481a5b9a5d1a585b1a5e995960921b606082015260800190565b6020808252602b908201527f496e697469616c697a61626c653a20636f6e7472616374206973206e6f74206960408201526a6e697469616c697a696e6760a81b60608201526080019056fe608060405234801561001057600080fd5b5060405161099b38038061099b83398101604081905261002f9161049c565b818161005c60017fa3f0ad74e5423aebfd80d3ef4346578335a9a72aeaee59ff6cb3582b35133d5161055c565b6000805160206109548339815191521461007857610078610581565b6100848282600061008d565b50505050610601565b61009683610158565b6040516001600160a01b038416907f1cf3b03a6cf19fa2baba4df148e9dcabedea7f8a5c07840e207e5c089be95d3e90600090a26000825111806100d75750805b1561015357610151836001600160a01b0316635c60da1b6040518163ffffffff1660e01b8152600401602060405180830381865afa15801561011d573d6000803e3d6000fd5b505050506040513d601f19601f820116820180604052508101906101419190610597565b836102e960201b6100291760201c565b505b505050565b61016b8161031560201b6100551760201c565b6101ca5760405162461bcd60e51b815260206004820152602560248201527f455243313936373a206e657720626561636f6e206973206e6f74206120636f6e6044820152641d1c9858dd60da1b60648201526084015b60405180910390fd5b61023e816001600160a01b0316635c60da1b6040518163ffffffff1660e01b8152600401602060405180830381865afa15801561020b573d6000803e3d6000fd5b505050506040513d601f19601f8201168201806040525081019061022f9190610597565b61031560201b6100551760201c565b6102a35760405162461bcd60e51b815260206004820152603060248201527f455243313936373a20626561636f6e20696d706c656d656e746174696f6e206960448201526f1cc81b9bdd08184818dbdb9d1c9858dd60821b60648201526084016101c1565b806102c860008051602061095483398151915260001b61032460201b6100641760201c565b80546001600160a01b0319166001600160a01b039290921691909117905550565b606061030e838360405180606001604052806027815260200161097460279139610327565b9392505050565b6001600160a01b03163b151590565b90565b60606001600160a01b0384163b61038f5760405162461bcd60e51b815260206004820152602660248201527f416464726573733a2064656c65676174652063616c6c20746f206e6f6e2d636f6044820152651b9d1c9858dd60d21b60648201526084016101c1565b600080856001600160a01b0316856040516103aa91906105b2565b600060405180830381855af49150503d80600081146103e5576040519150601f19603f3d011682016040523d82523d6000602084013e6103ea565b606091505b5090925090506103fb828286610405565b9695505050505050565b6060831561041457508161030e565b8251156104245782518084602001fd5b8160405162461bcd60e51b81526004016101c191906105ce565b80516001600160a01b038116811461045557600080fd5b919050565b634e487b7160e01b600052604160045260246000fd5b60005b8381101561048b578181015183820152602001610473565b838111156101515750506000910152565b600080604083850312156104af57600080fd5b6104b88361043e565b60208401519092506001600160401b03808211156104d557600080fd5b818501915085601f8301126104e957600080fd5b8151818111156104fb576104fb61045a565b604051601f8201601f19908116603f011681019083821181831017156105235761052361045a565b8160405282815288602084870101111561053c57600080fd5b61054d836020830160208801610470565b80955050505050509250929050565b60008282101561057c57634e487b7160e01b600052601160045260246000fd5b500390565b634e487b7160e01b600052600160045260246000fd5b6000602082840312156105a957600080fd5b61030e8261043e565b600082516105c4818460208701610470565b9190910192915050565b60208152600082518060208401526105ed816040850160208701610470565b601f01601f19169190910160400192915050565b610344806106106000396000f3fe60806040523661001357610011610017565b005b6100115b610027610022610067565b610100565b565b606061004e83836040518060600160405280602781526020016102e860279139610124565b9392505050565b6001600160a01b03163b151590565b90565b600061009a7fa3f0ad74e5423aebfd80d3ef4346578335a9a72aeaee59ff6cb3582b35133d50546001600160a01b031690565b6001600160a01b0316635c60da1b6040518163ffffffff1660e01b8152600401602060405180830381865afa1580156100d7573d6000803e3d6000fd5b505050506040513d601f19601f820116820180604052508101906100fb919061023f565b905090565b3660008037600080366000845af43d6000803e80801561011f573d6000f35b3d6000fd5b60606001600160a01b0384163b6101915760405162461bcd60e51b815260206004820152602660248201527f416464726573733a2064656c65676174652063616c6c20746f206e6f6e2d636f6044820152651b9d1c9858dd60d21b60648201526084015b60405180910390fd5b600080856001600160a01b0316856040516101ac9190610298565b600060405180830381855af49150503d80600081146101e7576040519150601f19603f3d011682016040523d82523d6000602084013e6101ec565b606091505b50915091506101fc828286610206565b9695505050505050565b6060831561021557508161004e565b8251156102255782518084602001fd5b8160405162461bcd60e51b815260040161018891906102b4565b60006020828403121561025157600080fd5b81516001600160a01b038116811461004e57600080fd5b60005b8381101561028357818101518382015260200161026b565b83811115610292576000848401525b50505050565b600082516102aa818460208701610268565b9190910192915050565b60208152600082518060208401526102d3816040850160208701610268565b601f01601f1916919091016040019291505056fe416464726573733a206c6f772d6c6576656c2064656c65676174652063616c6c206661696c6564a26469706673582212207fcb3ed1ce6335994273c7d860d3ad234ec065b75b26b190b2b16b74f2c2725364736f6c634300080c0033a3f0ad74e5423aebfd80d3ef4346578335a9a72aeaee59ff6cb3582b35133d50416464726573733a206c6f772d6c6576656c2064656c65676174652063616c6c206661696c6564a264697066735822122009b75b923b13ac7015a80546060f242c211d1eb4cf841c1bf4aaebb891c6e51764736f6c634300080c0033",
  "devdoc": {
    "kind": "dev",
    "methods": {
      "owner()": {
        "details": "Returns the address of the current owner."
      },
      "renounceOwnership()": {
        "details": "Leaves the contract without owner. It will not be possible to call `onlyOwner` functions anymore. Can only be called by the current owner. NOTE: Renouncing ownership will leave the contract without an owner, thereby removing any functionality that is only available to the owner."
      },
      "transferOwnership(address)": {
        "details": "Transfers ownership of the contract to a new account (`newOwner`). Can only be called by the current owner."
      }
    },
    "version": 1
  },
  "userdoc": {
    "kind": "user",
    "methods": {},
    "version": 1
  },
  "storageLayout": {
    "storage": [
      {
        "astId": 11829,
        "contract": "contracts/templates/DAOConstructor.sol:DAOConstructor",
        "label": "__gap",
        "offset": 0,
        "slot": "0",
        "type": "t_array(t_uint256)100_storage"
      },
      {
        "astId": 130,
        "contract": "contracts/templates/DAOConstructor.sol:DAOConstructor",
        "label": "_initialized",
        "offset": 0,
        "slot": "100",
        "type": "t_uint8"
      },
      {
        "astId": 133,
        "contract": "contracts/templates/DAOConstructor.sol:DAOConstructor",
        "label": "_initializing",
        "offset": 1,
        "slot": "100",
        "type": "t_bool"
      },
      {
        "astId": 1601,
        "contract": "contracts/templates/DAOConstructor.sol:DAOConstructor",
        "label": "__gap",
        "offset": 0,
        "slot": "101",
        "type": "t_array(t_uint256)50_storage"
      },
      {
        "astId": 10,
        "contract": "contracts/templates/DAOConstructor.sol:DAOConstructor",
        "label": "_owner",
        "offset": 0,
        "slot": "151",
        "type": "t_address"
      },
      {
        "astId": 122,
        "contract": "contracts/templates/DAOConstructor.sol:DAOConstructor",
        "label": "__gap",
        "offset": 0,
        "slot": "152",
        "type": "t_array(t_uint256)49_storage"
      },
      {
        "astId": 15010,
        "contract": "contracts/templates/DAOConstructor.sol:DAOConstructor",
        "label": "updateManager",
        "offset": 0,
        "slot": "201",
        "type": "t_contract(IUpdateManager)15896"
      },
      {
        "astId": 15013,
        "contract": "contracts/templates/DAOConstructor.sol:DAOConstructor",
        "label": "safeFactory",
        "offset": 0,
        "slot": "202",
        "type": "t_contract(ISafeFactory)15795"
      },
      {
        "astId": 15016,
        "contract": "contracts/templates/DAOConstructor.sol:DAOConstructor",
        "label": "safeSingleton",
        "offset": 0,
        "slot": "203",
        "type": "t_contract(ISafe)15784"
      }
    ],
    "types": {
      "t_address": {
        "encoding": "inplace",
        "label": "address",
        "numberOfBytes": "20"
      },
      "t_array(t_uint256)100_storage": {
        "base": "t_uint256",
        "encoding": "inplace",
        "label": "uint256[100]",
        "numberOfBytes": "3200"
      },
      "t_array(t_uint256)49_storage": {
        "base": "t_uint256",
        "encoding": "inplace",
        "label": "uint256[49]",
        "numberOfBytes": "1568"
      },
      "t_array(t_uint256)50_storage": {
        "base": "t_uint256",
        "encoding": "inplace",
        "label": "uint256[50]",
        "numberOfBytes": "1600"
      },
      "t_bool": {
        "encoding": "inplace",
        "label": "bool",
        "numberOfBytes": "1"
      },
      "t_contract(ISafe)15784": {
        "encoding": "inplace",
        "label": "contract ISafe",
        "numberOfBytes": "20"
      },
      "t_contract(ISafeFactory)15795": {
        "encoding": "inplace",
        "label": "contract ISafeFactory",
        "numberOfBytes": "20"
      },
      "t_contract(IUpdateManager)15896": {
        "encoding": "inplace",
        "label": "contract IUpdateManager",
        "numberOfBytes": "20"
      },
      "t_uint256": {
        "encoding": "inplace",
        "label": "uint256",
        "numberOfBytes": "32"
      },
      "t_uint8": {
        "encoding": "inplace",
        "label": "uint8",
        "numberOfBytes": "1"
      }
    }
  }
}