{
  "address": "0xFa47f0DdBb30199642f9Ff24c31F21bFB0C04408",
  "abi": [
    {
      "inputs": [
        {
          "internalType": "address",
          "name": "trustedForwarder",
          "type": "address"
        },
        {
          "internalType": "address",
          "name": "oracleAddress_",
          "type": "address"
        }
      ],
      "stateMutability": "nonpayable",
      "type": "constructor"
    },
    {
      "anonymous": false,
      "inputs": [
        {
          "indexed": false,
          "internalType": "contract IKernel",
          "name": "kernel",
          "type": "address"
        }
      ],
      "name": "Init",
      "type": "event"
    },
    {
      "anonymous": false,
      "inputs": [
        {
          "indexed": false,
          "internalType": "uint8",
          "name": "version",
          "type": "uint8"
        }
      ],
      "name": "Initialized",
      "type": "event"
    },
    {
      "anonymous": false,
      "inputs": [
        {
          "indexed": false,
          "internalType": "address",
          "name": "buyer",
          "type": "address"
        },
        {
          "indexed": false,
          "internalType": "address",
          "name": "appAddress",
          "type": "address"
        },
        {
          "indexed": false,
          "internalType": "bytes32",
          "name": "tierValue",
          "type": "bytes32"
        },
        {
          "indexed": false,
          "internalType": "uint256",
          "name": "cost",
          "type": "uint256"
        },
        {
          "indexed": false,
          "internalType": "address",
          "name": "buyToken",
          "type": "address"
        },
        {
          "indexed": false,
          "internalType": "string",
          "name": "saleType",
          "type": "string"
        },
        {
          "indexed": false,
          "internalType": "string",
          "name": "semver",
          "type": "string"
        }
      ],
      "name": "OnBuy",
      "type": "event"
    },
    {
      "anonymous": false,
      "inputs": [
        {
          "indexed": false,
          "internalType": "address",
          "name": "newBeacon",
          "type": "address"
        },
        {
          "indexed": false,
          "internalType": "address",
          "name": "beaconProxy",
          "type": "address"
        }
      ],
      "name": "ProxyMigrated",
      "type": "event"
    },
    {
      "anonymous": false,
      "inputs": [
        {
          "indexed": false,
          "internalType": "bool",
          "name": "isActive",
          "type": "bool"
        }
      ],
      "name": "SetActive",
      "type": "event"
    },
    {
      "anonymous": false,
      "inputs": [
        {
          "indexed": false,
          "internalType": "uint64",
          "name": "claimLimit",
          "type": "uint64"
        }
      ],
      "name": "SetClaimLimit",
      "type": "event"
    },
    {
      "anonymous": false,
      "inputs": [
        {
          "indexed": false,
          "internalType": "bytes32[]",
          "name": "tierValues",
          "type": "bytes32[]"
        },
        {
          "indexed": false,
          "internalType": "uint256[]",
          "name": "tierPrices_",
          "type": "uint256[]"
        }
      ],
      "name": "SetPaymentPolicy",
      "type": "event"
    },
    {
      "anonymous": false,
      "inputs": [
        {
          "indexed": false,
          "internalType": "bytes32[]",
          "name": "tierValues",
          "type": "bytes32[]"
        },
        {
          "indexed": false,
          "internalType": "uint256[]",
          "name": "tierLimits",
          "type": "uint256[]"
        }
      ],
      "name": "SetTierPerWalletLimits",
      "type": "event"
    },
    {
      "anonymous": false,
      "inputs": [
        {
          "indexed": false,
          "internalType": "uint64",
          "name": "totalClaims",
          "type": "uint64"
        }
      ],
      "name": "SetTotalClaimLimit",
      "type": "event"
    },
    {
      "anonymous": false,
      "inputs": [
        {
          "indexed": false,
          "internalType": "address",
          "name": "tokenSaleAddress_",
          "type": "address"
        }
      ],
      "name": "TokenSaleAddress",
      "type": "event"
    },
    {
      "anonymous": false,
      "inputs": [
        {
          "indexed": false,
          "internalType": "address",
          "name": "code",
          "type": "address"
        }
      ],
      "name": "Upgrade",
      "type": "event"
    },
    {
      "inputs": [],
      "name": "CONTROLLER",
      "outputs": [
        {
          "internalType": "uint8",
          "name": "",
          "type": "uint8"
        }
      ],
      "stateMutability": "view",
      "type": "function"
    },
    {
      "inputs": [],
      "name": "__semver",
      "outputs": [
        {
          "internalType": "string",
          "name": "",
          "type": "string"
        }
      ],
      "stateMutability": "view",
      "type": "function"
    },
    {
      "inputs": [
        {
          "internalType": "address",
          "name": "to",
          "type": "address"
        },
        {
          "internalType": "bytes32",
          "name": "tierValue",
          "type": "bytes32"
        },
        {
          "internalType": "address",
          "name": "tokenBuyAddress",
          "type": "address"
        }
      ],
      "name": "buy",
      "outputs": [],
      "stateMutability": "payable",
      "type": "function"
    },
    {
      "inputs": [],
      "name": "claimLimit",
      "outputs": [
        {
          "internalType": "uint64",
          "name": "",
          "type": "uint64"
        }
      ],
      "stateMutability": "view",
      "type": "function"
    },
    {
      "inputs": [
        {
          "internalType": "address",
          "name": "",
          "type": "address"
        }
      ],
      "name": "claims",
      "outputs": [
        {
          "internalType": "uint256",
          "name": "",
          "type": "uint256"
        }
      ],
      "stateMutability": "view",
      "type": "function"
    },
    {
      "inputs": [
        {
          "internalType": "bytes32",
          "name": "tierValue",
          "type": "bytes32"
        }
      ],
      "name": "getLeftClaimsForTier",
      "outputs": [
        {
          "internalType": "uint256",
          "name": "",
          "type": "uint256"
        }
      ],
      "stateMutability": "view",
      "type": "function"
    },
    {
      "inputs": [
        {
          "internalType": "address",
          "name": "wallet",
          "type": "address"
        },
        {
          "internalType": "bytes32",
          "name": "tierValue",
          "type": "bytes32"
        }
      ],
      "name": "getLeftClaimsForWallet",
      "outputs": [
        {
          "internalType": "uint256",
          "name": "",
          "type": "uint256"
        }
      ],
      "stateMutability": "view",
      "type": "function"
    },
    {
      "inputs": [
        {
          "internalType": "address",
          "name": "tokenAddress",
          "type": "address"
        },
        {
          "internalType": "bytes32",
          "name": "tierValue",
          "type": "bytes32"
        }
      ],
      "name": "getPrice",
      "outputs": [
        {
          "internalType": "uint256",
          "name": "tradePrice",
          "type": "uint256"
        },
        {
          "internalType": "uint256",
          "name": "costInBuyTokens",
          "type": "uint256"
        }
      ],
      "stateMutability": "view",
      "type": "function"
    },
    {
      "inputs": [
        {
          "internalType": "bytes32",
          "name": "tierValue",
          "type": "bytes32"
        }
      ],
      "name": "getPriceInNativeTokens",
      "outputs": [
        {
          "internalType": "uint256",
          "name": "costInBuyTokens",
          "type": "uint256"
        }
      ],
      "stateMutability": "view",
      "type": "function"
    },
    {
      "inputs": [],
      "name": "implementation",
      "outputs": [
        {
          "internalType": "address",
          "name": "",
          "type": "address"
        }
      ],
      "stateMutability": "view",
      "type": "function"
    },
    {
      "inputs": [
        {
          "internalType": "contract IKernel",
          "name": "_kernel",
          "type": "address"
        }
      ],
      "name": "initialize",
      "outputs": [],
      "stateMutability": "nonpayable",
      "type": "function"
    },
    {
      "inputs": [],
      "name": "isActive",
      "outputs": [
        {
          "internalType": "bool",
          "name": "",
          "type": "bool"
        }
      ],
      "stateMutability": "view",
      "type": "function"
    },
    {
      "inputs": [
        {
          "internalType": "address",
          "name": "forwarder",
          "type": "address"
        }
      ],
      "name": "isTrustedForwarder",
      "outputs": [
        {
          "internalType": "bool",
          "name": "",
          "type": "bool"
        }
      ],
      "stateMutability": "view",
      "type": "function"
    },
    {
      "inputs": [],
      "name": "kernel",
      "outputs": [
        {
          "internalType": "contract IKernel",
          "name": "",
          "type": "address"
        }
      ],
      "stateMutability": "view",
      "type": "function"
    },
    {
      "inputs": [
        {
          "internalType": "address",
          "name": "newBeacon",
          "type": "address"
        },
        {
          "internalType": "address",
          "name": "beaconProxy",
          "type": "address"
        }
      ],
      "name": "migrateToBeacon",
      "outputs": [],
      "stateMutability": "nonpayable",
      "type": "function"
    },
    {
      "inputs": [
        {
          "internalType": "bool",
          "name": "isActive_",
          "type": "bool"
        }
      ],
      "name": "setActive",
      "outputs": [],
      "stateMutability": "nonpayable",
      "type": "function"
    },
    {
      "inputs": [
        {
          "internalType": "uint64",
          "name": "claimLimit_",
          "type": "uint64"
        }
      ],
      "name": "setClaimLimit",
      "outputs": [],
      "stateMutability": "nonpayable",
      "type": "function"
    },
    {
      "inputs": [
        {
          "internalType": "bytes32[]",
          "name": "tierValues",
          "type": "bytes32[]"
        },
        {
          "internalType": "uint256[]",
          "name": "tierPrices_",
          "type": "uint256[]"
        }
      ],
      "name": "setPaymentPolicy",
      "outputs": [],
      "stateMutability": "nonpayable",
      "type": "function"
    },
    {
      "inputs": [
        {
          "internalType": "bytes32[]",
          "name": "tierValues",
          "type": "bytes32[]"
        },
        {
          "internalType": "uint256[]",
          "name": "tierLimits",
          "type": "uint256[]"
        }
      ],
      "name": "setTierPerWalletLimits",
      "outputs": [],
      "stateMutability": "nonpayable",
      "type": "function"
    },
    {
      "inputs": [
        {
          "internalType": "address",
          "name": "tokenSaleAddress_",
          "type": "address"
        }
      ],
      "name": "setTokenSaleAddress",
      "outputs": [],
      "stateMutability": "nonpayable",
      "type": "function"
    },
    {
      "inputs": [
        {
          "internalType": "uint64",
          "name": "totalClaims",
          "type": "uint64"
        }
      ],
      "name": "setTotalClaimsLimits",
      "outputs": [],
      "stateMutability": "nonpayable",
      "type": "function"
    },
    {
      "inputs": [
        {
          "internalType": "address",
          "name": "",
          "type": "address"
        },
        {
          "internalType": "bytes32",
          "name": "",
          "type": "bytes32"
        }
      ],
      "name": "tierPerWalletClaimed",
      "outputs": [
        {
          "internalType": "uint256",
          "name": "",
          "type": "uint256"
        }
      ],
      "stateMutability": "view",
      "type": "function"
    },
    {
      "inputs": [
        {
          "internalType": "bytes32",
          "name": "",
          "type": "bytes32"
        }
      ],
      "name": "tierPerWalletLimit",
      "outputs": [
        {
          "internalType": "uint256",
          "name": "",
          "type": "uint256"
        }
      ],
      "stateMutability": "view",
      "type": "function"
    },
    {
      "inputs": [
        {
          "internalType": "bytes32",
          "name": "",
          "type": "bytes32"
        }
      ],
      "name": "tierPrices",
      "outputs": [
        {
          "internalType": "uint256",
          "name": "",
          "type": "uint256"
        }
      ],
      "stateMutability": "view",
      "type": "function"
    },
    {
      "inputs": [],
      "name": "tokenSaleAddress",
      "outputs": [
        {
          "internalType": "address",
          "name": "",
          "type": "address"
        }
      ],
      "stateMutability": "view",
      "type": "function"
    },
    {
      "inputs": [],
      "name": "totalClaimed",
      "outputs": [
        {
          "internalType": "uint64",
          "name": "",
          "type": "uint64"
        }
      ],
      "stateMutability": "view",
      "type": "function"
    },
    {
      "inputs": [],
      "name": "totalClaimsLimit",
      "outputs": [
        {
          "internalType": "uint64",
          "name": "",
          "type": "uint64"
        }
      ],
      "stateMutability": "view",
      "type": "function"
    },
    {
      "inputs": [
        {
          "internalType": "address",
          "name": "appCode",
          "type": "address"
        }
      ],
      "name": "upgrade",
      "outputs": [],
      "stateMutability": "nonpayable",
      "type": "function"
    }
  ],
  "transactionHash": "0x62037493991f7869b4e9abcd9279440d3034179b243bb690b2d38168989d1487",
  "args": [
    "0xfd84Ca3c08A808c1a41585e630393D6B5c421336",
    "0x6b65b063f0B7aB26f2d53E8374F1a5032570464B"
  ],
  "numDeployments": 2,
  "solcInputHash": "75cc7dfccd8007eb9e42dab34a409d68",
  "bytecode": "0x6101806040526064805460ff60b01b191690556200001c62000172565b60ff1660a0523480156200002f57600080fd5b5060405162002f4538038062002f45833981016040819052620000529162000227565b6001600160a01b03808316608052600160c0819052600260e0526101005281166101208190526040805163268023f760e11b81529051634d0047ee916004808201926020929091908290030181865afa158015620000b4573d6000803e3d6000fd5b505050506040513d601f19601f82011682018060405250810190620000da91906200025f565b6001600160a01b0316610140816001600160a01b031681525050610120516001600160a01b031663b32728d16040518163ffffffff1660e01b8152600401602060405180830381865afa15801562000136573d6000803e3d6000fd5b505050506040513d601f19601f820116820180604052508101906200015c91906200025f565b6001600160a01b031661016052506200030b9050565b60645460408051808201909152600a8152692b20a624a220aa24a7a760b11b6020820152600091600f600160b01b90910460ff1610620001d05760405162461bcd60e51b8152600401620001c7919062000284565b60405180910390fd5b5060648054600160b01b900460ff16906016620001ed83620002dc565b91906101000a81548160ff021916908360ff160217905550905090565b80516001600160a01b03811681146200022257600080fd5b919050565b600080604083850312156200023b57600080fd5b62000246836200020a565b915062000256602084016200020a565b90509250929050565b6000602082840312156200027257600080fd5b6200027d826200020a565b9392505050565b600060208083528351808285015260005b81811015620002b35785810183015185820160400152820162000295565b81811115620002c6576000604083870101525b50601f01601f1916929092016040019392505050565b600060ff821660ff8114156200030257634e487b7160e01b600052601160045260246000fd5b60010192915050565b60805160a05160c05160e05161010051610120516101405161016051612b87620003be600039600081816110c60152818161112701526114ea01526000818161108a015281816110f201526111fd0152600061106001526000610f0201526000610ed701526000610eac0152600081816105e20152818161070601528181610b3b01528181610c1301528181610dde0152818161132a015261174c015260008181610348015261197e0152612b876000f3fe6080604052600436106101b75760003560e01c8063a1aaf6c7116100ec578063c0c6d00e1161008a578063d4aae0c411610064578063d4aae0c414610583578063d54ad2a1146105a9578063ee0fc121146105d0578063fdd487a81461061657600080fd5b8063c0c6d00e14610516578063c4d66de814610536578063c6788bdd1461055657600080fd5b8063acec338a116100c6578063acec338a14610491578063b33d7ba5146104b1578063b922854f146104c4578063be610676146104f157600080fd5b8063a1aaf6c71461041c578063a2afaa1314610451578063a48c07291461047157600080fd5b80634135d7d7116101595780635c60da1b116101335780635c60da1b146103985780636cd5872d146103ad5780636e13e430146103cd5780637effd8a7146103fa57600080fd5b80634135d7d71461030b578063572b6c051461032b5780635afe52071461037857600080fd5b806323ebfe281161019557806323ebfe28146102465780632eb92769146102665780633520bce01461029457806340f19677146102cc57600080fd5b80630900f010146101bc5780631448b3ca146101de57806322f3e2d41461021c575b600080fd5b3480156101c857600080fd5b506101dc6101d736600461252c565b610636565b005b3480156101ea57600080fd5b5061012c546101ff906001600160a01b031681565b6040516001600160a01b0390911681526020015b60405180910390f35b34801561022857600080fd5b5060c9546102369060ff1681565b6040519015158152602001610213565b34801561025257600080fd5b506101dc61026136600461258d565b610704565b34801561027257600080fd5b506102866102813660046125f8565b61085d565b604051908152602001610213565b3480156102a057600080fd5b506102866102af366004612611565b60cc60209081526000928352604080842090915290825290205481565b3480156102d857600080fd5b5060c9546102f390600160481b90046001600160401b031681565b6040516001600160401b039091168152602001610213565b34801561031757600080fd5b506101dc61032636600461263d565b610b39565b34801561033757600080fd5b5061023661034636600461252c565b7f00000000000000000000000000000000000000000000000000000000000000006001600160a01b0390811691161490565b34801561038457600080fd5b506101dc61039336600461252c565b610c11565b3480156103a457600080fd5b506101ff610dc3565b3480156103b957600080fd5b506101dc6103c836600461263d565b610ddc565b3480156103d957600080fd5b506102866103e83660046125f8565b60c86020526000908152604090205481565b34801561040657600080fd5b5061040f610ea5565b60405161021391906126be565b34801561042857600080fd5b5061043c610437366004612611565b610f87565b60408051928352602083019190915201610213565b34801561045d57600080fd5b5061028661046c3660046125f8565b6111f6565b34801561047d57600080fd5b506101dc61048c3660046126d1565b611229565b34801561049d57600080fd5b506101dc6104ac366004612718565b611328565b6101dc6104bf366004612735565b6113de565b3480156104d057600080fd5b506102866104df3660046125f8565b60cb6020526000908152604090205481565b3480156104fd57600080fd5b5060c9546102f39061010090046001600160401b031681565b34801561052257600080fd5b506101dc61053136600461258d565b61174a565b34801561054257600080fd5b506101dc61055136600461252c565b611894565b34801561056257600080fd5b5061028661057136600461252c565b60ca6020526000908152604090205481565b34801561058f57600080fd5b506064546101ff906201000090046001600160a01b031681565b3480156105b557600080fd5b5060c9546102f390600160881b90046001600160401b031681565b3480156105dc57600080fd5b506106047f000000000000000000000000000000000000000000000000000000000000000081565b60405160ff9091168152602001610213565b34801561062257600080fd5b50610286610631366004612611565b611907565b6064546201000090046001600160a01b031661065061197a565b6001600160a01b0316146040518060400160405280600d81526020016c20aaaa2427a924ad20aa24a7a760991b815250906106a75760405162461bcd60e51b815260040161069e91906126be565b60405180910390fd5b50806106b16119c4565b80546001600160a01b0319166001600160a01b0392831617905560405190821681527ff78721226efe9a1bb678189a16d1554928b9f2192e2cb93eeda83b79fa40007d906020015b60405180910390a150565b7f000000000000000000000000000000000000000000000000000000000000000061072e816119f7565b6040518060400160405280600d81526020016c20aaaa2427a924ad20aa24a7a760991b815250906107725760405162461bcd60e51b815260040161069e91906126be565b5060408051808201909152600a8152692b20a624a220aa24a7a760b11b60208201528483146107b45760405162461bcd60e51b815260040161069e91906126be565b5060005b808514610818578383828181106107d1576107d1612777565b9050602002013560cb60008888858181106107ee576107ee612777565b9050602002013581526020019081526020016000208190555080610811906127a3565b90506107b8565b507faebb719ae6d0f42d09f0721c0630bb2652347ac63967dcba2753a1e1b97f0fdb8585858560405161084e94939291906127f4565b60405180910390a15050505050565b6064546040516545524337323160d01b60208201526000916000199183916201000090046001600160a01b03169063dae3f63490602601604051602081830303815290604052805190602001206040518263ffffffff1660e01b81526004016108c891815260200190565b602060405180830381865afa1580156108e5573d6000803e3d6000fd5b505050506040513d601f19601f82011682018060405250810190610909919061281b565b60c954909150600160481b90046001600160401b0316156109875760c9546001600160401b03600160881b82048116600160481b90920416111561097d5760c95461096d906001600160401b03600160881b8204811691600160481b900416612838565b6001600160401b03169150610987565b5060009392505050565b6000816001600160a01b03166390d3786e604051806040016040528060048152602001632a24a2a960e11b815250876040518060400160405280600a81526020016913505617d05353d5539560b21b8152506040518463ffffffff1660e01b81526004016109f793929190612860565b602060405180830381865afa158015610a14573d6000803e3d6000fd5b505050506040513d601f19601f82011682018060405250810190610a389190612895565b90508015610b30576000826001600160a01b03166390d3786e604051806040016040528060048152602001632a24a2a960e11b815250886040518060400160405280600c81526020016b1513d5105317d05353d5539560a21b8152506040518463ffffffff1660e01b8152600401610ab293929190612860565b602060405180830381865afa158015610acf573d6000803e3d6000fd5b505050506040513d601f19601f82011682018060405250810190610af39190612895565b905080821115610b22576000610b0982846128ae565b9050848110610b185784610b1a565b805b945050610b2e565b50600095945050505050565b505b50909392505050565b7f0000000000000000000000000000000000000000000000000000000000000000610b63816119f7565b6040518060400160405280600d81526020016c20aaaa2427a924ad20aa24a7a760991b81525090610ba75760405162461bcd60e51b815260040161069e91906126be565b5060c9805470ffffffffffffffff0000000000000000001916600160481b6001600160401b038516908102919091179091556040519081527f2c9a4aa62cea331d4bc4875de7dba4a78eac6deb8aae499d11ab6cadf61fce0b906020015b60405180910390a15050565b7f0000000000000000000000000000000000000000000000000000000000000000610c3b816119f7565b6040518060400160405280600d81526020016c20aaaa2427a924ad20aa24a7a760991b81525090610c7f5760405162461bcd60e51b815260040161069e91906126be565b506001600160a01b03821615801590610ca257506000826001600160a01b03163b115b604051806040016040528060128152602001714e554c4c5f544f4b454e5f4144445245535360701b81525090610ceb5760405162461bcd60e51b815260040161069e91906126be565b5061012c80546001600160a01b0319166001600160a01b0384169081179091556040805163313ce56760e01b8152905163313ce567916004808201926020929091908290030181865afa158015610d46573d6000803e3d6000fd5b505050506040513d601f19601f82011682018060405250810190610d6a91906128c5565b61012c805460ff92909216600160a01b0260ff60a01b199092169190911790556040516001600160a01b03831681527f4fff05b32e6ec6dcbebf0f9ed5db3ced45dcb621b9c0686bff91de2113c82d9490602001610c05565b6000610dcd6119c4565b546001600160a01b0316919050565b7f0000000000000000000000000000000000000000000000000000000000000000610e06816119f7565b6040518060400160405280600d81526020016c20aaaa2427a924ad20aa24a7a760991b81525090610e4a5760405162461bcd60e51b815260040161069e91906126be565b5060c9805468ffffffffffffffff0019166101006001600160401b038581168202929092179283905560405192041681527f335a8b69e4bc3ebd56c1294128e1c5ddedf4a0349dbd56fb3bfc4d6b156deb6d90602001610c05565b6060610ed27f000000000000000000000000000000000000000000000000000000000000000060306128e8565b610efd7f000000000000000000000000000000000000000000000000000000000000000060306128e8565b610f287f000000000000000000000000000000000000000000000000000000000000000060306128e8565b604051603b60f91b60208201526001600160f81b031960f894851b81166021830152601760f91b6022830181905293851b811660238301526024820193909352921b166025820152602601604051602081830303815290604052905090565b600081815260c860209081526040808320548151808301909252601882527f4e4f545f464f554e445f50524943455f464f525f5449455200000000000000009282019290925282919081610fee5760405162461bcd60e51b815260040161069e91906126be565b5061012c5460408051808201909152601b81527f42415349435f544f4b454e5f414444524553535f4e4f545f53455400000000006020820152906001600160a01b031661104e5760405162461bcd60e51b815260040161069e91906126be565b5061012c546000906001600160a01b037f00000000000000000000000000000000000000000000000000000000000000008116916358beebc0917f000000000000000000000000000000000000000000000000000000000000000081169116146110c45761012c546001600160a01b03166110e6565b7f00000000000000000000000000000000000000000000000000000000000000005b886001600160a01b03167f00000000000000000000000000000000000000000000000000000000000000006001600160a01b0316146111255788611147565b7f00000000000000000000000000000000000000000000000000000000000000005b6040516001600160e01b031960e085901b1681526001600160a01b03928316600482015291166024820152604401602060405180830381865afa158015611192573d6000803e3d6000fd5b505050506040513d601f19601f820116820180604052508101906111b69190612895565b61012c5490915081906111d490600160a01b900460ff16600a6129f1565b6111de8385612a00565b6111e89190612a1f565b9350935050505b9250929050565b60006112227f000000000000000000000000000000000000000000000000000000000000000083610f87565b9392505050565b6064546201000090046001600160a01b031661124361197a565b6001600160a01b0316146040518060400160405280600d81526020016c20aaaa2427a924ad20aa24a7a760991b815250906112915760405162461bcd60e51b815260040161069e91906126be565b507fa3f0ad74e5423aebfd80d3ef4346578335a9a72aeaee59ff6cb3582b35133d5080546001600160a01b0319166001600160a01b038416179055806112d56119c4565b80546001600160a01b0319166001600160a01b0392831617905560408051848316815291831660208301527f8d0a39ac1f9e86fa663c9ebacb96ff6336e1aefc4e67397d5aa0bcc7b3b7c74b9101610c05565b7f0000000000000000000000000000000000000000000000000000000000000000611352816119f7565b6040518060400160405280600d81526020016c20aaaa2427a924ad20aa24a7a760991b815250906113965760405162461bcd60e51b815260040161069e91906126be565b5060c9805460ff191683151590811790915560405160ff909116151581527f739f22248654acf37bf505bd0621ca0239455fd8f43d16c0491010148ca68f9790602001610c05565b60c95460408051808201909152600b81526a554e415641494c41424c4560a81b60208201529060ff166114245760405162461bcd60e51b815260040161069e91906126be565b50600080606460029054906101000a90046001600160a01b03166001600160a01b031663dae3f634604051602001611468906545524337323160d01b815260060190565b604051602081830303815290604052805190602001206040518263ffffffff1660e01b815260040161149c91815260200190565b602060405180830381865afa1580156114b9573d6000803e3d6000fd5b505050506040513d601f19601f820116820180604052508101906114dd919061281b565b9050341561164b5761150f7f000000000000000000000000000000000000000000000000000000000000000085610f87565b60408051808201909152600a8152692b20a624a220aa24a7a760b11b60208201529093509050826115535760405162461bcd60e51b815260040161069e91906126be565b5061155d84611a90565b813410156040518060400160405280600a8152602001692b20a624a220aa24a7a760b11b815250906115a25760405162461bcd60e51b815260040161069e91906126be565b506115ab611d12565b604051632cfd300560e01b81526001600160a01b03868116600483015260248201869052821690632cfd300590604401600060405180830381600087803b1580156115f557600080fd5b505af1158015611609573d6000803e3d6000fd5b505050506116468582868560006040518060400160405280600a81526020016945524332305f53414c4560b01b815250611641610ea5565b611df6565b611743565b6116558385610f87565b60408051808201909152600a8152692b20a624a220aa24a7a760b11b60208201529093509050826116995760405162461bcd60e51b815260040161069e91906126be565b506116a384611a90565b6116ae858484611e42565b604051632cfd300560e01b81526001600160a01b03868116600483015260248201869052821690632cfd300590604401600060405180830381600087803b1580156116f857600080fd5b505af115801561170c573d6000803e3d6000fd5b5050505061174385828685876040518060400160405280600a81526020016945524332305f53414c4560b01b815250611641610ea5565b5050505050565b7f0000000000000000000000000000000000000000000000000000000000000000611774816119f7565b6040518060400160405280600d81526020016c20aaaa2427a924ad20aa24a7a760991b815250906117b85760405162461bcd60e51b815260040161069e91906126be565b5060408051808201909152600a8152692b20a624a220aa24a7a760b11b60208201528483146117fa5760405162461bcd60e51b815260040161069e91906126be565b5060005b80851461185e5783838281811061181757611817612777565b9050602002013560c8600088888581811061183457611834612777565b9050602002013581526020019081526020016000208190555080611857906127a3565b90506117fe565b507fb983419af342763d5a20324a9f5f57c5fced27c5a08d08b398c0f79ee161c06f8585858560405161084e94939291906127f4565b60006118a06001611ff6565b905080156118b8576064805461ff0019166101001790555b6118c182612080565b8015611903576064805461ff0019169055604051600181527f7f26b83ff96e1f2b6a682f133852f6798a09c465da95921460cefb384740249890602001610c05565b5050565b6000806119138361085d565b600084815260cb60205260409020549091508015611970576001600160a01b038516600090815260cc602090815260408083208784529091528120549061195a82846128ae565b9050838110611969578361196b565b805b935050505b5090505b92915050565b60007f00000000000000000000000000000000000000000000000000000000000000006001600160a01b03163314156119ba575060131936013560601c90565b503390565b905090565b60006119bf6119f460017f797d7c7d0df25d67e029b044c5bcb2b89d68f6483382b5f85e64485950ed88d16128ae565b90565b6064546000906201000090046001600160a01b031663ed82f4b8611a1961197a565b6040516001600160e01b031960e084901b1681526001600160a01b03909116600482015230602482015260ff85166044820152606401602060405180830381865afa158015611a6c573d6000803e3d6000fd5b505050506040513d601f19601f820116820180604052508101906119749190612a41565b60c954600160481b90046001600160401b031615611b515760c95460408051808201909152600f81526e212aacafa624a6a4aa2fa2a92927a960891b6020820152906001600160401b03600160881b82048116600160481b9092041611611b0a5760405162461bcd60e51b815260040161069e91906126be565b5060c98054600160881b90046001600160401b0316906011611b2b83612a5e565b91906101000a8154816001600160401b0302191690836001600160401b03160217905550505b60c95461010090046001600160401b031615611bfc5760ca6000611b7361197a565b6001600160a01b03166001600160a01b031681526020019081526020016000205460c960019054906101000a90046001600160401b03166001600160401b0316116040518060400160405280600f81526020016e212aacafa624a6a4aa2fa2a92927a960891b81525090611bfa5760405162461bcd60e51b815260040161069e91906126be565b505b600081815260cb602052604090205415611cd75760cc6000611c1c61197a565b6001600160a01b031681526020808201929092526040908101600090812084825283528181205460cb845290829020548251808401909352600f83526e212aacafa624a6a4aa2fa2a92927a960891b93830193909352909111611c925760405162461bcd60e51b815260040161069e91906126be565b5060cc6000611c9f61197a565b6001600160a01b03168152602080820192909252604090810160009081208482529092528120805491611cd1836127a3565b91905055505b60ca6000611ce361197a565b6001600160a01b0316815260208101919091526040016000908120805491611d0a836127a3565b919050555050565b6000606460029054906101000a90046001600160a01b03166001600160a01b0316633b19e84a6040518163ffffffff1660e01b8152600401602060405180830381865afa158015611d67573d6000803e3d6000fd5b505050506040513d601f19601f82011682018060405250810190611d8b919061281b565b6040805180820190915260138152724e4f5f54524541535552595f4144445245535360681b60208201529091506001600160a01b038216611ddf5760405162461bcd60e51b815260040161069e91906126be565b50611df36001600160a01b03821634612146565b50565b7ffd039b5cdcca16322f128fa1acbd38806268c1efe2d12cb75cfdfe19d7beacb787878787878787604051611e319796959493929190612a85565b60405180910390a150505050505050565b6000606460029054906101000a90046001600160a01b03166001600160a01b0316633b19e84a6040518163ffffffff1660e01b8152600401602060405180830381865afa158015611e97573d6000803e3d6000fd5b505050506040513d601f19601f82011682018060405250810190611ebb919061281b565b6040805180820190915260138152724e4f5f54524541535552595f4144445245535360681b60208201529091506001600160a01b038216611f0f5760405162461bcd60e51b815260040161069e91906126be565b50604051636eb1769f60e11b81526001600160a01b038581166004830152306024830152849160009183169063dd62ed3e90604401602060405180830381865afa158015611f61573d6000803e3d6000fd5b505050506040513d601f19601f82011682018060405250810190611f859190612895565b90508381101560405180604001604052806016815260200175494e53554646494349454e545f414c4c4f57414e434560501b81525090611fd85760405162461bcd60e51b815260040161069e91906126be565b50611fee6001600160a01b038316878587612264565b505050505050565b606454600090610100900460ff161561203f578160ff16600114801561201b5750303b155b6120375760405162461bcd60e51b815260040161069e90612ae7565b506000919050565b60645460ff8084169116106120665760405162461bcd60e51b815260040161069e90612ae7565b506064805460ff191660ff92909216919091179055600190565b606454610100900460ff166120eb5760405162461bcd60e51b815260206004820152602b60248201527f496e697469616c697a61626c653a20636f6e7472616374206973206e6f74206960448201526a6e697469616c697a696e6760a81b606482015260840161069e565b6064805462010000600160b01b031916620100006001600160a01b038481168202929092179283905560405192041681527f4f8cfde3439a1a302c21ca51eec26086efbfd940b8c0279889fc6bb6e73ecc66906020016106f9565b804710156121965760405162461bcd60e51b815260206004820152601d60248201527f416464726573733a20696e73756666696369656e742062616c616e6365000000604482015260640161069e565b6000826001600160a01b03168260405160006040518083038185875af1925050503d80600081146121e3576040519150601f19603f3d011682016040523d82523d6000602084013e6121e8565b606091505b505090508061225f5760405162461bcd60e51b815260206004820152603a60248201527f416464726573733a20756e61626c6520746f2073656e642076616c75652c207260448201527f6563697069656e74206d61792068617665207265766572746564000000000000606482015260840161069e565b505050565b604080516001600160a01b0385811660248301528416604482015260648082018490528251808303909101815260849091019091526020810180516001600160e01b03166323b872dd60e01b1790526122be9085906122c4565b50505050565b6000612319826040518060400160405280602081526020017f5361666545524332303a206c6f772d6c6576656c2063616c6c206661696c6564815250856001600160a01b03166123969092919063ffffffff16565b80519091501561225f57808060200190518101906123379190612a41565b61225f5760405162461bcd60e51b815260206004820152602a60248201527f5361666545524332303a204552433230206f7065726174696f6e20646964206e6044820152691bdd081cdd58d8d9595960b21b606482015260840161069e565b60606123a584846000856123ad565b949350505050565b60608247101561240e5760405162461bcd60e51b815260206004820152602660248201527f416464726573733a20696e73756666696369656e742062616c616e636520666f6044820152651c8818d85b1b60d21b606482015260840161069e565b6001600160a01b0385163b6124655760405162461bcd60e51b815260206004820152601d60248201527f416464726573733a2063616c6c20746f206e6f6e2d636f6e7472616374000000604482015260640161069e565b600080866001600160a01b031685876040516124819190612b35565b60006040518083038185875af1925050503d80600081146124be576040519150601f19603f3d011682016040523d82523d6000602084013e6124c3565b606091505b50915091506124d38282866124de565b979650505050505050565b606083156124ed575081611222565b8251156124fd5782518084602001fd5b8160405162461bcd60e51b815260040161069e91906126be565b6001600160a01b0381168114611df357600080fd5b60006020828403121561253e57600080fd5b813561122281612517565b60008083601f84011261255b57600080fd5b5081356001600160401b0381111561257257600080fd5b6020830191508360208260051b85010111156111ef57600080fd5b600080600080604085870312156125a357600080fd5b84356001600160401b03808211156125ba57600080fd5b6125c688838901612549565b909650945060208701359150808211156125df57600080fd5b506125ec87828801612549565b95989497509550505050565b60006020828403121561260a57600080fd5b5035919050565b6000806040838503121561262457600080fd5b823561262f81612517565b946020939093013593505050565b60006020828403121561264f57600080fd5b81356001600160401b038116811461122257600080fd5b60005b83811015612681578181015183820152602001612669565b838111156122be5750506000910152565b600081518084526126aa816020860160208601612666565b601f01601f19169290920160200192915050565b6020815260006112226020830184612692565b600080604083850312156126e457600080fd5b82356126ef81612517565b915060208301356126ff81612517565b809150509250929050565b8015158114611df357600080fd5b60006020828403121561272a57600080fd5b81356112228161270a565b60008060006060848603121561274a57600080fd5b833561275581612517565b925060208401359150604084013561276c81612517565b809150509250925092565b634e487b7160e01b600052603260045260246000fd5b634e487b7160e01b600052601160045260246000fd5b60006000198214156127b7576127b761278d565b5060010190565b81835260006001600160fb1b038311156127d757600080fd5b8260051b8083602087013760009401602001938452509192915050565b6040815260006128086040830186886127be565b82810360208401526124d38185876127be565b60006020828403121561282d57600080fd5b815161122281612517565b60006001600160401b03838116908316818110156128585761285861278d565b039392505050565b6060815260006128736060830186612692565b846020840152828103604084015261288b8185612692565b9695505050505050565b6000602082840312156128a757600080fd5b5051919050565b6000828210156128c0576128c061278d565b500390565b6000602082840312156128d757600080fd5b815160ff8116811461122257600080fd5b600060ff821660ff84168060ff038211156129055761290561278d565b019392505050565b600181815b8085111561294857816000190482111561292e5761292e61278d565b8085161561293b57918102915b93841c9390800290612912565b509250929050565b60008261295f57506001611974565b8161296c57506000611974565b8160018114612982576002811461298c576129a8565b6001915050611974565b60ff84111561299d5761299d61278d565b50506001821b611974565b5060208310610133831016604e8410600b84101617156129cb575081810a611974565b6129d5838361290d565b80600019048211156129e9576129e961278d565b029392505050565b600061122260ff841683612950565b6000816000190483118215151615612a1a57612a1a61278d565b500290565b600082612a3c57634e487b7160e01b600052601260045260246000fd5b500490565b600060208284031215612a5357600080fd5b81516112228161270a565b60006001600160401b0380831681811415612a7b57612a7b61278d565b6001019392505050565b6001600160a01b038881168252878116602083015260408201879052606082018690528416608082015260e060a08201819052600090612ac790830185612692565b82810360c0840152612ad98185612692565b9a9950505050505050505050565b6020808252602e908201527f496e697469616c697a61626c653a20636f6e747261637420697320616c72656160408201526d191e481a5b9a5d1a585b1a5e995960921b606082015260800190565b60008251612b47818460208701612666565b919091019291505056fea2646970667358221220ca8d5cba67c95fac2d2e4d6decdc991ffce45d3bae98e85d0eb9a7f2d55ff78664736f6c634300080c0033",
  "devdoc": {
    "kind": "dev",
    "methods": {
      "implementation()": {
        "details": "Add appCode for external access"
      },
      "upgrade(address)": {
        "details": "Update via appCode"
      }
    },
    "version": 1
  },
  "userdoc": {
    "kind": "user",
    "methods": {},
    "version": 1
  },
  "storageLayout": {
    "storage": [
      {
        "astId": 11829,
        "contract": "contracts/apps/ERC721Sale/ERC721OpenSale.sol:ERC721OpenSale",
        "label": "__gap",
        "offset": 0,
        "slot": "0",
        "type": "t_array(t_uint256)100_storage"
      },
      {
        "astId": 130,
        "contract": "contracts/apps/ERC721Sale/ERC721OpenSale.sol:ERC721OpenSale",
        "label": "_initialized",
        "offset": 0,
        "slot": "100",
        "type": "t_uint8"
      },
      {
        "astId": 133,
        "contract": "contracts/apps/ERC721Sale/ERC721OpenSale.sol:ERC721OpenSale",
        "label": "_initializing",
        "offset": 1,
        "slot": "100",
        "type": "t_bool"
      },
      {
        "astId": 8387,
        "contract": "contracts/apps/ERC721Sale/ERC721OpenSale.sol:ERC721OpenSale",
        "label": "kernel",
        "offset": 2,
        "slot": "100",
        "type": "t_contract(IKernel)13380"
      },
      {
        "astId": 8390,
        "contract": "contracts/apps/ERC721Sale/ERC721OpenSale.sol:ERC721OpenSale",
        "label": "_nextRoleId",
        "offset": 22,
        "slot": "100",
        "type": "t_uint8"
      },
      {
        "astId": 8394,
        "contract": "contracts/apps/ERC721Sale/ERC721OpenSale.sol:ERC721OpenSale",
        "label": "__gap",
        "offset": 0,
        "slot": "101",
        "type": "t_array(t_uint256)99_storage"
      },
      {
        "astId": 10498,
        "contract": "contracts/apps/ERC721Sale/ERC721OpenSale.sol:ERC721OpenSale",
        "label": "tierPrices",
        "offset": 0,
        "slot": "200",
        "type": "t_mapping(t_bytes32,t_uint256)"
      },
      {
        "astId": 10500,
        "contract": "contracts/apps/ERC721Sale/ERC721OpenSale.sol:ERC721OpenSale",
        "label": "isActive",
        "offset": 0,
        "slot": "201",
        "type": "t_bool"
      },
      {
        "astId": 10502,
        "contract": "contracts/apps/ERC721Sale/ERC721OpenSale.sol:ERC721OpenSale",
        "label": "claimLimit",
        "offset": 1,
        "slot": "201",
        "type": "t_uint64"
      },
      {
        "astId": 10504,
        "contract": "contracts/apps/ERC721Sale/ERC721OpenSale.sol:ERC721OpenSale",
        "label": "totalClaimsLimit",
        "offset": 9,
        "slot": "201",
        "type": "t_uint64"
      },
      {
        "astId": 10506,
        "contract": "contracts/apps/ERC721Sale/ERC721OpenSale.sol:ERC721OpenSale",
        "label": "totalClaimed",
        "offset": 17,
        "slot": "201",
        "type": "t_uint64"
      },
      {
        "astId": 10510,
        "contract": "contracts/apps/ERC721Sale/ERC721OpenSale.sol:ERC721OpenSale",
        "label": "claims",
        "offset": 0,
        "slot": "202",
        "type": "t_mapping(t_address,t_uint256)"
      },
      {
        "astId": 10514,
        "contract": "contracts/apps/ERC721Sale/ERC721OpenSale.sol:ERC721OpenSale",
        "label": "tierPerWalletLimit",
        "offset": 0,
        "slot": "203",
        "type": "t_mapping(t_bytes32,t_uint256)"
      },
      {
        "astId": 10520,
        "contract": "contracts/apps/ERC721Sale/ERC721OpenSale.sol:ERC721OpenSale",
        "label": "tierPerWalletClaimed",
        "offset": 0,
        "slot": "204",
        "type": "t_mapping(t_address,t_mapping(t_bytes32,t_uint256))"
      },
      {
        "astId": 10524,
        "contract": "contracts/apps/ERC721Sale/ERC721OpenSale.sol:ERC721OpenSale",
        "label": "__gap",
        "offset": 0,
        "slot": "205",
        "type": "t_array(t_uint256)95_storage"
      },
      {
        "astId": 11053,
        "contract": "contracts/apps/ERC721Sale/ERC721OpenSale.sol:ERC721OpenSale",
        "label": "tokenSaleAddress",
        "offset": 0,
        "slot": "300",
        "type": "t_address"
      },
      {
        "astId": 11055,
        "contract": "contracts/apps/ERC721Sale/ERC721OpenSale.sol:ERC721OpenSale",
        "label": "_tokenSaleDecimals",
        "offset": 20,
        "slot": "300",
        "type": "t_uint8"
      }
    ],
    "types": {
      "t_address": {
        "encoding": "inplace",
        "label": "address",
        "numberOfBytes": "20"
      },
      "t_array(t_uint256)100_storage": {
        "base": "t_uint256",
        "encoding": "inplace",
        "label": "uint256[100]",
        "numberOfBytes": "3200"
      },
      "t_array(t_uint256)95_storage": {
        "base": "t_uint256",
        "encoding": "inplace",
        "label": "uint256[95]",
        "numberOfBytes": "3040"
      },
      "t_array(t_uint256)99_storage": {
        "base": "t_uint256",
        "encoding": "inplace",
        "label": "uint256[99]",
        "numberOfBytes": "3168"
      },
      "t_bool": {
        "encoding": "inplace",
        "label": "bool",
        "numberOfBytes": "1"
      },
      "t_bytes32": {
        "encoding": "inplace",
        "label": "bytes32",
        "numberOfBytes": "32"
      },
      "t_contract(IKernel)13380": {
        "encoding": "inplace",
        "label": "contract IKernel",
        "numberOfBytes": "20"
      },
      "t_mapping(t_address,t_mapping(t_bytes32,t_uint256))": {
        "encoding": "mapping",
        "key": "t_address",
        "label": "mapping(address => mapping(bytes32 => uint256))",
        "numberOfBytes": "32",
        "value": "t_mapping(t_bytes32,t_uint256)"
      },
      "t_mapping(t_address,t_uint256)": {
        "encoding": "mapping",
        "key": "t_address",
        "label": "mapping(address => uint256)",
        "numberOfBytes": "32",
        "value": "t_uint256"
      },
      "t_mapping(t_bytes32,t_uint256)": {
        "encoding": "mapping",
        "key": "t_bytes32",
        "label": "mapping(bytes32 => uint256)",
        "numberOfBytes": "32",
        "value": "t_uint256"
      },
      "t_uint256": {
        "encoding": "inplace",
        "label": "uint256",
        "numberOfBytes": "32"
      },
      "t_uint64": {
        "encoding": "inplace",
        "label": "uint64",
        "numberOfBytes": "8"
      },
      "t_uint8": {
        "encoding": "inplace",
        "label": "uint8",
        "numberOfBytes": "1"
      }
    }
  }
}