{
  "address": "0xfDd26Ea318E896614cb4F061b6933042CEf6Ee55",
  "abi": [
    {
      "inputs": [
        {
          "internalType": "address",
          "name": "trustedForwarder",
          "type": "address"
        }
      ],
      "stateMutability": "nonpayable",
      "type": "constructor"
    },
    {
      "anonymous": false,
      "inputs": [
        {
          "indexed": false,
          "internalType": "contract IKernel",
          "name": "kernel",
          "type": "address"
        }
      ],
      "name": "Init",
      "type": "event"
    },
    {
      "anonymous": false,
      "inputs": [
        {
          "indexed": false,
          "internalType": "uint8",
          "name": "version",
          "type": "uint8"
        }
      ],
      "name": "Initialized",
      "type": "event"
    },
    {
      "anonymous": false,
      "inputs": [
        {
          "indexed": false,
          "internalType": "address",
          "name": "buyer",
          "type": "address"
        },
        {
          "indexed": false,
          "internalType": "address",
          "name": "appAddress",
          "type": "address"
        },
        {
          "indexed": false,
          "internalType": "bytes32",
          "name": "tierValue",
          "type": "bytes32"
        },
        {
          "indexed": false,
          "internalType": "uint256",
          "name": "cost",
          "type": "uint256"
        },
        {
          "indexed": false,
          "internalType": "address",
          "name": "buyToken",
          "type": "address"
        },
        {
          "indexed": false,
          "internalType": "string",
          "name": "saleType",
          "type": "string"
        },
        {
          "indexed": false,
          "internalType": "string",
          "name": "semver",
          "type": "string"
        }
      ],
      "name": "OnBuy",
      "type": "event"
    },
    {
      "anonymous": false,
      "inputs": [
        {
          "indexed": false,
          "internalType": "address",
          "name": "newBeacon",
          "type": "address"
        },
        {
          "indexed": false,
          "internalType": "address",
          "name": "beaconProxy",
          "type": "address"
        }
      ],
      "name": "ProxyMigrated",
      "type": "event"
    },
    {
      "anonymous": false,
      "inputs": [
        {
          "indexed": false,
          "internalType": "bool",
          "name": "isActive",
          "type": "bool"
        }
      ],
      "name": "SetActive",
      "type": "event"
    },
    {
      "anonymous": false,
      "inputs": [
        {
          "indexed": false,
          "internalType": "uint64",
          "name": "claimLimit",
          "type": "uint64"
        }
      ],
      "name": "SetClaimLimit",
      "type": "event"
    },
    {
      "anonymous": false,
      "inputs": [
        {
          "indexed": false,
          "internalType": "bytes32[]",
          "name": "tierValues",
          "type": "bytes32[]"
        },
        {
          "indexed": false,
          "internalType": "uint256[]",
          "name": "tierPrices_",
          "type": "uint256[]"
        }
      ],
      "name": "SetPaymentPolicy",
      "type": "event"
    },
    {
      "anonymous": false,
      "inputs": [
        {
          "indexed": false,
          "internalType": "bytes32[]",
          "name": "tierValues",
          "type": "bytes32[]"
        },
        {
          "indexed": false,
          "internalType": "uint256[]",
          "name": "tierLimits",
          "type": "uint256[]"
        }
      ],
      "name": "SetTierPerWalletLimits",
      "type": "event"
    },
    {
      "anonymous": false,
      "inputs": [
        {
          "indexed": false,
          "internalType": "uint64",
          "name": "totalClaims",
          "type": "uint64"
        }
      ],
      "name": "SetTotalClaimLimit",
      "type": "event"
    },
    {
      "anonymous": false,
      "inputs": [
        {
          "indexed": false,
          "internalType": "address",
          "name": "code",
          "type": "address"
        }
      ],
      "name": "Upgrade",
      "type": "event"
    },
    {
      "inputs": [],
      "name": "CONTROLLER",
      "outputs": [
        {
          "internalType": "uint8",
          "name": "",
          "type": "uint8"
        }
      ],
      "stateMutability": "view",
      "type": "function"
    },
    {
      "inputs": [],
      "name": "__semver",
      "outputs": [
        {
          "internalType": "string",
          "name": "",
          "type": "string"
        }
      ],
      "stateMutability": "view",
      "type": "function"
    },
    {
      "inputs": [
        {
          "internalType": "bytes32[]",
          "name": "proof",
          "type": "bytes32[]"
        },
        {
          "internalType": "bytes32",
          "name": "tierValue",
          "type": "bytes32"
        }
      ],
      "name": "buy",
      "outputs": [],
      "stateMutability": "payable",
      "type": "function"
    },
    {
      "inputs": [
        {
          "internalType": "bytes32[]",
          "name": "proof",
          "type": "bytes32[]"
        },
        {
          "internalType": "bytes32",
          "name": "tierValue",
          "type": "bytes32"
        },
        {
          "internalType": "uint256",
          "name": "walletLimit",
          "type": "uint256"
        },
        {
          "internalType": "uint256",
          "name": "walletPrice",
          "type": "uint256"
        }
      ],
      "name": "buyWithLimits",
      "outputs": [],
      "stateMutability": "payable",
      "type": "function"
    },
    {
      "inputs": [],
      "name": "claimLimit",
      "outputs": [
        {
          "internalType": "uint64",
          "name": "",
          "type": "uint64"
        }
      ],
      "stateMutability": "view",
      "type": "function"
    },
    {
      "inputs": [
        {
          "internalType": "address",
          "name": "",
          "type": "address"
        }
      ],
      "name": "claims",
      "outputs": [
        {
          "internalType": "uint256",
          "name": "",
          "type": "uint256"
        }
      ],
      "stateMutability": "view",
      "type": "function"
    },
    {
      "inputs": [
        {
          "internalType": "bytes32",
          "name": "tierValue",
          "type": "bytes32"
        }
      ],
      "name": "getLeftClaimsForTier",
      "outputs": [
        {
          "internalType": "uint256",
          "name": "",
          "type": "uint256"
        }
      ],
      "stateMutability": "view",
      "type": "function"
    },
    {
      "inputs": [
        {
          "internalType": "address",
          "name": "wallet",
          "type": "address"
        },
        {
          "internalType": "bytes32",
          "name": "tierValue",
          "type": "bytes32"
        }
      ],
      "name": "getLeftClaimsForWallet",
      "outputs": [
        {
          "internalType": "uint256",
          "name": "",
          "type": "uint256"
        }
      ],
      "stateMutability": "view",
      "type": "function"
    },
    {
      "inputs": [],
      "name": "implementation",
      "outputs": [
        {
          "internalType": "address",
          "name": "",
          "type": "address"
        }
      ],
      "stateMutability": "view",
      "type": "function"
    },
    {
      "inputs": [
        {
          "internalType": "contract IKernel",
          "name": "_kernel",
          "type": "address"
        },
        {
          "internalType": "uint64",
          "name": "claimLimit_",
          "type": "uint64"
        }
      ],
      "name": "initialize",
      "outputs": [],
      "stateMutability": "nonpayable",
      "type": "function"
    },
    {
      "inputs": [],
      "name": "isActive",
      "outputs": [
        {
          "internalType": "bool",
          "name": "",
          "type": "bool"
        }
      ],
      "stateMutability": "view",
      "type": "function"
    },
    {
      "inputs": [
        {
          "internalType": "address",
          "name": "forwarder",
          "type": "address"
        }
      ],
      "name": "isTrustedForwarder",
      "outputs": [
        {
          "internalType": "bool",
          "name": "",
          "type": "bool"
        }
      ],
      "stateMutability": "view",
      "type": "function"
    },
    {
      "inputs": [],
      "name": "kernel",
      "outputs": [
        {
          "internalType": "contract IKernel",
          "name": "",
          "type": "address"
        }
      ],
      "stateMutability": "view",
      "type": "function"
    },
    {
      "inputs": [],
      "name": "merkleProofIpfsHash",
      "outputs": [
        {
          "internalType": "bytes",
          "name": "",
          "type": "bytes"
        }
      ],
      "stateMutability": "view",
      "type": "function"
    },
    {
      "inputs": [
        {
          "internalType": "address",
          "name": "newBeacon",
          "type": "address"
        },
        {
          "internalType": "address",
          "name": "beaconProxy",
          "type": "address"
        }
      ],
      "name": "migrateToBeacon",
      "outputs": [],
      "stateMutability": "nonpayable",
      "type": "function"
    },
    {
      "inputs": [
        {
          "internalType": "bool",
          "name": "isActive_",
          "type": "bool"
        }
      ],
      "name": "setActive",
      "outputs": [],
      "stateMutability": "nonpayable",
      "type": "function"
    },
    {
      "inputs": [
        {
          "internalType": "uint64",
          "name": "claimLimit_",
          "type": "uint64"
        }
      ],
      "name": "setClaimLimit",
      "outputs": [],
      "stateMutability": "nonpayable",
      "type": "function"
    },
    {
      "inputs": [
        {
          "internalType": "bytes32",
          "name": "merkleRoot",
          "type": "bytes32"
        },
        {
          "internalType": "bytes",
          "name": "merkleProofIpfsHash_",
          "type": "bytes"
        }
      ],
      "name": "setMerkleTree",
      "outputs": [],
      "stateMutability": "nonpayable",
      "type": "function"
    },
    {
      "inputs": [
        {
          "internalType": "bytes32[]",
          "name": "tierValues",
          "type": "bytes32[]"
        },
        {
          "internalType": "uint256[]",
          "name": "tierPrices_",
          "type": "uint256[]"
        }
      ],
      "name": "setPaymentPolicy",
      "outputs": [],
      "stateMutability": "nonpayable",
      "type": "function"
    },
    {
      "inputs": [
        {
          "internalType": "bytes32[]",
          "name": "tierValues",
          "type": "bytes32[]"
        },
        {
          "internalType": "uint256[]",
          "name": "tierLimits",
          "type": "uint256[]"
        }
      ],
      "name": "setTierPerWalletLimits",
      "outputs": [],
      "stateMutability": "nonpayable",
      "type": "function"
    },
    {
      "inputs": [
        {
          "internalType": "uint64",
          "name": "totalClaims",
          "type": "uint64"
        }
      ],
      "name": "setTotalClaimsLimits",
      "outputs": [],
      "stateMutability": "nonpayable",
      "type": "function"
    },
    {
      "inputs": [
        {
          "internalType": "address",
          "name": "",
          "type": "address"
        },
        {
          "internalType": "bytes32",
          "name": "",
          "type": "bytes32"
        }
      ],
      "name": "tierPerWalletClaimed",
      "outputs": [
        {
          "internalType": "uint256",
          "name": "",
          "type": "uint256"
        }
      ],
      "stateMutability": "view",
      "type": "function"
    },
    {
      "inputs": [
        {
          "internalType": "bytes32",
          "name": "",
          "type": "bytes32"
        }
      ],
      "name": "tierPerWalletLimit",
      "outputs": [
        {
          "internalType": "uint256",
          "name": "",
          "type": "uint256"
        }
      ],
      "stateMutability": "view",
      "type": "function"
    },
    {
      "inputs": [
        {
          "internalType": "bytes32",
          "name": "",
          "type": "bytes32"
        }
      ],
      "name": "tierPrices",
      "outputs": [
        {
          "internalType": "uint256",
          "name": "",
          "type": "uint256"
        }
      ],
      "stateMutability": "view",
      "type": "function"
    },
    {
      "inputs": [],
      "name": "totalClaimed",
      "outputs": [
        {
          "internalType": "uint64",
          "name": "",
          "type": "uint64"
        }
      ],
      "stateMutability": "view",
      "type": "function"
    },
    {
      "inputs": [],
      "name": "totalClaimsLimit",
      "outputs": [
        {
          "internalType": "uint64",
          "name": "",
          "type": "uint64"
        }
      ],
      "stateMutability": "view",
      "type": "function"
    },
    {
      "inputs": [
        {
          "internalType": "address",
          "name": "appCode",
          "type": "address"
        }
      ],
      "name": "upgrade",
      "outputs": [],
      "stateMutability": "nonpayable",
      "type": "function"
    }
  ],
  "transactionHash": "0x749e81aff1202ddd4dc8d69e59f4099444b0fc0cd144b6d8960384455dfc28d6",
  "args": [
    "0xfd84Ca3c08A808c1a41585e630393D6B5c421336"
  ],
  "numDeployments": 3,
  "solcInputHash": "d18c1f43a480045af9e1d361f9915933",
  "bytecode": "0x6101206040526064805460ff60b01b191690556200001c62000074565b60ff1660a0523480156200002f57600080fd5b5060405162002b3138038062002b3183398101604081905262000052916200010c565b6001600160a01b0316608052600160c081905260e052600061010052620001c5565b60645460408051808201909152600a8152692b20a624a220aa24a7a760b11b6020820152600091600f600160b01b90910460ff1610620000d25760405162461bcd60e51b8152600401620000c991906200013e565b60405180910390fd5b5060648054600160b01b900460ff16906016620000ef8362000196565b91906101000a81548160ff021916908360ff160217905550905090565b6000602082840312156200011f57600080fd5b81516001600160a01b03811681146200013757600080fd5b9392505050565b600060208083528351808285015260005b818110156200016d578581018301518582016040015282016200014f565b8181111562000180576000604083870101525b50601f01601f1916929092016040019392505050565b600060ff821660ff811415620001bc57634e487b7160e01b600052601160045260246000fd5b60010192915050565b60805160a05160c05160e051610100516128f66200023b60003960006111c80152600061119d015260006111720152600081816105640152818161073601528181610fb3015281816110a40152818161134e0152818161176301526117e30152600081816103270152611a2f01526128f66000f3fe60806040526004361061019c5760003560e01c80637effd8a7116100ec578063c0c6d00e1161008a578063d54ad2a111610064578063d54ad2a11461052b578063ee0fc12114610552578063f8f1fc3014610598578063fdd487a8146105ad57600080fd5b8063c0c6d00e146104b8578063c6788bdd146104d8578063d4aae0c41461050557600080fd5b8063ae4a40d5116100c6578063ae4a40d514610433578063b00f24cf14610446578063b922854f14610466578063be6106761461049357600080fd5b80637effd8a7146103d1578063a48c0729146103f3578063acec338a1461041357600080fd5b80633520bce011610159578063572b6c0511610133578063572b6c051461030a5780635c60da1b146103575780636cd5872d146103845780636e13e430146103a457600080fd5b80633520bce01461027357806340f19677146102ab5780634135d7d7146102ea57600080fd5b80630900f010146101a15780631798de81146101c357806322f3e2d4146101e357806323ebfe28146102125780632b2a8594146102325780632eb9276914610245575b600080fd5b3480156101ad57600080fd5b506101c16101bc3660046122aa565b6105cd565b005b3480156101cf57600080fd5b506101c16101de3660046122e5565b61069b565b3480156101ef57600080fd5b5060c9546101fd9060ff1681565b60405190151581526020015b60405180910390f35b34801561021e57600080fd5b506101c161022d366004612365565b610734565b6101c16102403660046123d0565b61088d565b34801561025157600080fd5b50610265610260366004612429565b610cd5565b604051908152602001610209565b34801561027f57600080fd5b5061026561028e366004612442565b60cc60209081526000928352604080842090915290825290205481565b3480156102b757600080fd5b5060c9546102d290600160481b90046001600160401b031681565b6040516001600160401b039091168152602001610209565b3480156102f657600080fd5b506101c161030536600461246e565b610fb1565b34801561031657600080fd5b506101fd6103253660046122aa565b7f00000000000000000000000000000000000000000000000000000000000000006001600160a01b0390811691161490565b34801561036357600080fd5b5061036c611089565b6040516001600160a01b039091168152602001610209565b34801561039057600080fd5b506101c161039f36600461246e565b6110a2565b3480156103b057600080fd5b506102656103bf366004612429565b60c86020526000908152604090205481565b3480156103dd57600080fd5b506103e661116b565b60405161020991906124d6565b3480156103ff57600080fd5b506101c161040e3660046124e9565b61124d565b34801561041f57600080fd5b506101c161042e366004612530565b61134c565b6101c161044136600461254d565b611402565b34801561045257600080fd5b506101c1610461366004612598565b611761565b34801561047257600080fd5b50610265610481366004612429565b60cb6020526000908152604090205481565b34801561049f57600080fd5b5060c9546102d29061010090046001600160401b031681565b3480156104c457600080fd5b506101c16104d3366004612365565b6117e1565b3480156104e457600080fd5b506102656104f33660046122aa565b60ca6020526000908152604090205481565b34801561051157600080fd5b5060645461036c906201000090046001600160a01b031681565b34801561053757600080fd5b5060c9546102d290600160881b90046001600160401b031681565b34801561055e57600080fd5b506105867f000000000000000000000000000000000000000000000000000000000000000081565b60405160ff9091168152602001610209565b3480156105a457600080fd5b506103e661192b565b3480156105b957600080fd5b506102656105c8366004612442565b6119ba565b6064546201000090046001600160a01b03166105e7611a2b565b6001600160a01b0316146040518060400160405280600d81526020016c20aaaa2427a924ad20aa24a7a760991b8152509061063e5760405162461bcd60e51b815260040161063591906124d6565b60405180910390fd5b5080610648611a75565b80546001600160a01b0319166001600160a01b0392831617905560405190821681527ff78721226efe9a1bb678189a16d1554928b9f2192e2cb93eeda83b79fa40007d906020015b60405180910390a150565b60006106a76001611aa8565b905080156106bf576064805461ff0019166101001790555b6106c883611b37565b60c9805468ffffffffffffffff0019166101006001600160401b03851602179055801561072f576064805461ff0019169055604051600181527f7f26b83ff96e1f2b6a682f133852f6798a09c465da95921460cefb38474024989060200160405180910390a15b505050565b7f000000000000000000000000000000000000000000000000000000000000000061075e81611bfd565b6040518060400160405280600d81526020016c20aaaa2427a924ad20aa24a7a760991b815250906107a25760405162461bcd60e51b815260040161063591906124d6565b5060408051808201909152600a8152692b20a624a220aa24a7a760b11b60208201528483146107e45760405162461bcd60e51b815260040161063591906124d6565b5060005b8085146108485783838281811061080157610801612613565b9050602002013560cb600088888581811061081e5761081e612613565b90506020020135815260200190815260200160002081905550806108419061263f565b90506107e8565b507faebb719ae6d0f42d09f0721c0630bb2652347ac63967dcba2753a1e1b97f0fdb8585858560405161087e9493929190612690565b60405180910390a15050505050565b61012d5460408051808201909152600e81526d24a724aa24a0a624ad20aa24a7a760911b6020820152906108d45760405162461bcd60e51b815260040161063591906124d6565b506000816108f057600084815260c860205260409020546108f2565b815b905080158015906109035750803410155b6040518060400160405280600a8152602001692b20a624a220aa24a7a760b11b815250906109445760405162461bcd60e51b815260040161063591906124d6565b5060c95460408051808201909152600b81526a554e415641494c41424c4560a81b60208201529060ff1661098b5760405162461bcd60e51b815260040161063591906124d6565b508215610a155760cc600061099e611a2b565b6001600160a01b03166001600160a01b0316815260200190815260200160002060008581526020019081526020016000205483116040518060400160405280600a8152602001692b20a624a220aa24a7a760b11b81525090610a135760405162461bcd60e51b815260040161063591906124d6565b505b6000610a998787808060200260200160405190810160405280939291908181526020018383602002808284376000920191909152505061012d549150610a5b9050611a2b565b604051602001610a7e919060609190911b6001600160601b031916815260140190565b60405160208183030381529060405280519060200120611c9c565b905080610b5c57610b198787808060200260200160405190810160405280939291908181526020018383602002808284376000920191909152505061012d549150610ae49050611a2b565b60405160609190911b6001600160601b0319166020820152603481018990526054810188905260748101879052609401610a7e565b6040518060400160405280600a8152602001692b20a624a220aa24a7a760b11b81525090610b5a5760405162461bcd60e51b815260040161063591906124d6565b505b610b6585611cb2565b610b6d611f34565b6064546040516545524337323160d01b60208201526000916201000090046001600160a01b03169063dae3f63490602601604051602081830303815290604052805190602001206040518263ffffffff1660e01b8152600401610bd291815260200190565b602060405180830381865afa158015610bef573d6000803e3d6000fd5b505050506040513d601f19601f82011682018060405250810190610c1391906126c2565b9050806001600160a01b0316632cfd3005610c2c611a2b565b6040516001600160e01b031960e084901b1681526001600160a01b03909116600482015260248101899052604401600060405180830381600087803b158015610c7457600080fd5b505af1158015610c88573d6000803e3d6000fd5b50505050610ccb610c97611a2b565b82888660006040518060400160405280600981526020016815da1a5d195b1a5cdd60ba1b815250610cc661116b565b612018565b5050505050505050565b6064546040516545524337323160d01b60208201526000916000199183916201000090046001600160a01b03169063dae3f63490602601604051602081830303815290604052805190602001206040518263ffffffff1660e01b8152600401610d4091815260200190565b602060405180830381865afa158015610d5d573d6000803e3d6000fd5b505050506040513d601f19601f82011682018060405250810190610d8191906126c2565b60c954909150600160481b90046001600160401b031615610dff5760c9546001600160401b03600160881b82048116600160481b909204161115610df55760c954610de5906001600160401b03600160881b8204811691600160481b9004166126df565b6001600160401b03169150610dff565b5060009392505050565b6000816001600160a01b03166390d3786e604051806040016040528060048152602001632a24a2a960e11b815250876040518060400160405280600a81526020016913505617d05353d5539560b21b8152506040518463ffffffff1660e01b8152600401610e6f93929190612707565b602060405180830381865afa158015610e8c573d6000803e3d6000fd5b505050506040513d601f19601f82011682018060405250810190610eb0919061273c565b90508015610fa8576000826001600160a01b03166390d3786e604051806040016040528060048152602001632a24a2a960e11b815250886040518060400160405280600c81526020016b1513d5105317d05353d5539560a21b8152506040518463ffffffff1660e01b8152600401610f2a93929190612707565b602060405180830381865afa158015610f47573d6000803e3d6000fd5b505050506040513d601f19601f82011682018060405250810190610f6b919061273c565b905080821115610f9a576000610f818284612755565b9050848110610f905784610f92565b805b945050610fa6565b50600095945050505050565b505b50909392505050565b7f0000000000000000000000000000000000000000000000000000000000000000610fdb81611bfd565b6040518060400160405280600d81526020016c20aaaa2427a924ad20aa24a7a760991b8152509061101f5760405162461bcd60e51b815260040161063591906124d6565b5060c9805470ffffffffffffffff0000000000000000001916600160481b6001600160401b038516908102919091179091556040519081527f2c9a4aa62cea331d4bc4875de7dba4a78eac6deb8aae499d11ab6cadf61fce0b906020015b60405180910390a15050565b6000611093611a75565b546001600160a01b0316919050565b7f00000000000000000000000000000000000000000000000000000000000000006110cc81611bfd565b6040518060400160405280600d81526020016c20aaaa2427a924ad20aa24a7a760991b815250906111105760405162461bcd60e51b815260040161063591906124d6565b5060c9805468ffffffffffffffff0019166101006001600160401b038581168202929092179283905560405192041681527f335a8b69e4bc3ebd56c1294128e1c5ddedf4a0349dbd56fb3bfc4d6b156deb6d9060200161107d565b60606111987f0000000000000000000000000000000000000000000000000000000000000000603061276c565b6111c37f0000000000000000000000000000000000000000000000000000000000000000603061276c565b6111ee7f0000000000000000000000000000000000000000000000000000000000000000603061276c565b604051603b60f91b60208201526001600160f81b031960f894851b81166021830152601760f91b6022830181905293851b811660238301526024820193909352921b166025820152602601604051602081830303815290604052905090565b6064546201000090046001600160a01b0316611267611a2b565b6001600160a01b0316146040518060400160405280600d81526020016c20aaaa2427a924ad20aa24a7a760991b815250906112b55760405162461bcd60e51b815260040161063591906124d6565b507fa3f0ad74e5423aebfd80d3ef4346578335a9a72aeaee59ff6cb3582b35133d5080546001600160a01b0319166001600160a01b038416179055806112f9611a75565b80546001600160a01b0319166001600160a01b0392831617905560408051848316815291831660208301527f8d0a39ac1f9e86fa663c9ebacb96ff6336e1aefc4e67397d5aa0bcc7b3b7c74b910161107d565b7f000000000000000000000000000000000000000000000000000000000000000061137681611bfd565b6040518060400160405280600d81526020016c20aaaa2427a924ad20aa24a7a760991b815250906113ba5760405162461bcd60e51b815260040161063591906124d6565b5060c9805460ff191683151590811790915560405160ff909116151581527f739f22248654acf37bf505bd0621ca0239455fd8f43d16c0491010148ca68f979060200161107d565b61012d5460408051808201909152600e81526d24a724aa24a0a624ad20aa24a7a760911b6020820152906114495760405162461bcd60e51b815260040161063591906124d6565b50600081815260c8602052604090205480158015906114685750803410155b6040518060400160405280600a8152602001692b20a624a220aa24a7a760b11b815250906114a95760405162461bcd60e51b815260040161063591906124d6565b5060c95460408051808201909152600b81526a554e415641494c41424c4560a81b60208201529060ff166114f05760405162461bcd60e51b815260040161063591906124d6565b5060006115378585808060200260200160405190810160405280939291908181526020018383602002808284376000920191909152505061012d549150610a5b9050611a2b565b9050806115ef576115ac8585808060200260200160405190810160405280939291908181526020018383602002808284376000920191909152505061012d5491506115829050611a2b565b86604051602001610a7e92919060609290921b6001600160601b0319168252601482015260340190565b6040518060400160405280600a8152602001692b20a624a220aa24a7a760b11b815250906115ed5760405162461bcd60e51b815260040161063591906124d6565b505b6115f883611cb2565b611600611f34565b6064546040516545524337323160d01b60208201526000916201000090046001600160a01b03169063dae3f63490602601604051602081830303815290604052805190602001206040518263ffffffff1660e01b815260040161166591815260200190565b602060405180830381865afa158015611682573d6000803e3d6000fd5b505050506040513d601f19601f820116820180604052508101906116a691906126c2565b9050806001600160a01b0316632cfd30056116bf611a2b565b6040516001600160e01b031960e084901b1681526001600160a01b03909116600482015260248101879052604401600060405180830381600087803b15801561170757600080fd5b505af115801561171b573d6000803e3d6000fd5b5050505061175961172a611a2b565b82868660006040518060400160405280600981526020016815da1a5d195b1a5cdd60ba1b815250610cc661116b565b505050505050565b7f000000000000000000000000000000000000000000000000000000000000000061178b81611bfd565b6040518060400160405280600d81526020016c20aaaa2427a924ad20aa24a7a760991b815250906117cf5760405162461bcd60e51b815260040161063591906124d6565b506117db848484612064565b50505050565b7f000000000000000000000000000000000000000000000000000000000000000061180b81611bfd565b6040518060400160405280600d81526020016c20aaaa2427a924ad20aa24a7a760991b8152509061184f5760405162461bcd60e51b815260040161063591906124d6565b5060408051808201909152600a8152692b20a624a220aa24a7a760b11b60208201528483146118915760405162461bcd60e51b815260040161063591906124d6565b5060005b8085146118f5578383828181106118ae576118ae612613565b9050602002013560c860008888858181106118cb576118cb612613565b90506020020135815260200190815260200160002081905550806118ee9061263f565b9050611895565b507fb983419af342763d5a20324a9f5f57c5fced27c5a08d08b398c0f79ee161c06f8585858560405161087e9493929190612690565b61012c805461193990612791565b80601f016020809104026020016040519081016040528092919081815260200182805461196590612791565b80156119b25780601f10611987576101008083540402835291602001916119b2565b820191906000526020600020905b81548152906001019060200180831161199557829003601f168201915b505050505081565b6000806119c683610cd5565b600084815260cb60205260409020549091508015611a23576001600160a01b038516600090815260cc6020908152604080832087845290915281205490611a0d8284612755565b9050838110611a1c5783611a1e565b805b935050505b509392505050565b60007f00000000000000000000000000000000000000000000000000000000000000006001600160a01b0316331415611a6b575060131936013560601c90565b503390565b905090565b6000611a70611aa560017f797d7c7d0df25d67e029b044c5bcb2b89d68f6483382b5f85e64485950ed88d1612755565b90565b606454600090610100900460ff1615611af1578160ff166001148015611acd5750303b155b611ae95760405162461bcd60e51b8152600401610635906127cc565b506000919050565b60645460ff808416911610611b185760405162461bcd60e51b8152600401610635906127cc565b506064805460ff191660ff92909216919091179055600190565b919050565b606454610100900460ff16611ba25760405162461bcd60e51b815260206004820152602b60248201527f496e697469616c697a61626c653a20636f6e7472616374206973206e6f74206960448201526a6e697469616c697a696e6760a81b6064820152608401610635565b6064805462010000600160b01b031916620100006001600160a01b038481168202929092179283905560405192041681527f4f8cfde3439a1a302c21ca51eec26086efbfd940b8c0279889fc6bb6e73ecc6690602001610690565b6064546000906201000090046001600160a01b031663ed82f4b8611c1f611a2b565b6040516001600160e01b031960e084901b1681526001600160a01b03909116600482015230602482015260ff85166044820152606401602060405180830381865afa158015611c72573d6000803e3d6000fd5b505050506040513d601f19601f82011682018060405250810190611c96919061281a565b92915050565b600082611ca98584612077565b14949350505050565b60c954600160481b90046001600160401b031615611d735760c95460408051808201909152600f81526e212aacafa624a6a4aa2fa2a92927a960891b6020820152906001600160401b03600160881b82048116600160481b9092041611611d2c5760405162461bcd60e51b815260040161063591906124d6565b5060c98054600160881b90046001600160401b0316906011611d4d83612837565b91906101000a8154816001600160401b0302191690836001600160401b03160217905550505b60c95461010090046001600160401b031615611e1e5760ca6000611d95611a2b565b6001600160a01b03166001600160a01b031681526020019081526020016000205460c960019054906101000a90046001600160401b03166001600160401b0316116040518060400160405280600f81526020016e212aacafa624a6a4aa2fa2a92927a960891b81525090611e1c5760405162461bcd60e51b815260040161063591906124d6565b505b600081815260cb602052604090205415611ef95760cc6000611e3e611a2b565b6001600160a01b031681526020808201929092526040908101600090812084825283528181205460cb845290829020548251808401909352600f83526e212aacafa624a6a4aa2fa2a92927a960891b93830193909352909111611eb45760405162461bcd60e51b815260040161063591906124d6565b5060cc6000611ec1611a2b565b6001600160a01b03168152602080820192909252604090810160009081208482529092528120805491611ef38361263f565b91905055505b60ca6000611f05611a2b565b6001600160a01b0316815260208101919091526040016000908120805491611f2c8361263f565b919050555050565b6000606460029054906101000a90046001600160a01b03166001600160a01b0316633b19e84a6040518163ffffffff1660e01b8152600401602060405180830381865afa158015611f89573d6000803e3d6000fd5b505050506040513d601f19601f82011682018060405250810190611fad91906126c2565b6040805180820190915260138152724e4f5f54524541535552595f4144445245535360681b60208201529091506001600160a01b0382166120015760405162461bcd60e51b815260040161063591906124d6565b506120156001600160a01b038216346120e3565b50565b7ffd039b5cdcca16322f128fa1acbd38806268c1efe2d12cb75cfdfe19d7beacb787878787878787604051612053979695949392919061285e565b60405180910390a150505050505050565b61012d8390556117db61012c83836121fc565b600081815b8451811015611a2357600085828151811061209957612099612613565b602002602001015190508083116120bf57600083815260208290526040902092506120d0565b600081815260208490526040902092505b50806120db8161263f565b91505061207c565b804710156121335760405162461bcd60e51b815260206004820152601d60248201527f416464726573733a20696e73756666696369656e742062616c616e63650000006044820152606401610635565b6000826001600160a01b03168260405160006040518083038185875af1925050503d8060008114612180576040519150601f19603f3d011682016040523d82523d6000602084013e612185565b606091505b505090508061072f5760405162461bcd60e51b815260206004820152603a60248201527f416464726573733a20756e61626c6520746f2073656e642076616c75652c207260448201527f6563697069656e74206d617920686176652072657665727465640000000000006064820152608401610635565b82805461220890612791565b90600052602060002090601f01602090048101928261222a5760008555612270565b82601f106122435782800160ff19823516178555612270565b82800160010185558215612270579182015b82811115612270578235825591602001919060010190612255565b5061227c929150612280565b5090565b5b8082111561227c5760008155600101612281565b6001600160a01b038116811461201557600080fd5b6000602082840312156122bc57600080fd5b81356122c781612295565b9392505050565b80356001600160401b0381168114611b3257600080fd5b600080604083850312156122f857600080fd5b823561230381612295565b9150612311602084016122ce565b90509250929050565b60008083601f84011261232c57600080fd5b5081356001600160401b0381111561234357600080fd5b6020830191508360208260051b850101111561235e57600080fd5b9250929050565b6000806000806040858703121561237b57600080fd5b84356001600160401b038082111561239257600080fd5b61239e8883890161231a565b909650945060208701359150808211156123b757600080fd5b506123c48782880161231a565b95989497509550505050565b6000806000806000608086880312156123e857600080fd5b85356001600160401b038111156123fe57600080fd5b61240a8882890161231a565b9099909850602088013597604081013597506060013595509350505050565b60006020828403121561243b57600080fd5b5035919050565b6000806040838503121561245557600080fd5b823561246081612295565b946020939093013593505050565b60006020828403121561248057600080fd5b6122c7826122ce565b6000815180845260005b818110156124af57602081850181015186830182015201612493565b818111156124c1576000602083870101525b50601f01601f19169290920160200192915050565b6020815260006122c76020830184612489565b600080604083850312156124fc57600080fd5b823561250781612295565b9150602083013561251781612295565b809150509250929050565b801515811461201557600080fd5b60006020828403121561254257600080fd5b81356122c781612522565b60008060006040848603121561256257600080fd5b83356001600160401b0381111561257857600080fd5b6125848682870161231a565b909790965060209590950135949350505050565b6000806000604084860312156125ad57600080fd5b8335925060208401356001600160401b03808211156125cb57600080fd5b818601915086601f8301126125df57600080fd5b8135818111156125ee57600080fd5b87602082850101111561260057600080fd5b6020830194508093505050509250925092565b634e487b7160e01b600052603260045260246000fd5b634e487b7160e01b600052601160045260246000fd5b600060001982141561265357612653612629565b5060010190565b81835260006001600160fb1b0383111561267357600080fd5b8260051b8083602087013760009401602001938452509192915050565b6040815260006126a460408301868861265a565b82810360208401526126b781858761265a565b979650505050505050565b6000602082840312156126d457600080fd5b81516122c781612295565b60006001600160401b03838116908316818110156126ff576126ff612629565b039392505050565b60608152600061271a6060830186612489565b84602084015282810360408401526127328185612489565b9695505050505050565b60006020828403121561274e57600080fd5b5051919050565b60008282101561276757612767612629565b500390565b600060ff821660ff84168060ff0382111561278957612789612629565b019392505050565b600181811c908216806127a557607f821691505b602082108114156127c657634e487b7160e01b600052602260045260246000fd5b50919050565b6020808252602e908201527f496e697469616c697a61626c653a20636f6e747261637420697320616c72656160408201526d191e481a5b9a5d1a585b1a5e995960921b606082015260800190565b60006020828403121561282c57600080fd5b81516122c781612522565b60006001600160401b038083168181141561285457612854612629565b6001019392505050565b6001600160a01b038881168252878116602083015260408201879052606082018690528416608082015260e060a082018190526000906128a090830185612489565b82810360c08401526128b28185612489565b9a995050505050505050505056fea26469706673582212200d5150f9fe03853c8ab84853fc452b1bc795b52541b6abf5b46b8577943cc4d364736f6c634300080c0033",
  "devdoc": {
    "kind": "dev",
    "methods": {
      "implementation()": {
        "details": "Add appCode for external access"
      },
      "upgrade(address)": {
        "details": "Update via appCode"
      }
    },
    "version": 1
  },
  "userdoc": {
    "kind": "user",
    "methods": {},
    "version": 1
  },
  "storageLayout": {
    "storage": [
      {
        "astId": 11829,
        "contract": "contracts/apps/ERC721Sale/ERC721WhitelistSale.sol:ERC721WhitelistSale",
        "label": "__gap",
        "offset": 0,
        "slot": "0",
        "type": "t_array(t_uint256)100_storage"
      },
      {
        "astId": 130,
        "contract": "contracts/apps/ERC721Sale/ERC721WhitelistSale.sol:ERC721WhitelistSale",
        "label": "_initialized",
        "offset": 0,
        "slot": "100",
        "type": "t_uint8"
      },
      {
        "astId": 133,
        "contract": "contracts/apps/ERC721Sale/ERC721WhitelistSale.sol:ERC721WhitelistSale",
        "label": "_initializing",
        "offset": 1,
        "slot": "100",
        "type": "t_bool"
      },
      {
        "astId": 8387,
        "contract": "contracts/apps/ERC721Sale/ERC721WhitelistSale.sol:ERC721WhitelistSale",
        "label": "kernel",
        "offset": 2,
        "slot": "100",
        "type": "t_contract(IKernel)13380"
      },
      {
        "astId": 8390,
        "contract": "contracts/apps/ERC721Sale/ERC721WhitelistSale.sol:ERC721WhitelistSale",
        "label": "_nextRoleId",
        "offset": 22,
        "slot": "100",
        "type": "t_uint8"
      },
      {
        "astId": 8394,
        "contract": "contracts/apps/ERC721Sale/ERC721WhitelistSale.sol:ERC721WhitelistSale",
        "label": "__gap",
        "offset": 0,
        "slot": "101",
        "type": "t_array(t_uint256)99_storage"
      },
      {
        "astId": 10498,
        "contract": "contracts/apps/ERC721Sale/ERC721WhitelistSale.sol:ERC721WhitelistSale",
        "label": "tierPrices",
        "offset": 0,
        "slot": "200",
        "type": "t_mapping(t_bytes32,t_uint256)"
      },
      {
        "astId": 10500,
        "contract": "contracts/apps/ERC721Sale/ERC721WhitelistSale.sol:ERC721WhitelistSale",
        "label": "isActive",
        "offset": 0,
        "slot": "201",
        "type": "t_bool"
      },
      {
        "astId": 10502,
        "contract": "contracts/apps/ERC721Sale/ERC721WhitelistSale.sol:ERC721WhitelistSale",
        "label": "claimLimit",
        "offset": 1,
        "slot": "201",
        "type": "t_uint64"
      },
      {
        "astId": 10504,
        "contract": "contracts/apps/ERC721Sale/ERC721WhitelistSale.sol:ERC721WhitelistSale",
        "label": "totalClaimsLimit",
        "offset": 9,
        "slot": "201",
        "type": "t_uint64"
      },
      {
        "astId": 10506,
        "contract": "contracts/apps/ERC721Sale/ERC721WhitelistSale.sol:ERC721WhitelistSale",
        "label": "totalClaimed",
        "offset": 17,
        "slot": "201",
        "type": "t_uint64"
      },
      {
        "astId": 10510,
        "contract": "contracts/apps/ERC721Sale/ERC721WhitelistSale.sol:ERC721WhitelistSale",
        "label": "claims",
        "offset": 0,
        "slot": "202",
        "type": "t_mapping(t_address,t_uint256)"
      },
      {
        "astId": 10514,
        "contract": "contracts/apps/ERC721Sale/ERC721WhitelistSale.sol:ERC721WhitelistSale",
        "label": "tierPerWalletLimit",
        "offset": 0,
        "slot": "203",
        "type": "t_mapping(t_bytes32,t_uint256)"
      },
      {
        "astId": 10520,
        "contract": "contracts/apps/ERC721Sale/ERC721WhitelistSale.sol:ERC721WhitelistSale",
        "label": "tierPerWalletClaimed",
        "offset": 0,
        "slot": "204",
        "type": "t_mapping(t_address,t_mapping(t_bytes32,t_uint256))"
      },
      {
        "astId": 10524,
        "contract": "contracts/apps/ERC721Sale/ERC721WhitelistSale.sol:ERC721WhitelistSale",
        "label": "__gap",
        "offset": 0,
        "slot": "205",
        "type": "t_array(t_uint256)95_storage"
      },
      {
        "astId": 11453,
        "contract": "contracts/apps/ERC721Sale/ERC721WhitelistSale.sol:ERC721WhitelistSale",
        "label": "merkleProofIpfsHash",
        "offset": 0,
        "slot": "300",
        "type": "t_bytes_storage"
      },
      {
        "astId": 11455,
        "contract": "contracts/apps/ERC721Sale/ERC721WhitelistSale.sol:ERC721WhitelistSale",
        "label": "_merkleRoot",
        "offset": 0,
        "slot": "301",
        "type": "t_bytes32"
      }
    ],
    "types": {
      "t_address": {
        "encoding": "inplace",
        "label": "address",
        "numberOfBytes": "20"
      },
      "t_array(t_uint256)100_storage": {
        "base": "t_uint256",
        "encoding": "inplace",
        "label": "uint256[100]",
        "numberOfBytes": "3200"
      },
      "t_array(t_uint256)95_storage": {
        "base": "t_uint256",
        "encoding": "inplace",
        "label": "uint256[95]",
        "numberOfBytes": "3040"
      },
      "t_array(t_uint256)99_storage": {
        "base": "t_uint256",
        "encoding": "inplace",
        "label": "uint256[99]",
        "numberOfBytes": "3168"
      },
      "t_bool": {
        "encoding": "inplace",
        "label": "bool",
        "numberOfBytes": "1"
      },
      "t_bytes32": {
        "encoding": "inplace",
        "label": "bytes32",
        "numberOfBytes": "32"
      },
      "t_bytes_storage": {
        "encoding": "bytes",
        "label": "bytes",
        "numberOfBytes": "32"
      },
      "t_contract(IKernel)13380": {
        "encoding": "inplace",
        "label": "contract IKernel",
        "numberOfBytes": "20"
      },
      "t_mapping(t_address,t_mapping(t_bytes32,t_uint256))": {
        "encoding": "mapping",
        "key": "t_address",
        "label": "mapping(address => mapping(bytes32 => uint256))",
        "numberOfBytes": "32",
        "value": "t_mapping(t_bytes32,t_uint256)"
      },
      "t_mapping(t_address,t_uint256)": {
        "encoding": "mapping",
        "key": "t_address",
        "label": "mapping(address => uint256)",
        "numberOfBytes": "32",
        "value": "t_uint256"
      },
      "t_mapping(t_bytes32,t_uint256)": {
        "encoding": "mapping",
        "key": "t_bytes32",
        "label": "mapping(bytes32 => uint256)",
        "numberOfBytes": "32",
        "value": "t_uint256"
      },
      "t_uint256": {
        "encoding": "inplace",
        "label": "uint256",
        "numberOfBytes": "32"
      },
      "t_uint64": {
        "encoding": "inplace",
        "label": "uint64",
        "numberOfBytes": "8"
      },
      "t_uint8": {
        "encoding": "inplace",
        "label": "uint8",
        "numberOfBytes": "1"
      }
    }
  }
}