{
  "address": "0x4a06e2ff9939e34E6784933A274A88214F5B4b0C",
  "abi": [
    {
      "inputs": [
        {
          "internalType": "address",
          "name": "nativeTokenWrapperAddress_",
          "type": "address"
        },
        {
          "internalType": "address",
          "name": "nativeTokenAddress_",
          "type": "address"
        }
      ],
      "stateMutability": "nonpayable",
      "type": "constructor"
    },
    {
      "anonymous": false,
      "inputs": [
        {
          "indexed": false,
          "internalType": "uint8",
          "name": "version",
          "type": "uint8"
        }
      ],
      "name": "Initialized",
      "type": "event"
    },
    {
      "anonymous": false,
      "inputs": [
        {
          "indexed": true,
          "internalType": "address",
          "name": "previousOwner",
          "type": "address"
        },
        {
          "indexed": true,
          "internalType": "address",
          "name": "newOwner",
          "type": "address"
        }
      ],
      "name": "OwnershipTransferred",
      "type": "event"
    },
    {
      "anonymous": false,
      "inputs": [
        {
          "indexed": false,
          "internalType": "uint32",
          "name": "twapInterval",
          "type": "uint32"
        }
      ],
      "name": "SetTwapInterval",
      "type": "event"
    },
    {
      "anonymous": false,
      "inputs": [
        {
          "indexed": false,
          "internalType": "address",
          "name": "code",
          "type": "address"
        }
      ],
      "name": "Upgrade",
      "type": "event"
    },
    {
      "inputs": [],
      "name": "__semver",
      "outputs": [
        {
          "internalType": "string",
          "name": "",
          "type": "string"
        }
      ],
      "stateMutability": "view",
      "type": "function"
    },
    {
      "inputs": [
        {
          "internalType": "address",
          "name": "tokenSalePrice",
          "type": "address"
        },
        {
          "internalType": "address",
          "name": "tokenBuyPrice",
          "type": "address"
        }
      ],
      "name": "getTradePrice",
      "outputs": [
        {
          "internalType": "uint256",
          "name": "price",
          "type": "uint256"
        }
      ],
      "stateMutability": "view",
      "type": "function"
    },
    {
      "inputs": [],
      "name": "implementation",
      "outputs": [
        {
          "internalType": "address",
          "name": "",
          "type": "address"
        }
      ],
      "stateMutability": "view",
      "type": "function"
    },
    {
      "inputs": [
        {
          "internalType": "address",
          "name": "tokenSalePrice",
          "type": "address"
        },
        {
          "internalType": "address",
          "name": "tokenBuyPrice",
          "type": "address"
        },
        {
          "internalType": "uint16",
          "name": "size",
          "type": "uint16"
        }
      ],
      "name": "increasePoolHistory",
      "outputs": [],
      "stateMutability": "nonpayable",
      "type": "function"
    },
    {
      "inputs": [
        {
          "internalType": "contract IUniswapV3Factory",
          "name": "uniswapFactory_",
          "type": "address"
        },
        {
          "internalType": "uint32",
          "name": "twapInterval_",
          "type": "uint32"
        },
        {
          "internalType": "address",
          "name": "owner_",
          "type": "address"
        }
      ],
      "name": "initialize",
      "outputs": [],
      "stateMutability": "nonpayable",
      "type": "function"
    },
    {
      "inputs": [
        {
          "internalType": "address",
          "name": "tokenAddress_",
          "type": "address"
        }
      ],
      "name": "isInWhitelistTokenAddress",
      "outputs": [
        {
          "internalType": "bool",
          "name": "",
          "type": "bool"
        }
      ],
      "stateMutability": "view",
      "type": "function"
    },
    {
      "inputs": [],
      "name": "nativeTokenAddress",
      "outputs": [
        {
          "internalType": "address",
          "name": "",
          "type": "address"
        }
      ],
      "stateMutability": "view",
      "type": "function"
    },
    {
      "inputs": [],
      "name": "nativeTokenWrapperAddress",
      "outputs": [
        {
          "internalType": "address",
          "name": "",
          "type": "address"
        }
      ],
      "stateMutability": "view",
      "type": "function"
    },
    {
      "inputs": [],
      "name": "owner",
      "outputs": [
        {
          "internalType": "address",
          "name": "",
          "type": "address"
        }
      ],
      "stateMutability": "view",
      "type": "function"
    },
    {
      "inputs": [],
      "name": "renounceOwnership",
      "outputs": [],
      "stateMutability": "nonpayable",
      "type": "function"
    },
    {
      "inputs": [
        {
          "internalType": "contract IUniswapV3Factory",
          "name": "uniswapFactory_",
          "type": "address"
        }
      ],
      "name": "setFactoryAddress",
      "outputs": [],
      "stateMutability": "nonpayable",
      "type": "function"
    },
    {
      "inputs": [
        {
          "internalType": "uint32",
          "name": "twapInterval_",
          "type": "uint32"
        }
      ],
      "name": "setTwapInterval",
      "outputs": [],
      "stateMutability": "nonpayable",
      "type": "function"
    },
    {
      "inputs": [
        {
          "internalType": "address[]",
          "name": "tokenAddress_",
          "type": "address[]"
        }
      ],
      "name": "setWhitelistTokenAddress",
      "outputs": [],
      "stateMutability": "nonpayable",
      "type": "function"
    },
    {
      "inputs": [
        {
          "internalType": "address",
          "name": "newOwner",
          "type": "address"
        }
      ],
      "name": "transferOwnership",
      "outputs": [],
      "stateMutability": "nonpayable",
      "type": "function"
    },
    {
      "inputs": [],
      "name": "twapInterval",
      "outputs": [
        {
          "internalType": "uint32",
          "name": "",
          "type": "uint32"
        }
      ],
      "stateMutability": "view",
      "type": "function"
    },
    {
      "inputs": [],
      "name": "uniswapFactory",
      "outputs": [
        {
          "internalType": "contract IUniswapV3Factory",
          "name": "",
          "type": "address"
        }
      ],
      "stateMutability": "view",
      "type": "function"
    },
    {
      "inputs": [
        {
          "internalType": "address",
          "name": "appCode",
          "type": "address"
        }
      ],
      "name": "upgrade",
      "outputs": [],
      "stateMutability": "nonpayable",
      "type": "function"
    },
    {
      "inputs": [
        {
          "internalType": "uint256",
          "name": "",
          "type": "uint256"
        }
      ],
      "name": "whitelistTokens",
      "outputs": [
        {
          "internalType": "address",
          "name": "",
          "type": "address"
        }
      ],
      "stateMutability": "view",
      "type": "function"
    }
  ],
  "transactionHash": "0xf40e88ad61b3b6b569462133158358ba811dda1904b5cd74f942f31d47addbd1",
  "args": [
    "0x0d500B1d8E8eF31E21C99d1Db9A6444d3ADf1270",
    "0x0000000000000000000000000000000000001010"
  ],
  "numDeployments": 2,
  "solcInputHash": "75cc7dfccd8007eb9e42dab34a409d68",
  "bytecode": "0x6101206040523480156200001257600080fd5b5060405162001f6038038062001f6083398101604081905262000035916200007a565b6001608052600060a052600460c0526001600160a01b0391821660e0521661010052620000b2565b80516001600160a01b03811681146200007557600080fd5b919050565b600080604083850312156200008e57600080fd5b62000099836200005d565b9150620000a9602084016200005d565b90509250929050565b60805160a05160c05160e05161010051611e69620000f7600039600061018c01526000610291015260006106d3015260006106a80152600061067d0152611e696000f3fe608060405234801561001057600080fd5b50600436106101165760003560e01c806368f78079116100a25780638bdb2afa116100715780638bdb2afa146102685780638da5cb5b1461027b578063b32728d11461028c578063c1554a4b146102b3578063f2fde38b146102c657600080fd5b806368f7807914610215578063715018a6146102385780637effd8a71461024057806383c17c551461025557600080fd5b80634d0047ee116100e95780634d0047ee1461018757806358beebc0146101c65780635c60da1b146101e75780635dd9ceb1146101ef578063602a70f11461020257600080fd5b80630900f0101461011b5780631d27050f1461013057806338b42809146101435780633c1d5df014610156575b600080fd5b61012e6101293660046115c8565b6102d9565b005b61012e61013e3660046115f9565b610368565b61012e610151366004611624565b610432565b60c95461016d90600160a01b900463ffffffff1681565b60405163ffffffff90911681526020015b60405180910390f35b6101ae7f000000000000000000000000000000000000000000000000000000000000000081565b6040516001600160a01b03909116815260200161017e565b6101d96101d436600461166f565b6104a4565b60405190815260200161017e565b6101ae610558565b61012e6101fd3660046116a8565b610571565b6101ae61021036600461171d565b6105ac565b6102286102233660046115c8565b6105d6565b604051901515815260200161017e565b61012e610640565b610248610676565b60405161017e9190611736565b61012e6102633660046115c8565b610758565b60c9546101ae906001600160a01b031681565b6097546001600160a01b03166101ae565b6101ae7f000000000000000000000000000000000000000000000000000000000000000081565b61012e6102c136600461178b565b6107a4565b61012e6102d43660046115c8565b610848565b6097546001600160a01b0316331461030c5760405162461bcd60e51b8152600401610303906117c9565b60405180910390fd5b806103156108e3565b80546001600160a01b0319166001600160a01b0392831617905560405190821681527ff78721226efe9a1bb678189a16d1554928b9f2192e2cb93eeda83b79fa40007d906020015b60405180910390a150565b6097546001600160a01b031633146103925760405162461bcd60e51b8152600401610303906117c9565b60408051808201909152600a8152692b20a624a220aa24a7a760b11b6020820152634000000063ffffffff8316106103dd5760405162461bcd60e51b81526004016103039190611736565b5060c9805463ffffffff60a01b1916600160a01b63ffffffff8416908102919091179091556040519081527f527bc39eb528cc71e986130940b0d3776f0be67238ecd79f17076e406ff208f99060200161035d565b600061043e848461091b565b6040516332148f6760e01b815261ffff841660048201529091506001600160a01b038216906332148f6790602401600060405180830381600087803b15801561048657600080fd5b505af115801561049a573d6000803e3d6000fd5b5050505050505050565b6000816001600160a01b0316836001600160a01b03161415610536576104c9836105d6565b80156104d957506104d9836105d6565b6040518060400160405280600a8152602001692b20a624a220aa24a7a760b11b8152509061051a5760405162461bcd60e51b81526004016103039190611736565b5061052483610af2565b61052f90600a6118f8565b9050610552565b6000610542848461091b565b905061054e8184610b56565b9150505b92915050565b60006105626108e3565b546001600160a01b0316919050565b6097546001600160a01b0316331461059b5760405162461bcd60e51b8152600401610303906117c9565b6105a760ca838361153b565b505050565b60ca81815481106105bc57600080fd5b6000918252602090912001546001600160a01b0316905081565b6000805b60ca5481101561063757826001600160a01b031660ca828154811061060157610601611907565b6000918252602090912001546001600160a01b031614156106255750600192915050565b8061062f8161191d565b9150506105da565b50600092915050565b6097546001600160a01b0316331461066a5760405162461bcd60e51b8152600401610303906117c9565b6106746000610cd4565b565b60606106a37f00000000000000000000000000000000000000000000000000000000000000006030611938565b6106ce7f00000000000000000000000000000000000000000000000000000000000000006030611938565b6106f97f00000000000000000000000000000000000000000000000000000000000000006030611938565b604051603b60f91b60208201526001600160f81b031960f894851b81166021830152601760f91b6022830181905293851b811660238301526024820193909352921b166025820152602601604051602081830303815290604052905090565b6097546001600160a01b031633146107825760405162461bcd60e51b8152600401610303906117c9565b60c980546001600160a01b0319166001600160a01b0392909216919091179055565b60006107b06001610d26565b905080156107c8576064805461ff0019166101001790555b60c9805463ffffffff8516600160a01b026001600160c01b03199091166001600160a01b038716171790556107fc82610cd4565b8015610842576064805461ff0019169055604051600181527f7f26b83ff96e1f2b6a682f133852f6798a09c465da95921460cefb38474024989060200160405180910390a15b50505050565b6097546001600160a01b031633146108725760405162461bcd60e51b8152600401610303906117c9565b6001600160a01b0381166108d75760405162461bcd60e51b815260206004820152602660248201527f4f776e61626c653a206e6577206f776e657220697320746865207a65726f206160448201526564647265737360d01b6064820152608401610303565b6108e081610cd4565b50565b600061091661091360017f797d7c7d0df25d67e029b044c5bcb2b89d68f6483382b5f85e64485950ed88d161195d565b90565b905090565b60008060008060005b600362ffffff82161015610a715760c9546001600160a01b0316631698ee82888861095362ffffff8616610db5565b6040516001600160e01b031960e086901b1681526001600160a01b03938416600482015292909116602483015262ffffff166044820152606401602060405180830381865afa1580156109aa573d6000803e3d6000fd5b505050506040513d601f19601f820116820180604052508101906109ce9190611974565b93506001600160a01b0384166109e357610a5f565b836001600160a01b0316631a6865026040518163ffffffff1660e01b8152600401602060405180830381865afa158015610a21573d6000803e3d6000fd5b505050506040513d601f19601f82011682018060405250810190610a459190611991565b6001600160801b0316915082821115610a5f578192508394505b80610a69816119ba565b915050610924565b506001600160a01b03841615801590610a9457506000846001600160a01b03163b115b6040518060400160405280601881526020017f4c49515549444954595f504f4f4c5f4e4f545f464f554e44000000000000000081525090610ae85760405162461bcd60e51b81526004016103039190611736565b5050505092915050565b6000816001600160a01b031663313ce5676040518163ffffffff1660e01b8152600401602060405180830381865afa158015610b32573d6000803e3d6000fd5b505050506040513d601f19601f8201168201806040525081019061055291906119ee565b60c95460009083908290610b78908390600160a01b900463ffffffff16610df6565b90506000610b946001600160a01b03831680600160601b610fc3565b90506000836001600160a01b0316630dfe16816040518163ffffffff1660e01b8152600401602060405180830381865afa158015610bd6573d6000803e3d6000fd5b505050506040513d601f19601f82011682018060405250810190610bfa9190611974565b9050856001600160a01b0316816001600160a01b03161415610ca6576000846001600160a01b031663d21220a76040518163ffffffff1660e01b8152600401602060405180830381865afa158015610c56573d6000803e3d6000fd5b505050506040513d601f19601f82011682018060405250810190610c7a9190611974565b9050826060610c8883610af2565b610c9390600a6118f8565b610c9e92911b611a1f565b955050610ae8565b606082610cb283610af2565b610cbd90600a6118f8565b610cc79190611a33565b901c979650505050505050565b609780546001600160a01b038381166001600160a01b0319831681179093556040519116919082907f8be0079c531659141344cd1fd0a4f28419497f9722a3daafe3b4186f6b6457e090600090a35050565b606454600090610100900460ff1615610d6f578160ff166001148015610d4b5750303b155b610d675760405162461bcd60e51b815260040161030390611a52565b506000919050565b60645460ff808416911610610d965760405162461bcd60e51b815260040161030390611a52565b506064805460ff191660ff92909216919091179055600190565b919050565b60408051606081018252606481526101f46020820152610bb891810191909152600090808360038110610dea57610dea611907565b60200201519392505050565b600063ffffffff8216610e7457826001600160a01b0316633850c7bd6040518163ffffffff1660e01b815260040160e060405180830381865afa158015610e41573d6000803e3d6000fd5b505050506040513d601f19601f82011682018060405250810190610e659190611aa0565b50949550610552945050505050565b6040805160028082526060820183526000926020830190803683370190505090508281600081518110610ea957610ea9611907565b602002602001019063ffffffff16908163ffffffff1681525050600081600181518110610ed857610ed8611907565b63ffffffff9092166020928302919091019091015260405163883bdbfd60e01b81526000906001600160a01b0386169063883bdbfd90610f1c908590600401611b5a565b600060405180830381865afa158015610f39573d6000803e3d6000fd5b505050506040513d6000823e601f3d908101601f19168201604052610f619190810190611c6d565b509050610fba8460030b82600081518110610f7e57610f7e611907565b602002602001015183600181518110610f9957610f99611907565b6020026020010151610fab9190611d39565b610fb59190611d89565b61111e565b95945050505050565b600080806000198587098587029250828110838203039150508060001415610ffd5760008411610ff257600080fd5b508290049050611117565b80841161100957600080fd5b600084868809600095508593811190920391905060016110298184611a33565b90931792600061103a876003611a33565b60021890506110498188611a33565b61105490600261195d565b61105e9082611a33565b905061106a8188611a33565b61107590600261195d565b61107f9082611a33565b905061108b8188611a33565b61109690600261195d565b6110a09082611a33565b90506110ac8188611a33565b6110b790600261195d565b6110c19082611a33565b90506110cd8188611a33565b6110d890600261195d565b6110e29082611a33565b90506110ee8188611a33565b6110f990600261195d565b6111039082611a33565b905061110f8186611a33565b955050505050505b9392505050565b60008060008360020b12611135578260020b611142565b8260020b61114290611dc7565b9050611151620d89e719611de4565b60020b8111156111875760405162461bcd60e51b81526020600482015260016024820152601560fa1b6044820152606401610303565b60006001821661119b57600160801b6111ad565b6ffffcb933bd6fad37aa2d162d1a5940015b70ffffffffffffffffffffffffffffffffff16905060028216156111ec5760806111e7826ffff97272373d413259a46990580e213a611a33565b901c90505b6004821615611216576080611211826ffff2e50f5f656932ef12357cf3c7fdcc611a33565b901c90505b600882161561124057608061123b826fffe5caca7e10e4e61c3624eaa0941cd0611a33565b901c90505b601082161561126a576080611265826fffcb9843d60f6159c9db58835c926644611a33565b901c90505b602082161561129457608061128f826fff973b41fa98c081472e6896dfb254c0611a33565b901c90505b60408216156112be5760806112b9826fff2ea16466c96a3843ec78b326b52861611a33565b901c90505b60808216156112e85760806112e3826ffe5dee046a99a2a811c461f1969c3053611a33565b901c90505b61010082161561131357608061130e826ffcbe86c7900a88aedcffc83b479aa3a4611a33565b901c90505b61020082161561133e576080611339826ff987a7253ac413176f2b074cf7815e54611a33565b901c90505b610400821615611369576080611364826ff3392b0822b70005940c7a398e4b70f3611a33565b901c90505b61080082161561139457608061138f826fe7159475a2c29b7443b29c7fa6e889d9611a33565b901c90505b6110008216156113bf5760806113ba826fd097f3bdfd2022b8845ad8f792aa5825611a33565b901c90505b6120008216156113ea5760806113e5826fa9f746462d870fdf8a65dc1f90e061e5611a33565b901c90505b614000821615611415576080611410826f70d869a156d2a1b890bb3df62baf32f7611a33565b901c90505b61800082161561144057608061143b826f31be135f97d08fd981231505542fcfa6611a33565b901c90505b6201000082161561146c576080611467826f09aa508b5b7a84e1c677de54f3e99bc9611a33565b901c90505b62020000821615611497576080611492826e5d6af8dedb81196699c329225ee604611a33565b901c90505b620400008216156114c15760806114bc826d2216e584f5fa1ea926041bedfe98611a33565b901c90505b620800008216156114e95760806114e4826b048a170391f7dc42444e8fa2611a33565b901c90505b60008460020b13156115045761150181600019611a1f565b90505b61151364010000000082611e07565b1561151f576001611522565b60005b6115339060ff16602083901c611e1b565b949350505050565b82805482825590600052602060002090810192821561158e579160200282015b8281111561158e5781546001600160a01b0319166001600160a01b0384351617825560209092019160019091019061155b565b5061159a92915061159e565b5090565b5b8082111561159a576000815560010161159f565b6001600160a01b03811681146108e057600080fd5b6000602082840312156115da57600080fd5b8135611117816115b3565b803563ffffffff81168114610db057600080fd5b60006020828403121561160b57600080fd5b611117826115e5565b61ffff811681146108e057600080fd5b60008060006060848603121561163957600080fd5b8335611644816115b3565b92506020840135611654816115b3565b9150604084013561166481611614565b809150509250925092565b6000806040838503121561168257600080fd5b823561168d816115b3565b9150602083013561169d816115b3565b809150509250929050565b600080602083850312156116bb57600080fd5b823567ffffffffffffffff808211156116d357600080fd5b818501915085601f8301126116e757600080fd5b8135818111156116f657600080fd5b8660208260051b850101111561170b57600080fd5b60209290920196919550909350505050565b60006020828403121561172f57600080fd5b5035919050565b600060208083528351808285015260005b8181101561176357858101830151858201604001528201611747565b81811115611775576000604083870101525b50601f01601f1916929092016040019392505050565b6000806000606084860312156117a057600080fd5b83356117ab816115b3565b92506117b9602085016115e5565b91506040840135611664816115b3565b6020808252818101527f4f776e61626c653a2063616c6c6572206973206e6f7420746865206f776e6572604082015260600190565b634e487b7160e01b600052601160045260246000fd5b600181815b8085111561184f578160001904821115611835576118356117fe565b8085161561184257918102915b93841c9390800290611819565b509250929050565b60008261186657506001610552565b8161187357506000610552565b81600181146118895760028114611893576118af565b6001915050610552565b60ff8411156118a4576118a46117fe565b50506001821b610552565b5060208310610133831016604e8410600b84101617156118d2575081810a610552565b6118dc8383611814565b80600019048211156118f0576118f06117fe565b029392505050565b600061111760ff841683611857565b634e487b7160e01b600052603260045260246000fd5b6000600019821415611931576119316117fe565b5060010190565b600060ff821660ff84168060ff03821115611955576119556117fe565b019392505050565b60008282101561196f5761196f6117fe565b500390565b60006020828403121561198657600080fd5b8151611117816115b3565b6000602082840312156119a357600080fd5b81516001600160801b038116811461111757600080fd5b600062ffffff808316818114156119d3576119d36117fe565b6001019392505050565b805160ff81168114610db057600080fd5b600060208284031215611a0057600080fd5b611117826119dd565b634e487b7160e01b600052601260045260246000fd5b600082611a2e57611a2e611a09565b500490565b6000816000190483118215151615611a4d57611a4d6117fe565b500290565b6020808252602e908201527f496e697469616c697a61626c653a20636f6e747261637420697320616c72656160408201526d191e481a5b9a5d1a585b1a5e995960921b606082015260800190565b600080600080600080600060e0888a031215611abb57600080fd5b8751611ac6816115b3565b8097505060208801518060020b8114611ade57600080fd5b6040890151909650611aef81611614565b6060890151909550611b0081611614565b6080890151909450611b1181611614565b9250611b1f60a089016119dd565b915060c08801518015158114611b3457600080fd5b8091505092959891949750929550565b634e487b7160e01b600052604160045260246000fd5b6020808252825182820181905260009190848201906040850190845b81811015611b9857835163ffffffff1683529284019291840191600101611b76565b50909695505050505050565b604051601f8201601f1916810167ffffffffffffffff81118282101715611bcd57611bcd611b44565b604052919050565b600067ffffffffffffffff821115611bef57611bef611b44565b5060051b60200190565b600082601f830112611c0a57600080fd5b81516020611c1f611c1a83611bd5565b611ba4565b82815260059290921b84018101918181019086841115611c3e57600080fd5b8286015b84811015611c62578051611c55816115b3565b8352918301918301611c42565b509695505050505050565b60008060408385031215611c8057600080fd5b825167ffffffffffffffff80821115611c9857600080fd5b818501915085601f830112611cac57600080fd5b81516020611cbc611c1a83611bd5565b82815260059290921b84018101918181019089841115611cdb57600080fd5b948201945b83861015611d095785518060060b8114611cfa5760008081fd5b82529482019490820190611ce0565b91880151919650909350505080821115611d2257600080fd5b50611d2f85828601611bf9565b9150509250929050565b60008160060b8360060b6000811281667fffffffffffff1901831281151615611d6457611d646117fe565b81667fffffffffffff018313811615611d7f57611d7f6117fe565b5090039392505050565b60008160060b8360060b80611da057611da0611a09565b667fffffffffffff19821460001982141615611dbe57611dbe6117fe565b90059392505050565b6000600160ff1b821415611ddd57611ddd6117fe565b5060000390565b60008160020b627fffff19811415611dfe57611dfe6117fe565b60000392915050565b600082611e1657611e16611a09565b500690565b60008219821115611e2e57611e2e6117fe565b50019056fea2646970667358221220f17e84720389220bf3cf44f520d7c7daf5e0e97937b01568fea8d4d10365885c64736f6c634300080c0033",
  "devdoc": {
    "author": "SuperdaoTeam",
    "details": "Oracle performs integration with UniswapV3 pools for price erc-20 tokens.",
    "kind": "dev",
    "methods": {
      "getTradePrice(address,address)": {
        "details": "Get price in buy token with decimals for one sale token. E.g."
      },
      "implementation()": {
        "details": "Get implementation"
      },
      "owner()": {
        "details": "Returns the address of the current owner."
      },
      "renounceOwnership()": {
        "details": "Leaves the contract without owner. It will not be possible to call `onlyOwner` functions anymore. Can only be called by the current owner. NOTE: Renouncing ownership will leave the contract without an owner, thereby removing any functionality that is only available to the owner."
      },
      "transferOwnership(address)": {
        "details": "Transfers ownership of the contract to a new account (`newOwner`). Can only be called by the current owner."
      },
      "upgrade(address)": {
        "details": "Update via new address"
      }
    },
    "title": "UniswapV3Oracle.sol",
    "version": 1
  },
  "userdoc": {
    "kind": "user",
    "methods": {},
    "version": 1
  },
  "storageLayout": {
    "storage": [
      {
        "astId": 11829,
        "contract": "contracts/oracle/UniswapV3Oracle.sol:UniswapV3Oracle",
        "label": "__gap",
        "offset": 0,
        "slot": "0",
        "type": "t_array(t_uint256)100_storage"
      },
      {
        "astId": 130,
        "contract": "contracts/oracle/UniswapV3Oracle.sol:UniswapV3Oracle",
        "label": "_initialized",
        "offset": 0,
        "slot": "100",
        "type": "t_uint8"
      },
      {
        "astId": 133,
        "contract": "contracts/oracle/UniswapV3Oracle.sol:UniswapV3Oracle",
        "label": "_initializing",
        "offset": 1,
        "slot": "100",
        "type": "t_bool"
      },
      {
        "astId": 1601,
        "contract": "contracts/oracle/UniswapV3Oracle.sol:UniswapV3Oracle",
        "label": "__gap",
        "offset": 0,
        "slot": "101",
        "type": "t_array(t_uint256)50_storage"
      },
      {
        "astId": 10,
        "contract": "contracts/oracle/UniswapV3Oracle.sol:UniswapV3Oracle",
        "label": "_owner",
        "offset": 0,
        "slot": "151",
        "type": "t_address"
      },
      {
        "astId": 122,
        "contract": "contracts/oracle/UniswapV3Oracle.sol:UniswapV3Oracle",
        "label": "__gap",
        "offset": 0,
        "slot": "152",
        "type": "t_array(t_uint256)49_storage"
      },
      {
        "astId": 14444,
        "contract": "contracts/oracle/UniswapV3Oracle.sol:UniswapV3Oracle",
        "label": "uniswapFactory",
        "offset": 0,
        "slot": "201",
        "type": "t_contract(IUniswapV3Factory)6853"
      },
      {
        "astId": 14446,
        "contract": "contracts/oracle/UniswapV3Oracle.sol:UniswapV3Oracle",
        "label": "twapInterval",
        "offset": 20,
        "slot": "201",
        "type": "t_uint32"
      },
      {
        "astId": 14449,
        "contract": "contracts/oracle/UniswapV3Oracle.sol:UniswapV3Oracle",
        "label": "whitelistTokens",
        "offset": 0,
        "slot": "202",
        "type": "t_array(t_address)dyn_storage"
      }
    ],
    "types": {
      "t_address": {
        "encoding": "inplace",
        "label": "address",
        "numberOfBytes": "20"
      },
      "t_array(t_address)dyn_storage": {
        "base": "t_address",
        "encoding": "dynamic_array",
        "label": "address[]",
        "numberOfBytes": "32"
      },
      "t_array(t_uint256)100_storage": {
        "base": "t_uint256",
        "encoding": "inplace",
        "label": "uint256[100]",
        "numberOfBytes": "3200"
      },
      "t_array(t_uint256)49_storage": {
        "base": "t_uint256",
        "encoding": "inplace",
        "label": "uint256[49]",
        "numberOfBytes": "1568"
      },
      "t_array(t_uint256)50_storage": {
        "base": "t_uint256",
        "encoding": "inplace",
        "label": "uint256[50]",
        "numberOfBytes": "1600"
      },
      "t_bool": {
        "encoding": "inplace",
        "label": "bool",
        "numberOfBytes": "1"
      },
      "t_contract(IUniswapV3Factory)6853": {
        "encoding": "inplace",
        "label": "contract IUniswapV3Factory",
        "numberOfBytes": "20"
      },
      "t_uint256": {
        "encoding": "inplace",
        "label": "uint256",
        "numberOfBytes": "32"
      },
      "t_uint32": {
        "encoding": "inplace",
        "label": "uint32",
        "numberOfBytes": "4"
      },
      "t_uint8": {
        "encoding": "inplace",
        "label": "uint8",
        "numberOfBytes": "1"
      }
    }
  }
}