{
  "address": "0xa9969189bb12B10f239deeAeCfE32B8e1930c5e3",
  "abi": [
    {
      "inputs": [
        {
          "internalType": "address",
          "name": "trustedForwarder",
          "type": "address"
        }
      ],
      "stateMutability": "nonpayable",
      "type": "constructor"
    },
    {
      "anonymous": false,
      "inputs": [
        {
          "indexed": false,
          "internalType": "address",
          "name": "admin",
          "type": "address"
        }
      ],
      "name": "AddAdmin",
      "type": "event"
    },
    {
      "anonymous": false,
      "inputs": [
        {
          "indexed": false,
          "internalType": "address",
          "name": "creator",
          "type": "address"
        }
      ],
      "name": "Creator",
      "type": "event"
    },
    {
      "anonymous": false,
      "inputs": [
        {
          "indexed": false,
          "internalType": "contract IKernel",
          "name": "kernel",
          "type": "address"
        }
      ],
      "name": "Init",
      "type": "event"
    },
    {
      "anonymous": false,
      "inputs": [
        {
          "indexed": false,
          "internalType": "uint8",
          "name": "version",
          "type": "uint8"
        }
      ],
      "name": "Initialized",
      "type": "event"
    },
    {
      "anonymous": false,
      "inputs": [
        {
          "indexed": false,
          "internalType": "address",
          "name": "newBeacon",
          "type": "address"
        },
        {
          "indexed": false,
          "internalType": "address",
          "name": "beaconProxy",
          "type": "address"
        }
      ],
      "name": "ProxyMigrated",
      "type": "event"
    },
    {
      "anonymous": false,
      "inputs": [
        {
          "indexed": false,
          "internalType": "address",
          "name": "admin",
          "type": "address"
        }
      ],
      "name": "RemoveAdmin",
      "type": "event"
    },
    {
      "anonymous": false,
      "inputs": [
        {
          "indexed": false,
          "internalType": "address",
          "name": "code",
          "type": "address"
        }
      ],
      "name": "Upgrade",
      "type": "event"
    },
    {
      "inputs": [],
      "name": "SUDO",
      "outputs": [
        {
          "internalType": "uint8",
          "name": "",
          "type": "uint8"
        }
      ],
      "stateMutability": "view",
      "type": "function"
    },
    {
      "inputs": [],
      "name": "__semver",
      "outputs": [
        {
          "internalType": "string",
          "name": "",
          "type": "string"
        }
      ],
      "stateMutability": "view",
      "type": "function"
    },
    {
      "inputs": [
        {
          "internalType": "address",
          "name": "adminAddress",
          "type": "address"
        }
      ],
      "name": "addAdmin",
      "outputs": [],
      "stateMutability": "nonpayable",
      "type": "function"
    },
    {
      "inputs": [],
      "name": "adminAddresses",
      "outputs": [
        {
          "internalType": "address[]",
          "name": "",
          "type": "address[]"
        }
      ],
      "stateMutability": "view",
      "type": "function"
    },
    {
      "inputs": [
        {
          "internalType": "uint32[]",
          "name": "tokenIds",
          "type": "uint32[]"
        }
      ],
      "name": "batchBurn",
      "outputs": [],
      "stateMutability": "nonpayable",
      "type": "function"
    },
    {
      "inputs": [
        {
          "internalType": "address[]",
          "name": "addresses",
          "type": "address[]"
        },
        {
          "internalType": "bytes[]",
          "name": "data",
          "type": "bytes[]"
        }
      ],
      "name": "batchCall",
      "outputs": [
        {
          "internalType": "bytes[]",
          "name": "results",
          "type": "bytes[]"
        }
      ],
      "stateMutability": "nonpayable",
      "type": "function"
    },
    {
      "inputs": [
        {
          "internalType": "address[]",
          "name": "to",
          "type": "address[]"
        },
        {
          "internalType": "bytes32[]",
          "name": "tierValues",
          "type": "bytes32[]"
        }
      ],
      "name": "batchMint",
      "outputs": [],
      "stateMutability": "nonpayable",
      "type": "function"
    },
    {
      "inputs": [
        {
          "internalType": "uint32",
          "name": "tokenId",
          "type": "uint32"
        }
      ],
      "name": "burn",
      "outputs": [],
      "stateMutability": "nonpayable",
      "type": "function"
    },
    {
      "inputs": [
        {
          "internalType": "address",
          "name": "to",
          "type": "address"
        },
        {
          "internalType": "bytes",
          "name": "data",
          "type": "bytes"
        }
      ],
      "name": "call",
      "outputs": [
        {
          "internalType": "bytes",
          "name": "",
          "type": "bytes"
        }
      ],
      "stateMutability": "nonpayable",
      "type": "function"
    },
    {
      "inputs": [],
      "name": "creator",
      "outputs": [
        {
          "internalType": "address",
          "name": "",
          "type": "address"
        }
      ],
      "stateMutability": "view",
      "type": "function"
    },
    {
      "inputs": [],
      "name": "implementation",
      "outputs": [
        {
          "internalType": "address",
          "name": "",
          "type": "address"
        }
      ],
      "stateMutability": "view",
      "type": "function"
    },
    {
      "inputs": [
        {
          "internalType": "contract IKernel",
          "name": "_kernel",
          "type": "address"
        },
        {
          "internalType": "address[]",
          "name": "admins",
          "type": "address[]"
        },
        {
          "internalType": "address",
          "name": "creatorAddress",
          "type": "address"
        }
      ],
      "name": "initialize",
      "outputs": [],
      "stateMutability": "nonpayable",
      "type": "function"
    },
    {
      "inputs": [
        {
          "internalType": "address",
          "name": "adminAddress",
          "type": "address"
        }
      ],
      "name": "isAdmin",
      "outputs": [
        {
          "internalType": "bool",
          "name": "",
          "type": "bool"
        }
      ],
      "stateMutability": "view",
      "type": "function"
    },
    {
      "inputs": [
        {
          "internalType": "address",
          "name": "forwarder",
          "type": "address"
        }
      ],
      "name": "isTrustedForwarder",
      "outputs": [
        {
          "internalType": "bool",
          "name": "",
          "type": "bool"
        }
      ],
      "stateMutability": "view",
      "type": "function"
    },
    {
      "inputs": [],
      "name": "kernel",
      "outputs": [
        {
          "internalType": "contract IKernel",
          "name": "",
          "type": "address"
        }
      ],
      "stateMutability": "view",
      "type": "function"
    },
    {
      "inputs": [
        {
          "internalType": "address",
          "name": "newBeacon",
          "type": "address"
        },
        {
          "internalType": "address",
          "name": "beaconProxy",
          "type": "address"
        }
      ],
      "name": "migrateToBeacon",
      "outputs": [],
      "stateMutability": "nonpayable",
      "type": "function"
    },
    {
      "inputs": [
        {
          "internalType": "address",
          "name": "to",
          "type": "address"
        },
        {
          "internalType": "bytes32",
          "name": "tierValue",
          "type": "bytes32"
        }
      ],
      "name": "mint",
      "outputs": [],
      "stateMutability": "nonpayable",
      "type": "function"
    },
    {
      "inputs": [
        {
          "internalType": "bytes32[]",
          "name": "tierValues",
          "type": "bytes32[]"
        },
        {
          "internalType": "uint256[]",
          "name": "tierPrices_",
          "type": "uint256[]"
        }
      ],
      "name": "openSale__setPaymentPolicy",
      "outputs": [],
      "stateMutability": "nonpayable",
      "type": "function"
    },
    {
      "inputs": [
        {
          "internalType": "address",
          "name": "adminAddress",
          "type": "address"
        }
      ],
      "name": "removeAdmin",
      "outputs": [],
      "stateMutability": "nonpayable",
      "type": "function"
    },
    {
      "inputs": [
        {
          "internalType": "string",
          "name": "uri",
          "type": "string"
        }
      ],
      "name": "setBaseURI",
      "outputs": [],
      "stateMutability": "nonpayable",
      "type": "function"
    },
    {
      "inputs": [
        {
          "internalType": "address",
          "name": "newCreator",
          "type": "address"
        }
      ],
      "name": "setCreator",
      "outputs": [],
      "stateMutability": "nonpayable",
      "type": "function"
    },
    {
      "inputs": [
        {
          "internalType": "bool",
          "name": "burnPolicy",
          "type": "bool"
        }
      ],
      "name": "setRestrictBurnPolicy",
      "outputs": [],
      "stateMutability": "nonpayable",
      "type": "function"
    },
    {
      "inputs": [
        {
          "internalType": "address",
          "name": "appCode",
          "type": "address"
        }
      ],
      "name": "upgrade",
      "outputs": [],
      "stateMutability": "nonpayable",
      "type": "function"
    },
    {
      "inputs": [
        {
          "internalType": "bytes32",
          "name": "merkleRoot",
          "type": "bytes32"
        },
        {
          "internalType": "bytes",
          "name": "merkleProofIpfsHash",
          "type": "bytes"
        }
      ],
      "name": "whitelistSale__setMerkleTree",
      "outputs": [],
      "stateMutability": "nonpayable",
      "type": "function"
    },
    {
      "inputs": [
        {
          "internalType": "bytes32[]",
          "name": "tierValues",
          "type": "bytes32[]"
        },
        {
          "internalType": "uint256[]",
          "name": "tierPrices_",
          "type": "uint256[]"
        }
      ],
      "name": "whitelistSale__setPaymentPolicy",
      "outputs": [],
      "stateMutability": "nonpayable",
      "type": "function"
    }
  ],
  "transactionHash": "0xcf1e3d056229070bf17087c8748756c4e36ca4c80a8587f8570e4a8c57c16e33",
  "args": [
    "0x528Ea358b0De7f9CBBe040F4381f5620a029143f"
  ],
  "numDeployments": 5,
  "solcInputHash": "341c9f0e9410711860e07934fbb5f71b",
  "bytecode": "0x6101206040526064805460ff60b01b191690556200001c62000074565b60ff16610100523480156200003057600080fd5b5060405162002b6938038062002b6983398101604081905262000053916200010c565b6001600160a01b0316608052600160a052600260c052600060e052620001c5565b60645460408051808201909152600a8152692b20a624a220aa24a7a760b11b6020820152600091600f600160b01b90910460ff1610620000d25760405162461bcd60e51b8152600401620000c991906200013e565b60405180910390fd5b5060648054600160b01b900460ff16906016620000ef8362000196565b91906101000a81548160ff021916908360ff160217905550905090565b6000602082840312156200011f57600080fd5b81516001600160a01b03811681146200013757600080fd5b9392505050565b600060208083528351808285015260005b818110156200016d578581018301518582016040015282016200014f565b8181111562000180576000604083870101525b50601f01601f1916929092016040019392505050565b600060ff821660ff811415620001bc57634e487b7160e01b600052601160045260246000fd5b60010192915050565b60805160a05160c05160e051610100516128f66200027360003960008181610387015281816104d3015281816105ef015281816106ff015281816108b101528181610a7601528181610b5401528181610cd201528181610e7a01528181610f8f0152818161120e015281816113760152818161154f015281816117950152611ac401526000611162015260006111370152600061110c01526000818161027e0152611c1201526128f66000f3fe608060405234801561001057600080fd5b50600436106101735760003560e01c80636119cfd6116100de578063a48c072911610097578063d4aae0c411610071578063d4aae0c414610356578063dc5b68a61461036f578063f7de6b9614610382578063ff08e07b146103bb57600080fd5b8063a48c07291461031d578063b762c90514610330578063c648afad1461034357600080fd5b80636119cfd6146102b657806370480275146102c95780637a5984c4146102dc5780637effd8a7146102ef5780637f0c9b63146102f757806392e507651461030a57600080fd5b8063329aad1211610130578063329aad1214610220578063351c6362146102355780633f5160181461024857806355f804b31461025b578063572b6c051461026e5780635c60da1b146102ae57600080fd5b806302d05d3f146101785780630900f010146101a25780631785f53c146101b75780631b8b921d146101ca57806324d7806c146101ea5780632cfd30051461020d575b600080fd5b60ca546001600160a01b03165b6040516001600160a01b0390911681526020015b60405180910390f35b6101b56101b0366004612204565b6103db565b005b6101b56101c5366004612204565b6104a9565b6101dd6101d836600461226a565b6105c1565b604051610199919061231b565b6101fd6101f8366004612204565b6106c7565b6040519015158152602001610199565b6101b561021b36600461232e565b6106d8565b610228610879565b604051610199919061235a565b6101b56102433660046123ec565b61088a565b6101b5610256366004612204565b610a71565b6101b561026936600461242e565b610b2d565b6101fd61027c366004612204565b7f00000000000000000000000000000000000000000000000000000000000000006001600160a01b0390811691161490565b610185610c92565b6101b56102c4366004612464565b610cab565b6101b56102d7366004612204565b610e53565b6101b56102ea3660046124d0565b610f68565b6101dd611105565b6101b5610305366004612504565b6111e7565b6101b5610318366004612464565b61134f565b6101b561032b366004612521565b611422565b6101b561033e366004612464565b611528565b6101b561035136600461255a565b61176e565b606454610185906201000090046001600160a01b031681565b6101b561037d36600461258d565b611917565b6103a97f000000000000000000000000000000000000000000000000000000000000000081565b60405160ff9091168152602001610199565b6103ce6103c9366004612464565b611a9b565b60405161019991906125f5565b6064546201000090046001600160a01b03166103f5611c0e565b6001600160a01b0316146040518060400160405280600d81526020016c20aaaa2427a924ad20aa24a7a760991b8152509061044c5760405162461bcd60e51b8152600401610443919061231b565b60405180910390fd5b5080610456611c53565b80546001600160a01b0319166001600160a01b0392831617905560405190821681527ff78721226efe9a1bb678189a16d1554928b9f2192e2cb93eeda83b79fa40007d906020015b60405180910390a150565b6104c86104b4611c0e565b60ca546001600160a01b0391821691161490565b806104f757506104f77f0000000000000000000000000000000000000000000000000000000000000000611c86565b6040518060400160405280600d81526020016c20aaaa2427a924ad20aa24a7a760991b8152509061053b5760405162461bcd60e51b8152600401610443919061231b565b5061054760c882611d1f565b6040518060400160405280600981526020016812539590549250539560ba1b815250906105875760405162461bcd60e51b8152600401610443919061231b565b506040516001600160a01b03821681527f753f40ca3312b2408759a67875b367955e7baa221daf08aa3d643d96202ac12b9060200161049e565b60606105d36105ce611c0e565b611d34565b806105e457506105e46104b4611c0e565b8061061357506106137f0000000000000000000000000000000000000000000000000000000000000000611c86565b6040518060400160405280600d81526020016c20aaaa2427a924ad20aa24a7a760991b815250906106575760405162461bcd60e51b8152600401610443919061231b565b506106bd8484848080601f0160208091040260200160405190810160405280939291908181526020018383808284376000920191909152505060408051808201909152600d81526c20aaaa2427a924ad20aa24a7a760991b60208201529150611d419050565b90505b9392505050565b60006106d282611d34565b92915050565b6106e36105ce611c0e565b806106f457506106f46104b4611c0e565b8061072357506107237f0000000000000000000000000000000000000000000000000000000000000000611c86565b6040518060400160405280600d81526020016c20aaaa2427a924ad20aa24a7a760991b815250906107675760405162461bcd60e51b8152600401610443919061231b565b50606460029054906101000a90046001600160a01b03166001600160a01b031663dae3f63460405160200161079b90612657565b604051602081830303815290604052805190602001206040518263ffffffff1660e01b81526004016107cf91815260200190565b602060405180830381865afa1580156107ec573d6000803e3d6000fd5b505050506040513d601f19601f820116820180604052508101906108109190612669565b604051632cfd300560e01b81526001600160a01b038481166004830152602482018490529190911690632cfd3005906044015b600060405180830381600087803b15801561085d57600080fd5b505af1158015610871573d6000803e3d6000fd5b505050505050565b606061088560c8611d50565b905090565b6108956105ce611c0e565b806108a657506108a66104b4611c0e565b806108d557506108d57f0000000000000000000000000000000000000000000000000000000000000000611c86565b6040518060400160405280600d81526020016c20aaaa2427a924ad20aa24a7a760991b815250906109195760405162461bcd60e51b8152600401610443919061231b565b5060005b81811015610a6c57606460029054906101000a90046001600160a01b03166001600160a01b031663dae3f63460405160200161095890612657565b604051602081830303815290604052805190602001206040518263ffffffff1660e01b815260040161098c91815260200190565b602060405180830381865afa1580156109a9573d6000803e3d6000fd5b505050506040513d601f19601f820116820180604052508101906109cd9190612669565b6001600160a01b0316637a5984c48484848181106109ed576109ed612686565b9050602002016020810190610a0291906124d0565b6040516001600160e01b031960e084901b16815263ffffffff919091166004820152602401600060405180830381600087803b158015610a4157600080fd5b505af1158015610a55573d6000803e3d6000fd5b505050508080610a64906126b2565b91505061091d565b505050565b610a9a7f0000000000000000000000000000000000000000000000000000000000000000611c86565b6040518060400160405280600d81526020016c20aaaa2427a924ad20aa24a7a760991b81525090610ade5760405162461bcd60e51b8152600401610443919061231b565b5060ca80546001600160a01b0319166001600160a01b0383169081179091556040519081527f77b942a0834ead73d2e76c27f611bd4f14e4cd55de82e1d4bbd5521905f69f0f9060200161049e565b610b386105ce611c0e565b80610b495750610b496104b4611c0e565b80610b785750610b787f0000000000000000000000000000000000000000000000000000000000000000611c86565b6040518060400160405280600d81526020016c20aaaa2427a924ad20aa24a7a760991b81525090610bbc5760405162461bcd60e51b8152600401610443919061231b565b50606460029054906101000a90046001600160a01b03166001600160a01b031663dae3f634604051602001610bf090612657565b604051602081830303815290604052805190602001206040518263ffffffff1660e01b8152600401610c2491815260200190565b602060405180830381865afa158015610c41573d6000803e3d6000fd5b505050506040513d601f19601f82011682018060405250810190610c659190612669565b6001600160a01b03166355f804b383836040518363ffffffff1660e01b81526004016108439291906126f6565b6000610c9c611c53565b546001600160a01b0316919050565b610cb66105ce611c0e565b80610cc75750610cc76104b4611c0e565b80610cf65750610cf67f0000000000000000000000000000000000000000000000000000000000000000611c86565b6040518060400160405280600d81526020016c20aaaa2427a924ad20aa24a7a760991b81525090610d3a5760405162461bcd60e51b8152600401610443919061231b565b506064546040516f4552433732315f4f50454e5f53414c4560801b6020820152620100009091046001600160a01b03169063dae3f634906030015b604051602081830303815290604052805190602001206040518263ffffffff1660e01b8152600401610da991815260200190565b602060405180830381865afa158015610dc6573d6000803e3d6000fd5b505050506040513d601f19601f82011682018060405250810190610dea9190612669565b6001600160a01b031663c0c6d00e858585856040518563ffffffff1660e01b8152600401610e1b9493929190612740565b600060405180830381600087803b158015610e3557600080fd5b505af1158015610e49573d6000803e3d6000fd5b5050505050505050565b610e5e6105ce611c0e565b80610e6f5750610e6f6104b4611c0e565b80610e9e5750610e9e7f0000000000000000000000000000000000000000000000000000000000000000611c86565b6040518060400160405280600d81526020016c20aaaa2427a924ad20aa24a7a760991b81525090610ee25760405162461bcd60e51b8152600401610443919061231b565b50610eee60c882611d5d565b6040518060400160405280600981526020016812539590549250539560ba1b81525090610f2e5760405162461bcd60e51b8152600401610443919061231b565b506040516001600160a01b03821681527fad6de4452a631e641cb59902236607946ce9272b9b981f2f80e8d129cb9084ba9060200161049e565b610f736105ce611c0e565b80610f845750610f846104b4611c0e565b80610fb35750610fb37f0000000000000000000000000000000000000000000000000000000000000000611c86565b6040518060400160405280600d81526020016c20aaaa2427a924ad20aa24a7a760991b81525090610ff75760405162461bcd60e51b8152600401610443919061231b565b50606460029054906101000a90046001600160a01b03166001600160a01b031663dae3f63460405160200161102b90612657565b604051602081830303815290604052805190602001206040518263ffffffff1660e01b815260040161105f91815260200190565b602060405180830381865afa15801561107c573d6000803e3d6000fd5b505050506040513d601f19601f820116820180604052508101906110a09190612669565b604051631e96613160e21b815263ffffffff831660048201526001600160a01b039190911690637a5984c4906024015b600060405180830381600087803b1580156110ea57600080fd5b505af11580156110fe573d6000803e3d6000fd5b5050505050565b60606111327f00000000000000000000000000000000000000000000000000000000000000006030612767565b61115d7f00000000000000000000000000000000000000000000000000000000000000006030612767565b6111887f00000000000000000000000000000000000000000000000000000000000000006030612767565b604051603b60f91b60208201526001600160f81b031960f894851b81166021830152601760f91b6022830181905293851b811660238301526024820193909352921b166025820152602601604051602081830303815290604052905090565b6111f26105ce611c0e565b8061120357506112036104b4611c0e565b8061123257506112327f0000000000000000000000000000000000000000000000000000000000000000611c86565b6040518060400160405280600d81526020016c20aaaa2427a924ad20aa24a7a760991b815250906112765760405162461bcd60e51b8152600401610443919061231b565b50606460029054906101000a90046001600160a01b03166001600160a01b031663dae3f6346040516020016112aa90612657565b604051602081830303815290604052805190602001206040518263ffffffff1660e01b81526004016112de91815260200190565b602060405180830381865afa1580156112fb573d6000803e3d6000fd5b505050506040513d601f19601f8201168201806040525081019061131f9190612669565b604051637f0c9b6360e01b815282151560048201526001600160a01b039190911690637f0c9b63906024016110d0565b61135a6105ce611c0e565b8061136b575061136b6104b4611c0e565b8061139a575061139a7f0000000000000000000000000000000000000000000000000000000000000000611c86565b6040518060400160405280600d81526020016c20aaaa2427a924ad20aa24a7a760991b815250906113de5760405162461bcd60e51b8152600401610443919061231b565b50606454604051744552433732315f57484954454c4953545f53414c4560581b6020820152620100009091046001600160a01b03169063dae3f63490603501610d75565b6064546201000090046001600160a01b031661143c611c0e565b6001600160a01b0316146040518060400160405280600d81526020016c20aaaa2427a924ad20aa24a7a760991b8152509061148a5760405162461bcd60e51b8152600401610443919061231b565b507fa3f0ad74e5423aebfd80d3ef4346578335a9a72aeaee59ff6cb3582b35133d5080546001600160a01b0319166001600160a01b038416179055806114ce611c53565b80546001600160a01b0319166001600160a01b0392831617905560408051848316815291831660208301527f8d0a39ac1f9e86fa663c9ebacb96ff6336e1aefc4e67397d5aa0bcc7b3b7c74b910160405180910390a15050565b6115336105ce611c0e565b8061154457506115446104b4611c0e565b8061157357506115737f0000000000000000000000000000000000000000000000000000000000000000611c86565b6040518060400160405280600d81526020016c20aaaa2427a924ad20aa24a7a760991b815250906115b75760405162461bcd60e51b8152600401610443919061231b565b5060408051808201909152600a8152692b20a624a220aa24a7a760b11b60208201528382146115f95760405162461bcd60e51b8152600401610443919061231b565b5060005b838110156110fe57606460029054906101000a90046001600160a01b03166001600160a01b031663dae3f63460405160200161163890612657565b604051602081830303815290604052805190602001206040518263ffffffff1660e01b815260040161166c91815260200190565b602060405180830381865afa158015611689573d6000803e3d6000fd5b505050506040513d601f19601f820116820180604052508101906116ad9190612669565b6001600160a01b0316632cfd30058686848181106116cd576116cd612686565b90506020020160208101906116e29190612204565b8585858181106116f4576116f4612686565b6040516001600160e01b031960e087901b1681526001600160a01b0390941660048501526020029190910135602483015250604401600060405180830381600087803b15801561174357600080fd5b505af1158015611757573d6000803e3d6000fd5b505050508080611766906126b2565b9150506115fd565b6117796105ce611c0e565b8061178a575061178a6104b4611c0e565b806117b957506117b97f0000000000000000000000000000000000000000000000000000000000000000611c86565b6040518060400160405280600d81526020016c20aaaa2427a924ad20aa24a7a760991b815250906117fd5760405162461bcd60e51b8152600401610443919061231b565b50606454604051744552433732315f57484954454c4953545f53414c4560581b6020820152620100009091046001600160a01b03169063dae3f63490603501604051602081830303815290604052805190602001206040518263ffffffff1660e01b815260040161187091815260200190565b602060405180830381865afa15801561188d573d6000803e3d6000fd5b505050506040513d601f19601f820116820180604052508101906118b19190612669565b6001600160a01b031663b00f24cf8484846040518463ffffffff1660e01b81526004016118e09392919061278c565b600060405180830381600087803b1580156118fa57600080fd5b505af115801561190e573d6000803e3d6000fd5b50505050505050565b60006119236001611d72565b9050801561193b576064805461ff0019166101001790555b61194485611dfc565b60ca80546001600160a01b0319166001600160a01b03841617905560005b83811015611a125761199c85858381811061197f5761197f612686565b90506020020160208101906119949190612204565b60c890611d5d565b507fad6de4452a631e641cb59902236607946ce9272b9b981f2f80e8d129cb9084ba8585838181106119d0576119d0612686565b90506020020160208101906119e59190612204565b6040516001600160a01b03909116815260200160405180910390a180611a0a816126b2565b915050611962565b506040516001600160a01b03831681527f77b942a0834ead73d2e76c27f611bd4f14e4cd55de82e1d4bbd5521905f69f0f9060200160405180910390a180156110fe576064805461ff0019169055604051600181527f7f26b83ff96e1f2b6a682f133852f6798a09c465da95921460cefb38474024989060200160405180910390a15050505050565b6060611aa86105ce611c0e565b80611ab95750611ab96104b4611c0e565b80611ae85750611ae87f0000000000000000000000000000000000000000000000000000000000000000611c86565b6040518060400160405280600d81526020016c20aaaa2427a924ad20aa24a7a760991b81525090611b2c5760405162461bcd60e51b8152600401610443919061231b565b508167ffffffffffffffff811115611b4657611b466127af565b604051908082528060200260200182016040528015611b7957816020015b6060815260200190600190039081611b645790505b50905060005b82811015611c0557611bd5868683818110611b9c57611b9c612686565b9050602002016020810190611bb19190612204565b858584818110611bc357611bc3612686565b90506020028101906101d891906127c5565b828281518110611be757611be7612686565b60200260200101819052508080611bfd906126b2565b915050611b7f565b50949350505050565b60007f00000000000000000000000000000000000000000000000000000000000000006001600160a01b0316331415611c4e575060131936013560601c90565b503390565b6000610885611c8360017f797d7c7d0df25d67e029b044c5bcb2b89d68f6483382b5f85e64485950ed88d161280c565b90565b6064546000906201000090046001600160a01b031663ed82f4b8611ca8611c0e565b6040516001600160e01b031960e084901b1681526001600160a01b03909116600482015230602482015260ff85166044820152606401602060405180830381865afa158015611cfb573d6000803e3d6000fd5b505050506040513d601f19601f820116820180604052508101906106d29190612823565b60006106c0836001600160a01b038416611ec2565b60006106d260c883611fb5565b60606106bd8484600085611fd7565b606060006106c083612108565b60006106c0836001600160a01b038416612164565b606454600090610100900460ff1615611dbb578160ff166001148015611d975750303b155b611db35760405162461bcd60e51b815260040161044390612840565b506000919050565b60645460ff808416911610611de25760405162461bcd60e51b815260040161044390612840565b506064805460ff191660ff92909216919091179055600190565b606454610100900460ff16611e675760405162461bcd60e51b815260206004820152602b60248201527f496e697469616c697a61626c653a20636f6e7472616374206973206e6f74206960448201526a6e697469616c697a696e6760a81b6064820152608401610443565b6064805462010000600160b01b031916620100006001600160a01b038481168202929092179283905560405192041681527f4f8cfde3439a1a302c21ca51eec26086efbfd940b8c0279889fc6bb6e73ecc669060200161049e565b60008181526001830160205260408120548015611fab576000611ee660018361280c565b8554909150600090611efa9060019061280c565b9050818114611f5f576000866000018281548110611f1a57611f1a612686565b9060005260206000200154905080876000018481548110611f3d57611f3d612686565b6000918252602080832090910192909255918252600188019052604090208390555b8554869080611f7057611f7061288e565b6001900381819060005260206000200160009055905585600101600086815260200190815260200160002060009055600193505050506106d2565b60009150506106d2565b6001600160a01b038116600090815260018301602052604081205415156106c0565b6060824710156120385760405162461bcd60e51b815260206004820152602660248201527f416464726573733a20696e73756666696369656e742062616c616e636520666f6044820152651c8818d85b1b60d21b6064820152608401610443565b6001600160a01b0385163b61208f5760405162461bcd60e51b815260206004820152601d60248201527f416464726573733a2063616c6c20746f206e6f6e2d636f6e74726163740000006044820152606401610443565b600080866001600160a01b031685876040516120ab91906128a4565b60006040518083038185875af1925050503d80600081146120e8576040519150601f19603f3d011682016040523d82523d6000602084013e6120ed565b606091505b50915091506120fd8282866121b3565b979650505050505050565b60608160000180548060200260200160405190810160405280929190818152602001828054801561215857602002820191906000526020600020905b815481526020019060010190808311612144575b50505050509050919050565b60008181526001830160205260408120546121ab575081546001818101845560008481526020808220909301849055845484825282860190935260409020919091556106d2565b5060006106d2565b606083156121c25750816106c0565b8251156121d25782518084602001fd5b8160405162461bcd60e51b8152600401610443919061231b565b6001600160a01b038116811461220157600080fd5b50565b60006020828403121561221657600080fd5b81356106c0816121ec565b60008083601f84011261223357600080fd5b50813567ffffffffffffffff81111561224b57600080fd5b60208301915083602082850101111561226357600080fd5b9250929050565b60008060006040848603121561227f57600080fd5b833561228a816121ec565b9250602084013567ffffffffffffffff8111156122a657600080fd5b6122b286828701612221565b9497909650939450505050565b60005b838110156122da5781810151838201526020016122c2565b838111156122e9576000848401525b50505050565b600081518084526123078160208601602086016122bf565b601f01601f19169290920160200192915050565b6020815260006106c060208301846122ef565b6000806040838503121561234157600080fd5b823561234c816121ec565b946020939093013593505050565b6020808252825182820181905260009190848201906040850190845b8181101561239b5783516001600160a01b031683529284019291840191600101612376565b50909695505050505050565b60008083601f8401126123b957600080fd5b50813567ffffffffffffffff8111156123d157600080fd5b6020830191508360208260051b850101111561226357600080fd5b600080602083850312156123ff57600080fd5b823567ffffffffffffffff81111561241657600080fd5b612422858286016123a7565b90969095509350505050565b6000806020838503121561244157600080fd5b823567ffffffffffffffff81111561245857600080fd5b61242285828601612221565b6000806000806040858703121561247a57600080fd5b843567ffffffffffffffff8082111561249257600080fd5b61249e888389016123a7565b909650945060208701359150808211156124b757600080fd5b506124c4878288016123a7565b95989497509550505050565b6000602082840312156124e257600080fd5b813563ffffffff811681146106c057600080fd5b801515811461220157600080fd5b60006020828403121561251657600080fd5b81356106c0816124f6565b6000806040838503121561253457600080fd5b823561253f816121ec565b9150602083013561254f816121ec565b809150509250929050565b60008060006040848603121561256f57600080fd5b83359250602084013567ffffffffffffffff8111156122a657600080fd5b600080600080606085870312156125a357600080fd5b84356125ae816121ec565b9350602085013567ffffffffffffffff8111156125ca57600080fd5b6125d6878288016123a7565b90945092505060408501356125ea816121ec565b939692955090935050565b6000602080830181845280855180835260408601915060408160051b870101925083870160005b8281101561264a57603f198886030184526126388583516122ef565b9450928501929085019060010161261c565b5092979650505050505050565b6545524337323160d01b815260060190565b60006020828403121561267b57600080fd5b81516106c0816121ec565b634e487b7160e01b600052603260045260246000fd5b634e487b7160e01b600052601160045260246000fd5b60006000198214156126c6576126c661269c565b5060010190565b81835281816020850137506000828201602090810191909152601f909101601f19169091010190565b6020815260006106bd6020830184866126cd565b81835260006001600160fb1b0383111561272357600080fd5b8260051b8083602087013760009401602001938452509192915050565b60408152600061275460408301868861270a565b82810360208401526120fd81858761270a565b600060ff821660ff84168060ff038211156127845761278461269c565b019392505050565b8381526040602082015260006127a66040830184866126cd565b95945050505050565b634e487b7160e01b600052604160045260246000fd5b6000808335601e198436030181126127dc57600080fd5b83018035915067ffffffffffffffff8211156127f757600080fd5b60200191503681900382131561226357600080fd5b60008282101561281e5761281e61269c565b500390565b60006020828403121561283557600080fd5b81516106c0816124f6565b6020808252602e908201527f496e697469616c697a61626c653a20636f6e747261637420697320616c72656160408201526d191e481a5b9a5d1a585b1a5e995960921b606082015260800190565b634e487b7160e01b600052603160045260246000fd5b600082516128b68184602087016122bf565b919091019291505056fea2646970667358221220e2dce0f6c4be53f59c0046d5068815e1f92612bbd9d5cfd6035705409df5874c64736f6c634300080c0033",
  "devdoc": {
    "author": "SuperdaoTeam",
    "details": "Create a new role identifier for Admin, Creator, SUDO-permissioner. This contract module, as multi-signature wallet, allows to implement role-based access control mechanisms. This is a lightweight version that puts admin addresses is in a form of set of wallet with access to admin-controlling functions.",
    "events": {
      "AddAdmin(address)": {
        "details": "Declare events for adding and removing admins"
      }
    },
    "kind": "dev",
    "methods": {
      "addAdmin(address)": {
        "details": "Function adds an admin, if only admin or SUDO permission executes this, later the function is executed and otherwise, an exception is thrown."
      },
      "adminAddresses()": {
        "details": "Returns an array of admins addresses"
      },
      "batchCall(address[],bytes[])": {
        "details": "Function invokes arrays of calldata addresses and calldata data, if only admin or SUDO permission executes this. Returns values as results, which formes from a loop, where index should be strictly less than data.length."
      },
      "call(address,bytes)": {
        "details": "Function invokes receiver's address and all transmitted info in calldata, if only admin or SUDO permission executes this. Returns values of functionCall. The function executes correctly, otherwise an exception (INVALID_AUTHORIZATION_ERROR) is thrown."
      },
      "constructor": {
        "details": "This is the constructor which registers trustedForwarder in ERC2771Context"
      },
      "creator()": {
        "details": "Returns a creator's address."
      },
      "implementation()": {
        "details": "Add appCode for external access"
      },
      "initialize(address,address[],address)": {
        "details": "It provides permission management for access to application contracts functions, plus in the loop adds admins' addresses if the number is less than the existing amount of admins."
      },
      "isAdmin(address)": {
        "details": "Returns a boolean value indicating whether the admin status is succeeded."
      },
      "removeAdmin(address)": {
        "details": "Function removes an admin, if only Creator or SUDO permission executes this, later the function is executed and otherwise, an exception is thrown."
      },
      "setCreator(address)": {
        "details": "Function sets a new Creator with Creator's address, if only SUDO permission executes this."
      },
      "upgrade(address)": {
        "details": "Update via appCode"
      }
    },
    "title": "AdminController",
    "version": 1
  },
  "userdoc": {
    "kind": "user",
    "methods": {},
    "version": 1
  },
  "storageLayout": {
    "storage": [
      {
        "astId": 11829,
        "contract": "contracts/apps/AdminController/AdminController.sol:AdminController",
        "label": "__gap",
        "offset": 0,
        "slot": "0",
        "type": "t_array(t_uint256)100_storage"
      },
      {
        "astId": 130,
        "contract": "contracts/apps/AdminController/AdminController.sol:AdminController",
        "label": "_initialized",
        "offset": 0,
        "slot": "100",
        "type": "t_uint8"
      },
      {
        "astId": 133,
        "contract": "contracts/apps/AdminController/AdminController.sol:AdminController",
        "label": "_initializing",
        "offset": 1,
        "slot": "100",
        "type": "t_bool"
      },
      {
        "astId": 8387,
        "contract": "contracts/apps/AdminController/AdminController.sol:AdminController",
        "label": "kernel",
        "offset": 2,
        "slot": "100",
        "type": "t_contract(IKernel)13380"
      },
      {
        "astId": 8390,
        "contract": "contracts/apps/AdminController/AdminController.sol:AdminController",
        "label": "_nextRoleId",
        "offset": 22,
        "slot": "100",
        "type": "t_uint8"
      },
      {
        "astId": 8394,
        "contract": "contracts/apps/AdminController/AdminController.sol:AdminController",
        "label": "__gap",
        "offset": 0,
        "slot": "101",
        "type": "t_array(t_uint256)99_storage"
      },
      {
        "astId": 7771,
        "contract": "contracts/apps/AdminController/AdminController.sol:AdminController",
        "label": "_adminAddresses",
        "offset": 0,
        "slot": "200",
        "type": "t_struct(AddressSet)6483_storage"
      },
      {
        "astId": 7774,
        "contract": "contracts/apps/AdminController/AdminController.sol:AdminController",
        "label": "_creator",
        "offset": 0,
        "slot": "202",
        "type": "t_address"
      },
      {
        "astId": 7778,
        "contract": "contracts/apps/AdminController/AdminController.sol:AdminController",
        "label": "__gap",
        "offset": 0,
        "slot": "203",
        "type": "t_array(t_uint256)98_storage"
      }
    ],
    "types": {
      "t_address": {
        "encoding": "inplace",
        "label": "address",
        "numberOfBytes": "20"
      },
      "t_array(t_bytes32)dyn_storage": {
        "base": "t_bytes32",
        "encoding": "dynamic_array",
        "label": "bytes32[]",
        "numberOfBytes": "32"
      },
      "t_array(t_uint256)100_storage": {
        "base": "t_uint256",
        "encoding": "inplace",
        "label": "uint256[100]",
        "numberOfBytes": "3200"
      },
      "t_array(t_uint256)98_storage": {
        "base": "t_uint256",
        "encoding": "inplace",
        "label": "uint256[98]",
        "numberOfBytes": "3136"
      },
      "t_array(t_uint256)99_storage": {
        "base": "t_uint256",
        "encoding": "inplace",
        "label": "uint256[99]",
        "numberOfBytes": "3168"
      },
      "t_bool": {
        "encoding": "inplace",
        "label": "bool",
        "numberOfBytes": "1"
      },
      "t_bytes32": {
        "encoding": "inplace",
        "label": "bytes32",
        "numberOfBytes": "32"
      },
      "t_contract(IKernel)13380": {
        "encoding": "inplace",
        "label": "contract IKernel",
        "numberOfBytes": "20"
      },
      "t_mapping(t_bytes32,t_uint256)": {
        "encoding": "mapping",
        "key": "t_bytes32",
        "label": "mapping(bytes32 => uint256)",
        "numberOfBytes": "32",
        "value": "t_uint256"
      },
      "t_struct(AddressSet)6483_storage": {
        "encoding": "inplace",
        "label": "struct EnumerableSet.AddressSet",
        "members": [
          {
            "astId": 6482,
            "contract": "contracts/apps/AdminController/AdminController.sol:AdminController",
            "label": "_inner",
            "offset": 0,
            "slot": "0",
            "type": "t_struct(Set)6182_storage"
          }
        ],
        "numberOfBytes": "64"
      },
      "t_struct(Set)6182_storage": {
        "encoding": "inplace",
        "label": "struct EnumerableSet.Set",
        "members": [
          {
            "astId": 6177,
            "contract": "contracts/apps/AdminController/AdminController.sol:AdminController",
            "label": "_values",
            "offset": 0,
            "slot": "0",
            "type": "t_array(t_bytes32)dyn_storage"
          },
          {
            "astId": 6181,
            "contract": "contracts/apps/AdminController/AdminController.sol:AdminController",
            "label": "_indexes",
            "offset": 0,
            "slot": "1",
            "type": "t_mapping(t_bytes32,t_uint256)"
          }
        ],
        "numberOfBytes": "64"
      },
      "t_uint256": {
        "encoding": "inplace",
        "label": "uint256",
        "numberOfBytes": "32"
      },
      "t_uint8": {
        "encoding": "inplace",
        "label": "uint8",
        "numberOfBytes": "1"
      }
    }
  }
}