{
  "address": "0x44AB74EB80Fd5dd59895c16e7398300dB9E96B03",
  "abi": [
    {
      "inputs": [
        {
          "internalType": "address",
          "name": "trustedForwarder",
          "type": "address"
        }
      ],
      "stateMutability": "nonpayable",
      "type": "constructor"
    },
    {
      "anonymous": false,
      "inputs": [
        {
          "indexed": true,
          "internalType": "address",
          "name": "owner",
          "type": "address"
        },
        {
          "indexed": true,
          "internalType": "address",
          "name": "approved",
          "type": "address"
        },
        {
          "indexed": true,
          "internalType": "uint256",
          "name": "tokenId",
          "type": "uint256"
        }
      ],
      "name": "Approval",
      "type": "event"
    },
    {
      "anonymous": false,
      "inputs": [
        {
          "indexed": true,
          "internalType": "address",
          "name": "owner",
          "type": "address"
        },
        {
          "indexed": true,
          "internalType": "address",
          "name": "operator",
          "type": "address"
        },
        {
          "indexed": false,
          "internalType": "bool",
          "name": "approved",
          "type": "bool"
        }
      ],
      "name": "ApprovalForAll",
      "type": "event"
    },
    {
      "anonymous": false,
      "inputs": [
        {
          "indexed": false,
          "internalType": "uint32",
          "name": "tokenId",
          "type": "uint32"
        }
      ],
      "name": "Burn",
      "type": "event"
    },
    {
      "anonymous": false,
      "inputs": [
        {
          "indexed": false,
          "internalType": "contract IKernel",
          "name": "kernel",
          "type": "address"
        }
      ],
      "name": "Init",
      "type": "event"
    },
    {
      "anonymous": false,
      "inputs": [
        {
          "indexed": false,
          "internalType": "uint8",
          "name": "version",
          "type": "uint8"
        }
      ],
      "name": "Initialized",
      "type": "event"
    },
    {
      "anonymous": false,
      "inputs": [
        {
          "indexed": false,
          "internalType": "uint32",
          "name": "tokenId",
          "type": "uint32"
        },
        {
          "indexed": false,
          "internalType": "string[]",
          "name": "propKeys",
          "type": "string[]"
        },
        {
          "indexed": false,
          "internalType": "bytes32[]",
          "name": "propValues",
          "type": "bytes32[]"
        }
      ],
      "name": "Mint",
      "type": "event"
    },
    {
      "anonymous": false,
      "inputs": [
        {
          "indexed": true,
          "internalType": "address",
          "name": "previousOwner",
          "type": "address"
        },
        {
          "indexed": true,
          "internalType": "address",
          "name": "newOwner",
          "type": "address"
        }
      ],
      "name": "OwnershipTransferred",
      "type": "event"
    },
    {
      "anonymous": false,
      "inputs": [
        {
          "indexed": false,
          "internalType": "address",
          "name": "newBeacon",
          "type": "address"
        },
        {
          "indexed": false,
          "internalType": "address",
          "name": "beaconProxy",
          "type": "address"
        }
      ],
      "name": "ProxyMigrated",
      "type": "event"
    },
    {
      "anonymous": false,
      "inputs": [
        {
          "indexed": false,
          "internalType": "string",
          "name": "propKey",
          "type": "string"
        },
        {
          "indexed": false,
          "internalType": "bytes32",
          "name": "propValue",
          "type": "bytes32"
        },
        {
          "indexed": false,
          "internalType": "string",
          "name": "attrKey",
          "type": "string"
        },
        {
          "indexed": false,
          "internalType": "bytes32",
          "name": "attrValue",
          "type": "bytes32"
        }
      ],
      "name": "SetAttribute",
      "type": "event"
    },
    {
      "anonymous": false,
      "inputs": [
        {
          "indexed": false,
          "internalType": "string",
          "name": "uri",
          "type": "string"
        }
      ],
      "name": "SetBaseURI",
      "type": "event"
    },
    {
      "anonymous": false,
      "inputs": [
        {
          "indexed": false,
          "internalType": "string",
          "name": "name",
          "type": "string"
        }
      ],
      "name": "SetName",
      "type": "event"
    },
    {
      "anonymous": false,
      "inputs": [
        {
          "indexed": false,
          "internalType": "string",
          "name": "symbol",
          "type": "string"
        }
      ],
      "name": "SetSymbol",
      "type": "event"
    },
    {
      "anonymous": false,
      "inputs": [
        {
          "indexed": true,
          "internalType": "address",
          "name": "from",
          "type": "address"
        },
        {
          "indexed": true,
          "internalType": "address",
          "name": "to",
          "type": "address"
        },
        {
          "indexed": true,
          "internalType": "uint256",
          "name": "tokenId",
          "type": "uint256"
        }
      ],
      "name": "Transfer",
      "type": "event"
    },
    {
      "anonymous": false,
      "inputs": [
        {
          "indexed": false,
          "internalType": "address",
          "name": "code",
          "type": "address"
        }
      ],
      "name": "Upgrade",
      "type": "event"
    },
    {
      "inputs": [],
      "name": "CONTROLLER",
      "outputs": [
        {
          "internalType": "uint8",
          "name": "",
          "type": "uint8"
        }
      ],
      "stateMutability": "view",
      "type": "function"
    },
    {
      "inputs": [],
      "name": "__semver",
      "outputs": [
        {
          "internalType": "string",
          "name": "",
          "type": "string"
        }
      ],
      "stateMutability": "view",
      "type": "function"
    },
    {
      "inputs": [
        {
          "internalType": "address",
          "name": "to",
          "type": "address"
        },
        {
          "internalType": "uint256",
          "name": "tokenId",
          "type": "uint256"
        }
      ],
      "name": "approve",
      "outputs": [],
      "stateMutability": "nonpayable",
      "type": "function"
    },
    {
      "inputs": [
        {
          "internalType": "address",
          "name": "owner",
          "type": "address"
        }
      ],
      "name": "balanceOf",
      "outputs": [
        {
          "internalType": "uint256",
          "name": "",
          "type": "uint256"
        }
      ],
      "stateMutability": "view",
      "type": "function"
    },
    {
      "inputs": [],
      "name": "baseURI",
      "outputs": [
        {
          "internalType": "string",
          "name": "",
          "type": "string"
        }
      ],
      "stateMutability": "view",
      "type": "function"
    },
    {
      "inputs": [
        {
          "internalType": "uint32",
          "name": "tokenId",
          "type": "uint32"
        }
      ],
      "name": "burn",
      "outputs": [],
      "stateMutability": "nonpayable",
      "type": "function"
    },
    {
      "inputs": [],
      "name": "contractURI",
      "outputs": [
        {
          "internalType": "string",
          "name": "",
          "type": "string"
        }
      ],
      "stateMutability": "view",
      "type": "function"
    },
    {
      "inputs": [
        {
          "internalType": "uint256",
          "name": "tokenId",
          "type": "uint256"
        }
      ],
      "name": "getApproved",
      "outputs": [
        {
          "internalType": "address",
          "name": "",
          "type": "address"
        }
      ],
      "stateMutability": "view",
      "type": "function"
    },
    {
      "inputs": [
        {
          "internalType": "string",
          "name": "propKey",
          "type": "string"
        },
        {
          "internalType": "bytes32",
          "name": "propValue",
          "type": "bytes32"
        },
        {
          "internalType": "string",
          "name": "attrKey",
          "type": "string"
        }
      ],
      "name": "getAttribute",
      "outputs": [
        {
          "internalType": "bytes32",
          "name": "",
          "type": "bytes32"
        }
      ],
      "stateMutability": "view",
      "type": "function"
    },
    {
      "inputs": [
        {
          "internalType": "uint32",
          "name": "tokenId",
          "type": "uint32"
        },
        {
          "internalType": "string",
          "name": "key",
          "type": "string"
        }
      ],
      "name": "getPropertyValue",
      "outputs": [
        {
          "internalType": "bytes32",
          "name": "",
          "type": "bytes32"
        }
      ],
      "stateMutability": "view",
      "type": "function"
    },
    {
      "inputs": [],
      "name": "getRestrictBurnPolicy",
      "outputs": [
        {
          "internalType": "bool",
          "name": "",
          "type": "bool"
        }
      ],
      "stateMutability": "view",
      "type": "function"
    },
    {
      "inputs": [
        {
          "internalType": "bytes32",
          "name": "tier",
          "type": "bytes32"
        }
      ],
      "name": "hasRandomMint",
      "outputs": [
        {
          "internalType": "bool",
          "name": "",
          "type": "bool"
        }
      ],
      "stateMutability": "view",
      "type": "function"
    },
    {
      "inputs": [
        {
          "internalType": "bytes32",
          "name": "tier",
          "type": "bytes32"
        }
      ],
      "name": "hasRandomShuffleMint",
      "outputs": [
        {
          "internalType": "bool",
          "name": "",
          "type": "bool"
        }
      ],
      "stateMutability": "view",
      "type": "function"
    },
    {
      "inputs": [],
      "name": "implementation",
      "outputs": [
        {
          "internalType": "address",
          "name": "",
          "type": "address"
        }
      ],
      "stateMutability": "view",
      "type": "function"
    },
    {
      "inputs": [
        {
          "components": [
            {
              "internalType": "contract IKernel",
              "name": "kernel",
              "type": "address"
            },
            {
              "internalType": "address",
              "name": "openseaOwner",
              "type": "address"
            },
            {
              "internalType": "string",
              "name": "baseURI",
              "type": "string"
            },
            {
              "internalType": "string",
              "name": "name",
              "type": "string"
            },
            {
              "internalType": "string",
              "name": "symbol",
              "type": "string"
            }
          ],
          "internalType": "struct ERC721Properties.Initialization",
          "name": "init",
          "type": "tuple"
        }
      ],
      "name": "initialize",
      "outputs": [],
      "stateMutability": "nonpayable",
      "type": "function"
    },
    {
      "inputs": [
        {
          "internalType": "address",
          "name": "owner",
          "type": "address"
        },
        {
          "internalType": "address",
          "name": "operator",
          "type": "address"
        }
      ],
      "name": "isApprovedForAll",
      "outputs": [
        {
          "internalType": "bool",
          "name": "",
          "type": "bool"
        }
      ],
      "stateMutability": "view",
      "type": "function"
    },
    {
      "inputs": [
        {
          "internalType": "address",
          "name": "forwarder",
          "type": "address"
        }
      ],
      "name": "isTrustedForwarder",
      "outputs": [
        {
          "internalType": "bool",
          "name": "",
          "type": "bool"
        }
      ],
      "stateMutability": "view",
      "type": "function"
    },
    {
      "inputs": [],
      "name": "kernel",
      "outputs": [
        {
          "internalType": "contract IKernel",
          "name": "",
          "type": "address"
        }
      ],
      "stateMutability": "view",
      "type": "function"
    },
    {
      "inputs": [
        {
          "internalType": "address",
          "name": "newBeacon",
          "type": "address"
        },
        {
          "internalType": "address",
          "name": "beaconProxy",
          "type": "address"
        }
      ],
      "name": "migrateToBeacon",
      "outputs": [],
      "stateMutability": "nonpayable",
      "type": "function"
    },
    {
      "inputs": [
        {
          "internalType": "address",
          "name": "to",
          "type": "address"
        },
        {
          "internalType": "bytes32",
          "name": "tierValue",
          "type": "bytes32"
        }
      ],
      "name": "mint",
      "outputs": [],
      "stateMutability": "nonpayable",
      "type": "function"
    },
    {
      "inputs": [],
      "name": "name",
      "outputs": [
        {
          "internalType": "string",
          "name": "",
          "type": "string"
        }
      ],
      "stateMutability": "view",
      "type": "function"
    },
    {
      "inputs": [],
      "name": "owner",
      "outputs": [
        {
          "internalType": "address",
          "name": "",
          "type": "address"
        }
      ],
      "stateMutability": "view",
      "type": "function"
    },
    {
      "inputs": [
        {
          "internalType": "uint256",
          "name": "tokenId",
          "type": "uint256"
        }
      ],
      "name": "ownerOf",
      "outputs": [
        {
          "internalType": "address",
          "name": "",
          "type": "address"
        }
      ],
      "stateMutability": "view",
      "type": "function"
    },
    {
      "inputs": [
        {
          "internalType": "uint256",
          "name": "requestId",
          "type": "uint256"
        },
        {
          "internalType": "uint256[]",
          "name": "randomWords",
          "type": "uint256[]"
        }
      ],
      "name": "rawFulfillRandomWords",
      "outputs": [],
      "stateMutability": "nonpayable",
      "type": "function"
    },
    {
      "inputs": [],
      "name": "renounceOwnership",
      "outputs": [],
      "stateMutability": "nonpayable",
      "type": "function"
    },
    {
      "inputs": [
        {
          "internalType": "address",
          "name": "from",
          "type": "address"
        },
        {
          "internalType": "address",
          "name": "to",
          "type": "address"
        },
        {
          "internalType": "uint256",
          "name": "tokenId",
          "type": "uint256"
        }
      ],
      "name": "safeTransferFrom",
      "outputs": [],
      "stateMutability": "nonpayable",
      "type": "function"
    },
    {
      "inputs": [
        {
          "internalType": "address",
          "name": "from",
          "type": "address"
        },
        {
          "internalType": "address",
          "name": "to",
          "type": "address"
        },
        {
          "internalType": "uint256",
          "name": "tokenId",
          "type": "uint256"
        },
        {
          "internalType": "bytes",
          "name": "_data",
          "type": "bytes"
        }
      ],
      "name": "safeTransferFrom",
      "outputs": [],
      "stateMutability": "nonpayable",
      "type": "function"
    },
    {
      "inputs": [
        {
          "internalType": "address",
          "name": "operator",
          "type": "address"
        },
        {
          "internalType": "bool",
          "name": "approved",
          "type": "bool"
        }
      ],
      "name": "setApprovalForAll",
      "outputs": [],
      "stateMutability": "nonpayable",
      "type": "function"
    },
    {
      "inputs": [
        {
          "internalType": "string",
          "name": "propKey",
          "type": "string"
        },
        {
          "internalType": "bytes32",
          "name": "propValue",
          "type": "bytes32"
        },
        {
          "internalType": "string",
          "name": "attrKey",
          "type": "string"
        },
        {
          "internalType": "bytes32",
          "name": "attrValue",
          "type": "bytes32"
        }
      ],
      "name": "setAttribute",
      "outputs": [],
      "stateMutability": "nonpayable",
      "type": "function"
    },
    {
      "inputs": [
        {
          "internalType": "string",
          "name": "uri",
          "type": "string"
        }
      ],
      "name": "setBaseURI",
      "outputs": [],
      "stateMutability": "nonpayable",
      "type": "function"
    },
    {
      "inputs": [
        {
          "internalType": "string",
          "name": "name_",
          "type": "string"
        }
      ],
      "name": "setName",
      "outputs": [],
      "stateMutability": "nonpayable",
      "type": "function"
    },
    {
      "inputs": [
        {
          "internalType": "bytes32",
          "name": "tierValue",
          "type": "bytes32"
        },
        {
          "internalType": "uint256",
          "name": "tokenCount",
          "type": "uint256"
        },
        {
          "internalType": "uint256",
          "name": "artworksCount",
          "type": "uint256"
        }
      ],
      "name": "setRandomMint",
      "outputs": [],
      "stateMutability": "nonpayable",
      "type": "function"
    },
    {
      "inputs": [
        {
          "internalType": "bytes32",
          "name": "tierValue",
          "type": "bytes32"
        },
        {
          "internalType": "uint256",
          "name": "tokenCount",
          "type": "uint256"
        }
      ],
      "name": "setRandomShuffleMint",
      "outputs": [],
      "stateMutability": "nonpayable",
      "type": "function"
    },
    {
      "inputs": [
        {
          "internalType": "bool",
          "name": "burnPolicy",
          "type": "bool"
        }
      ],
      "name": "setRestrictBurnPolicy",
      "outputs": [],
      "stateMutability": "nonpayable",
      "type": "function"
    },
    {
      "inputs": [
        {
          "internalType": "string",
          "name": "symbol_",
          "type": "string"
        }
      ],
      "name": "setSymbol",
      "outputs": [],
      "stateMutability": "nonpayable",
      "type": "function"
    },
    {
      "inputs": [
        {
          "internalType": "contract VRFCoordinatorV2Interface",
          "name": "_vrfCoordinator",
          "type": "address"
        },
        {
          "internalType": "uint64",
          "name": "_subscriptionId",
          "type": "uint64"
        }
      ],
      "name": "setupVRF",
      "outputs": [],
      "stateMutability": "nonpayable",
      "type": "function"
    },
    {
      "inputs": [
        {
          "internalType": "bytes4",
          "name": "interfaceId",
          "type": "bytes4"
        }
      ],
      "name": "supportsInterface",
      "outputs": [
        {
          "internalType": "bool",
          "name": "",
          "type": "bool"
        }
      ],
      "stateMutability": "view",
      "type": "function"
    },
    {
      "inputs": [],
      "name": "symbol",
      "outputs": [
        {
          "internalType": "string",
          "name": "",
          "type": "string"
        }
      ],
      "stateMutability": "view",
      "type": "function"
    },
    {
      "inputs": [
        {
          "internalType": "bytes32",
          "name": "tier",
          "type": "bytes32"
        }
      ],
      "name": "tierExtraArtworksNum",
      "outputs": [
        {
          "internalType": "uint256",
          "name": "",
          "type": "uint256"
        }
      ],
      "stateMutability": "view",
      "type": "function"
    },
    {
      "inputs": [
        {
          "internalType": "uint256",
          "name": "tokenId",
          "type": "uint256"
        }
      ],
      "name": "tokenURI",
      "outputs": [
        {
          "internalType": "string",
          "name": "",
          "type": "string"
        }
      ],
      "stateMutability": "view",
      "type": "function"
    },
    {
      "inputs": [
        {
          "internalType": "address",
          "name": "from",
          "type": "address"
        },
        {
          "internalType": "address",
          "name": "to",
          "type": "address"
        },
        {
          "internalType": "uint256",
          "name": "tokenId",
          "type": "uint256"
        }
      ],
      "name": "transferFrom",
      "outputs": [],
      "stateMutability": "nonpayable",
      "type": "function"
    },
    {
      "inputs": [
        {
          "internalType": "address",
          "name": "newOwner",
          "type": "address"
        }
      ],
      "name": "transferOwnership",
      "outputs": [],
      "stateMutability": "nonpayable",
      "type": "function"
    },
    {
      "inputs": [
        {
          "internalType": "address",
          "name": "appCode",
          "type": "address"
        }
      ],
      "name": "upgrade",
      "outputs": [],
      "stateMutability": "nonpayable",
      "type": "function"
    }
  ],
  "transactionHash": "0x87a1857944eb133420828a84ef5a6459e1b90ccbcb417482ec536e611b8d151d",
  "args": [
    "0x528Ea358b0De7f9CBBe040F4381f5620a029143f"
  ],
  "numDeployments": 8,
  "solcInputHash": "341c9f0e9410711860e07934fbb5f71b",
  "bytecode": "0x61012060405261012d805460ff60a01b191690556200001d62000075565b60ff16610100523480156200003157600080fd5b50604051620047323803806200473283398101604081905262000054916200010f565b6001600160a01b0316608052600160a081905260c052600060e052620001c8565b61012d5460408051808201909152600a8152692b20a624a220aa24a7a760b11b6020820152600091600f600160a01b90910460ff1610620000d45760405162461bcd60e51b8152600401620000cb919062000141565b60405180910390fd5b5061012d8054600160a01b900460ff16906014620000f28362000199565b91906101000a81548160ff021916908360ff160217905550905090565b6000602082840312156200012257600080fd5b81516001600160a01b03811681146200013a57600080fd5b9392505050565b600060208083528351808285015260005b81811015620001705785810183015185820160400152820162000152565b8181111562000183576000604083870101525b50601f01601f1916929092016040019392505050565b600060ff821660ff811415620001bf57634e487b7160e01b600052601160045260246000fd5b60010192915050565b60805160a05160c05160e051610100516144d86200025a600039600081816105c90152818161066401528181610b3501528181610e4701528181611303015281816113be0152818161147d0152818161194601528181611bf201528181611dff0152611f2801526000611b6a01526000611b3f01526000611b140152600081816103b9015261318301526144d86000f3fe608060405234801561001057600080fd5b50600436106102695760003560e01c8063715018a611610151578063b88d4fde116100c3578063d4aae0c411610087578063d4aae0c414610559578063e88703241461056d578063e8a3d48514610580578063e985e9c514610588578063ee0fc121146105c4578063f2fde38b146105fd57600080fd5b8063b88d4fde14610501578063c327f66014610514578063c47f002714610527578063c87b56dd1461053a578063cdaff02a1461054d57600080fd5b80638da5cb5b116101155780638da5cb5b1461049c57806390d3786e146104ad57806395d89b41146104c0578063a22cb465146104c8578063a48c0729146104db578063b84c8246146104ee57600080fd5b8063715018a6146104535780637a5984c41461045b5780637effd8a71461046e5780637f0c9b63146104765780638c7944671461048957600080fd5b80633f58ef4b116101ea5780635a9b0f48116101ae5780635a9b0f48146103e95780635c60da1b146103fc5780635c7a3ef7146104045780636352211e146104175780636c0360eb1461042a57806370a082311461043257600080fd5b80633f58ef4b1461035d57806342842e0e1461037057806355f804b314610383578063560ec19714610396578063572b6c05146103a957600080fd5b8063095ea7b311610231578063095ea7b3146102fe578063133d9c6f146103115780631fe543e31461032457806323b872dd146103375780632cfd30051461034a57600080fd5b806301ffc9a71461026e578063064e319d1461029657806306fdde03146102ab578063081812fc146102c05780630900f010146102eb575b600080fd5b61028161027c3660046137ba565b610610565b60405190151581526020015b60405180910390f35b6102a96102a43660046137de565b610662565b005b6102b3610823565b60405161028d9190613862565b6102d36102ce366004613875565b6108b6565b6040516001600160a01b03909116815260200161028d565b6102a96102f93660046138a3565b61094b565b6102a961030c3660046138c0565b610a0b565b6102a961031f3660046138ec565b610b33565b6102a9610332366004613954565b610dc5565b6102a9610345366004613a05565b610e0d565b6102a96103583660046138c0565b610e45565b61028161036b366004613875565b61127f565b6102a961037e366004613a05565b6112e6565b6102a9610391366004613a8e565b611301565b6102a96103a4366004613acf565b6113bc565b6102816103b73660046138a3565b7f00000000000000000000000000000000000000000000000000000000000000006001600160a01b0390811691161490565b6102a96103f7366004613b8b565b61147b565b6102d36114f6565b6102a9610412366004613bff565b61150f565b6102d3610425366004613875565b611732565b6102b36117a9565b6104456104403660046138a3565b611838565b60405190815260200161028d565b6102a96118bf565b6102a9610469366004613c4d565b611944565b6102b3611b0d565b6102a9610484366004613c76565b611bf0565b610445610497366004613875565b611c74565b60fb546001600160a01b03166102d3565b6104456104bb366004613c93565b611ccc565b6102b3611ce1565b6102a96104d6366004613cff565b611cf1565b6102a96104e9366004613d2d565b611d03565b6102a96104fc366004613a8e565b611dfd565b6102a961050f366004613d5b565b611eab565b610445610522366004613dda565b611ee4565b6102a9610535366004613a8e565b611f26565b6102b3610548366004613875565b611fd4565b6101985460ff16610281565b61012d546102d3906001600160a01b031681565b61028161057b366004613875565b6120b8565b6102b3612120565b610281610596366004613d2d565b6001600160a01b03918216600090815260ce6020908152604080832093909416825291909152205460ff1690565b6105eb7f000000000000000000000000000000000000000000000000000000000000000081565b60405160ff909116815260200161028d565b6102a961060b3660046138a3565b612135565b60006001600160e01b031982166380ac58cd60e01b148061064157506001600160e01b03198216635b5e139f60e01b145b8061065c57506301ffc9a760e01b6001600160e01b03198316145b92915050565b7f000000000000000000000000000000000000000000000000000000000000000061068c8161221f565b6040518060400160405280600d81526020016c20aaaa2427a924ad20aa24a7a760991b815250906106d95760405162461bcd60e51b81526004016106d09190613862565b60405180910390fd5b50600182116106e757600080fd5b6113888211156106f657600080fd5b6106ff846120b8565b15801561071257506107108461127f565b155b61071b57600080fd5b60408051808201825260048152632a24a2a960e11b6020808301919091528251808401909352601083526f1512515497d490539113d357d352539560821b9083015261076d918690600160f81b6122b3565b6107ba604051806040016040528060048152602001632a24a2a960e11b815250856040518060400160405280600a81526020016913505617d05353d5539560b21b8152508660001b6122b3565b61081d604051806040016040528060048152602001632a24a2a960e11b8152508560405180604001604052806017815260200176544945525f45585452415f415254574f524b535f4e554d60481b8152506001866108189190613e42565b6122b3565b50505050565b6060610196805461083390613e59565b80601f016020809104026020016040519081016040528092919081815260200182805461085f90613e59565b80156108ac5780601f10610881576101008083540402835291602001916108ac565b820191906000526020600020905b81548152906001019060200180831161088f57829003601f168201915b5050505050905090565b600081815260cb60205260408120546001600160a01b031661092f5760405162461bcd60e51b815260206004820152602c60248201527f4552433732313a20617070726f76656420717565727920666f72206e6f6e657860448201526b34b9ba32b73a103a37b5b2b760a11b60648201526084016106d0565b50600090815260cd60205260409020546001600160a01b031690565b61012d546001600160a01b0316610960612344565b6001600160a01b0316146040518060400160405280600d81526020016c20aaaa2427a924ad20aa24a7a760991b815250906109ae5760405162461bcd60e51b81526004016106d09190613862565b50806109b8612353565b80546001600160a01b0319166001600160a01b0392831617905560405190821681527ff78721226efe9a1bb678189a16d1554928b9f2192e2cb93eeda83b79fa40007d906020015b60405180910390a150565b6000610a1682611732565b9050806001600160a01b0316836001600160a01b03161415610a845760405162461bcd60e51b815260206004820152602160248201527f4552433732313a20617070726f76616c20746f2063757272656e74206f776e656044820152603960f91b60648201526084016106d0565b806001600160a01b0316610a96612344565b6001600160a01b03161480610ab25750610ab281610596612344565b610b245760405162461bcd60e51b815260206004820152603860248201527f4552433732313a20617070726f76652063616c6c6572206973206e6f74206f7760448201527f6e6572206e6f7220617070726f76656420666f7220616c6c000000000000000060648201526084016106d0565b610b2e8383612386565b505050565b7f0000000000000000000000000000000000000000000000000000000000000000610b5d8161221f565b6040518060400160405280600d81526020016c20aaaa2427a924ad20aa24a7a760991b81525090610ba15760405162461bcd60e51b81526004016106d09190613862565b5060018211610baf57600080fd5b611388821115610bbe57600080fd5b610bc78361127f565b158015610bda5750610bd8836120b8565b155b610be357600080fd5b60408051808201825260048152632a24a2a960e11b602080830191909152825180840190935260188352771512515497d490539113d357d4d2155191931157d352539560421b90830152610c3d918590600160f81b6122b3565b610c8a604051806040016040528060048152602001632a24a2a960e11b815250846040518060400160405280600a81526020016913505617d05353d5539560b21b8152508560001b6122b3565b610ce8604051806040016040528060048152602001632a24a2a960e11b8152508460405180604001604052806017815260200176544945525f45585452415f415254574f524b535f4e554d60481b8152506001866108189190613e42565b816001600160401b03811115610d0057610d0061390e565b604051908082528060200260200182016040528015610d29578160200160208202803683370190505b506000848152610195602090815260409091208251610d4e93919291909101906135f8565b50600083815261019560205260408120905b838114610dbe5780828281548110610d7a57610d7a613e94565b90600052602060002090600891828204019190066004026101000a81548163ffffffff021916908363ffffffff16021790555080610db790613eaa565b9050610d60565b5050505050565b6101985461010090046001600160a01b03163314610dff5760405162461bcd60e51b815260206004820152600060248201526044016106d0565b610e0982826123f4565b5050565b610e1e610e18612344565b82612468565b610e3a5760405162461bcd60e51b81526004016106d090613ec5565b610b2e83838361255e565b7f0000000000000000000000000000000000000000000000000000000000000000610e6f8161221f565b6040518060400160405280600d81526020016c20aaaa2427a924ad20aa24a7a760991b81525090610eb35760405162461bcd60e51b81526004016106d09190613862565b506000610eff604051806040016040528060048152602001632a24a2a960e11b815250846040518060400160405280600a81526020016913505617d05353d5539560b21b815250612705565b60001c90506000610f51604051806040016040528060048152602001632a24a2a960e11b815250856040518060400160405280600c81526020016b1513d5105317d05353d5539560a21b815250612705565b90506000610f5e8561127f565b90506000610f6b866120b8565b90508383106040518060400160405280601981526020017f494e56414c49445f544945525f414d4f554e545f4552524f520000000000000081525090610fc45760405162461bcd60e51b81526004016106d09190613862565b5061101d604051806040016040528060048152602001632a24a2a960e11b815250876040518060400160405280600c81526020016b1513d5105317d05353d5539560a21b8152508661101590613eaa565b9650866122b3565b6101925465010000000000900463ffffffff16600090815261019360209081526040808320815180830190925260048252632a24a2a960e11b928201929092528892906110699061275a565b8152602081019190915260400160002055610192805465010000000000900463ffffffff16908190600561109c83613f16565b91906101000a81548163ffffffff021916908363ffffffff1602179055505081806110c45750825b15611268576101985461010090046001600160a01b03161561121a57610198546040516305d3b1d360e41b81527f6e099d640cde6de9d40ac749b4b594126b0169747122711109c9985d47751f936004820152600160a81b82046001600160401b03166024820152600360448201526207a12060648201526001608482015260009161010090046001600160a01b031690635d3b1d309060a4016020604051808303816000875af115801561117d573d6000803e3d6000fd5b505050506040513d601f19601f820116820180604052508101906111a19190613f3a565b604080516060810182526001600160a01b038c8116825260208083018d815263ffffffff888116858701908152600097885261019990935294909520925183546001600160a01b03191692169190911782559251600182015591516002909201805463ffffffff19169290911691909117905550611275565b6040516bffffffffffffffffffffffff1960608a901b1660208201526000906112549060340160405160208183030381529060405261278a565b9050611262818a848b6127bf565b50611275565b6112758882896000612a52565b5050505050505050565b6000600160f81b6001600160f81b0319166112df604051806040016040528060048152602001632a24a2a960e11b815250846040518060400160405280601081526020016f1512515497d490539113d357d352539560821b815250612705565b1492915050565b610b2e83838360405180602001604052806000815250611eab565b7f000000000000000000000000000000000000000000000000000000000000000061132b8161221f565b6040518060400160405280600d81526020016c20aaaa2427a924ad20aa24a7a760991b8152509061136f5760405162461bcd60e51b81526004016106d09190613862565b5061137d61019184846136a7565b507f23c8c9488efebfd474e85a7956de6f39b17c7ab88502d42a623db2d8e382bbaa83836040516113af929190613f53565b60405180910390a1505050565b7f00000000000000000000000000000000000000000000000000000000000000006113e68161221f565b6040518060400160405280600d81526020016c20aaaa2427a924ad20aa24a7a760991b8152509061142a5760405162461bcd60e51b81526004016106d09190613862565b505061019880546001600160401b03909216600160a81b0267ffffffffffffffff60a81b196001600160a01b039094166101000293909316610100600160e81b031990921691909117919091179055565b7f00000000000000000000000000000000000000000000000000000000000000006114a58161221f565b6040518060400160405280600d81526020016c20aaaa2427a924ad20aa24a7a760991b815250906114e95760405162461bcd60e51b81526004016106d09190613862565b50610dbe858585856122b3565b6000611500612353565b546001600160a01b0316919050565b600061151b6001612c15565b90508015611533576064805461ff0019166101001790555b61154b61154660408401602085016138a3565b612ca4565b6115d761155b6060840184613f82565b8080601f01602080910402602001604051908101604052809392919081815260200183838082843760009201919091525061159d925050506080850185613f82565b8080601f016020809104026020016040519081016040528093929190818152602001838380828437600092019190915250612cf692505050565b6115ec6115e760208401846138a3565b612d27565b6115f96040830183613f82565b61160691610191916136a7565b506116146060830183613f82565b61162191610196916136a7565b5061162f6080830183613f82565b61163c91610197916136a7565b507f23c8c9488efebfd474e85a7956de6f39b17c7ab88502d42a623db2d8e382bbaa61019160405161166e9190613fc8565b60405180910390a17f4df9dcd34ae35f40f2c756fd8ac83210ed0b76d065543ee73d868aec7c7fcf026101966040516116a79190613fc8565b60405180910390a17fadf3ae8bd543b3007d464f15cb8ea1db3f44e84d41d203164f40b95e27558ac66101976040516116e09190613fc8565b60405180910390a18015610e09576064805461ff0019169055604051600181527f7f26b83ff96e1f2b6a682f133852f6798a09c465da95921460cefb3847402498906020015b60405180910390a15050565b600081815260cb60205260408120546001600160a01b03168061065c5760405162461bcd60e51b815260206004820152602960248201527f4552433732313a206f776e657220717565727920666f72206e6f6e657869737460448201526832b73a103a37b5b2b760b91b60648201526084016106d0565b61019180546117b790613e59565b80601f01602080910402602001604051908101604052809291908181526020018280546117e390613e59565b80156118305780601f1061180557610100808354040283529160200191611830565b820191906000526020600020905b81548152906001019060200180831161181357829003601f168201915b505050505081565b60006001600160a01b0382166118a35760405162461bcd60e51b815260206004820152602a60248201527f4552433732313a2062616c616e636520717565727920666f7220746865207a65604482015269726f206164647265737360b01b60648201526084016106d0565b506001600160a01b0316600090815260cc602052604090205490565b6118c7612344565b6001600160a01b03166118e260fb546001600160a01b031690565b6001600160a01b0316146119385760405162461bcd60e51b815260206004820181905260248201527f4f776e61626c653a2063616c6c6572206973206e6f7420746865206f776e657260448201526064016106d0565b6119426000612ca4565b565b7f000000000000000000000000000000000000000000000000000000000000000061196e8161221f565b6040518060400160405280600d81526020016c20aaaa2427a924ad20aa24a7a760991b815250906119b25760405162461bcd60e51b81526004016106d09190613862565b506119c28263ffffffff16612d9d565b60006119e9604051806040016040528060048152602001632a24a2a960e11b81525061275a565b63ffffffff84166000908152610193602090815260408083208484528252808320548151808301835260048152632a24a2a960e11b818501528251808401909352600c83526b1513d5105317d05353d5539560a21b93830193909352939450611a5491908490612705565b60001c9050611ab1604051806040016040528060048152602001632a24a2a960e11b815250836040518060400160405280600c81526020016b1513d5105317d05353d5539560a21b81525084611aa99061404d565b9450846122b3565b63ffffffff851660008181526101936020908152604080832087845282528083209290925590519182527f3b651b2c4e677c2a060d746e3a06d84c64e2e9c8c268f92bd293357b7c5b9c01910160405180910390a15050505050565b6060611b3a7f00000000000000000000000000000000000000000000000000000000000000006030614064565b611b657f00000000000000000000000000000000000000000000000000000000000000006030614064565b611b907f00000000000000000000000000000000000000000000000000000000000000006030614064565b604051603b60f91b60208201526001600160f81b031960f894851b81166021830152601760f91b6022830181905293851b811660238301526024820193909352921b1660258201526026015b604051602081830303815290604052905090565b7f0000000000000000000000000000000000000000000000000000000000000000611c1a8161221f565b6040518060400160405280600d81526020016c20aaaa2427a924ad20aa24a7a760991b81525090611c5e5760405162461bcd60e51b81526004016106d09190613862565b5050610198805460ff1916911515919091179055565b600061065c604051806040016040528060048152602001632a24a2a960e11b8152508360405180604001604052806017815260200176544945525f45585452415f415254574f524b535f4e554d60481b815250612705565b6000611cd9848484612705565b949350505050565b6060610197805461083390613e59565b610e09611cfc612344565b8383612e44565b61012d546001600160a01b0316611d18612344565b6001600160a01b0316146040518060400160405280600d81526020016c20aaaa2427a924ad20aa24a7a760991b81525090611d665760405162461bcd60e51b81526004016106d09190613862565b507fa3f0ad74e5423aebfd80d3ef4346578335a9a72aeaee59ff6cb3582b35133d5080546001600160a01b0319166001600160a01b03841617905580611daa612353565b80546001600160a01b0319166001600160a01b0392831617905560408051848316815291831660208301527f8d0a39ac1f9e86fa663c9ebacb96ff6336e1aefc4e67397d5aa0bcc7b3b7c74b9101611726565b7f0000000000000000000000000000000000000000000000000000000000000000611e278161221f565b6040518060400160405280600d81526020016c20aaaa2427a924ad20aa24a7a760991b81525090611e6b5760405162461bcd60e51b81526004016106d09190613862565b50611e7961019784846136a7565b507fadf3ae8bd543b3007d464f15cb8ea1db3f44e84d41d203164f40b95e27558ac66101976040516113af9190613fc8565b611ebc611eb6612344565b83612468565b611ed85760405162461bcd60e51b81526004016106d090613ec5565b61081d84848484612f13565b6000611cd98484848080601f016020809104026020016040519081016040528093929190818152602001838380828437600092019190915250612f4692505050565b7f0000000000000000000000000000000000000000000000000000000000000000611f508161221f565b6040518060400160405280600d81526020016c20aaaa2427a924ad20aa24a7a760991b81525090611f945760405162461bcd60e51b81526004016106d09190613862565b50611fa261019684846136a7565b507f4df9dcd34ae35f40f2c756fd8ac83210ed0b76d065543ee73d868aec7c7fcf026101966040516113af9190613fc8565b60606000829050600061200382604051806040016040528060048152602001632a24a2a960e11b815250612f46565b905061200e81611c74565b15612083576000612041836040518060400160405280600a81526020016910549515d3d492d7d25160b21b815250612f46565b905061019161204f83612f7d565b61205883613082565b60405160200161206a939291906140f8565b6040516020818303038152906040529350505050919050565b61019161208f82612f7d565b6040516020016120a092919061413e565b60405160208183030381529060405292505050919050565b6000600160f81b6001600160f81b0319166112df604051806040016040528060048152602001632a24a2a960e11b81525084604051806040016040528060188152602001771512515497d490539113d357d4d2155191931157d352539560421b815250612705565b6060610191604051602001611bdc9190614163565b61213d612344565b6001600160a01b031661215860fb546001600160a01b031690565b6001600160a01b0316146121ae5760405162461bcd60e51b815260206004820181905260248201527f4f776e61626c653a2063616c6c6572206973206e6f7420746865206f776e657260448201526064016106d0565b6001600160a01b0381166122135760405162461bcd60e51b815260206004820152602660248201527f4f776e61626c653a206e6577206f776e657220697320746865207a65726f206160448201526564647265737360d01b60648201526084016106d0565b61221c81612ca4565b50565b61012d546000906001600160a01b031663ed82f4b861223c612344565b6040516001600160e01b031960e084901b1681526001600160a01b03909116600482015230602482015260ff85166044820152606401602060405180830381865afa15801561228f573d6000803e3d6000fd5b505050506040513d601f19601f8201168201806040525081019061065c9190614187565b8061019460006122c28761275a565b8152602001908152602001600020600085815260200190815260200160002060000160006122ef8561275a565b8152602001908152602001600020819055507fbbe342562e0ebf0c240ad60bed2824976fe39daef3367ce1386eda4639f9db328484848460405161233694939291906141a4565b60405180910390a150505050565b600061234e61317f565b905090565b600061234e61238360017f797d7c7d0df25d67e029b044c5bcb2b89d68f6483382b5f85e64485950ed88d1613e42565b90565b600081815260cd6020526040902080546001600160a01b0319166001600160a01b03841690811790915581906123bb82611732565b6001600160a01b03167f8c5be1e5ebec7d5bd14f71427d1e84f3dd0314c0f7b2291e5b200ac8c7c3b92560405160405180910390a45050565b600082815261019960209081526040808320815160608101835281546001600160a01b031681526001820154938101939093526002015463ffffffff169082015282519091610b2e9184919061244c5761244c613e94565b60200260200101518260000151836040015184602001516127bf565b600081815260cb60205260408120546001600160a01b03166124e15760405162461bcd60e51b815260206004820152602c60248201527f4552433732313a206f70657261746f7220717565727920666f72206e6f6e657860448201526b34b9ba32b73a103a37b5b2b760a11b60648201526084016106d0565b60006124ec83611732565b9050806001600160a01b0316846001600160a01b0316148061253357506001600160a01b03808216600090815260ce602090815260408083209388168352929052205460ff165b80611cd95750836001600160a01b031661254c846108b6565b6001600160a01b031614949350505050565b826001600160a01b031661257182611732565b6001600160a01b0316146125d55760405162461bcd60e51b815260206004820152602560248201527f4552433732313a207472616e736665722066726f6d20696e636f72726563742060448201526437bbb732b960d91b60648201526084016106d0565b6001600160a01b0382166126375760405162461bcd60e51b8152602060048201526024808201527f4552433732313a207472616e7366657220746f20746865207a65726f206164646044820152637265737360e01b60648201526084016106d0565b6126428383836131c4565b61264d600082612386565b6001600160a01b038316600090815260cc60205260408120805460019290612676908490613e42565b90915550506001600160a01b038216600090815260cc602052604081208054600192906126a49084906141e1565b9091555050600081815260cb602052604080822080546001600160a01b0319166001600160a01b0386811691821790925591518493918716917fddf252ad1be2c89b69c2b068fc378daa952ba7f163c4a11628f55a4df523b3ef91a4505050565b600061019460006127158661275a565b8152602001908152602001600020600084815260200190815260200160002060000160006127428461275a565b81526020019081526020016000205490509392505050565b60008160405160200161276d91906141f9565b604051602081830303815290604052805190602001209050919050565b60004442836040516020016127a193929190614215565b60408051601f19818403018152919052805160209091012092915050565b6000806127cb83611c74565b905060006127d8846120b8565b905060006127e58561127f565b9050801561280c57876127f98460016141e1565b6128039082614258565b9450612a4a9050565b8115612a4a57600085815261019560205260408120805490918a90836128328484614258565b8154811061284257612842613e94565b90600052602060002090600891828204019190066004029054906101000a900463ffffffff1663ffffffff169050600084828154811061288457612884613e94565b6000918252602090912060088204015460079091166004026101000a900463ffffffff169050846128b6600186613e42565b815481106128c6576128c6613e94565b90600052602060002090600891828204019190066004029054906101000a900463ffffffff168583815481106128fe576128fe613e94565b90600052602060002090600891828204019190066004029054906101000a900463ffffffff1686848154811061293657612936613e94565b600091825260209091206008820401906007166004028861295860018a613e42565b8154811061296857612968613e94565b90600052602060002090600891828204019190066004028491906101000a81548163ffffffff021916908363ffffffff1602179055508391906101000a81548163ffffffff021916908363ffffffff1602179055505050846001856129cd9190613e42565b815481106129dd576129dd613e94565b90600052602060002090600891828204019190066004026101000a81549063ffffffff021916905584805480612a1557612a1561426c565b600082815260209020600860001990920191820401805463ffffffff600460078516026101000a021916905590559750505050505b611275878787875b60408051600280825260608201909252600091816020015b6060815260200190600190039081612a6a5750506040805160028082526060820183529293506000929091602083019080368337019050509050604051806040016040528060048152602001632a24a2a960e11b81525082600081518110612ad457612ad4613e94565b60200260200101819052506040518060400160405280600a81526020016910549515d3d492d7d25160b21b81525082600181518110612b1557612b15613e94565b60200260200101819052508381600081518110612b3457612b34613e94565b6020026020010181815250508281600181518110612b5457612b54613e94565b6020026020010181815250508261019360008763ffffffff1663ffffffff1681526020019081526020016000206000016000612bb16040518060400160405280600a81526020016910549515d3d492d7d25160b21b81525061275a565b8152602081019190915260400160002055612bd28663ffffffff8716613357565b7f893f52173011681881e915ec9a2bef8164d895c2b95443b649ef62c91474c482858383604051612c0593929190614282565b60405180910390a1505050505050565b606454600090610100900460ff1615612c5e578160ff166001148015612c3a5750303b155b612c565760405162461bcd60e51b81526004016106d090614329565b506000919050565b60645460ff808416911610612c855760405162461bcd60e51b81526004016106d090614329565b506064805460ff191660ff92909216919091179055600190565b919050565b60fb80546001600160a01b038381166001600160a01b0319831681179093556040519116919082907f8be0079c531659141344cd1fd0a4f28419497f9722a3daafe3b4186f6b6457e090600090a35050565b606454610100900460ff16612d1d5760405162461bcd60e51b81526004016106d090614377565b610e0982826134a5565b606454610100900460ff16612d4e5760405162461bcd60e51b81526004016106d090614377565b61012d80546001600160a01b0319166001600160a01b0383169081179091556040519081527f4f8cfde3439a1a302c21ca51eec26086efbfd940b8c0279889fc6bb6e73ecc6690602001610a00565b6000612da882611732565b9050612db6816000846131c4565b612dc1600083612386565b6001600160a01b038116600090815260cc60205260408120805460019290612dea908490613e42565b9091555050600082815260cb602052604080822080546001600160a01b0319169055518391906001600160a01b038416907fddf252ad1be2c89b69c2b068fc378daa952ba7f163c4a11628f55a4df523b3ef908390a45050565b816001600160a01b0316836001600160a01b03161415612ea65760405162461bcd60e51b815260206004820152601960248201527f4552433732313a20617070726f766520746f2063616c6c65720000000000000060448201526064016106d0565b6001600160a01b03838116600081815260ce6020908152604080832094871680845294825291829020805460ff191686151590811790915591519182527f17307eab39ab6107e8899845ad3d59bd9653f200f220920489ca2b5937696c31910160405180910390a3505050565b612f1e84848461255e565b612f2a848484846134f3565b61081d5760405162461bcd60e51b81526004016106d0906143c2565b63ffffffff821660009081526101936020526040812081612f668461275a565b815260200190815260200160002054905092915050565b606060005b60208160ff16108015612fb65750828160ff1660208110612fa557612fa5613e94565b1a60f81b6001600160f81b03191615155b15612fcb57612fc481614414565b9050612f82565b60008160ff166001600160401b03811115612fe857612fe861390e565b6040519080825280601f01601f191660200182016040528015613012576020820181803683370190505b50905060005b8260ff168160ff161461307a57848160ff166020811061303a5761303a613e94565b1a60f81b828260ff168151811061305357613053613e94565b60200101906001600160f81b031916908160001a90535061307381614414565b9050613018565b509392505050565b6060816130a65750506040805180820190915260018152600360fc1b602082015290565b8160005b81156130d057806130ba81613eaa565b91506130c99050600a83614434565b91506130aa565b6000816001600160401b038111156130ea576130ea61390e565b6040519080825280601f01601f191660200182016040528015613114576020820181803683370190505b5090505b8415611cd957613129600183613e42565b9150613136600a86614258565b6131419060306141e1565b60f81b81838151811061315657613156613e94565b60200101906001600160f81b031916908160001a905350613178600a86614434565b9450613118565b60007f00000000000000000000000000000000000000000000000000000000000000006001600160a01b03163314156131bf575060131936013560601c90565b503390565b6001600160a01b0382161515806131df57506101985460ff16155b60405180604001604052806011815260200170212aa9272fa827a624a1acafa2a92927a960791b815250906132275760405162461bcd60e51b81526004016106d09190613862565b506001600160a01b0383161580159061324857506001600160a01b03821615155b15610b2e57600061327582604051806040016040528060048152602001632a24a2a960e11b815250612f46565b905060006132c7604051806040016040528060048152602001632a24a2a960e11b815250836040518060400160405280600f81526020016e49535f5452414e5346455241424c4560881b815250612705565b60001c9050600061332a604051806040016040528060048152602001632a24a2a960e11b815250846040518060400160405280601981526020017f5452414e534645525f554e4c4f434b535f41545f484f55525300000000000000815250612705565b9050600182148015613346575080613344610e1042614434565b115b61334f57600080fd5b505050505050565b6001600160a01b0382166133ad5760405162461bcd60e51b815260206004820181905260248201527f4552433732313a206d696e7420746f20746865207a65726f206164647265737360448201526064016106d0565b600081815260cb60205260409020546001600160a01b0316156134125760405162461bcd60e51b815260206004820152601c60248201527f4552433732313a20746f6b656e20616c7265616479206d696e7465640000000060448201526064016106d0565b61341e600083836131c4565b6001600160a01b038216600090815260cc602052604081208054600192906134479084906141e1565b9091555050600081815260cb602052604080822080546001600160a01b0319166001600160a01b03861690811790915590518392907fddf252ad1be2c89b69c2b068fc378daa952ba7f163c4a11628f55a4df523b3ef908290a45050565b606454610100900460ff166134cc5760405162461bcd60e51b81526004016106d090614377565b81516134df9060c990602085019061371b565b508051610b2e9060ca90602084019061371b565b60006001600160a01b0384163b156135ed57836001600160a01b031663150b7a0261351c612344565b8786866040518563ffffffff1660e01b815260040161353e9493929190614448565b6020604051808303816000875af1925050508015613579575060408051601f3d908101601f1916820190925261357691810190614485565b60015b6135d3573d8080156135a7576040519150601f19603f3d011682016040523d82523d6000602084013e6135ac565b606091505b5080516135cb5760405162461bcd60e51b81526004016106d0906143c2565b805181602001fd5b6001600160e01b031916630a85bd0160e11b149050611cd9565b506001949350505050565b828054828255906000526020600020906007016008900481019282156136975791602002820160005b8382111561366557835183826101000a81548163ffffffff021916908363ffffffff1602179055509260200192600401602081600301049283019260010302613621565b80156136955782816101000a81549063ffffffff0219169055600401602081600301049283019260010302613665565b505b506136a392915061378f565b5090565b8280546136b390613e59565b90600052602060002090601f0160209004810192826136d55760008555613697565b82601f106136ee5782800160ff19823516178555613697565b82800160010185558215613697579182015b82811115613697578235825591602001919060010190613700565b82805461372790613e59565b90600052602060002090601f0160209004810192826137495760008555613697565b82601f1061376257805160ff1916838001178555613697565b82800160010185558215613697579182015b82811115613697578251825591602001919060010190613774565b5b808211156136a35760008155600101613790565b6001600160e01b03198116811461221c57600080fd5b6000602082840312156137cc57600080fd5b81356137d7816137a4565b9392505050565b6000806000606084860312156137f357600080fd5b505081359360208301359350604090920135919050565b60005b8381101561382557818101518382015260200161380d565b8381111561081d5750506000910152565b6000815180845261384e81602086016020860161380a565b601f01601f19169290920160200192915050565b6020815260006137d76020830184613836565b60006020828403121561388757600080fd5b5035919050565b6001600160a01b038116811461221c57600080fd5b6000602082840312156138b557600080fd5b81356137d78161388e565b600080604083850312156138d357600080fd5b82356138de8161388e565b946020939093013593505050565b600080604083850312156138ff57600080fd5b50508035926020909101359150565b634e487b7160e01b600052604160045260246000fd5b604051601f8201601f191681016001600160401b038111828210171561394c5761394c61390e565b604052919050565b6000806040838503121561396757600080fd5b823591506020808401356001600160401b038082111561398657600080fd5b818601915086601f83011261399a57600080fd5b8135818111156139ac576139ac61390e565b8060051b91506139bd848301613924565b81815291830184019184810190898411156139d757600080fd5b938501935b838510156139f5578435825293850193908501906139dc565b8096505050505050509250929050565b600080600060608486031215613a1a57600080fd5b8335613a258161388e565b92506020840135613a358161388e565b929592945050506040919091013590565b60008083601f840112613a5857600080fd5b5081356001600160401b03811115613a6f57600080fd5b602083019150836020828501011115613a8757600080fd5b9250929050565b60008060208385031215613aa157600080fd5b82356001600160401b03811115613ab757600080fd5b613ac385828601613a46565b90969095509350505050565b60008060408385031215613ae257600080fd5b8235613aed8161388e565b915060208301356001600160401b0381168114613b0957600080fd5b809150509250929050565b60006001600160401b03831115613b2d57613b2d61390e565b613b40601f8401601f1916602001613924565b9050828152838383011115613b5457600080fd5b828260208301376000602084830101529392505050565b600082601f830112613b7c57600080fd5b6137d783833560208501613b14565b60008060008060808587031215613ba157600080fd5b84356001600160401b0380821115613bb857600080fd5b613bc488838901613b6b565b9550602087013594506040870135915080821115613be157600080fd5b50613bee87828801613b6b565b949793965093946060013593505050565b600060208284031215613c1157600080fd5b81356001600160401b03811115613c2757600080fd5b820160a081850312156137d757600080fd5b803563ffffffff81168114612c9f57600080fd5b600060208284031215613c5f57600080fd5b6137d782613c39565b801515811461221c57600080fd5b600060208284031215613c8857600080fd5b81356137d781613c68565b600080600060608486031215613ca857600080fd5b83356001600160401b0380821115613cbf57600080fd5b613ccb87838801613b6b565b9450602086013593506040860135915080821115613ce857600080fd5b50613cf586828701613b6b565b9150509250925092565b60008060408385031215613d1257600080fd5b8235613d1d8161388e565b91506020830135613b0981613c68565b60008060408385031215613d4057600080fd5b8235613d4b8161388e565b91506020830135613b098161388e565b60008060008060808587031215613d7157600080fd5b8435613d7c8161388e565b93506020850135613d8c8161388e565b92506040850135915060608501356001600160401b03811115613dae57600080fd5b8501601f81018713613dbf57600080fd5b613dce87823560208401613b14565b91505092959194509250565b600080600060408486031215613def57600080fd5b613df884613c39565b925060208401356001600160401b03811115613e1357600080fd5b613e1f86828701613a46565b9497909650939450505050565b634e487b7160e01b600052601160045260246000fd5b600082821015613e5457613e54613e2c565b500390565b600181811c90821680613e6d57607f821691505b60208210811415613e8e57634e487b7160e01b600052602260045260246000fd5b50919050565b634e487b7160e01b600052603260045260246000fd5b6000600019821415613ebe57613ebe613e2c565b5060010190565b60208082526031908201527f4552433732313a207472616e736665722063616c6c6572206973206e6f74206f6040820152701ddb995c881b9bdc88185c1c1c9bdd9959607a1b606082015260800190565b600063ffffffff80831681811415613f3057613f30613e2c565b6001019392505050565b600060208284031215613f4c57600080fd5b5051919050565b60208152816020820152818360408301376000818301604090810191909152601f909201601f19160101919050565b6000808335601e19843603018112613f9957600080fd5b8301803591506001600160401b03821115613fb357600080fd5b602001915036819003821315613a8757600080fd5b6000602080835260008454613fdc81613e59565b80848701526040600180841660008114613ffd57600181146140115761403f565b60ff1985168984015260608901955061403f565b896000528660002060005b858110156140375781548b820186015290830190880161401c565b8a0184019650505b509398975050505050505050565b60008161405c5761405c613e2c565b506000190190565b600060ff821660ff84168060ff0382111561408157614081613e2c565b019392505050565b6000815461409681613e59565b600182811680156140ae57600181146140bf576140ee565b60ff198416875282870194506140ee565b8560005260208060002060005b858110156140e55781548a8201529084019082016140cc565b50505082870194505b5050505092915050565b60006141048286614089565b845161411481836020890161380a565b602f60f81b9101908152835161413181600184016020880161380a565b0160010195945050505050565b600061414a8285614089565b835161415a81836020880161380a565b01949350505050565b600061416f8284614089565b6718dbdb9d1c9858dd60c21b81526008019392505050565b60006020828403121561419957600080fd5b81516137d781613c68565b6080815260006141b76080830187613836565b85602084015282810360408401526141cf8186613836565b91505082606083015295945050505050565b600082198211156141f4576141f4613e2c565b500190565b6000825161420b81846020870161380a565b9190910192915050565b8381528260208201526000825161423381604085016020870161380a565b91909101604001949350505050565b634e487b7160e01b600052601260045260246000fd5b60008261426757614267614242565b500690565b634e487b7160e01b600052603160045260246000fd5b60006060820163ffffffff86168352602060608185015281865180845260808601915060808160051b870101935082880160005b828110156142e457607f198887030184526142d2868351613836565b955092840192908401906001016142b6565b50505050838203604085015284518083528186019282019060005b8181101561431b578451835293830193918301916001016142ff565b509098975050505050505050565b6020808252602e908201527f496e697469616c697a61626c653a20636f6e747261637420697320616c72656160408201526d191e481a5b9a5d1a585b1a5e995960921b606082015260800190565b6020808252602b908201527f496e697469616c697a61626c653a20636f6e7472616374206973206e6f74206960408201526a6e697469616c697a696e6760a81b606082015260800190565b60208082526032908201527f4552433732313a207472616e7366657220746f206e6f6e20455243373231526560408201527131b2b4bb32b91034b6b83632b6b2b73a32b960711b606082015260800190565b600060ff821660ff81141561442b5761442b613e2c565b60010192915050565b60008261444357614443614242565b500490565b6001600160a01b038581168252841660208201526040810183905260806060820181905260009061447b90830184613836565b9695505050505050565b60006020828403121561449757600080fd5b81516137d7816137a456fea26469706673582212202294e0b5eaa9239af0d88861a2d070d2aa10830661643891a8e3afd3d1a64a3f64736f6c634300080c0033",
  "devdoc": {
    "author": "SuperdaoTeam",
    "kind": "dev",
    "methods": {
      "approve(address,uint256)": {
        "details": "See {IERC721-approve}."
      },
      "balanceOf(address)": {
        "details": "See {IERC721-balanceOf}."
      },
      "getApproved(uint256)": {
        "details": "See {IERC721-getApproved}."
      },
      "implementation()": {
        "details": "Add appCode for external access"
      },
      "isApprovedForAll(address,address)": {
        "details": "See {IERC721-isApprovedForAll}."
      },
      "name()": {
        "details": "See {IERC721Metadata-name}."
      },
      "owner()": {
        "details": "Returns the address of the current owner."
      },
      "ownerOf(uint256)": {
        "details": "See {IERC721-ownerOf}."
      },
      "renounceOwnership()": {
        "details": "Leaves the contract without owner. It will not be possible to call `onlyOwner` functions anymore. Can only be called by the current owner. NOTE: Renouncing ownership will leave the contract without an owner, thereby removing any functionality that is only available to the owner."
      },
      "safeTransferFrom(address,address,uint256)": {
        "details": "See {IERC721-safeTransferFrom}."
      },
      "safeTransferFrom(address,address,uint256,bytes)": {
        "details": "See {IERC721-safeTransferFrom}."
      },
      "setApprovalForAll(address,bool)": {
        "details": "See {IERC721-setApprovalForAll}."
      },
      "supportsInterface(bytes4)": {
        "details": "See {IERC165-supportsInterface}."
      },
      "symbol()": {
        "details": "See {IERC721Metadata-symbol}."
      },
      "tokenURI(uint256)": {
        "details": "See {IERC721Metadata-tokenURI}."
      },
      "transferFrom(address,address,uint256)": {
        "details": "See {IERC721-transferFrom}."
      },
      "transferOwnership(address)": {
        "details": "Transfers ownership of the contract to a new account (`newOwner`). Can only be called by the current owner."
      },
      "upgrade(address)": {
        "details": "Update via appCode"
      }
    },
    "title": "ERC721Properties",
    "version": 1
  },
  "userdoc": {
    "kind": "user",
    "methods": {},
    "notice": "Create a new role identifier for Admin",
    "version": 1
  },
  "storageLayout": {
    "storage": [
      {
        "astId": 11829,
        "contract": "contracts/apps/ERC721Properties/ERC721Properties.sol:ERC721Properties",
        "label": "__gap",
        "offset": 0,
        "slot": "0",
        "type": "t_array(t_uint256)100_storage"
      },
      {
        "astId": 130,
        "contract": "contracts/apps/ERC721Properties/ERC721Properties.sol:ERC721Properties",
        "label": "_initialized",
        "offset": 0,
        "slot": "100",
        "type": "t_uint8"
      },
      {
        "astId": 133,
        "contract": "contracts/apps/ERC721Properties/ERC721Properties.sol:ERC721Properties",
        "label": "_initializing",
        "offset": 1,
        "slot": "100",
        "type": "t_bool"
      },
      {
        "astId": 1601,
        "contract": "contracts/apps/ERC721Properties/ERC721Properties.sol:ERC721Properties",
        "label": "__gap",
        "offset": 0,
        "slot": "101",
        "type": "t_array(t_uint256)50_storage"
      },
      {
        "astId": 1848,
        "contract": "contracts/apps/ERC721Properties/ERC721Properties.sol:ERC721Properties",
        "label": "__gap",
        "offset": 0,
        "slot": "151",
        "type": "t_array(t_uint256)50_storage"
      },
      {
        "astId": 294,
        "contract": "contracts/apps/ERC721Properties/ERC721Properties.sol:ERC721Properties",
        "label": "_name",
        "offset": 0,
        "slot": "201",
        "type": "t_string_storage"
      },
      {
        "astId": 296,
        "contract": "contracts/apps/ERC721Properties/ERC721Properties.sol:ERC721Properties",
        "label": "_symbol",
        "offset": 0,
        "slot": "202",
        "type": "t_string_storage"
      },
      {
        "astId": 300,
        "contract": "contracts/apps/ERC721Properties/ERC721Properties.sol:ERC721Properties",
        "label": "_owners",
        "offset": 0,
        "slot": "203",
        "type": "t_mapping(t_uint256,t_address)"
      },
      {
        "astId": 304,
        "contract": "contracts/apps/ERC721Properties/ERC721Properties.sol:ERC721Properties",
        "label": "_balances",
        "offset": 0,
        "slot": "204",
        "type": "t_mapping(t_address,t_uint256)"
      },
      {
        "astId": 308,
        "contract": "contracts/apps/ERC721Properties/ERC721Properties.sol:ERC721Properties",
        "label": "_tokenApprovals",
        "offset": 0,
        "slot": "205",
        "type": "t_mapping(t_uint256,t_address)"
      },
      {
        "astId": 314,
        "contract": "contracts/apps/ERC721Properties/ERC721Properties.sol:ERC721Properties",
        "label": "_operatorApprovals",
        "offset": 0,
        "slot": "206",
        "type": "t_mapping(t_address,t_mapping(t_address,t_bool))"
      },
      {
        "astId": 1155,
        "contract": "contracts/apps/ERC721Properties/ERC721Properties.sol:ERC721Properties",
        "label": "__gap",
        "offset": 0,
        "slot": "207",
        "type": "t_array(t_uint256)44_storage"
      },
      {
        "astId": 10,
        "contract": "contracts/apps/ERC721Properties/ERC721Properties.sol:ERC721Properties",
        "label": "_owner",
        "offset": 0,
        "slot": "251",
        "type": "t_address"
      },
      {
        "astId": 122,
        "contract": "contracts/apps/ERC721Properties/ERC721Properties.sol:ERC721Properties",
        "label": "__gap",
        "offset": 0,
        "slot": "252",
        "type": "t_array(t_uint256)49_storage"
      },
      {
        "astId": 8387,
        "contract": "contracts/apps/ERC721Properties/ERC721Properties.sol:ERC721Properties",
        "label": "kernel",
        "offset": 0,
        "slot": "301",
        "type": "t_contract(IKernel)13380"
      },
      {
        "astId": 8390,
        "contract": "contracts/apps/ERC721Properties/ERC721Properties.sol:ERC721Properties",
        "label": "_nextRoleId",
        "offset": 20,
        "slot": "301",
        "type": "t_uint8"
      },
      {
        "astId": 8394,
        "contract": "contracts/apps/ERC721Properties/ERC721Properties.sol:ERC721Properties",
        "label": "__gap",
        "offset": 0,
        "slot": "302",
        "type": "t_array(t_uint256)99_storage"
      },
      {
        "astId": 9141,
        "contract": "contracts/apps/ERC721Properties/ERC721Properties.sol:ERC721Properties",
        "label": "baseURI",
        "offset": 0,
        "slot": "401",
        "type": "t_string_storage"
      },
      {
        "astId": 9143,
        "contract": "contracts/apps/ERC721Properties/ERC721Properties.sol:ERC721Properties",
        "label": "__0",
        "offset": 0,
        "slot": "402",
        "type": "t_bool"
      },
      {
        "astId": 9145,
        "contract": "contracts/apps/ERC721Properties/ERC721Properties.sol:ERC721Properties",
        "label": "__1",
        "offset": 1,
        "slot": "402",
        "type": "t_uint32"
      },
      {
        "astId": 9147,
        "contract": "contracts/apps/ERC721Properties/ERC721Properties.sol:ERC721Properties",
        "label": "_nextTokenId",
        "offset": 5,
        "slot": "402",
        "type": "t_uint32"
      },
      {
        "astId": 9152,
        "contract": "contracts/apps/ERC721Properties/ERC721Properties.sol:ERC721Properties",
        "label": "_propertiesByTokenId",
        "offset": 0,
        "slot": "403",
        "type": "t_mapping(t_uint32,t_struct(Properties)9077_storage)"
      },
      {
        "astId": 9160,
        "contract": "contracts/apps/ERC721Properties/ERC721Properties.sol:ERC721Properties",
        "label": "_attributesByPropertyKey",
        "offset": 0,
        "slot": "404",
        "type": "t_mapping(t_userDefinedValueType(KeyHash)9059,t_mapping(t_bytes32,t_struct(Attributes)9083_storage))"
      },
      {
        "astId": 9165,
        "contract": "contracts/apps/ERC721Properties/ERC721Properties.sol:ERC721Properties",
        "label": "_randomShuffleUnusedArtworkIds",
        "offset": 0,
        "slot": "405",
        "type": "t_mapping(t_bytes32,t_array(t_uint32)dyn_storage)"
      },
      {
        "astId": 9167,
        "contract": "contracts/apps/ERC721Properties/ERC721Properties.sol:ERC721Properties",
        "label": "_editableName",
        "offset": 0,
        "slot": "406",
        "type": "t_string_storage"
      },
      {
        "astId": 9169,
        "contract": "contracts/apps/ERC721Properties/ERC721Properties.sol:ERC721Properties",
        "label": "_editableSymbol",
        "offset": 0,
        "slot": "407",
        "type": "t_string_storage"
      },
      {
        "astId": 9171,
        "contract": "contracts/apps/ERC721Properties/ERC721Properties.sol:ERC721Properties",
        "label": "_restrictBurnPolicy",
        "offset": 0,
        "slot": "408",
        "type": "t_bool"
      },
      {
        "astId": 9174,
        "contract": "contracts/apps/ERC721Properties/ERC721Properties.sol:ERC721Properties",
        "label": "vrfCoordinator",
        "offset": 1,
        "slot": "408",
        "type": "t_contract(VRFCoordinatorV2Interface)11805"
      },
      {
        "astId": 9176,
        "contract": "contracts/apps/ERC721Properties/ERC721Properties.sol:ERC721Properties",
        "label": "subscriptionId",
        "offset": 21,
        "slot": "408",
        "type": "t_uint64"
      },
      {
        "astId": 9181,
        "contract": "contracts/apps/ERC721Properties/ERC721Properties.sol:ERC721Properties",
        "label": "requests",
        "offset": 0,
        "slot": "409",
        "type": "t_mapping(t_uint256,t_struct(VRFRequest)9090_storage)"
      }
    ],
    "types": {
      "t_address": {
        "encoding": "inplace",
        "label": "address",
        "numberOfBytes": "20"
      },
      "t_array(t_uint256)100_storage": {
        "base": "t_uint256",
        "encoding": "inplace",
        "label": "uint256[100]",
        "numberOfBytes": "3200"
      },
      "t_array(t_uint256)44_storage": {
        "base": "t_uint256",
        "encoding": "inplace",
        "label": "uint256[44]",
        "numberOfBytes": "1408"
      },
      "t_array(t_uint256)49_storage": {
        "base": "t_uint256",
        "encoding": "inplace",
        "label": "uint256[49]",
        "numberOfBytes": "1568"
      },
      "t_array(t_uint256)50_storage": {
        "base": "t_uint256",
        "encoding": "inplace",
        "label": "uint256[50]",
        "numberOfBytes": "1600"
      },
      "t_array(t_uint256)99_storage": {
        "base": "t_uint256",
        "encoding": "inplace",
        "label": "uint256[99]",
        "numberOfBytes": "3168"
      },
      "t_array(t_uint32)dyn_storage": {
        "base": "t_uint32",
        "encoding": "dynamic_array",
        "label": "uint32[]",
        "numberOfBytes": "32"
      },
      "t_bool": {
        "encoding": "inplace",
        "label": "bool",
        "numberOfBytes": "1"
      },
      "t_bytes32": {
        "encoding": "inplace",
        "label": "bytes32",
        "numberOfBytes": "32"
      },
      "t_contract(IKernel)13380": {
        "encoding": "inplace",
        "label": "contract IKernel",
        "numberOfBytes": "20"
      },
      "t_contract(VRFCoordinatorV2Interface)11805": {
        "encoding": "inplace",
        "label": "contract VRFCoordinatorV2Interface",
        "numberOfBytes": "20"
      },
      "t_mapping(t_address,t_bool)": {
        "encoding": "mapping",
        "key": "t_address",
        "label": "mapping(address => bool)",
        "numberOfBytes": "32",
        "value": "t_bool"
      },
      "t_mapping(t_address,t_mapping(t_address,t_bool))": {
        "encoding": "mapping",
        "key": "t_address",
        "label": "mapping(address => mapping(address => bool))",
        "numberOfBytes": "32",
        "value": "t_mapping(t_address,t_bool)"
      },
      "t_mapping(t_address,t_uint256)": {
        "encoding": "mapping",
        "key": "t_address",
        "label": "mapping(address => uint256)",
        "numberOfBytes": "32",
        "value": "t_uint256"
      },
      "t_mapping(t_bytes32,t_array(t_uint32)dyn_storage)": {
        "encoding": "mapping",
        "key": "t_bytes32",
        "label": "mapping(bytes32 => uint32[])",
        "numberOfBytes": "32",
        "value": "t_array(t_uint32)dyn_storage"
      },
      "t_mapping(t_bytes32,t_struct(Attributes)9083_storage)": {
        "encoding": "mapping",
        "key": "t_bytes32",
        "label": "mapping(bytes32 => struct ERC721Properties.Attributes)",
        "numberOfBytes": "32",
        "value": "t_struct(Attributes)9083_storage"
      },
      "t_mapping(t_uint256,t_address)": {
        "encoding": "mapping",
        "key": "t_uint256",
        "label": "mapping(uint256 => address)",
        "numberOfBytes": "32",
        "value": "t_address"
      },
      "t_mapping(t_uint256,t_struct(VRFRequest)9090_storage)": {
        "encoding": "mapping",
        "key": "t_uint256",
        "label": "mapping(uint256 => struct ERC721Properties.VRFRequest)",
        "numberOfBytes": "32",
        "value": "t_struct(VRFRequest)9090_storage"
      },
      "t_mapping(t_uint32,t_struct(Properties)9077_storage)": {
        "encoding": "mapping",
        "key": "t_uint32",
        "label": "mapping(uint32 => struct ERC721Properties.Properties)",
        "numberOfBytes": "32",
        "value": "t_struct(Properties)9077_storage"
      },
      "t_mapping(t_userDefinedValueType(KeyHash)9059,t_bytes32)": {
        "encoding": "mapping",
        "key": "t_userDefinedValueType(KeyHash)9059",
        "label": "mapping(ERC721Properties.KeyHash => bytes32)",
        "numberOfBytes": "32",
        "value": "t_bytes32"
      },
      "t_mapping(t_userDefinedValueType(KeyHash)9059,t_mapping(t_bytes32,t_struct(Attributes)9083_storage))": {
        "encoding": "mapping",
        "key": "t_userDefinedValueType(KeyHash)9059",
        "label": "mapping(ERC721Properties.KeyHash => mapping(bytes32 => struct ERC721Properties.Attributes))",
        "numberOfBytes": "32",
        "value": "t_mapping(t_bytes32,t_struct(Attributes)9083_storage)"
      },
      "t_string_storage": {
        "encoding": "bytes",
        "label": "string",
        "numberOfBytes": "32"
      },
      "t_struct(Attributes)9083_storage": {
        "encoding": "inplace",
        "label": "struct ERC721Properties.Attributes",
        "members": [
          {
            "astId": 9082,
            "contract": "contracts/apps/ERC721Properties/ERC721Properties.sol:ERC721Properties",
            "label": "attributes",
            "offset": 0,
            "slot": "0",
            "type": "t_mapping(t_userDefinedValueType(KeyHash)9059,t_bytes32)"
          }
        ],
        "numberOfBytes": "32"
      },
      "t_struct(Properties)9077_storage": {
        "encoding": "inplace",
        "label": "struct ERC721Properties.Properties",
        "members": [
          {
            "astId": 9076,
            "contract": "contracts/apps/ERC721Properties/ERC721Properties.sol:ERC721Properties",
            "label": "properties",
            "offset": 0,
            "slot": "0",
            "type": "t_mapping(t_userDefinedValueType(KeyHash)9059,t_bytes32)"
          }
        ],
        "numberOfBytes": "32"
      },
      "t_struct(VRFRequest)9090_storage": {
        "encoding": "inplace",
        "label": "struct ERC721Properties.VRFRequest",
        "members": [
          {
            "astId": 9085,
            "contract": "contracts/apps/ERC721Properties/ERC721Properties.sol:ERC721Properties",
            "label": "to",
            "offset": 0,
            "slot": "0",
            "type": "t_address"
          },
          {
            "astId": 9087,
            "contract": "contracts/apps/ERC721Properties/ERC721Properties.sol:ERC721Properties",
            "label": "tierValue",
            "offset": 0,
            "slot": "1",
            "type": "t_bytes32"
          },
          {
            "astId": 9089,
            "contract": "contracts/apps/ERC721Properties/ERC721Properties.sol:ERC721Properties",
            "label": "tokenId",
            "offset": 0,
            "slot": "2",
            "type": "t_uint32"
          }
        ],
        "numberOfBytes": "96"
      },
      "t_uint256": {
        "encoding": "inplace",
        "label": "uint256",
        "numberOfBytes": "32"
      },
      "t_uint32": {
        "encoding": "inplace",
        "label": "uint32",
        "numberOfBytes": "4"
      },
      "t_uint64": {
        "encoding": "inplace",
        "label": "uint64",
        "numberOfBytes": "8"
      },
      "t_uint8": {
        "encoding": "inplace",
        "label": "uint8",
        "numberOfBytes": "1"
      },
      "t_userDefinedValueType(KeyHash)9059": {
        "encoding": "inplace",
        "label": "ERC721Properties.KeyHash",
        "numberOfBytes": "32"
      }
    }
  }
}