{
  "address": "0xC5aFa234D1B0a0376F63D0C16E9644d612b67db0",
  "abi": [
    {
      "inputs": [
        {
          "internalType": "address",
          "name": "trustedForwarder",
          "type": "address"
        }
      ],
      "stateMutability": "nonpayable",
      "type": "constructor"
    },
    {
      "anonymous": false,
      "inputs": [
        {
          "indexed": false,
          "internalType": "contract IKernel",
          "name": "kernel",
          "type": "address"
        }
      ],
      "name": "Init",
      "type": "event"
    },
    {
      "anonymous": false,
      "inputs": [
        {
          "indexed": false,
          "internalType": "uint8",
          "name": "version",
          "type": "uint8"
        }
      ],
      "name": "Initialized",
      "type": "event"
    },
    {
      "anonymous": false,
      "inputs": [
        {
          "indexed": false,
          "internalType": "address",
          "name": "newBeacon",
          "type": "address"
        },
        {
          "indexed": false,
          "internalType": "address",
          "name": "beaconProxy",
          "type": "address"
        }
      ],
      "name": "ProxyMigrated",
      "type": "event"
    },
    {
      "anonymous": false,
      "inputs": [
        {
          "indexed": false,
          "internalType": "bool",
          "name": "isActive",
          "type": "bool"
        }
      ],
      "name": "SetActive",
      "type": "event"
    },
    {
      "anonymous": false,
      "inputs": [
        {
          "indexed": false,
          "internalType": "address",
          "name": "code",
          "type": "address"
        }
      ],
      "name": "Upgrade",
      "type": "event"
    },
    {
      "inputs": [],
      "name": "CLAIM_LIMIT_ERROR",
      "outputs": [
        {
          "internalType": "string",
          "name": "",
          "type": "string"
        }
      ],
      "stateMutability": "view",
      "type": "function"
    },
    {
      "inputs": [],
      "name": "CONTROLLER",
      "outputs": [
        {
          "internalType": "uint8",
          "name": "",
          "type": "uint8"
        }
      ],
      "stateMutability": "view",
      "type": "function"
    },
    {
      "inputs": [],
      "name": "__semver",
      "outputs": [
        {
          "internalType": "string",
          "name": "",
          "type": "string"
        }
      ],
      "stateMutability": "view",
      "type": "function"
    },
    {
      "inputs": [
        {
          "internalType": "address",
          "name": "to",
          "type": "address"
        },
        {
          "internalType": "bytes32[]",
          "name": "merkleProof",
          "type": "bytes32[]"
        },
        {
          "internalType": "bytes32",
          "name": "tierValue",
          "type": "bytes32"
        }
      ],
      "name": "claim",
      "outputs": [],
      "stateMutability": "nonpayable",
      "type": "function"
    },
    {
      "inputs": [
        {
          "internalType": "bytes32",
          "name": "",
          "type": "bytes32"
        }
      ],
      "name": "claimLimitByTier",
      "outputs": [
        {
          "internalType": "uint256",
          "name": "",
          "type": "uint256"
        }
      ],
      "stateMutability": "view",
      "type": "function"
    },
    {
      "inputs": [
        {
          "internalType": "address",
          "name": "",
          "type": "address"
        },
        {
          "internalType": "bytes32",
          "name": "",
          "type": "bytes32"
        }
      ],
      "name": "claims",
      "outputs": [
        {
          "internalType": "uint256",
          "name": "",
          "type": "uint256"
        }
      ],
      "stateMutability": "view",
      "type": "function"
    },
    {
      "inputs": [],
      "name": "implementation",
      "outputs": [
        {
          "internalType": "address",
          "name": "",
          "type": "address"
        }
      ],
      "stateMutability": "view",
      "type": "function"
    },
    {
      "inputs": [
        {
          "internalType": "contract IKernel",
          "name": "_kernel",
          "type": "address"
        },
        {
          "internalType": "bytes32[]",
          "name": "tiers",
          "type": "bytes32[]"
        },
        {
          "internalType": "uint256[]",
          "name": "claimLimits",
          "type": "uint256[]"
        }
      ],
      "name": "initialize",
      "outputs": [],
      "stateMutability": "nonpayable",
      "type": "function"
    },
    {
      "inputs": [],
      "name": "isActive",
      "outputs": [
        {
          "internalType": "bool",
          "name": "",
          "type": "bool"
        }
      ],
      "stateMutability": "view",
      "type": "function"
    },
    {
      "inputs": [
        {
          "internalType": "address",
          "name": "forwarder",
          "type": "address"
        }
      ],
      "name": "isTrustedForwarder",
      "outputs": [
        {
          "internalType": "bool",
          "name": "",
          "type": "bool"
        }
      ],
      "stateMutability": "view",
      "type": "function"
    },
    {
      "inputs": [],
      "name": "kernel",
      "outputs": [
        {
          "internalType": "contract IKernel",
          "name": "",
          "type": "address"
        }
      ],
      "stateMutability": "view",
      "type": "function"
    },
    {
      "inputs": [],
      "name": "merkleTreeRoot",
      "outputs": [
        {
          "internalType": "bytes32",
          "name": "",
          "type": "bytes32"
        }
      ],
      "stateMutability": "view",
      "type": "function"
    },
    {
      "inputs": [],
      "name": "merkleTreeURI",
      "outputs": [
        {
          "internalType": "bytes",
          "name": "",
          "type": "bytes"
        }
      ],
      "stateMutability": "view",
      "type": "function"
    },
    {
      "inputs": [
        {
          "internalType": "address",
          "name": "newBeacon",
          "type": "address"
        },
        {
          "internalType": "address",
          "name": "beaconProxy",
          "type": "address"
        }
      ],
      "name": "migrateToBeacon",
      "outputs": [],
      "stateMutability": "nonpayable",
      "type": "function"
    },
    {
      "inputs": [
        {
          "internalType": "bool",
          "name": "isActive_",
          "type": "bool"
        }
      ],
      "name": "setActive",
      "outputs": [],
      "stateMutability": "nonpayable",
      "type": "function"
    },
    {
      "inputs": [
        {
          "internalType": "bytes32",
          "name": "merkleTreeRoot_",
          "type": "bytes32"
        },
        {
          "internalType": "bytes",
          "name": "merkleTreeURI_",
          "type": "bytes"
        }
      ],
      "name": "setMerkleTree",
      "outputs": [],
      "stateMutability": "nonpayable",
      "type": "function"
    },
    {
      "inputs": [
        {
          "internalType": "address",
          "name": "appCode",
          "type": "address"
        }
      ],
      "name": "upgrade",
      "outputs": [],
      "stateMutability": "nonpayable",
      "type": "function"
    }
  ],
  "transactionHash": "0xaabfcd9d12e8295f99186d6165d727d922afd5867b20da10caa7d09b26a611c7",
  "args": [
    "0x528Ea358b0De7f9CBBe040F4381f5620a029143f"
  ],
  "numDeployments": 3,
  "solcInputHash": "341c9f0e9410711860e07934fbb5f71b",
  "bytecode": "0x6101206040526064805460ff60b01b191690556200001c62000074565b60ff1660a0523480156200002f57600080fd5b506040516200177a3803806200177a83398101604081905262000052916200010c565b6001600160a01b0316608052600160c081905260e052600061010052620001c5565b60645460408051808201909152600a8152692b20a624a220aa24a7a760b11b6020820152600091600f600160b01b90910460ff1610620000d25760405162461bcd60e51b8152600401620000c991906200013e565b60405180910390fd5b5060648054600160b01b900460ff16906016620000ef8362000196565b91906101000a81548160ff021916908360ff160217905550905090565b6000602082840312156200011f57600080fd5b81516001600160a01b03811681146200013757600080fd5b9392505050565b600060208083528351808285015260005b818110156200016d578581018301518582016040015282016200014f565b8181111562000180576000604083870101525b50601f01601f1916929092016040019392505050565b600060ff821660ff811415620001bc57634e487b7160e01b600052601160045260246000fd5b60010192915050565b60805160a05160c05160e0516101005161155b6200021f60003960006108e0015260006108b50152600061088a0152600081816102cc01528181610a6e0152610b1e0152600081816101cc0152610bed015261155b6000f3fe608060405234801561001057600080fd5b506004361061010b5760003560e01c80637effd8a7116100a2578063b00f24cf11610071578063b00f24cf1461026b578063c5542d3f1461027e578063d4aae0c4146102ae578063ee0fc121146102c7578063f716aee91461030057600080fd5b80637effd8a71461021c578063a3eddaae14610224578063a48c072914610245578063acec338a1461025857600080fd5b8063518d08d7116100de578063518d08d714610196578063539927be146101a9578063572b6c05146101bc5780635c60da1b146101fc57600080fd5b80630900f010146101105780630afb09e81461012557806322f3e2d4146101645780634ba8c9f314610181575b600080fd5b61012361011e36600461108e565b610309565b005b6101516101333660046110b2565b61012d60209081526000928352604080842090915290825290205481565b6040519081526020015b60405180910390f35b60c8546101719060ff1681565b604051901515815260200161015b565b6101896103d7565b60405161015b919061113a565b6101236101a4366004611199565b610465565b6101236101b73660046111f5565b610748565b6101716101ca36600461108e565b7f00000000000000000000000000000000000000000000000000000000000000006001600160a01b0390811691161490565b61020461086a565b6040516001600160a01b03909116815260200161015b565b610189610883565b610151610232366004611278565b61012c6020526000908152604090205481565b610123610253366004611291565b610965565b6101236102663660046112d8565b610a6c565b6101236102793660046112f5565b610b1c565b6101896040518060400160405280601181526020017021a620a4a6afa624a6a4aa2fa2a92927a960791b81525081565b606454610204906201000090046001600160a01b031681565b6102ee7f000000000000000000000000000000000000000000000000000000000000000081565b60405160ff909116815260200161015b565b61015160ca5481565b6064546201000090046001600160a01b0316610323610be9565b6001600160a01b0316146040518060400160405280600d81526020016c20aaaa2427a924ad20aa24a7a760991b8152509061037a5760405162461bcd60e51b8152600401610371919061113a565b60405180910390fd5b5080610384610c33565b80546001600160a01b0319166001600160a01b0392831617905560405190821681527ff78721226efe9a1bb678189a16d1554928b9f2192e2cb93eeda83b79fa40007d906020015b60405180910390a150565b60c980546103e490611371565b80601f016020809104026020016040519081016040528092919081815260200182805461041090611371565b801561045d5780601f106104325761010080835404028352916020019161045d565b820191906000526020600020905b81548152906001019060200180831161044057829003601f168201915b505050505081565b60c85460408051808201909152600a8152694e4f545f41435449564560b01b60208201529060ff166104aa5760405162461bcd60e51b8152600401610371919061113a565b5060ca5460408051808201909152600e81526d24a724aa24a0a624ad20aa24a7a760911b6020820152906104f15760405162461bcd60e51b8152600401610371919061113a565b50600081815261012c60209081526040808320546001600160a01b038816845261012d83528184208585529092528220805491929091610530906113c2565b91905081905511156040518060400160405280601181526020017021a620a4a6afa624a6a4aa2fa2a92927a960791b815250906105805760405162461bcd60e51b8152600401610371919061113a565b5060008461058d83610c66565b60405160200161059e9291906113dd565b6040516020818303038152906040528051906020012090506105f78484808060200260200160405190810160405280939291908181526020018383602002808284376000920191909152505060ca549150849050610d6c565b6040518060400160405280600a8152602001692b20a624a220aa24a7a760b11b815250906106385760405162461bcd60e51b8152600401610371919061113a565b506064546040516545524337323160d01b6020820152620100009091046001600160a01b03169063dae3f63490602601604051602081830303815290604052805190602001206040518263ffffffff1660e01b815260040161069c91815260200190565b602060405180830381865afa1580156106b9573d6000803e3d6000fd5b505050506040513d601f19601f820116820180604052508101906106dd9190611415565b604051632cfd300560e01b81526001600160a01b038781166004830152602482018590529190911690632cfd300590604401600060405180830381600087803b15801561072957600080fd5b505af115801561073d573d6000803e3d6000fd5b505050505050505050565b60006107546001610d82565b9050801561076c576064805461ff0019166101001790555b61077586610e0c565b60408051808201909152600a8152692b20a624a220aa24a7a760b11b60208201528483146107b65760405162461bcd60e51b8152600401610371919061113a565b5060005b80851461081b578383828181106107d3576107d3611432565b9050602002013561012c60008888858181106107f1576107f1611432565b9050602002013581526020019081526020016000208190555080610814906113c2565b90506107ba565b508015610862576064805461ff0019169055604051600181527f7f26b83ff96e1f2b6a682f133852f6798a09c465da95921460cefb38474024989060200160405180910390a15b505050505050565b6000610874610c33565b546001600160a01b0316919050565b60606108b07f00000000000000000000000000000000000000000000000000000000000000006030611448565b6108db7f00000000000000000000000000000000000000000000000000000000000000006030611448565b6109067f00000000000000000000000000000000000000000000000000000000000000006030611448565b604051603b60f91b60208201526001600160f81b031960f894851b81166021830152601760f91b6022830181905293851b811660238301526024820193909352921b166025820152602601604051602081830303815290604052905090565b6064546201000090046001600160a01b031661097f610be9565b6001600160a01b0316146040518060400160405280600d81526020016c20aaaa2427a924ad20aa24a7a760991b815250906109cd5760405162461bcd60e51b8152600401610371919061113a565b507fa3f0ad74e5423aebfd80d3ef4346578335a9a72aeaee59ff6cb3582b35133d5080546001600160a01b0319166001600160a01b03841617905580610a11610c33565b80546001600160a01b0319166001600160a01b0392831617905560408051848316815291831660208301527f8d0a39ac1f9e86fa663c9ebacb96ff6336e1aefc4e67397d5aa0bcc7b3b7c74b91015b60405180910390a15050565b7f0000000000000000000000000000000000000000000000000000000000000000610a9681610ed2565b6040518060400160405280600d81526020016c20aaaa2427a924ad20aa24a7a760991b81525090610ada5760405162461bcd60e51b8152600401610371919061113a565b5060c8805460ff19168315159081179091556040519081527f739f22248654acf37bf505bd0621ca0239455fd8f43d16c0491010148ca68f9790602001610a60565b7f0000000000000000000000000000000000000000000000000000000000000000610b4681610ed2565b6040518060400160405280600d81526020016c20aaaa2427a924ad20aa24a7a760991b81525090610b8a5760405162461bcd60e51b8152600401610371919061113a565b5060c85460408051808201909152600a8152694e4f545f41435449564560b01b60208201529060ff16610bd05760405162461bcd60e51b8152600401610371919061113a565b5060ca849055610be260c98484610fdd565b5050505050565b60007f00000000000000000000000000000000000000000000000000000000000000006001600160a01b0316331415610c29575060131936013560601c90565b503390565b905090565b6000610c2e610c6360017f797d7c7d0df25d67e029b044c5bcb2b89d68f6483382b5f85e64485950ed88d161146d565b90565b606060005b60208160ff16108015610c9f5750828160ff1660208110610c8e57610c8e611432565b1a60f81b6001600160f81b03191615155b15610cb457610cad81611484565b9050610c6b565b60008160ff1667ffffffffffffffff811115610cd257610cd26114a4565b6040519080825280601f01601f191660200182016040528015610cfc576020820181803683370190505b50905060005b8260ff168160ff1614610d6457848160ff1660208110610d2457610d24611432565b1a60f81b828260ff1681518110610d3d57610d3d611432565b60200101906001600160f81b031916908160001a905350610d5d81611484565b9050610d02565b509392505050565b600082610d798584610f71565b14949350505050565b606454600090610100900460ff1615610dcb578160ff166001148015610da75750303b155b610dc35760405162461bcd60e51b8152600401610371906114ba565b506000919050565b60645460ff808416911610610df25760405162461bcd60e51b8152600401610371906114ba565b506064805460ff191660ff92909216919091179055600190565b606454610100900460ff16610e775760405162461bcd60e51b815260206004820152602b60248201527f496e697469616c697a61626c653a20636f6e7472616374206973206e6f74206960448201526a6e697469616c697a696e6760a81b6064820152608401610371565b6064805462010000600160b01b031916620100006001600160a01b038481168202929092179283905560405192041681527f4f8cfde3439a1a302c21ca51eec26086efbfd940b8c0279889fc6bb6e73ecc66906020016103cc565b6064546000906201000090046001600160a01b031663ed82f4b8610ef4610be9565b6040516001600160e01b031960e084901b1681526001600160a01b03909116600482015230602482015260ff85166044820152606401602060405180830381865afa158015610f47573d6000803e3d6000fd5b505050506040513d601f19601f82011682018060405250810190610f6b9190611508565b92915050565b600081815b8451811015610d64576000858281518110610f9357610f93611432565b60200260200101519050808311610fb95760008381526020829052604090209250610fca565b600081815260208490526040902092505b5080610fd5816113c2565b915050610f76565b828054610fe990611371565b90600052602060002090601f01602090048101928261100b5760008555611051565b82601f106110245782800160ff19823516178555611051565b82800160010185558215611051579182015b82811115611051578235825591602001919060010190611036565b5061105d929150611061565b5090565b5b8082111561105d5760008155600101611062565b6001600160a01b038116811461108b57600080fd5b50565b6000602082840312156110a057600080fd5b81356110ab81611076565b9392505050565b600080604083850312156110c557600080fd5b82356110d081611076565b946020939093013593505050565b60005b838110156110f95781810151838201526020016110e1565b83811115611108576000848401525b50505050565b600081518084526111268160208601602086016110de565b601f01601f19169290920160200192915050565b6020815260006110ab602083018461110e565b60008083601f84011261115f57600080fd5b50813567ffffffffffffffff81111561117757600080fd5b6020830191508360208260051b850101111561119257600080fd5b9250929050565b600080600080606085870312156111af57600080fd5b84356111ba81611076565b9350602085013567ffffffffffffffff8111156111d657600080fd5b6111e28782880161114d565b9598909750949560400135949350505050565b60008060008060006060868803121561120d57600080fd5b853561121881611076565b9450602086013567ffffffffffffffff8082111561123557600080fd5b61124189838a0161114d565b9096509450604088013591508082111561125a57600080fd5b506112678882890161114d565b969995985093965092949392505050565b60006020828403121561128a57600080fd5b5035919050565b600080604083850312156112a457600080fd5b82356112af81611076565b915060208301356112bf81611076565b809150509250929050565b801515811461108b57600080fd5b6000602082840312156112ea57600080fd5b81356110ab816112ca565b60008060006040848603121561130a57600080fd5b83359250602084013567ffffffffffffffff8082111561132957600080fd5b818601915086601f83011261133d57600080fd5b81358181111561134c57600080fd5b87602082850101111561135e57600080fd5b6020830194508093505050509250925092565b600181811c9082168061138557607f821691505b602082108114156113a657634e487b7160e01b600052602260045260246000fd5b50919050565b634e487b7160e01b600052601160045260246000fd5b60006000198214156113d6576113d66113ac565b5060010190565b6bffffffffffffffffffffffff198360601b168152600082516114078160148501602087016110de565b919091016014019392505050565b60006020828403121561142757600080fd5b81516110ab81611076565b634e487b7160e01b600052603260045260246000fd5b600060ff821660ff84168060ff03821115611465576114656113ac565b019392505050565b60008282101561147f5761147f6113ac565b500390565b600060ff821660ff81141561149b5761149b6113ac565b60010192915050565b634e487b7160e01b600052604160045260246000fd5b6020808252602e908201527f496e697469616c697a61626c653a20636f6e747261637420697320616c72656160408201526d191e481a5b9a5d1a585b1a5e995960921b606082015260800190565b60006020828403121561151a57600080fd5b81516110ab816112ca56fea264697066735822122081b21f5b38524372049dadd2137cf82c170775e9623574e48ea00345395cd7dd64736f6c634300080c0033",
  "devdoc": {
    "author": "SuperdaoTeam",
    "details": "Implementation of https://eips.ethereum.org/EIPS/eip-721[ERC721] Non-Fungible Token Standard, including the Metadata extension, but not including the Enumerable extension, which is available separately as {ERC721Enumerable}.",
    "kind": "dev",
    "methods": {
      "claim(address,bytes32[],bytes32)": {
        "details": "Register an address for `merkleProof` with a given `tierValue`. Note: bytes32 element is generic and can represent various things depending on the whitelisted values."
      },
      "implementation()": {
        "details": "Add appCode for external access"
      },
      "upgrade(address)": {
        "details": "Update via appCode"
      }
    },
    "title": "ERC721WhitelistClaim",
    "version": 1
  },
  "userdoc": {
    "kind": "user",
    "methods": {},
    "version": 1
  },
  "storageLayout": {
    "storage": [
      {
        "astId": 11829,
        "contract": "contracts/apps/ERC721Claim/ERC721WhitelistClaim.sol:ERC721WhitelistClaim",
        "label": "__gap",
        "offset": 0,
        "slot": "0",
        "type": "t_array(t_uint256)100_storage"
      },
      {
        "astId": 130,
        "contract": "contracts/apps/ERC721Claim/ERC721WhitelistClaim.sol:ERC721WhitelistClaim",
        "label": "_initialized",
        "offset": 0,
        "slot": "100",
        "type": "t_uint8"
      },
      {
        "astId": 133,
        "contract": "contracts/apps/ERC721Claim/ERC721WhitelistClaim.sol:ERC721WhitelistClaim",
        "label": "_initializing",
        "offset": 1,
        "slot": "100",
        "type": "t_bool"
      },
      {
        "astId": 8387,
        "contract": "contracts/apps/ERC721Claim/ERC721WhitelistClaim.sol:ERC721WhitelistClaim",
        "label": "kernel",
        "offset": 2,
        "slot": "100",
        "type": "t_contract(IKernel)13380"
      },
      {
        "astId": 8390,
        "contract": "contracts/apps/ERC721Claim/ERC721WhitelistClaim.sol:ERC721WhitelistClaim",
        "label": "_nextRoleId",
        "offset": 22,
        "slot": "100",
        "type": "t_uint8"
      },
      {
        "astId": 8394,
        "contract": "contracts/apps/ERC721Claim/ERC721WhitelistClaim.sol:ERC721WhitelistClaim",
        "label": "__gap",
        "offset": 0,
        "slot": "101",
        "type": "t_array(t_uint256)99_storage"
      },
      {
        "astId": 8637,
        "contract": "contracts/apps/ERC721Claim/ERC721WhitelistClaim.sol:ERC721WhitelistClaim",
        "label": "isActive",
        "offset": 0,
        "slot": "200",
        "type": "t_bool"
      },
      {
        "astId": 8639,
        "contract": "contracts/apps/ERC721Claim/ERC721WhitelistClaim.sol:ERC721WhitelistClaim",
        "label": "merkleTreeURI",
        "offset": 0,
        "slot": "201",
        "type": "t_bytes_storage"
      },
      {
        "astId": 8641,
        "contract": "contracts/apps/ERC721Claim/ERC721WhitelistClaim.sol:ERC721WhitelistClaim",
        "label": "merkleTreeRoot",
        "offset": 0,
        "slot": "202",
        "type": "t_bytes32"
      },
      {
        "astId": 8649,
        "contract": "contracts/apps/ERC721Claim/ERC721WhitelistClaim.sol:ERC721WhitelistClaim",
        "label": "__gap",
        "offset": 0,
        "slot": "203",
        "type": "t_array(t_uint256)97_storage"
      },
      {
        "astId": 8876,
        "contract": "contracts/apps/ERC721Claim/ERC721WhitelistClaim.sol:ERC721WhitelistClaim",
        "label": "claimLimitByTier",
        "offset": 0,
        "slot": "300",
        "type": "t_mapping(t_bytes32,t_uint256)"
      },
      {
        "astId": 8882,
        "contract": "contracts/apps/ERC721Claim/ERC721WhitelistClaim.sol:ERC721WhitelistClaim",
        "label": "claims",
        "offset": 0,
        "slot": "301",
        "type": "t_mapping(t_address,t_mapping(t_bytes32,t_uint256))"
      }
    ],
    "types": {
      "t_address": {
        "encoding": "inplace",
        "label": "address",
        "numberOfBytes": "20"
      },
      "t_array(t_uint256)100_storage": {
        "base": "t_uint256",
        "encoding": "inplace",
        "label": "uint256[100]",
        "numberOfBytes": "3200"
      },
      "t_array(t_uint256)97_storage": {
        "base": "t_uint256",
        "encoding": "inplace",
        "label": "uint256[97]",
        "numberOfBytes": "3104"
      },
      "t_array(t_uint256)99_storage": {
        "base": "t_uint256",
        "encoding": "inplace",
        "label": "uint256[99]",
        "numberOfBytes": "3168"
      },
      "t_bool": {
        "encoding": "inplace",
        "label": "bool",
        "numberOfBytes": "1"
      },
      "t_bytes32": {
        "encoding": "inplace",
        "label": "bytes32",
        "numberOfBytes": "32"
      },
      "t_bytes_storage": {
        "encoding": "bytes",
        "label": "bytes",
        "numberOfBytes": "32"
      },
      "t_contract(IKernel)13380": {
        "encoding": "inplace",
        "label": "contract IKernel",
        "numberOfBytes": "20"
      },
      "t_mapping(t_address,t_mapping(t_bytes32,t_uint256))": {
        "encoding": "mapping",
        "key": "t_address",
        "label": "mapping(address => mapping(bytes32 => uint256))",
        "numberOfBytes": "32",
        "value": "t_mapping(t_bytes32,t_uint256)"
      },
      "t_mapping(t_bytes32,t_uint256)": {
        "encoding": "mapping",
        "key": "t_bytes32",
        "label": "mapping(bytes32 => uint256)",
        "numberOfBytes": "32",
        "value": "t_uint256"
      },
      "t_uint256": {
        "encoding": "inplace",
        "label": "uint256",
        "numberOfBytes": "32"
      },
      "t_uint8": {
        "encoding": "inplace",
        "label": "uint8",
        "numberOfBytes": "1"
      }
    }
  }
}