{
  "address": "0xF550d8F4c4580ae05EDBc57528982B83b1Ee7e56",
  "abi": [
    {
      "inputs": [
        {
          "internalType": "address",
          "name": "trustedForwarder",
          "type": "address"
        },
        {
          "internalType": "contract IUpdateManager",
          "name": "updateManager",
          "type": "address"
        },
        {
          "internalType": "contract ISafe",
          "name": "safeSingleton_",
          "type": "address"
        },
        {
          "internalType": "contract ISafeFactory",
          "name": "safeFactory_",
          "type": "address"
        },
        {
          "internalType": "address",
          "name": "safeFallbackHandler_",
          "type": "address"
        }
      ],
      "stateMutability": "nonpayable",
      "type": "constructor"
    },
    {
      "anonymous": false,
      "inputs": [
        {
          "indexed": false,
          "internalType": "contract IKernel",
          "name": "kernel",
          "type": "address"
        }
      ],
      "name": "Init",
      "type": "event"
    },
    {
      "anonymous": false,
      "inputs": [
        {
          "indexed": false,
          "internalType": "uint8",
          "name": "version",
          "type": "uint8"
        }
      ],
      "name": "Initialized",
      "type": "event"
    },
    {
      "anonymous": false,
      "inputs": [
        {
          "indexed": false,
          "internalType": "address",
          "name": "safe",
          "type": "address"
        },
        {
          "indexed": false,
          "internalType": "bool",
          "name": "treasury",
          "type": "bool"
        },
        {
          "indexed": false,
          "internalType": "bool",
          "name": "controller",
          "type": "bool"
        }
      ],
      "name": "MigratedToSafe",
      "type": "event"
    },
    {
      "anonymous": false,
      "inputs": [
        {
          "indexed": false,
          "internalType": "address",
          "name": "newBeacon",
          "type": "address"
        },
        {
          "indexed": false,
          "internalType": "address",
          "name": "beaconProxy",
          "type": "address"
        }
      ],
      "name": "ProxyMigrated",
      "type": "event"
    },
    {
      "anonymous": false,
      "inputs": [
        {
          "indexed": false,
          "internalType": "address",
          "name": "safe",
          "type": "address"
        }
      ],
      "name": "SafeDeployed",
      "type": "event"
    },
    {
      "anonymous": false,
      "inputs": [
        {
          "indexed": false,
          "internalType": "bytes32",
          "name": "id",
          "type": "bytes32"
        },
        {
          "indexed": false,
          "internalType": "address",
          "name": "app",
          "type": "address"
        },
        {
          "indexed": false,
          "internalType": "bool",
          "name": "isNative",
          "type": "bool"
        }
      ],
      "name": "SetApp",
      "type": "event"
    },
    {
      "anonymous": false,
      "inputs": [
        {
          "indexed": false,
          "internalType": "address",
          "name": "treasury",
          "type": "address"
        }
      ],
      "name": "TreasuryChanged",
      "type": "event"
    },
    {
      "anonymous": false,
      "inputs": [
        {
          "indexed": false,
          "internalType": "address",
          "name": "code",
          "type": "address"
        }
      ],
      "name": "Upgrade",
      "type": "event"
    },
    {
      "inputs": [],
      "name": "KERNEL_ADMIN",
      "outputs": [
        {
          "internalType": "uint8",
          "name": "",
          "type": "uint8"
        }
      ],
      "stateMutability": "view",
      "type": "function"
    },
    {
      "inputs": [],
      "name": "__semver",
      "outputs": [
        {
          "internalType": "string",
          "name": "",
          "type": "string"
        }
      ],
      "stateMutability": "view",
      "type": "function"
    },
    {
      "inputs": [
        {
          "internalType": "bytes32",
          "name": "requesterAppId",
          "type": "bytes32"
        },
        {
          "internalType": "bytes32",
          "name": "appId",
          "type": "bytes32"
        },
        {
          "internalType": "uint8",
          "name": "permissionId",
          "type": "uint8"
        }
      ],
      "name": "addPermission",
      "outputs": [],
      "stateMutability": "nonpayable",
      "type": "function"
    },
    {
      "inputs": [
        {
          "internalType": "bytes32",
          "name": "id",
          "type": "bytes32"
        },
        {
          "internalType": "address",
          "name": "appAddress",
          "type": "address"
        },
        {
          "internalType": "bool",
          "name": "isNative",
          "type": "bool"
        }
      ],
      "name": "connectApp",
      "outputs": [],
      "stateMutability": "nonpayable",
      "type": "function"
    },
    {
      "inputs": [
        {
          "internalType": "bytes32",
          "name": "id",
          "type": "bytes32"
        },
        {
          "internalType": "bytes",
          "name": "initializeAppData",
          "type": "bytes"
        },
        {
          "internalType": "bytes[]",
          "name": "kernelData",
          "type": "bytes[]"
        },
        {
          "internalType": "bytes[]",
          "name": "proxyData",
          "type": "bytes[]"
        }
      ],
      "name": "deployAndConfigure",
      "outputs": [
        {
          "internalType": "address",
          "name": "",
          "type": "address"
        }
      ],
      "stateMutability": "nonpayable",
      "type": "function"
    },
    {
      "inputs": [
        {
          "internalType": "bytes32",
          "name": "id",
          "type": "bytes32"
        },
        {
          "internalType": "bytes",
          "name": "data",
          "type": "bytes"
        }
      ],
      "name": "deployApp",
      "outputs": [
        {
          "internalType": "address",
          "name": "",
          "type": "address"
        }
      ],
      "stateMutability": "nonpayable",
      "type": "function"
    },
    {
      "inputs": [
        {
          "internalType": "address[]",
          "name": "owners",
          "type": "address[]"
        },
        {
          "internalType": "uint256",
          "name": "threshold",
          "type": "uint256"
        }
      ],
      "name": "deploySafe",
      "outputs": [
        {
          "internalType": "address",
          "name": "",
          "type": "address"
        }
      ],
      "stateMutability": "nonpayable",
      "type": "function"
    },
    {
      "inputs": [
        {
          "internalType": "bytes32",
          "name": "id",
          "type": "bytes32"
        }
      ],
      "name": "getAppAddress",
      "outputs": [
        {
          "internalType": "address",
          "name": "",
          "type": "address"
        }
      ],
      "stateMutability": "view",
      "type": "function"
    },
    {
      "inputs": [
        {
          "internalType": "bytes32",
          "name": "entity",
          "type": "bytes32"
        },
        {
          "internalType": "bytes32",
          "name": "app",
          "type": "bytes32"
        }
      ],
      "name": "getPermissions",
      "outputs": [
        {
          "internalType": "bytes2",
          "name": "",
          "type": "bytes2"
        }
      ],
      "stateMutability": "view",
      "type": "function"
    },
    {
      "inputs": [],
      "name": "getTreasury",
      "outputs": [
        {
          "internalType": "address",
          "name": "",
          "type": "address"
        }
      ],
      "stateMutability": "view",
      "type": "function"
    },
    {
      "inputs": [],
      "name": "getUpdateManager",
      "outputs": [
        {
          "internalType": "address",
          "name": "",
          "type": "address"
        }
      ],
      "stateMutability": "view",
      "type": "function"
    },
    {
      "inputs": [
        {
          "internalType": "address",
          "name": "entityAddress",
          "type": "address"
        },
        {
          "internalType": "address",
          "name": "appAddress",
          "type": "address"
        },
        {
          "internalType": "uint8",
          "name": "permissionId",
          "type": "uint8"
        }
      ],
      "name": "hasPermission",
      "outputs": [
        {
          "internalType": "bool",
          "name": "",
          "type": "bool"
        }
      ],
      "stateMutability": "view",
      "type": "function"
    },
    {
      "inputs": [],
      "name": "implementation",
      "outputs": [
        {
          "internalType": "address",
          "name": "",
          "type": "address"
        }
      ],
      "stateMutability": "view",
      "type": "function"
    },
    {
      "inputs": [
        {
          "internalType": "address",
          "name": "sudo",
          "type": "address"
        },
        {
          "internalType": "address",
          "name": "releaseManager",
          "type": "address"
        }
      ],
      "name": "initialize",
      "outputs": [],
      "stateMutability": "nonpayable",
      "type": "function"
    },
    {
      "inputs": [
        {
          "internalType": "address",
          "name": "forwarder",
          "type": "address"
        }
      ],
      "name": "isTrustedForwarder",
      "outputs": [
        {
          "internalType": "bool",
          "name": "",
          "type": "bool"
        }
      ],
      "stateMutability": "view",
      "type": "function"
    },
    {
      "inputs": [],
      "name": "kernel",
      "outputs": [
        {
          "internalType": "contract IKernel",
          "name": "",
          "type": "address"
        }
      ],
      "stateMutability": "view",
      "type": "function"
    },
    {
      "inputs": [
        {
          "internalType": "bytes32",
          "name": "id",
          "type": "bytes32"
        }
      ],
      "name": "migrateApp",
      "outputs": [],
      "stateMutability": "nonpayable",
      "type": "function"
    },
    {
      "inputs": [
        {
          "internalType": "bytes32[]",
          "name": "ids",
          "type": "bytes32[]"
        }
      ],
      "name": "migrateApps",
      "outputs": [],
      "stateMutability": "nonpayable",
      "type": "function"
    },
    {
      "inputs": [
        {
          "internalType": "address",
          "name": "newBeacon",
          "type": "address"
        },
        {
          "internalType": "address",
          "name": "beaconProxy",
          "type": "address"
        }
      ],
      "name": "migrateToBeacon",
      "outputs": [],
      "stateMutability": "nonpayable",
      "type": "function"
    },
    {
      "inputs": [],
      "name": "migrateTreasury",
      "outputs": [],
      "stateMutability": "nonpayable",
      "type": "function"
    },
    {
      "inputs": [
        {
          "internalType": "bytes32",
          "name": "requesterAppId",
          "type": "bytes32"
        },
        {
          "internalType": "bytes32",
          "name": "appId",
          "type": "bytes32"
        },
        {
          "internalType": "uint8",
          "name": "permissionId",
          "type": "uint8"
        }
      ],
      "name": "removePermission",
      "outputs": [],
      "stateMutability": "nonpayable",
      "type": "function"
    },
    {
      "inputs": [
        {
          "internalType": "bytes32",
          "name": "id",
          "type": "bytes32"
        },
        {
          "internalType": "address",
          "name": "appAddress",
          "type": "address"
        },
        {
          "internalType": "bool",
          "name": "isNative",
          "type": "bool"
        }
      ],
      "name": "resetApp",
      "outputs": [],
      "stateMutability": "nonpayable",
      "type": "function"
    },
    {
      "inputs": [],
      "name": "safeFactory",
      "outputs": [
        {
          "internalType": "contract ISafeFactory",
          "name": "",
          "type": "address"
        }
      ],
      "stateMutability": "view",
      "type": "function"
    },
    {
      "inputs": [],
      "name": "safeFallbackHandler",
      "outputs": [
        {
          "internalType": "address",
          "name": "",
          "type": "address"
        }
      ],
      "stateMutability": "view",
      "type": "function"
    },
    {
      "inputs": [],
      "name": "safeSingleton",
      "outputs": [
        {
          "internalType": "contract ISafe",
          "name": "",
          "type": "address"
        }
      ],
      "stateMutability": "view",
      "type": "function"
    },
    {
      "inputs": [
        {
          "internalType": "bytes32[]",
          "name": "appsIds",
          "type": "bytes32[]"
        }
      ],
      "name": "setEvent",
      "outputs": [],
      "stateMutability": "nonpayable",
      "type": "function"
    },
    {
      "inputs": [
        {
          "internalType": "address",
          "name": "treasury",
          "type": "address"
        }
      ],
      "name": "setTreasury",
      "outputs": [],
      "stateMutability": "nonpayable",
      "type": "function"
    },
    {
      "inputs": [
        {
          "internalType": "bytes4",
          "name": "interfaceId",
          "type": "bytes4"
        }
      ],
      "name": "supportsInterface",
      "outputs": [
        {
          "internalType": "bool",
          "name": "",
          "type": "bool"
        }
      ],
      "stateMutability": "view",
      "type": "function"
    },
    {
      "inputs": [
        {
          "internalType": "address",
          "name": "appCode",
          "type": "address"
        }
      ],
      "name": "upgrade",
      "outputs": [],
      "stateMutability": "nonpayable",
      "type": "function"
    },
    {
      "inputs": [
        {
          "internalType": "bytes32",
          "name": "id",
          "type": "bytes32"
        }
      ],
      "name": "upgradeApp",
      "outputs": [],
      "stateMutability": "nonpayable",
      "type": "function"
    },
    {
      "inputs": [
        {
          "internalType": "bytes32",
          "name": "id",
          "type": "bytes32"
        },
        {
          "internalType": "address",
          "name": "appImpl",
          "type": "address"
        }
      ],
      "name": "upgradeAppImpl",
      "outputs": [],
      "stateMutability": "nonpayable",
      "type": "function"
    }
  ],
  "transactionHash": "0x3620f3065ace80259a364bd25f3bc5294177f0680d464cd7346814bd5ce0be26",
  "args": [
    "0x528Ea358b0De7f9CBBe040F4381f5620a029143f",
    "0xDeB6b06E22A5BdFB2d42000074B46F9C2c3861FE",
    "0x3E5c63644E683549055b9Be8653de26E0B4CD36E",
    "0xa6B71E26C5e0845f74c812102Ca7114b6a896AB2",
    "0xf48f2B2d2a534e402487b3ee7C18c33Aec0Fe5e4"
  ],
  "numDeployments": 12,
  "solcInputHash": "341c9f0e9410711860e07934fbb5f71b",
  "bytecode": "0x6101a06040526097805460ff60a01b191690556200001c6200008f565b60ff1660a0523480156200002f57600080fd5b506040516200469538038062004695833981016040819052620000529162000140565b6001600160a01b03948516608052600160c081905260e0526000610100529284166101205290831661014052821661016052166101805262000247565b60975460408051808201909152600a8152692b20a624a220aa24a7a760b11b6020820152600091600f600160a01b90910460ff1610620000ed5760405162461bcd60e51b8152600401620000e49190620001c0565b60405180910390fd5b5060978054600160a01b900460ff169060146200010a8362000218565b91906101000a81548160ff021916908360ff160217905550905090565b6001600160a01b03811681146200013d57600080fd5b50565b600080600080600060a086880312156200015957600080fd5b8551620001668162000127565b6020870151909550620001798162000127565b60408701519094506200018c8162000127565b60608701519093506200019f8162000127565b6080870151909250620001b28162000127565b809150509295509295909350565b600060208083528351808285015260005b81811015620001ef57858101830151858201604001528201620001d1565b8181111562000202576000604083870101525b50601f01601f1916929092016040019392505050565b600060ff821660ff8114156200023e57634e487b7160e01b600052601160045260246000fd5b60010192915050565b60805160a05160c05160e051610100516101205161014051610160516101805161433c620003596000396000818161046b01526109750152600081816102980152610a000152600081816104aa0152610a2e01526000818161025901528181610d46015281816114560152818161165c015261184c01526000611066015260006110390152600061100c0152600081816103bb015281816108f001528181610c2f01528181610cce01528181610d9401528181610e1b01528181610f85015281816110ee0152818161116f01528181611332015281816115b40152818161174f015281816117d201528181611b1401528181611c60015261225601526000818161034d0152611e22015261433c6000f3fe60806040523480156200001157600080fd5b50600436106200020d5760003560e01c80637d2a19321162000125578063d4aae0c411620000af578063eb0a2907116200007a578063eb0a29071462000551578063ed82f4b81462000568578063f0f44260146200057f578063f267ee67146200059657600080fd5b8063d4aae0c414620004e3578063d6f3ebd114620004f7578063dae3f634146200050e578063eaa77176146200053a57600080fd5b8063a03bad5a11620000f0578063a03bad5a1462000465578063a48c0729146200048d578063ac7d146b14620004a4578063b8d84c9714620004cc57600080fd5b80637d2a193214620004075780637effd8a7146200041e57806399c8240f14620004375780639ae398d3146200044e57600080fd5b80634443253711620001a75780635c60da1b11620001725780635c60da1b14620003945780635f6422ba146200039e57806378a259b314620003b55780637b5a3db514620003f057600080fd5b806344432537146200030c578063485cc9551462000323578063572b6c05146200033a57806357ec326d146200037d57600080fd5b8063131e7e1c11620001e8578063131e7e1c14620002925780631e65151314620002ba57806337b1f64a14620002eb5780633b19e84a146200030257600080fd5b806301ffc9a714620002125780630900f010146200023e578063093b9d1c1462000257575b600080fd5b620002296200022336600462002698565b620005a0565b60405190151581526020015b60405180910390f35b620002556200024f366004620026dd565b620005ce565b005b7f00000000000000000000000000000000000000000000000000000000000000005b6040516001600160a01b03909116815260200162000235565b620002797f000000000000000000000000000000000000000000000000000000000000000081565b620002d1620002cb366004620026fd565b6200069d565b6040516001600160f01b0319909116815260200162000235565b62000255620002fc36600462002791565b62000722565b620002796200086c565b620002796200031d36600462002826565b620008ec565b6200025562000334366004620028d1565b62000ae8565b620002296200034b366004620026dd565b7f00000000000000000000000000000000000000000000000000000000000000006001600160a01b0390811691161490565b620002796200038e3660046200295b565b62000cca565b6200027962000d77565b62000255620003af366004620029bd565b62000d92565b620003dd7f000000000000000000000000000000000000000000000000000000000000000081565b60405160ff909116815260200162000235565b6200025562000401366004620029f5565b62000e19565b620002556200041836600462002a2c565b62000f83565b6200042862001004565b60405162000235919062002ac3565b6200025562000448366004620029bd565b620010ec565b620002556200045f36600462002b20565b6200116d565b620002797f000000000000000000000000000000000000000000000000000000000000000081565b620002556200049e366004620028d1565b62001228565b620002797f000000000000000000000000000000000000000000000000000000000000000081565b62000255620004dd36600462002b66565b62001330565b60975462000279906001600160a01b031681565b620002556200050836600462002b66565b620015b2565b620002796200051f36600462002b66565b600090815260fd60205260409020546001600160a01b031690565b620002556200054b36600462002a2c565b6200174d565b620002796200056236600462002b80565b620017ce565b620002296200057936600462002c2e565b62001a28565b6200025562000590366004620026dd565b62001b12565b6200025562001c5e565b60006001600160e01b031982166369a16cfb60e01b1480620005c85750620005c88262001df6565b92915050565b6097546001600160a01b0316620005e462001e1e565b6001600160a01b0316146040518060400160405280600d81526020016c20aaaa2427a924ad20aa24a7a760991b815250906200063e5760405162461bcd60e51b815260040162000635919062002ac3565b60405180910390fd5b50806200064a62001e64565b80546001600160a01b0319166001600160a01b0392831617905560405190821681527ff78721226efe9a1bb678189a16d1554928b9f2192e2cb93eeda83b79fa40007d906020015b60405180910390a150565b600082815260fd602052604081205481908190620006c690600160a01b900461ffff1662001e9a565b600086815260fd6020908152604080832061ffff86168452600101909152902091935091508160108110620006ff57620006ff62002c73565b601091828204019190066002029054906101000a900460f01b9250505092915050565b7322bdc4aa7204f59d78d38d82729be76ca4e6e4df3314620007875760405162461bcd60e51b815260206004820152601b60248201527f796f7520617265206e6f742072656c65617365206d616e616765720000000000604482015260640162000635565b60005b81518110156200086857600060fd6000848481518110620007af57620007af62002c73565b6020908102919091018101518252810191909152604001600020546001600160a01b03169050801562000852577fb4451dc1d344042f29d6aa75262263f590187f01865c4553310c2b928008476b83838151811062000812576200081262002c73565b602002602001015182600160405162000849939291909283526001600160a01b039190911660208301521515604082015260600190565b60405180910390a15b50806200085f8162002c9f565b9150506200078a565b5050565b61025a546000906001600160a01b0316620008d957507f9dffd71004dfaab55bf910c5a0672e6384235f73ad747a585d74609cf1ce97be60005260fd6020527f4fe13797294346b9b66d7f5d79547502d638a09f9c7e4547acf54f609776b90a546001600160a01b031690565b61025a546001600160a01b03165b905090565b60007f00000000000000000000000000000000000000000000000000000000000000006200091a8162001ecd565b6040518060400160405280600d81526020016c20aaaa2427a924ad20aa24a7a760991b81525090620009615760405162461bcd60e51b815260040162000635919062002ac3565b506060600063b63e800d60e01b86866000857f00000000000000000000000000000000000000000000000000000000000000006000806000604051602401620009b298979695949392919062002cbd565b60408051601f198184030181529181526020820180516001600160e01b03166001600160e01b03199094169390931790925290516361b69abd60e01b81529091506000906001600160a01b037f000000000000000000000000000000000000000000000000000000000000000016906361b69abd9062000a59907f000000000000000000000000000000000000000000000000000000000000000090869060040162002d7b565b6020604051808303816000875af115801562000a79573d6000803e3d6000fd5b505050506040513d601f19601f8201168201806040525081019062000a9f919062002da9565b6040516001600160a01b03821681529091507fe4149d154c4c0524542ec2736badd97f88766f32aa613200470d79b810316c349060200160405180910390a19695505050505050565b600062000af6600162001f65565b9050801562000b0f576064805461ff0019166101001790555b62000b1962001ffc565b6040516512d15493915360d21b602082015262000b52906026016040516020818303038152906040528051906020012030600162002033565b604051635355444f60e01b602082015262000b89906024016040516020818303038152906040528051906020012084600062002033565b6040516e2922a622a0a9a2afa6a0a720a3a2a960891b602082015262000bcb90602f016040516020818303038152906040528051906020012083600062002033565b604051635355444f60e01b602082015262000c54906024015b6040516020818303038152906040528051906020012060405160200162000c17906512d15493915360d21b815260060190565b604051602081830303815290604052805190602001207f0000000000000000000000000000000000000000000000000000000000000000620021ab565b6040516e2922a622a0a9a2afa6a0a720a3a2a960891b602082015262000c7d90602f0162000be4565b801562000cc5576064805461ff0019169055604051600181527f7f26b83ff96e1f2b6a682f133852f6798a09c465da95921460cefb3847402498906020015b60405180910390a15b505050565b60007f000000000000000000000000000000000000000000000000000000000000000062000cf88162001ecd565b6040518060400160405280600d81526020016c20aaaa2427a924ad20aa24a7a760991b8152509062000d3f5760405162461bcd60e51b815260040162000635919062002ac3565b5062000d6e7f000000000000000000000000000000000000000000000000000000000000000086868662002252565b95945050505050565b600062000d8362001e64565b546001600160a01b0316919050565b7f000000000000000000000000000000000000000000000000000000000000000062000dbe8162001ecd565b6040518060400160405280600d81526020016c20aaaa2427a924ad20aa24a7a760991b8152509062000e055760405162461bcd60e51b815260040162000635919062002ac3565b5062000e1384848462002393565b50505050565b7f000000000000000000000000000000000000000000000000000000000000000062000e458162001ecd565b6040518060400160405280600d81526020016c20aaaa2427a924ad20aa24a7a760991b8152509062000e8c5760405162461bcd60e51b815260040162000635919062002ac3565b50600083815260fd6020526040902054600160b81b900460ff16801562000ec95750600083815260fd60205260409020546001600160a01b031615155b6040518060400160405280600981526020016812539590549250539560ba1b8152509062000f0c5760405162461bcd60e51b815260040162000635919062002ac3565b50600083815260fd60205260409081902054905162900f0160e41b81526001600160a01b038481166004830152909116908190630900f010906024015b600060405180830381600087803b15801562000f6457600080fd5b505af115801562000f79573d6000803e3d6000fd5b5050505050505050565b7f000000000000000000000000000000000000000000000000000000000000000062000faf8162001ecd565b6040518060400160405280600d81526020016c20aaaa2427a924ad20aa24a7a760991b8152509062000ff65760405162461bcd60e51b815260040162000635919062002ac3565b5062000e138484846200243d565b6060620010337f0000000000000000000000000000000000000000000000000000000000000000603062002dc9565b620010607f0000000000000000000000000000000000000000000000000000000000000000603062002dc9565b6200108d7f0000000000000000000000000000000000000000000000000000000000000000603062002dc9565b604051603b60f91b60208201526001600160f81b031960f894851b81166021830152601760f91b6022830181905293851b811660238301526024820193909352921b166025820152602601604051602081830303815290604052905090565b7f0000000000000000000000000000000000000000000000000000000000000000620011188162001ecd565b6040518060400160405280600d81526020016c20aaaa2427a924ad20aa24a7a760991b815250906200115f5760405162461bcd60e51b815260040162000635919062002ac3565b5062000e13848484620021ab565b7f0000000000000000000000000000000000000000000000000000000000000000620011998162001ecd565b6040518060400160405280600d81526020016c20aaaa2427a924ad20aa24a7a760991b81525090620011e05760405162461bcd60e51b815260040162000635919062002ac3565b5060005b8281101562000e13576200121384848381811062001206576200120662002c73565b90506020020135620015b2565b806200121f8162002c9f565b915050620011e4565b6097546001600160a01b03166200123e62001e1e565b6001600160a01b0316146040518060400160405280600d81526020016c20aaaa2427a924ad20aa24a7a760991b815250906200128f5760405162461bcd60e51b815260040162000635919062002ac3565b507fa3f0ad74e5423aebfd80d3ef4346578335a9a72aeaee59ff6cb3582b35133d5080546001600160a01b0319166001600160a01b03841617905580620012d562001e64565b80546001600160a01b0319166001600160a01b0392831617905560408051848316815291831660208301527f8d0a39ac1f9e86fa663c9ebacb96ff6336e1aefc4e67397d5aa0bcc7b3b7c74b91015b60405180910390a15050565b7f00000000000000000000000000000000000000000000000000000000000000006200135c8162001ecd565b6040518060400160405280600d81526020016c20aaaa2427a924ad20aa24a7a760991b81525090620013a35760405162461bcd60e51b815260040162000635919062002ac3565b50600082815260fd6020526040902054600160b81b900460ff168015620013e05750600082815260fd60205260409020546001600160a01b031615155b6040518060400160405280600981526020016812539590549250539560ba1b81525090620014235760405162461bcd60e51b815260040162000635919062002ac3565b50600082815260fd6020526040808220549051635d08f37360e11b8152600481018590526001600160a01b0391821692917f0000000000000000000000000000000000000000000000000000000000000000169063ba11e6e690602401602060405180830381865afa1580156200149e573d6000803e3d6000fd5b505050506040513d601f19601f82011682018060405250810190620014c4919062002da9565b9050806001600160a01b0316826001600160a01b0316635c60da1b6040518163ffffffff1660e01b8152600401602060405180830381865afa1580156200150f573d6000803e3d6000fd5b505050506040513d601f19601f8201168201806040525081019062001535919062002da9565b6001600160a01b031614156040518060400160405280600981526020016812539590549250539560ba1b81525090620015835760405162461bcd60e51b815260040162000635919062002ac3565b5060405162900f0160e41b81526001600160a01b038281166004830152831690630900f0109060240162000f49565b7f0000000000000000000000000000000000000000000000000000000000000000620015de8162001ecd565b6040518060400160405280600d81526020016c20aaaa2427a924ad20aa24a7a760991b81525090620016255760405162461bcd60e51b815260040162000635919062002ac3565b50600082815260fd6020526040808220549051634828da8560e01b8152600481018590526060926001600160a01b039283169290917f000000000000000000000000000000000000000000000000000000000000000090911690634828da8590602401602060405180830381865afa158015620016a6573d6000803e3d6000fd5b505050506040513d601f19601f82011682018060405250810190620016cc919062002da9565b90506000620016dc828562002520565b60405163a48c072960e01b81526001600160a01b03848116600483015280831660248301529192509084169063a48c072990604401600060405180830381600087803b1580156200172c57600080fd5b505af115801562001741573d6000803e3d6000fd5b50505050505050505050565b7f0000000000000000000000000000000000000000000000000000000000000000620017798162001ecd565b6040518060400160405280600d81526020016c20aaaa2427a924ad20aa24a7a760991b81525090620017c05760405162461bcd60e51b815260040162000635919062002ac3565b5062000e1384848462002033565b60007f0000000000000000000000000000000000000000000000000000000000000000620017fc8162001ecd565b6040518060400160405280600d81526020016c20aaaa2427a924ad20aa24a7a760991b81525090620018435760405162461bcd60e51b815260040162000635919062002ac3565b506000620018747f00000000000000000000000000000000000000000000000000000000000000008b8b8b62002252565b905060005b868110156200194257600080308a8a858181106200189b576200189b62002c73565b9050602002810190620018af919062002df1565b604051620018bf92919062002e3b565b600060405180830381855af49150503d8060008114620018fc576040519150601f19603f3d011682016040523d82523d6000602084013e62001901565b606091505b5091509150818190620019295760405162461bcd60e51b815260040162000635919062002ac3565b5050508080620019399062002c9f565b91505062001879565b5060005b8481101562001a1a57600080836001600160a01b031688888581811062001971576200197162002c73565b905060200281019062001985919062002df1565b6040516200199592919062002e3b565b6000604051808303816000865af19150503d8060008114620019d4576040519150601f19603f3d011682016040523d82523d6000602084013e620019d9565b606091505b509150915081819062001a015760405162461bcd60e51b815260040162000635919062002ac3565b505050808062001a119062002c9f565b91505062001946565b509998505050505050505050565b60008062001a368362002564565b6001600160a01b03808716600090815260fc6020526040808220549288168252902054919250908062001a70576000935050505062001b0b565b600082815260fd6020526040812054819062001a9790600160a01b900461ffff1662001e9a565b600085815260fd6020908152604080832061ffff86168452600101909152902091935091506001600160f01b03198616908690836010811062001ade5762001ade62002c73565b601091828204019190066002029054906101000a900460f01b166001600160f01b03191614955050505050505b9392505050565b7f000000000000000000000000000000000000000000000000000000000000000062001b3e8162001ecd565b6040518060400160405280600d81526020016c20aaaa2427a924ad20aa24a7a760991b8152509062001b855760405162461bcd60e51b815260040162000635919062002ac3565b507f9dffd71004dfaab55bf910c5a0672e6384235f73ad747a585d74609cf1ce97be60005260fd6020527f4fe13797294346b9b66d7f5d79547502d638a09f9c7e4547acf54f609776b90a546001600160a01b03161562001c0e5762001c0e7f9dffd71004dfaab55bf910c5a0672e6384235f73ad747a585d74609cf1ce97be6000806200243d565b61025a80546001600160a01b0319166001600160a01b0384169081179091556040519081527fc714d22a2f08b695f81e7c707058db484aa5b4d6b4c9fd64beb10fe85832f6089060200162001324565b7f000000000000000000000000000000000000000000000000000000000000000062001c8a8162001ecd565b6040518060400160405280600d81526020016c20aaaa2427a924ad20aa24a7a760991b8152509062001cd15760405162461bcd60e51b815260040162000635919062002ac3565b506040805160018082528183019092526000916020808301908036833701905050905060fd600060405160200162001d14906420a226a4a760d91b815260050190565b60408051601f1981840301815291815281516020928301208352828201939093529082016000205482516302d05d3f60e01b815292516001600160a01b03909116926302d05d3f9260048083019391928290030181865afa15801562001d7e573d6000803e3d6000fd5b505050506040513d601f19601f8201168201806040525081019062001da4919062002da9565b8160008151811062001dba5762001dba62002c73565b60200260200101906001600160a01b031690816001600160a01b031681525050600062001de9826001620008ec565b905062000cc58162001b12565b60006001600160e01b031982166304d6e9e760e41b1480620005c85750620005c882620025cc565b60007f00000000000000000000000000000000000000000000000000000000000000006001600160a01b031633141562001e5f575060131936013560601c90565b503390565b6000620008e762001e9760017f797d7c7d0df25d67e029b044c5bcb2b89d68f6483382b5f85e64485950ed88d162002e4b565b90565b6000808062001eab60108562002e7b565b9050600062001ebc60108662002e9f565b919561ffff90921694509092505050565b6097546000906001600160a01b031663ed82f4b862001eeb62001e1e565b6040516001600160e01b031960e084901b1681526001600160a01b03909116600482015230602482015260ff85166044820152606401602060405180830381865afa15801562001f3f573d6000803e3d6000fd5b505050506040513d601f19601f82011682018060405250810190620005c8919062002ec3565b606454600090610100900460ff161562001fb3578160ff16600114801562001f8c5750303b155b62001fab5760405162461bcd60e51b8152600401620006359062002ee3565b506000919050565b60645460ff80841691161062001fdd5760405162461bcd60e51b8152600401620006359062002ee3565b506064805460ff191660ff92909216919091179055600190565b919050565b606454610100900460ff16620020265760405162461bcd60e51b8152600401620006359062002f31565b620020313062002603565b565b600083815260fd60205260409020546001600160a01b03161580156200206f57506001600160a01b038216600090815260fc6020526040902054155b6040518060400160405280600e81526020016d10541417d5d054d7d2539255115160921b81525090620020b75760405162461bcd60e51b815260040162000635919062002ac3565b50600083815260fd6020908152604080832080546001600160a01b031981166001600160a01b038816908117835560fb8054600160b01b6001600160b01b0319909416831761ffff918216600160a01b021761ffff60b01b1916600160b81b8a1515021793909317909355855260fc909352908320869055805490911691620021408362002f7c565b91906101000a81548161ffff021916908361ffff160217905550507fb4451dc1d344042f29d6aa75262263f590187f01865c4553310c2b928008476b83838360405162000cbc939291909283526001600160a01b039190911660208301521515604082015260600190565b600083815260fd60205260408120548190620021d290600160a01b900461ffff1662001e9a565b91509150620021e18362002564565b600085815260fd6020908152604080832061ffff871684526001019091529020826010811062002215576200221562002c73565b601091828204019190066002028282829054906101000a900460f01b1792506101000a81548161ffff021916908360f01c02179055505050505050565b60007f0000000000000000000000000000000000000000000000000000000000000000620022808162001ecd565b6040518060400160405280600d81526020016c20aaaa2427a924ad20aa24a7a760991b81525090620022c75760405162461bcd60e51b815260040162000635919062002ac3565b50604051634828da8560e01b8152600481018690526000906001600160a01b03881690634828da8590602401602060405180830381865afa15801562002311573d6000803e3d6000fd5b505050506040513d601f19601f8201168201806040525081019062002337919062002da9565b905060008186866040516200234c906200267c565b6200235a9392919062002fa1565b604051809103906000f08015801562002377573d6000803e3d6000fd5b509050620023888782600162002033565b979650505050505050565b600083815260fd60205260408120548190620023ba90600160a01b900461ffff1662001e9a565b91509150620023c98362002564565b600085815260fd6020908152604080832061ffff871684526001019091529020901990826010811062002400576200240062002c73565b601091828204019190066002028282829054906101000a900460f01b1692506101000a81548161ffff021916908360f01c02179055505050505050565b6001600160a01b038216600090815260fc6020526040902054838114620024b65760408051808201909152601b81527f414444524553535f4153534f4349415445535f574954485f415050000000000060208201528115620024b45760405162461bcd60e51b815260040162000635919062002ac3565b505b50600083815260fd6020908152604080832080546001600160a01b03908116855260fc8085528386208690558254961515600160b81b0260ff60b81b19600162ff000160a01b031990981698909216978817600160b01b1796909616179055938252919091522055565b6000828260405162002532906200268a565b6200253f92919062002d7b565b604051809103906000f0801580156200255c573d6000803e3d6000fd5b509392505050565b600060108260ff1610604051806040016040528060158152602001741253959053125117d41154935254d4d253d397d251605a1b81525090620025bc5760405162461bcd60e51b815260040162000635919062002ac3565b5050600160ff9091161b60f01b90565b60006001600160e01b03198216631aa5f38f60e11b1480620005c857506001600160e01b031982166301ffc9a760e01b1492915050565b606454610100900460ff166200262d5760405162461bcd60e51b8152600401620006359062002f31565b609780546001600160a01b0319166001600160a01b0383169081179091556040519081527f4f8cfde3439a1a302c21ca51eec26086efbfd940b8c0279889fc6bb6e73ecc669060200162000692565b61099b8062002fe283390190565b61098a806200397d83390190565b600060208284031215620026ab57600080fd5b81356001600160e01b03198116811462001b0b57600080fd5b6001600160a01b0381168114620026da57600080fd5b50565b600060208284031215620026f057600080fd5b813562001b0b81620026c4565b600080604083850312156200271157600080fd5b50508035926020909101359150565b634e487b7160e01b600052604160045260246000fd5b604051601f8201601f1916810167ffffffffffffffff8111828210171562002762576200276262002720565b604052919050565b600067ffffffffffffffff82111562002787576200278762002720565b5060051b60200190565b60006020808385031215620027a557600080fd5b823567ffffffffffffffff811115620027bd57600080fd5b8301601f81018513620027cf57600080fd5b8035620027e6620027e0826200276a565b62002736565b81815260059190911b820183019083810190878311156200280657600080fd5b928401925b8284101562002388578335825292840192908401906200280b565b600080604083850312156200283a57600080fd5b823567ffffffffffffffff8111156200285257600080fd5b8301601f810185136200286457600080fd5b8035602062002877620027e0836200276a565b82815260059290921b830181019181810190888411156200289757600080fd5b938201935b83851015620028c2578435620028b281620026c4565b825293820193908201906200289c565b98969091013596505050505050565b60008060408385031215620028e557600080fd5b8235620028f281620026c4565b915060208301356200290481620026c4565b809150509250929050565b60008083601f8401126200292257600080fd5b50813567ffffffffffffffff8111156200293b57600080fd5b6020830191508360208285010111156200295457600080fd5b9250929050565b6000806000604084860312156200297157600080fd5b83359250602084013567ffffffffffffffff8111156200299057600080fd5b6200299e868287016200290f565b9497909650939450505050565b803560ff8116811462001ff757600080fd5b600080600060608486031215620029d357600080fd5b8335925060208401359150620029ec60408501620029ab565b90509250925092565b6000806040838503121562002a0957600080fd5b8235915060208301356200290481620026c4565b8015158114620026da57600080fd5b60008060006060848603121562002a4257600080fd5b83359250602084013562002a5681620026c4565b9150604084013562002a688162002a1d565b809150509250925092565b6000815180845260005b8181101562002a9b5760208185018101518683018201520162002a7d565b8181111562002aae576000602083870101525b50601f01601f19169290920160200192915050565b60208152600062001b0b602083018462002a73565b60008083601f84011262002aeb57600080fd5b50813567ffffffffffffffff81111562002b0457600080fd5b6020830191508360208260051b85010111156200295457600080fd5b6000806020838503121562002b3457600080fd5b823567ffffffffffffffff81111562002b4c57600080fd5b62002b5a8582860162002ad8565b90969095509350505050565b60006020828403121562002b7957600080fd5b5035919050565b60008060008060008060006080888a03121562002b9c57600080fd5b87359650602088013567ffffffffffffffff8082111562002bbc57600080fd5b62002bca8b838c016200290f565b909850965060408a013591508082111562002be457600080fd5b62002bf28b838c0162002ad8565b909650945060608a013591508082111562002c0c57600080fd5b5062002c1b8a828b0162002ad8565b989b979a50959850939692959293505050565b60008060006060848603121562002c4457600080fd5b833562002c5181620026c4565b9250602084013562002c6381620026c4565b9150620029ec60408501620029ab565b634e487b7160e01b600052603260045260246000fd5b634e487b7160e01b600052601160045260246000fd5b600060001982141562002cb65762002cb662002c89565b5060010190565b6101008082528951908201819052600090610120830190602090818d01845b8281101562002d035781516001600160a01b03168552938301939083019060010162002cdc565b50505083018a90526001600160a01b0389166040840152828103606084015262002d2e818962002a73565b91505062002d4760808301876001600160a01b03169052565b6001600160a01b03851660a083015260ff841660c08301526001600160a01b03831660e08301529998505050505050505050565b6001600160a01b038316815260406020820181905260009062002da19083018462002a73565b949350505050565b60006020828403121562002dbc57600080fd5b815162001b0b81620026c4565b600060ff821660ff84168060ff0382111562002de95762002de962002c89565b019392505050565b6000808335601e1984360301811262002e0957600080fd5b83018035915067ffffffffffffffff82111562002e2557600080fd5b6020019150368190038213156200295457600080fd5b8183823760009101908152919050565b60008282101562002e605762002e6062002c89565b500390565b634e487b7160e01b600052601260045260246000fd5b600061ffff8084168062002e935762002e9362002e65565b92169190910492915050565b600061ffff8084168062002eb75762002eb762002e65565b92169190910692915050565b60006020828403121562002ed657600080fd5b815162001b0b8162002a1d565b6020808252602e908201527f496e697469616c697a61626c653a20636f6e747261637420697320616c72656160408201526d191e481a5b9a5d1a585b1a5e995960921b606082015260800190565b6020808252602b908201527f496e697469616c697a61626c653a20636f6e7472616374206973206e6f74206960408201526a6e697469616c697a696e6760a81b606082015260800190565b600061ffff8083168181141562002f975762002f9762002c89565b6001019392505050565b6001600160a01b03841681526040602082018190528101829052818360608301376000818301606090810191909152601f909201601f191601019291505056fe608060405234801561001057600080fd5b5060405161099b38038061099b83398101604081905261002f9161049c565b818161005c60017fa3f0ad74e5423aebfd80d3ef4346578335a9a72aeaee59ff6cb3582b35133d5161055c565b6000805160206109548339815191521461007857610078610581565b6100848282600061008d565b50505050610601565b61009683610158565b6040516001600160a01b038416907f1cf3b03a6cf19fa2baba4df148e9dcabedea7f8a5c07840e207e5c089be95d3e90600090a26000825111806100d75750805b1561015357610151836001600160a01b0316635c60da1b6040518163ffffffff1660e01b8152600401602060405180830381865afa15801561011d573d6000803e3d6000fd5b505050506040513d601f19601f820116820180604052508101906101419190610597565b836102e960201b6100291760201c565b505b505050565b61016b8161031560201b6100551760201c565b6101ca5760405162461bcd60e51b815260206004820152602560248201527f455243313936373a206e657720626561636f6e206973206e6f74206120636f6e6044820152641d1c9858dd60da1b60648201526084015b60405180910390fd5b61023e816001600160a01b0316635c60da1b6040518163ffffffff1660e01b8152600401602060405180830381865afa15801561020b573d6000803e3d6000fd5b505050506040513d601f19601f8201168201806040525081019061022f9190610597565b61031560201b6100551760201c565b6102a35760405162461bcd60e51b815260206004820152603060248201527f455243313936373a20626561636f6e20696d706c656d656e746174696f6e206960448201526f1cc81b9bdd08184818dbdb9d1c9858dd60821b60648201526084016101c1565b806102c860008051602061095483398151915260001b61032460201b6100641760201c565b80546001600160a01b0319166001600160a01b039290921691909117905550565b606061030e838360405180606001604052806027815260200161097460279139610327565b9392505050565b6001600160a01b03163b151590565b90565b60606001600160a01b0384163b61038f5760405162461bcd60e51b815260206004820152602660248201527f416464726573733a2064656c65676174652063616c6c20746f206e6f6e2d636f6044820152651b9d1c9858dd60d21b60648201526084016101c1565b600080856001600160a01b0316856040516103aa91906105b2565b600060405180830381855af49150503d80600081146103e5576040519150601f19603f3d011682016040523d82523d6000602084013e6103ea565b606091505b5090925090506103fb828286610405565b9695505050505050565b6060831561041457508161030e565b8251156104245782518084602001fd5b8160405162461bcd60e51b81526004016101c191906105ce565b80516001600160a01b038116811461045557600080fd5b919050565b634e487b7160e01b600052604160045260246000fd5b60005b8381101561048b578181015183820152602001610473565b838111156101515750506000910152565b600080604083850312156104af57600080fd5b6104b88361043e565b60208401519092506001600160401b03808211156104d557600080fd5b818501915085601f8301126104e957600080fd5b8151818111156104fb576104fb61045a565b604051601f8201601f19908116603f011681019083821181831017156105235761052361045a565b8160405282815288602084870101111561053c57600080fd5b61054d836020830160208801610470565b80955050505050509250929050565b60008282101561057c57634e487b7160e01b600052601160045260246000fd5b500390565b634e487b7160e01b600052600160045260246000fd5b6000602082840312156105a957600080fd5b61030e8261043e565b600082516105c4818460208701610470565b9190910192915050565b60208152600082518060208401526105ed816040850160208701610470565b601f01601f19169190910160400192915050565b610344806106106000396000f3fe60806040523661001357610011610017565b005b6100115b610027610022610067565b610100565b565b606061004e83836040518060600160405280602781526020016102e860279139610124565b9392505050565b6001600160a01b03163b151590565b90565b600061009a7fa3f0ad74e5423aebfd80d3ef4346578335a9a72aeaee59ff6cb3582b35133d50546001600160a01b031690565b6001600160a01b0316635c60da1b6040518163ffffffff1660e01b8152600401602060405180830381865afa1580156100d7573d6000803e3d6000fd5b505050506040513d601f19601f820116820180604052508101906100fb919061023f565b905090565b3660008037600080366000845af43d6000803e80801561011f573d6000f35b3d6000fd5b60606001600160a01b0384163b6101915760405162461bcd60e51b815260206004820152602660248201527f416464726573733a2064656c65676174652063616c6c20746f206e6f6e2d636f6044820152651b9d1c9858dd60d21b60648201526084015b60405180910390fd5b600080856001600160a01b0316856040516101ac9190610298565b600060405180830381855af49150503d80600081146101e7576040519150601f19603f3d011682016040523d82523d6000602084013e6101ec565b606091505b50915091506101fc828286610206565b9695505050505050565b6060831561021557508161004e565b8251156102255782518084602001fd5b8160405162461bcd60e51b815260040161018891906102b4565b60006020828403121561025157600080fd5b81516001600160a01b038116811461004e57600080fd5b60005b8381101561028357818101518382015260200161026b565b83811115610292576000848401525b50505050565b600082516102aa818460208701610268565b9190910192915050565b60208152600082518060208401526102d3816040850160208701610268565b601f01601f1916919091016040019291505056fe416464726573733a206c6f772d6c6576656c2064656c65676174652063616c6c206661696c6564a264697066735822122079c8b83e76007009a5e8abb4c77e306d1b1950f093e1900da2508afdbd73ef2964736f6c634300080c0033a3f0ad74e5423aebfd80d3ef4346578335a9a72aeaee59ff6cb3582b35133d50416464726573733a206c6f772d6c6576656c2064656c65676174652063616c6c206661696c6564608060405260405161098a38038061098a8339810160408190526100229161048b565b61004d60017fa3f0ad74e5423aebfd80d3ef4346578335a9a72aeaee59ff6cb3582b35133d5161054b565b6000805160206109438339815191521461006957610069610570565b6100758282600061007c565b50506105f0565b61008583610147565b6040516001600160a01b038416907f1cf3b03a6cf19fa2baba4df148e9dcabedea7f8a5c07840e207e5c089be95d3e90600090a26000825111806100c65750805b1561014257610140836001600160a01b0316635c60da1b6040518163ffffffff1660e01b8152600401602060405180830381865afa15801561010c573d6000803e3d6000fd5b505050506040513d601f19601f820116820180604052508101906101309190610586565b836102d860201b6100291760201c565b505b505050565b61015a8161030460201b6100551760201c565b6101b95760405162461bcd60e51b815260206004820152602560248201527f455243313936373a206e657720626561636f6e206973206e6f74206120636f6e6044820152641d1c9858dd60da1b60648201526084015b60405180910390fd5b61022d816001600160a01b0316635c60da1b6040518163ffffffff1660e01b8152600401602060405180830381865afa1580156101fa573d6000803e3d6000fd5b505050506040513d601f19601f8201168201806040525081019061021e9190610586565b61030460201b6100551760201c565b6102925760405162461bcd60e51b815260206004820152603060248201527f455243313936373a20626561636f6e20696d706c656d656e746174696f6e206960448201526f1cc81b9bdd08184818dbdb9d1c9858dd60821b60648201526084016101b0565b806102b760008051602061094383398151915260001b61031360201b6100641760201c565b80546001600160a01b0319166001600160a01b039290921691909117905550565b60606102fd838360405180606001604052806027815260200161096360279139610316565b9392505050565b6001600160a01b03163b151590565b90565b60606001600160a01b0384163b61037e5760405162461bcd60e51b815260206004820152602660248201527f416464726573733a2064656c65676174652063616c6c20746f206e6f6e2d636f6044820152651b9d1c9858dd60d21b60648201526084016101b0565b600080856001600160a01b03168560405161039991906105a1565b600060405180830381855af49150503d80600081146103d4576040519150601f19603f3d011682016040523d82523d6000602084013e6103d9565b606091505b5090925090506103ea8282866103f4565b9695505050505050565b606083156104035750816102fd565b8251156104135782518084602001fd5b8160405162461bcd60e51b81526004016101b091906105bd565b80516001600160a01b038116811461044457600080fd5b919050565b634e487b7160e01b600052604160045260246000fd5b60005b8381101561047a578181015183820152602001610462565b838111156101405750506000910152565b6000806040838503121561049e57600080fd5b6104a78361042d565b60208401519092506001600160401b03808211156104c457600080fd5b818501915085601f8301126104d857600080fd5b8151818111156104ea576104ea610449565b604051601f8201601f19908116603f0116810190838211818310171561051257610512610449565b8160405282815288602084870101111561052b57600080fd5b61053c83602083016020880161045f565b80955050505050509250929050565b60008282101561056b57634e487b7160e01b600052601160045260246000fd5b500390565b634e487b7160e01b600052600160045260246000fd5b60006020828403121561059857600080fd5b6102fd8261042d565b600082516105b381846020870161045f565b9190910192915050565b60208152600082518060208401526105dc81604085016020870161045f565b601f01601f19169190910160400192915050565b610344806105ff6000396000f3fe60806040523661001357610011610017565b005b6100115b610027610022610067565b610100565b565b606061004e83836040518060600160405280602781526020016102e860279139610124565b9392505050565b6001600160a01b03163b151590565b90565b600061009a7fa3f0ad74e5423aebfd80d3ef4346578335a9a72aeaee59ff6cb3582b35133d50546001600160a01b031690565b6001600160a01b0316635c60da1b6040518163ffffffff1660e01b8152600401602060405180830381865afa1580156100d7573d6000803e3d6000fd5b505050506040513d601f19601f820116820180604052508101906100fb919061023f565b905090565b3660008037600080366000845af43d6000803e80801561011f573d6000f35b3d6000fd5b60606001600160a01b0384163b6101915760405162461bcd60e51b815260206004820152602660248201527f416464726573733a2064656c65676174652063616c6c20746f206e6f6e2d636f6044820152651b9d1c9858dd60d21b60648201526084015b60405180910390fd5b600080856001600160a01b0316856040516101ac9190610298565b600060405180830381855af49150503d80600081146101e7576040519150601f19603f3d011682016040523d82523d6000602084013e6101ec565b606091505b50915091506101fc828286610206565b9695505050505050565b6060831561021557508161004e565b8251156102255782518084602001fd5b8160405162461bcd60e51b815260040161018891906102b4565b60006020828403121561025157600080fd5b81516001600160a01b038116811461004e57600080fd5b60005b8381101561028357818101518382015260200161026b565b83811115610292576000848401525b50505050565b600082516102aa818460208701610268565b9190910192915050565b60208152600082518060208401526102d3816040850160208701610268565b601f01601f1916919091016040019291505056fe416464726573733a206c6f772d6c6576656c2064656c65676174652063616c6c206661696c6564a26469706673582212203d9469a09e9a2f82def3b35573276a9594058cb06040a555eee3c42778709b4c64736f6c634300080c0033a3f0ad74e5423aebfd80d3ef4346578335a9a72aeaee59ff6cb3582b35133d50416464726573733a206c6f772d6c6576656c2064656c65676174652063616c6c206661696c6564a264697066735822122069dcc12e8d055c7386e450a6653aadf738641f8e574ff8e53731483bddccb35f64736f6c634300080c0033",
  "devdoc": {
    "author": "SuperdaoTeam",
    "kind": "dev",
    "methods": {
      "addPermission(bytes32,bytes32,uint8)": {
        "details": "Adds Permission via requesting requesterAppId, appId, and permissionId for KERNEL_ADMIN"
      },
      "connectApp(bytes32,address,bool)": {
        "details": "Connects via requesting KERNEL_AdMIN rights and setting specific id and address."
      },
      "constructor": {
        "details": "This is the constructor which registers trustedForwarder in AppManager."
      },
      "deployAndConfigure(bytes32,bytes,bytes[],bytes[])": {
        "details": "Convenience method to initialize an App through kernel and to proceed calls in the App: altogether in 1 transaction."
      },
      "getAppAddress(bytes32)": {
        "details": "Gets an address by connecting app's id."
      },
      "getPermissions(bytes32,bytes32)": {
        "details": "Gets Permissions by checking the right row and column via index-matching"
      },
      "getUpdateManager()": {
        "details": "Returns externally accessible address."
      },
      "hasPermission(address,address,uint8)": {
        "details": "As in functions addPermission and removePermission, takes the same variables, but returns a specific permissionId. It is needed to check for the presence of certain rights at a certain address, it outputs true/false."
      },
      "implementation()": {
        "details": "Add appCode for external access"
      },
      "initialize(address,address)": {
        "details": "Via updateManager folder initializes storage space, address, SUDO, Kernel details, permissions."
      },
      "removePermission(bytes32,bytes32,uint8)": {
        "details": "The same Permission route, but removes Permission"
      },
      "resetApp(bytes32,address,bool)": {
        "details": "Resets via requesting KERNEL_ADMIN rights and setting specific id and address."
      },
      "upgrade(address)": {
        "details": "Update via appCode"
      },
      "upgradeApp(bytes32)": {
        "details": "Upgrades if address's information is in a correct format, otherwise throws an error INVARIANT_ERROR Then sets new address new code, also by verifing that app.implementation does not equal newCode. Else: sends INVARIANT_ERROR."
      },
      "upgradeAppImpl(bytes32,address)": {
        "details": "Checks if address's information is in a correct format, otherwise throws an error INVARIANT_ERROR Then upgrades App's Implementation information correspondingly."
      }
    },
    "stateVariables": {
      "_updateManager": {
        "custom:oz-upgrades-unsafe-allow": "state-variable-immutable"
      }
    },
    "title": "Kernel",
    "version": 1
  },
  "userdoc": {
    "kind": "user",
    "methods": {
      "supportsInterface(bytes4)": {
        "notice": "TODO: Add support ERC-165 interface checks."
      }
    },
    "notice": "Initializes and operates with Kernel for Apps.",
    "version": 1
  },
  "storageLayout": {
    "storage": [
      {
        "astId": 11829,
        "contract": "contracts/kernel/Kernel.sol:Kernel",
        "label": "__gap",
        "offset": 0,
        "slot": "0",
        "type": "t_array(t_uint256)100_storage"
      },
      {
        "astId": 130,
        "contract": "contracts/kernel/Kernel.sol:Kernel",
        "label": "_initialized",
        "offset": 0,
        "slot": "100",
        "type": "t_uint8"
      },
      {
        "astId": 133,
        "contract": "contracts/kernel/Kernel.sol:Kernel",
        "label": "_initializing",
        "offset": 1,
        "slot": "100",
        "type": "t_bool"
      },
      {
        "astId": 13510,
        "contract": "contracts/kernel/Kernel.sol:Kernel",
        "label": "__gap",
        "offset": 0,
        "slot": "101",
        "type": "t_array(t_uint256)50_storage"
      },
      {
        "astId": 8387,
        "contract": "contracts/kernel/Kernel.sol:Kernel",
        "label": "kernel",
        "offset": 0,
        "slot": "151",
        "type": "t_contract(IKernel)13380"
      },
      {
        "astId": 8390,
        "contract": "contracts/kernel/Kernel.sol:Kernel",
        "label": "_nextRoleId",
        "offset": 20,
        "slot": "151",
        "type": "t_uint8"
      },
      {
        "astId": 8394,
        "contract": "contracts/kernel/Kernel.sol:Kernel",
        "label": "__gap",
        "offset": 0,
        "slot": "152",
        "type": "t_array(t_uint256)99_storage"
      },
      {
        "astId": 12502,
        "contract": "contracts/kernel/Kernel.sol:Kernel",
        "label": "_nextIndex",
        "offset": 0,
        "slot": "251",
        "type": "t_uint16"
      },
      {
        "astId": 12507,
        "contract": "contracts/kernel/Kernel.sol:Kernel",
        "label": "_appIdByAddress",
        "offset": 0,
        "slot": "252",
        "type": "t_mapping(t_address,t_bytes32)"
      },
      {
        "astId": 12512,
        "contract": "contracts/kernel/Kernel.sol:Kernel",
        "label": "_appInfo",
        "offset": 0,
        "slot": "253",
        "type": "t_mapping(t_bytes32,t_struct(AppInfo)12500_storage)"
      },
      {
        "astId": 12516,
        "contract": "contracts/kernel/Kernel.sol:Kernel",
        "label": "__gap",
        "offset": 0,
        "slot": "254",
        "type": "t_array(t_uint256)97_storage"
      },
      {
        "astId": 11875,
        "contract": "contracts/kernel/Kernel.sol:Kernel",
        "label": "__gap",
        "offset": 0,
        "slot": "351",
        "type": "t_array(t_uint256)100_storage"
      },
      {
        "astId": 12167,
        "contract": "contracts/kernel/Kernel.sol:Kernel",
        "label": "__gap",
        "offset": 0,
        "slot": "451",
        "type": "t_array(t_uint256)100_storage"
      },
      {
        "astId": 12593,
        "contract": "contracts/kernel/Kernel.sol:Kernel",
        "label": "__gapForUpdateManager",
        "offset": 0,
        "slot": "551",
        "type": "t_array(t_uint256)51_storage"
      },
      {
        "astId": 12595,
        "contract": "contracts/kernel/Kernel.sol:Kernel",
        "label": "_treasury",
        "offset": 0,
        "slot": "602",
        "type": "t_address"
      }
    ],
    "types": {
      "t_address": {
        "encoding": "inplace",
        "label": "address",
        "numberOfBytes": "20"
      },
      "t_array(t_bytes2)16_storage": {
        "base": "t_bytes2",
        "encoding": "inplace",
        "label": "bytes2[16]",
        "numberOfBytes": "32"
      },
      "t_array(t_uint256)100_storage": {
        "base": "t_uint256",
        "encoding": "inplace",
        "label": "uint256[100]",
        "numberOfBytes": "3200"
      },
      "t_array(t_uint256)50_storage": {
        "base": "t_uint256",
        "encoding": "inplace",
        "label": "uint256[50]",
        "numberOfBytes": "1600"
      },
      "t_array(t_uint256)51_storage": {
        "base": "t_uint256",
        "encoding": "inplace",
        "label": "uint256[51]",
        "numberOfBytes": "1632"
      },
      "t_array(t_uint256)97_storage": {
        "base": "t_uint256",
        "encoding": "inplace",
        "label": "uint256[97]",
        "numberOfBytes": "3104"
      },
      "t_array(t_uint256)99_storage": {
        "base": "t_uint256",
        "encoding": "inplace",
        "label": "uint256[99]",
        "numberOfBytes": "3168"
      },
      "t_bool": {
        "encoding": "inplace",
        "label": "bool",
        "numberOfBytes": "1"
      },
      "t_bytes2": {
        "encoding": "inplace",
        "label": "bytes2",
        "numberOfBytes": "2"
      },
      "t_bytes32": {
        "encoding": "inplace",
        "label": "bytes32",
        "numberOfBytes": "32"
      },
      "t_contract(IKernel)13380": {
        "encoding": "inplace",
        "label": "contract IKernel",
        "numberOfBytes": "20"
      },
      "t_mapping(t_address,t_bytes32)": {
        "encoding": "mapping",
        "key": "t_address",
        "label": "mapping(address => bytes32)",
        "numberOfBytes": "32",
        "value": "t_bytes32"
      },
      "t_mapping(t_bytes32,t_struct(AppInfo)12500_storage)": {
        "encoding": "mapping",
        "key": "t_bytes32",
        "label": "mapping(bytes32 => struct BaseStorage.AppInfo)",
        "numberOfBytes": "32",
        "value": "t_struct(AppInfo)12500_storage"
      },
      "t_mapping(t_uint16,t_array(t_bytes2)16_storage)": {
        "encoding": "mapping",
        "key": "t_uint16",
        "label": "mapping(uint16 => bytes2[16])",
        "numberOfBytes": "32",
        "value": "t_array(t_bytes2)16_storage"
      },
      "t_struct(AppInfo)12500_storage": {
        "encoding": "inplace",
        "label": "struct BaseStorage.AppInfo",
        "members": [
          {
            "astId": 12487,
            "contract": "contracts/kernel/Kernel.sol:Kernel",
            "label": "addr",
            "offset": 0,
            "slot": "0",
            "type": "t_address"
          },
          {
            "astId": 12489,
            "contract": "contracts/kernel/Kernel.sol:Kernel",
            "label": "index",
            "offset": 20,
            "slot": "0",
            "type": "t_uint16"
          },
          {
            "astId": 12491,
            "contract": "contracts/kernel/Kernel.sol:Kernel",
            "label": "isActive",
            "offset": 22,
            "slot": "0",
            "type": "t_bool"
          },
          {
            "astId": 12493,
            "contract": "contracts/kernel/Kernel.sol:Kernel",
            "label": "isNative",
            "offset": 23,
            "slot": "0",
            "type": "t_bool"
          },
          {
            "astId": 12499,
            "contract": "contracts/kernel/Kernel.sol:Kernel",
            "label": "slots",
            "offset": 0,
            "slot": "1",
            "type": "t_mapping(t_uint16,t_array(t_bytes2)16_storage)"
          }
        ],
        "numberOfBytes": "64"
      },
      "t_uint16": {
        "encoding": "inplace",
        "label": "uint16",
        "numberOfBytes": "2"
      },
      "t_uint256": {
        "encoding": "inplace",
        "label": "uint256",
        "numberOfBytes": "32"
      },
      "t_uint8": {
        "encoding": "inplace",
        "label": "uint8",
        "numberOfBytes": "1"
      }
    }
  }
}