{
  "address": "0x17264AA33Bf7a7ECd708ABA4649C5ff1FD760a35",
  "abi": [
    {
      "anonymous": false,
      "inputs": [
        {
          "indexed": true,
          "internalType": "bytes32",
          "name": "id",
          "type": "bytes32"
        },
        {
          "indexed": true,
          "internalType": "address",
          "name": "implementation",
          "type": "address"
        },
        {
          "indexed": true,
          "internalType": "address",
          "name": "beacon",
          "type": "address"
        }
      ],
      "name": "BeaconDeployed",
      "type": "event"
    },
    {
      "anonymous": false,
      "inputs": [
        {
          "indexed": true,
          "internalType": "bytes32",
          "name": "id",
          "type": "bytes32"
        },
        {
          "indexed": true,
          "internalType": "address",
          "name": "beacon",
          "type": "address"
        }
      ],
      "name": "BeaconSet",
      "type": "event"
    },
    {
      "anonymous": false,
      "inputs": [
        {
          "indexed": true,
          "internalType": "bytes32",
          "name": "id",
          "type": "bytes32"
        },
        {
          "indexed": true,
          "internalType": "address",
          "name": "implementation",
          "type": "address"
        }
      ],
      "name": "BeaconUpdated",
      "type": "event"
    },
    {
      "anonymous": false,
      "inputs": [
        {
          "indexed": false,
          "internalType": "uint8",
          "name": "version",
          "type": "uint8"
        }
      ],
      "name": "Initialized",
      "type": "event"
    },
    {
      "anonymous": false,
      "inputs": [
        {
          "indexed": true,
          "internalType": "address",
          "name": "previousOwner",
          "type": "address"
        },
        {
          "indexed": true,
          "internalType": "address",
          "name": "newOwner",
          "type": "address"
        }
      ],
      "name": "OwnershipTransferred",
      "type": "event"
    },
    {
      "anonymous": false,
      "inputs": [
        {
          "indexed": false,
          "internalType": "bytes32",
          "name": "app",
          "type": "bytes32"
        },
        {
          "indexed": false,
          "internalType": "address",
          "name": "admin",
          "type": "address"
        }
      ],
      "name": "SetAppCode",
      "type": "event"
    },
    {
      "anonymous": false,
      "inputs": [
        {
          "indexed": false,
          "internalType": "address",
          "name": "code",
          "type": "address"
        }
      ],
      "name": "Upgrade",
      "type": "event"
    },
    {
      "inputs": [],
      "name": "__semver",
      "outputs": [
        {
          "internalType": "string",
          "name": "",
          "type": "string"
        }
      ],
      "stateMutability": "view",
      "type": "function"
    },
    {
      "inputs": [
        {
          "internalType": "bytes32",
          "name": "",
          "type": "bytes32"
        }
      ],
      "name": "beacons",
      "outputs": [
        {
          "internalType": "address",
          "name": "",
          "type": "address"
        }
      ],
      "stateMutability": "view",
      "type": "function"
    },
    {
      "inputs": [
        {
          "internalType": "bytes32",
          "name": "id",
          "type": "bytes32"
        },
        {
          "internalType": "address",
          "name": "implementation_",
          "type": "address"
        }
      ],
      "name": "deployBeacon",
      "outputs": [],
      "stateMutability": "nonpayable",
      "type": "function"
    },
    {
      "inputs": [
        {
          "internalType": "bytes32",
          "name": "id",
          "type": "bytes32"
        }
      ],
      "name": "deployBeaconById",
      "outputs": [],
      "stateMutability": "nonpayable",
      "type": "function"
    },
    {
      "inputs": [
        {
          "internalType": "bytes32[]",
          "name": "ids",
          "type": "bytes32[]"
        }
      ],
      "name": "deployBeaconByIds",
      "outputs": [],
      "stateMutability": "nonpayable",
      "type": "function"
    },
    {
      "inputs": [
        {
          "internalType": "bytes32",
          "name": "app",
          "type": "bytes32"
        }
      ],
      "name": "getAppCodeHistory",
      "outputs": [
        {
          "internalType": "address[]",
          "name": "",
          "type": "address[]"
        }
      ],
      "stateMutability": "view",
      "type": "function"
    },
    {
      "inputs": [
        {
          "internalType": "bytes32",
          "name": "id",
          "type": "bytes32"
        }
      ],
      "name": "getBeacon",
      "outputs": [
        {
          "internalType": "address",
          "name": "",
          "type": "address"
        }
      ],
      "stateMutability": "view",
      "type": "function"
    },
    {
      "inputs": [
        {
          "internalType": "bytes32",
          "name": "id",
          "type": "bytes32"
        }
      ],
      "name": "getImplementation",
      "outputs": [
        {
          "internalType": "address",
          "name": "",
          "type": "address"
        }
      ],
      "stateMutability": "view",
      "type": "function"
    },
    {
      "inputs": [
        {
          "internalType": "bytes32",
          "name": "app",
          "type": "bytes32"
        }
      ],
      "name": "getLastAppCode",
      "outputs": [
        {
          "internalType": "address",
          "name": "",
          "type": "address"
        }
      ],
      "stateMutability": "view",
      "type": "function"
    },
    {
      "inputs": [],
      "name": "implementation",
      "outputs": [
        {
          "internalType": "address",
          "name": "",
          "type": "address"
        }
      ],
      "stateMutability": "view",
      "type": "function"
    },
    {
      "inputs": [
        {
          "internalType": "address",
          "name": "kernel",
          "type": "address"
        },
        {
          "internalType": "address",
          "name": "admin",
          "type": "address"
        },
        {
          "internalType": "address",
          "name": "erc721",
          "type": "address"
        },
        {
          "internalType": "address",
          "name": "erc721OpenSale",
          "type": "address"
        },
        {
          "internalType": "address",
          "name": "erc721WhitelistSale",
          "type": "address"
        }
      ],
      "name": "initialize",
      "outputs": [],
      "stateMutability": "nonpayable",
      "type": "function"
    },
    {
      "inputs": [],
      "name": "owner",
      "outputs": [
        {
          "internalType": "address",
          "name": "",
          "type": "address"
        }
      ],
      "stateMutability": "view",
      "type": "function"
    },
    {
      "inputs": [],
      "name": "renounceOwnership",
      "outputs": [],
      "stateMutability": "nonpayable",
      "type": "function"
    },
    {
      "inputs": [
        {
          "internalType": "bytes32",
          "name": "app",
          "type": "bytes32"
        },
        {
          "internalType": "address",
          "name": "code",
          "type": "address"
        }
      ],
      "name": "setAppCode",
      "outputs": [],
      "stateMutability": "nonpayable",
      "type": "function"
    },
    {
      "inputs": [
        {
          "internalType": "bytes32",
          "name": "id",
          "type": "bytes32"
        },
        {
          "internalType": "address",
          "name": "beacon",
          "type": "address"
        }
      ],
      "name": "setBeacon",
      "outputs": [],
      "stateMutability": "nonpayable",
      "type": "function"
    },
    {
      "inputs": [
        {
          "internalType": "address",
          "name": "newOwner",
          "type": "address"
        }
      ],
      "name": "transferOwnership",
      "outputs": [],
      "stateMutability": "nonpayable",
      "type": "function"
    },
    {
      "inputs": [
        {
          "internalType": "bytes32",
          "name": "id",
          "type": "bytes32"
        },
        {
          "internalType": "address",
          "name": "implementation_",
          "type": "address"
        }
      ],
      "name": "updateBeacon",
      "outputs": [],
      "stateMutability": "nonpayable",
      "type": "function"
    },
    {
      "inputs": [
        {
          "internalType": "address",
          "name": "appCode",
          "type": "address"
        }
      ],
      "name": "upgrade",
      "outputs": [],
      "stateMutability": "nonpayable",
      "type": "function"
    }
  ],
  "transactionHash": "0x98f1cc22970d89dcb2f392cef4bc3e2e0d57270a1a4c3389b363851d75eca551",
  "args": [],
  "numDeployments": 3,
  "solcInputHash": "341c9f0e9410711860e07934fbb5f71b",
  "bytecode": "0x60e060405234801561001057600080fd5b506001608081905260a052600060c05260805160a05160c0516119bb61004f60003960006108c3015260006108960152600061086901526119bb6000f3fe60806040523480156200001157600080fd5b50600436106200012d5760003560e01c8063715018a611620000af578063b454578a116200007a578063b454578a1462000298578063ba11e6e614620002af578063c128a8a914620002c6578063f2fde38b14620002dd578063f49d4f6914620002f457600080fd5b8063715018a6146200023d5780637effd8a714620002475780638da5cb5b14620002605780639499138e146200027257600080fd5b806345cc597411620000fc57806345cc597414620001ad5780634828da8514620001c457806351db225e14620001f05780635c60da1b146200021c5780635e4a8a20146200022657600080fd5b80630900f01014620001325780631459457a146200014b5780633c12804514620001625780633c2e08281462000179575b600080fd5b6200014962000143366004620010d8565b6200030b565b005b620001496200015c366004620010f8565b6200039e565b620001496200017336600462001174565b62000549565b620001906200018a366004620011a7565b620006d6565b6040516001600160a01b0390911681526020015b60405180910390f35b62000149620001be366004620011c1565b62000755565b62000190620001d5366004620011a7565b600090815260ca60205260409020546001600160a01b031690565b6200019062000201366004620011a7565b60ca602052600090815260409020546001600160a01b031681565b62000190620007ce565b620001496200023736600462001174565b620007e9565b6200014962000826565b6200025162000861565b604051620001a491906200123b565b6097546001600160a01b031662000190565b6200028962000283366004620011a7565b62000949565b604051620001a4919062001293565b62000149620002a936600462001174565b62000965565b62000190620002c0366004620011a7565b62000ade565b62000149620002d736600462001174565b62000b20565b62000149620002ee366004620010d8565b62000b59565b6200014962000305366004620011a7565b62000bfb565b6097546001600160a01b03163314620003415760405162461bcd60e51b81526004016200033890620012e2565b60405180910390fd5b806200034c62000cb3565b80546001600160a01b0319166001600160a01b0392831617905560405190821681527ff78721226efe9a1bb678189a16d1554928b9f2192e2cb93eeda83b79fa40007d9060200160405180910390a150565b6000620003ac600162000cee565b90508015620003c5576064805461ff0019166101001790555b620003cf62000d80565b6040516512d15493915360d21b60208201526200040690602601604051602081830303815290604052805190602001208762000db4565b6040516420a226a4a760d91b60208201526200043c90602501604051602081830303815290604052805190602001208662000db4565b6040516545524337323160d01b60208201526200047390602601604051602081830303815290604052805190602001208562000db4565b6040516f4552433732315f4f50454e5f53414c4560801b6020820152620004b490603001604051602081830303815290604052805190602001208462000db4565b604051744552433732315f57484954454c4953545f53414c4560581b6020820152620004fa90603501604051602081830303815290604052805190602001208362000db4565b801562000541576064805461ff0019169055604051600181527f7f26b83ff96e1f2b6a682f133852f6798a09c465da95921460cefb38474024989060200160405180910390a15b505050505050565b6097546001600160a01b03163314620005765760405162461bcd60e51b81526004016200033890620012e2565b600082815260ca6020908152604091829020548251808401909352600a8352692b20a624a220aa24a7a760b11b918301919091526001600160a01b0316620005d35760405162461bcd60e51b81526004016200033891906200123b565b50604080518082019091526017815276105111149154d4d7d254d7d393d517d0d3d395149050d5604a1b60208201526001600160a01b0382163b6200062d5760405162461bcd60e51b81526004016200033891906200123b565b50600082815260ca602052604090819020549051631b2ce7f360e11b81526001600160a01b03838116600483015290911690633659cfe690602401600060405180830381600087803b1580156200068357600080fd5b505af115801562000698573d6000803e3d6000fd5b50506040516001600160a01b03841692508491507f1d24350dad3612e186d7f8b12d49e434fb62c5de2a5d6a164a132e651bf3427790600090a35050565b600081815260ca60209081526040808320548151635c60da1b60e01b815291516001600160a01b0390911692635c60da1b92600480820193918290030181865afa15801562000729573d6000803e3d6000fd5b505050506040513d601f19601f820116820180604052508101906200074f919062001317565b92915050565b6097546001600160a01b03163314620007825760405162461bcd60e51b81526004016200033890620012e2565b60005b81811015620007c957620007b4838383818110620007a757620007a762001337565b9050602002013562000bfb565b80620007c08162001363565b91505062000785565b505050565b6000620007da62000cb3565b546001600160a01b0316919050565b6097546001600160a01b03163314620008165760405162461bcd60e51b81526004016200033890620012e2565b62000822828262000db4565b5050565b6097546001600160a01b03163314620008535760405162461bcd60e51b81526004016200033890620012e2565b6200085f600062000e57565b565b6060620008907f0000000000000000000000000000000000000000000000000000000000000000603062001381565b620008bd7f0000000000000000000000000000000000000000000000000000000000000000603062001381565b620008ea7f0000000000000000000000000000000000000000000000000000000000000000603062001381565b604051603b60f91b60208201526001600160f81b031960f894851b81166021830152601760f91b6022830181905293851b811660238301526024820193909352921b166025820152602601604051602081830303815290604052905090565b600081815260c9602052604090206060906200074f9062000ea9565b6097546001600160a01b03163314620009925760405162461bcd60e51b81526004016200033890620012e2565b600082815260ca6020908152604091829020548251808401909352600a8352692b20a624a220aa24a7a760b11b918301919091526001600160a01b031615620009f05760405162461bcd60e51b81526004016200033891906200123b565b50604080518082019091526017815276105111149154d4d7d254d7d393d517d0d3d395149050d5604a1b60208201526001600160a01b0382163b62000a4a5760405162461bcd60e51b81526004016200033891906200123b565b5060008160405162000a5c90620010b4565b6001600160a01b039091168152602001604051809103906000f08015801562000a89573d6000803e3d6000fd5b50905062000a98838262000ebf565b806001600160a01b0316826001600160a01b0316847f0bd3a149da1e19a8f71291194528cd2b9c829e49ba3b49b79113ac5172a0711a60405160405180910390a4505050565b600081815260c9602052604081206200074f9060019062000aff9062000f72565b62000b0b9190620013a9565b600084815260c9602052604090209062000f7d565b6097546001600160a01b0316331462000b4d5760405162461bcd60e51b81526004016200033890620012e2565b62000822828262000ebf565b6097546001600160a01b0316331462000b865760405162461bcd60e51b81526004016200033890620012e2565b6001600160a01b03811662000bed5760405162461bcd60e51b815260206004820152602660248201527f4f776e61626c653a206e6577206f776e657220697320746865207a65726f206160448201526564647265737360d01b606482015260840162000338565b62000bf88162000e57565b50565b6097546001600160a01b0316331462000c285760405162461bcd60e51b81526004016200033890620012e2565b600081815260c96020526040902062000c419062000f72565b60408051808201909152600a8152692b20a624a220aa24a7a760b11b60208201529062000c835760405162461bcd60e51b81526004016200033891906200123b565b50600081815260c96020526040812062000ca59060019062000aff9062000f72565b905062000822828262000965565b600062000ce962000ce660017f797d7c7d0df25d67e029b044c5bcb2b89d68f6483382b5f85e64485950ed88d1620013a9565b90565b905090565b606454600090610100900460ff161562000d3c578160ff16600114801562000d155750303b155b62000d345760405162461bcd60e51b81526004016200033890620013c3565b506000919050565b60645460ff80841691161062000d665760405162461bcd60e51b81526004016200033890620013c3565b506064805460ff191660ff92909216919091179055600190565b606454610100900460ff1662000daa5760405162461bcd60e51b8152600401620003389062001411565b6200085f62000f8b565b600082815260c96020526040902062000dce908262000fc0565b6040518060400160405280600981526020016812539590549250539560ba1b8152509062000e115760405162461bcd60e51b81526004016200033891906200123b565b50604080518381526001600160a01b03831660208201527f7536c7703d321558d15a6f344db59e1721430eeb9885a88b380f91b70bb0b4ee910160405180910390a15050565b609780546001600160a01b038381166001600160a01b0319831681179093556040519116919082907f8be0079c531659141344cd1fd0a4f28419497f9722a3daafe3b4186f6b6457e090600090a35050565b6060600062000eb88362000fd7565b9392505050565b604080518082019091526017815276105111149154d4d7d254d7d393d517d0d3d395149050d5604a1b60208201526001600160a01b0382163b62000f185760405162461bcd60e51b81526004016200033891906200123b565b50600082815260ca602052604080822080546001600160a01b0319166001600160a01b0385169081179091559051909184917f3ed57857612363895e72cf7336c104d8e2d56d039697bb0d2f59b83a8df6b6759190a35050565b60006200074f825490565b600062000eb8838362001035565b606454610100900460ff1662000fb55760405162461bcd60e51b8152600401620003389062001411565b6200085f3362000e57565b600062000eb8836001600160a01b03841662001062565b6060816000018054806020026020016040519081016040528092919081815260200182805480156200102957602002820191906000526020600020905b81548152602001906001019080831162001014575b50505050509050919050565b60008260000182815481106200104f576200104f62001337565b9060005260206000200154905092915050565b6000818152600183016020526040812054620010ab575081546001818101845560008481526020808220909301849055845484825282860190935260409020919091556200074f565b5060006200074f565b610529806200145d83390190565b6001600160a01b038116811462000bf857600080fd5b600060208284031215620010eb57600080fd5b813562000eb881620010c2565b600080600080600060a086880312156200111157600080fd5b85356200111e81620010c2565b945060208601356200113081620010c2565b935060408601356200114281620010c2565b925060608601356200115481620010c2565b915060808601356200116681620010c2565b809150509295509295909350565b600080604083850312156200118857600080fd5b8235915060208301356200119c81620010c2565b809150509250929050565b600060208284031215620011ba57600080fd5b5035919050565b60008060208385031215620011d557600080fd5b823567ffffffffffffffff80821115620011ee57600080fd5b818501915085601f8301126200120357600080fd5b8135818111156200121357600080fd5b8660208260051b85010111156200122957600080fd5b60209290920196919550909350505050565b600060208083528351808285015260005b818110156200126a578581018301518582016040015282016200124c565b818111156200127d576000604083870101525b50601f01601f1916929092016040019392505050565b6020808252825182820181905260009190848201906040850190845b81811015620012d65783516001600160a01b031683529284019291840191600101620012af565b50909695505050505050565b6020808252818101527f4f776e61626c653a2063616c6c6572206973206e6f7420746865206f776e6572604082015260600190565b6000602082840312156200132a57600080fd5b815162000eb881620010c2565b634e487b7160e01b600052603260045260246000fd5b634e487b7160e01b600052601160045260246000fd5b60006000198214156200137a576200137a6200134d565b5060010190565b600060ff821660ff84168060ff03821115620013a157620013a16200134d565b019392505050565b600082821015620013be57620013be6200134d565b500390565b6020808252602e908201527f496e697469616c697a61626c653a20636f6e747261637420697320616c72656160408201526d191e481a5b9a5d1a585b1a5e995960921b606082015260800190565b6020808252602b908201527f496e697469616c697a61626c653a20636f6e7472616374206973206e6f74206960408201526a6e697469616c697a696e6760a81b60608201526080019056fe608060405234801561001057600080fd5b5060405161052938038061052983398101604081905261002f91610151565b61003833610047565b61004181610097565b50610181565b600080546001600160a01b038381166001600160a01b0319831681178455604051919092169283917f8be0079c531659141344cd1fd0a4f28419497f9722a3daafe3b4186f6b6457e09190a35050565b6100aa8161014260201b61020a1760201c565b6101205760405162461bcd60e51b815260206004820152603360248201527f5570677261646561626c65426561636f6e3a20696d706c656d656e746174696f60448201527f6e206973206e6f74206120636f6e747261637400000000000000000000000000606482015260840160405180910390fd5b600180546001600160a01b0319166001600160a01b0392909216919091179055565b6001600160a01b03163b151590565b60006020828403121561016357600080fd5b81516001600160a01b038116811461017a57600080fd5b9392505050565b610399806101906000396000f3fe608060405234801561001057600080fd5b50600436106100575760003560e01c80633659cfe61461005c5780635c60da1b14610071578063715018a61461009a5780638da5cb5b146100a2578063f2fde38b146100b3575b600080fd5b61006f61006a3660046102fe565b6100c6565b005b6001546001600160a01b03165b6040516001600160a01b03909116815260200160405180910390f35b61006f610139565b6000546001600160a01b031661007e565b61006f6100c13660046102fe565b61016f565b6000546001600160a01b031633146100f95760405162461bcd60e51b81526004016100f09061032e565b60405180910390fd5b61010281610219565b6040516001600160a01b038216907fbc7cd75a20ee27fd9adebab32041f755214dbc6bffa90cc0225b39da2e5c2d3b90600090a250565b6000546001600160a01b031633146101635760405162461bcd60e51b81526004016100f09061032e565b61016d60006102ae565b565b6000546001600160a01b031633146101995760405162461bcd60e51b81526004016100f09061032e565b6001600160a01b0381166101fe5760405162461bcd60e51b815260206004820152602660248201527f4f776e61626c653a206e6577206f776e657220697320746865207a65726f206160448201526564647265737360d01b60648201526084016100f0565b610207816102ae565b50565b6001600160a01b03163b151590565b6001600160a01b0381163b61028c5760405162461bcd60e51b815260206004820152603360248201527f5570677261646561626c65426561636f6e3a20696d706c656d656e746174696f6044820152721b881a5cc81b9bdd08184818dbdb9d1c9858dd606a1b60648201526084016100f0565b600180546001600160a01b0319166001600160a01b0392909216919091179055565b600080546001600160a01b038381166001600160a01b0319831681178455604051919092169283917f8be0079c531659141344cd1fd0a4f28419497f9722a3daafe3b4186f6b6457e09190a35050565b60006020828403121561031057600080fd5b81356001600160a01b038116811461032757600080fd5b9392505050565b6020808252818101527f4f776e61626c653a2063616c6c6572206973206e6f7420746865206f776e657260408201526060019056fea264697066735822122071eddbfd71a7c8e7b1008717bca148b532acd07224b658ba1835eef49ba8cb6964736f6c634300080c0033a264697066735822122075af7af4aea4dd76917040ab647d3fabb1cffab474c4b920370e878c2a3242ad64736f6c634300080c0033",
  "devdoc": {
    "kind": "dev",
    "methods": {
      "owner()": {
        "details": "Returns the address of the current owner."
      },
      "renounceOwnership()": {
        "details": "Leaves the contract without owner. It will not be possible to call `onlyOwner` functions anymore. Can only be called by the current owner. NOTE: Renouncing ownership will leave the contract without an owner, thereby removing any functionality that is only available to the owner."
      },
      "transferOwnership(address)": {
        "details": "Transfers ownership of the contract to a new account (`newOwner`). Can only be called by the current owner."
      }
    },
    "version": 1
  },
  "userdoc": {
    "kind": "user",
    "methods": {},
    "version": 1
  },
  "storageLayout": {
    "storage": [
      {
        "astId": 11829,
        "contract": "contracts/updateManager/UpdateManager.sol:UpdateManager",
        "label": "__gap",
        "offset": 0,
        "slot": "0",
        "type": "t_array(t_uint256)100_storage"
      },
      {
        "astId": 130,
        "contract": "contracts/updateManager/UpdateManager.sol:UpdateManager",
        "label": "_initialized",
        "offset": 0,
        "slot": "100",
        "type": "t_uint8"
      },
      {
        "astId": 133,
        "contract": "contracts/updateManager/UpdateManager.sol:UpdateManager",
        "label": "_initializing",
        "offset": 1,
        "slot": "100",
        "type": "t_bool"
      },
      {
        "astId": 1601,
        "contract": "contracts/updateManager/UpdateManager.sol:UpdateManager",
        "label": "__gap",
        "offset": 0,
        "slot": "101",
        "type": "t_array(t_uint256)50_storage"
      },
      {
        "astId": 10,
        "contract": "contracts/updateManager/UpdateManager.sol:UpdateManager",
        "label": "_owner",
        "offset": 0,
        "slot": "151",
        "type": "t_address"
      },
      {
        "astId": 122,
        "contract": "contracts/updateManager/UpdateManager.sol:UpdateManager",
        "label": "__gap",
        "offset": 0,
        "slot": "152",
        "type": "t_array(t_uint256)49_storage"
      },
      {
        "astId": 15941,
        "contract": "contracts/updateManager/UpdateManager.sol:UpdateManager",
        "label": "_appsCode",
        "offset": 0,
        "slot": "201",
        "type": "t_mapping(t_bytes32,t_struct(AddressSet)6483_storage)"
      },
      {
        "astId": 15945,
        "contract": "contracts/updateManager/UpdateManager.sol:UpdateManager",
        "label": "beacons",
        "offset": 0,
        "slot": "202",
        "type": "t_mapping(t_bytes32,t_address)"
      },
      {
        "astId": 15949,
        "contract": "contracts/updateManager/UpdateManager.sol:UpdateManager",
        "label": "__gap",
        "offset": 0,
        "slot": "203",
        "type": "t_array(t_uint256)98_storage"
      }
    ],
    "types": {
      "t_address": {
        "encoding": "inplace",
        "label": "address",
        "numberOfBytes": "20"
      },
      "t_array(t_bytes32)dyn_storage": {
        "base": "t_bytes32",
        "encoding": "dynamic_array",
        "label": "bytes32[]",
        "numberOfBytes": "32"
      },
      "t_array(t_uint256)100_storage": {
        "base": "t_uint256",
        "encoding": "inplace",
        "label": "uint256[100]",
        "numberOfBytes": "3200"
      },
      "t_array(t_uint256)49_storage": {
        "base": "t_uint256",
        "encoding": "inplace",
        "label": "uint256[49]",
        "numberOfBytes": "1568"
      },
      "t_array(t_uint256)50_storage": {
        "base": "t_uint256",
        "encoding": "inplace",
        "label": "uint256[50]",
        "numberOfBytes": "1600"
      },
      "t_array(t_uint256)98_storage": {
        "base": "t_uint256",
        "encoding": "inplace",
        "label": "uint256[98]",
        "numberOfBytes": "3136"
      },
      "t_bool": {
        "encoding": "inplace",
        "label": "bool",
        "numberOfBytes": "1"
      },
      "t_bytes32": {
        "encoding": "inplace",
        "label": "bytes32",
        "numberOfBytes": "32"
      },
      "t_mapping(t_bytes32,t_address)": {
        "encoding": "mapping",
        "key": "t_bytes32",
        "label": "mapping(bytes32 => address)",
        "numberOfBytes": "32",
        "value": "t_address"
      },
      "t_mapping(t_bytes32,t_struct(AddressSet)6483_storage)": {
        "encoding": "mapping",
        "key": "t_bytes32",
        "label": "mapping(bytes32 => struct EnumerableSet.AddressSet)",
        "numberOfBytes": "32",
        "value": "t_struct(AddressSet)6483_storage"
      },
      "t_mapping(t_bytes32,t_uint256)": {
        "encoding": "mapping",
        "key": "t_bytes32",
        "label": "mapping(bytes32 => uint256)",
        "numberOfBytes": "32",
        "value": "t_uint256"
      },
      "t_struct(AddressSet)6483_storage": {
        "encoding": "inplace",
        "label": "struct EnumerableSet.AddressSet",
        "members": [
          {
            "astId": 6482,
            "contract": "contracts/updateManager/UpdateManager.sol:UpdateManager",
            "label": "_inner",
            "offset": 0,
            "slot": "0",
            "type": "t_struct(Set)6182_storage"
          }
        ],
        "numberOfBytes": "64"
      },
      "t_struct(Set)6182_storage": {
        "encoding": "inplace",
        "label": "struct EnumerableSet.Set",
        "members": [
          {
            "astId": 6177,
            "contract": "contracts/updateManager/UpdateManager.sol:UpdateManager",
            "label": "_values",
            "offset": 0,
            "slot": "0",
            "type": "t_array(t_bytes32)dyn_storage"
          },
          {
            "astId": 6181,
            "contract": "contracts/updateManager/UpdateManager.sol:UpdateManager",
            "label": "_indexes",
            "offset": 0,
            "slot": "1",
            "type": "t_mapping(t_bytes32,t_uint256)"
          }
        ],
        "numberOfBytes": "64"
      },
      "t_uint256": {
        "encoding": "inplace",
        "label": "uint256",
        "numberOfBytes": "32"
      },
      "t_uint8": {
        "encoding": "inplace",
        "label": "uint8",
        "numberOfBytes": "1"
      }
    }
  }
}